:100000000C9467020C9496110C94BD110C94E4119D
:100010000C940B120C948F020C948F020C943212DD
:100020000C948F020C9474180C94980E0C942E104F
:100030000C948F020C948F020C948F020C948F02FC
:100040000C948F020C948F020C948F020C948F02EC
:100050000C9468080C948F020C948F020C94591223
:100060000C948F020C94570A0C94890A0C948F02FA
:100070000C948F020C948F020C948F020C948F02BC
:100080000C9434160C948F020C948F020C948F02F3
:100090000C94501B0C948F020C9497060C948F02B6
:1000A0000C948F020C948F020C948F027D1380139A
:1000B0006F1373137913A113A113A113841388135E
:1000C0008C1392139613A1139C1305010906A10129
:1000D000050719E029E7150025017501950881023A
:1000E000050C95017508150026FF00190029FF81F0
:1000F0000005081901290895087501910205079561
:10010000067508150026E700190029E78100C008D8
:100110000B000202020100090400000102020000BB
:100120000524001001052401010104240206052410
:100130000600010705810310004009040100020ABE
:10014000000000070502024000000705830240008E
:100150000012010002EF0201404F1B069200010154
:1001600002030112010002000000404F1B06920032
:100170000101020301537061726B46756E005553A5
:100180004220494F20426F61726400040309040059
:1001900000000200090F0000030401000C00000031
:1001A0000000000000000000000000000004080241
:1001B00001104080401020408040800802040180EF
:1001C000402010020110801020404020040404044C
:1001D00004030405020202020403020202020606EC
:1001E00006060606040402020204040000000023BE
:1001F00000260029002C002F000000000025002808
:10020000002B002E00310000000000240027002AEF
:10021000002D003000746F20454550524F4D005066
:100220006F736974696F6E732073617665640053D0
:100230006572766F20706F732069733A2000536582
:1002400072766F20706F776572206F7574005365DA
:1002500072766F20706F732069733A200053657255
:10026000766F20706F77657220696E0053657276C5
:100270006F20706F732069733A2000536572766F38
:10028000207265736574206F757400536572766FA4
:1002900020706F732069733A2000536572766F2067
:1002A000726573657420696E2E004B65793A200083
:1002B000636F6D7075746572206E6F772E00506F6E
:1002C000776572696E67206F6E2074686500636F72
:1002D0006D7075746572206E6F77212100506F7795
:1002E0006572696E67206F66662074686500636F6B
:1002F0006D7075746572206E6F7721210052657381
:10030000657474696E6720746865006469736162FE
:100310006C65642E00536572766F2061646A757334
:1003200074206D6F64650053706163652062617253
:1003300020746F20736574006B65797320746F206F
:100340006D6F766520616E6400656E61626C6564D8
:100350002E205072657373206172726F770053653F
:1003600072766F2061646A757374206D6F646500C6
:100370004354524C2B414C542B44454C455445005E
:1003800053656E740053797374656D207265616492
:10039000792121003A006F722077616974207465B9
:1003A0006E207365636F6E647300507265737320A3
:1003B00061206B657920746F20626567696E00004B
:1003C00001324647649E0708090A0B0C0D0E0F10F8
:1003D0001112131415161718191A1B1C1D1E1F2C89
:1003E0002122232425263428292A2B362D37382765
:1003F0001E1F202122232425263A333C2E3E3F4037
:100400004142434445464748494A4B4C4D4E4F5064
:100410005152535455565758595A2F31305E5F3503
:100420000405060708090A0B0C0D0E0F1011121314
:100430001415161718191A1B1C1D7B7C7D7E7FE076
:10044000E1E2E3E4E5E6E788898A8B8C8D8E8F9084
:100450009192939495969798999A9B9C9D9E9FA014
:10046000A1A2A3A4A5A6A7A8A9AAABACADAEAF288C
:10047000292A2BB4B5B6B7B8B9BABBBCBDBEBFC08C
:10048000393A3B3C3D3E3F404142434445CECFD0CC
:10049000D14A4B4C4D4E4F505152DBDCDDDEDFE09C
:1004A000E1E2E3E4E5E6E7E8E9EAEBECEDEEEFF0C4
:1004B000F1F2F3F4F5F6F7F8F9FAFBFCFDFEFF00B4
:1004C0000B047C09B90A280B7D1CD22002211124BF
:1004D0001FBECFEFDAE0DEBFCDBF11E0A0E0B1E09C
:1004E000EAEFFFE402C005900D92A23AB107D9F7F6
:1004F00015E0A2EAB1E001C01D92A432B107E1F714
:1005000012E0C6E6D2E004C02197FE010E94532506
:10051000C036D107C9F70E94340B0C94F0270C9415
:100520000000FC0182818F5BFB01808381E00895E4
:10053000CF93DF93CDB7DEB769970FB6F894DEBFE0
:100540000FBECDBFFC01DB019C919F5F9C93BE0160
:100550006F5F7F4F89E1DB011D928A95E9F729E002
:10056000298384E08A8391E09D8383E08E839F8347
:1005700098872A8721E22B879C8721E12D879F87F7
:1005800022E2288B25E4298B27E02B8B25E02C8B7E
:100590008E8B20E430E0388F2F8B998F82818B8374
:1005A000838180688D8B49E150E080E00E94340EA9
:1005B00069960FB6F894DEBF0FBECDBFDF91CF9125
:1005C0000895FB0120812138B9F423812232A1F45E
:1005D000DC0112962C91129730E04481558142172C
:1005E000530751F421E053962C9345E450E06AEC14
:1005F00070E080E80C94340E80E090E00895CF9392
:10060000DF93EC01FB018A8190E024813581821720
:10061000930709F04AC081819081913A69F4813051
:1006200009F441C0833011F48B8903C08230E9F5AD
:100630008C898093F10037C09132B9F58B3019F471
:1006400082818B8B30C08A3019F482818C8B2BC0D5
:10065000893059F5668177818381833079F4888D7B
:10066000998D6817790709F58E899F890E945B0E1D
:10067000888D998D9068998F888F15C0823041F44C
:100680006130710591F461E070E0CE01459609C0DA
:10069000813059F46830710541F468E070E0CE01B2
:1006A0000A960E945B0E81E001C080E0DF91CF914D
:1006B0000895CF93DF93EC0181E08C838D839E01BD
:1006C0002E5E3F4F3F832E831986188623E331E049
:1006D000398328838B8B8C8B1D8A1F8A1E8A198EE7
:1006E000188E81EC8A8B0E940410BE01DF91CF919D
:1006F0000C94BD0FBC01665F7F4FFC01838148E015
:1007000050E080640C949C0D20E2260F283058F4B1
:1007100041E050E001C0440F2A95EAF7FC01228530
:10072000422B428716C0FC013C9620E030E041910C
:10073000461779F0411105C0FC01E20FF31F6487F1
:1007400008C02F5F3F4F2630310589F780E090E0E9
:10075000089581E090E00895CF93DF9320E2260F83
:10076000283068F4675E21E030E001C0220F6A950E
:10077000EAF72095FC0132852323228736C0FC014D
:100780003C969C012E5E3F4F4081461301C0108273
:100790003196E217F307C1F740E050E0C6E0D0E041
:1007A000252F30E0B901640F711D66307105ECF43E
:1007B000FC01E20FF31F2485211115C04F5FA52F07
:1007C000BE01641B71092A2F30E0FC012617370790
:1007D00030F4E20FF31F25852487AF5FF4CFE60FD7
:1007E000F71F1486DDCF5F5FDBCF81E090E0DF9104
:1007F000CF9108950A9628E0FC0111922A95E9F715
:100800000895CF93DF93EC010E94FA03CE01DF91AC
:10081000CF910C947A0382EA91E00C945903FC0185
:1008200012828FEF8183108213820895FC018381ED
:10083000882331F0611103C08FEF81830895118205
:10084000089586EF93E00E942A1A86EF93E00E94B3
:10085000C51A91E0811190E0892F0895CF93DF931D
:10086000EC016A8386EF93E00E94521A6A81CE01FE
:100870000E9421048B83882329F086EF93E00E9455
:10088000F81588838B8190E0DF91CF910895CF9305
:10089000DF93FC0123812223B1F0EC01818180955B
:1008A00068236083628186EF93E00E942A1A688140
:1008B00086EF93E00E94E11A86EF93E00E94C51A4A
:1008C000282F30E002C020E030E081E090E0232BD0
:1008D00011F080E090E0DF91CF91089508950895A0
:1008E000DC01ED91FC910284F385E02D41E0099556
:1008F00081E090E00895FC01138212822FE331E041
:10090000318320830895DC01ED91FC910084F18511
:10091000E02D6FEF0994DC01ED91FC910284F385E9
:10092000E02D40E0099461E00E948B0480ED97E0A7
:100930000C940413CF93DF93CDB7DEB728970FB68F
:10094000F894DEBF0FBECDBFFC011D8280E48E8314
:1009500094E19F8394E5988719828A8380E18B8351
:1009600080E58C838781481710F04FEF480F908502
:1009700050E0DE01A40FB51F903129F4843019F442
:1009800011969C9102C015969C91690F6068CF01E9
:1009900028960FB6F894DEBF0FBECDBFDF91CF9182
:1009A0000C948B04FC016581262F246025836C60E8
:1009B0000C948B04CF93DF93EC01423018F08C81C0
:1009C00088608C834F836887222329F0413019F493
:1009D0008C8184608C8364E670E080E090E00E940B
:1009E000C8126C8164FD31C0E881F9810284F3850D
:1009F000E02D42E063E0CE01099584E991E10E9497
:100A00000413E881F9810284F385E02D42E063E07C
:100A1000CE01099586E990E00E940413E881F981EE
:100A20000284F385E02D42E063E0CE01099586E97A
:100A300090E00E940413E881F9810284F385E02D9F
:100A400042E062E0CE01099516C06062CE010E94CC
:100A50008B0484E991E10E9404136C816062CE01F1
:100A60000E948B0486E990E00E9404136C8160620E
:100A7000CE010E948B0486E990E00E9404136C81F1
:100A80006062CE010E948B048CE390E00E9404130C
:100A900084E08D83CE010E94D204CE010E94930493
:100AA00082E08E8366E0CE010E948B04CE01DF914E
:100AB000CF910C94830421E001C0220F6A95EAF7DC
:100AC000DC011C962C931C971A965C934E931997F5
:100AD000ED91FC910084F185E02D60E00994FC012A
:100AE00084858823A9F0218532852115310519F4E3
:100AF000611106C007C02130310521F4611102C027
:100B0000858701C015866585CF010E960C94470434
:100B100008950F931F93CF93DF938C01EC012E96D2
:100B2000FC016385CE010E942E04019769F461E007
:100B3000CE010E941604F801148260E0CE010E94EA
:100B4000470481E090E002C080E090E0DF91CF9127
:100B50001F910F9108958F92AF92CF92EF920F93C2
:100B6000CF93DF93CDB7DEB7FC016387148615867C
:100B70001286118681E0982F01C0990F4A95EAF7F5
:100B8000928B982F01C0990F2A95EAF7938B982F93
:100B900001C0990F0A95EAF7948B982F01C0990F1D
:100BA000EA94EAF7958B982F01C0990FCA94EAF757
:100BB000968B982F01C0990FAA94EAF7978B01C0E2
:100BC000880F8A94EAF7808FDF91CF910F91EF9091
:100BD000CF90AF908F9008954F925F926F927F92D7
:100BE0008F92AF92CF92EF920F931F93CF93DF9399
:100BF00000D01F92CDB7DEB73C011A894B885C88C4
:100C00002B834A8369830E947B048FE491E0F30184
:100C100091838083C3010E960E940F042B814A8129
:100C20006981C3010E94AB05A201612FC3010F902E
:100C30000F900F90DF91CF911F910F91EF90CF9078
:100C4000AF908F907F906F905F904F900C945B056A
:100C5000FF920F931F93CF93DF93EC01F62E8C013D
:100C6000025F1F4F9A89692BC8010E9447049A8925
:100C700090956F2D6923C801DF91CF911F910F913E
:100C8000FF900C944704362FFC01759624E060E039
:100C900030FF02C05081652B3695215031962111CD
:100CA000F7CF413011F4FC014489FC012585622B0A
:100CB000642B0C9428060F931F93CF93DF93062F7A
:100CC0000F70423019F440E0602F10C0142F262F0F
:100CD000EC0130E0B90184E0759567958A95E1F7FC
:100CE000CE010E944306412F602FCE01DF91CF91AC
:100CF0001F910F910C9443060F931F93CF93DF9393
:100D000000D01F92CDB7DEB78C012B834A83698355
:100D10000E9489052B814A816981C8010F900F903B
:100D20000F90DF91CF911F910F910C94DA041F92D5
:100D30000F920FB60F9211240F931F932F933F938F
:100D40004F935F936F937F938F939F93AF93BF93D3
:100D5000CF93DF93EF93FF93809106018F5F809392
:100D60000601882329F0ECEBF1E020E030E059C0E7
:100D70000CEB11E0E2ECF1E0C4ECD1E0CE01019724
:100D8000DC014C91CF010197DC01411103C02881A6
:100D90002223F9F02C9130E0808190E0B901681BAA
:100DA000790B1616170644F4442389F0840F911D1D
:100DB0008217930764F40AC0672B49F048814423E3
:100DC00031F0841B9109281739070CF49C0120830A
:100DD00002C08C91808380818823C9F0CF01059760
:100DE000DC018C91AF0142505109D80112962D912E
:100DF0003C911397D9019C91DA01811103C08C9128
:100E0000892B03C08C9180958923D9018C93075F2E
:100E10001F4F39962996B2E000371B0709F0AECF75
:100E2000A2CF808187FD15C0E901C454DE4F8091B7
:100E300006019E8198130DC09981A281B3818C8196
:100E4000911104C09C918095892302C09C91892BAB
:100E50008C933996275F3F4F243B310511F7FF9163
:100E6000EF91DF91CF91BF91AF919F918F917F9142
:100E70006F915F914F913F912F911F910F910F9023
:100E80000FBE0F901F9018951092C00094E09093A1
:100E9000C1001092C2001092C3001092C4001092C0
:100EA000D10092E89093D10090E490937200ECEB23
:100EB000F1E020E030E09FEF9083D901A454BE4FD1
:100EC00011961C9211971382128217961C921797F3
:100ED00018961C923996275F3F4F243B310561F7E6
:100EE000809370020895CF93442339F01092BF008D
:100EF0001092BE009FEF90930601ECEBF1E090E0C2
:100F0000AFEF208187FF03C027FF06C04BC0281723
:100F100019F0AF3F41F404C0658387FDFACF46C0A6
:100F2000208127FDA92F9F5F3996943151F787FDC6
:100F30003DC0AF3F09F43AC0C82F89E0A802D001F4
:100F40001124A454BE4FCC932091700211962C937F
:100F500011978C2F992787FD9095FC01E453FE4F44
:100F6000E491F0E0EE0FFF1FE750FE4F45915491E2
:100F700013965C934E931297FC01E355FE4FE49158
:100F80001496EC93149715966C93211102C060E0AF
:100F900001C061E08C2F0E94DE1361E08C2FCF91A5
:100FA0000C94A213AF3F09F0BECFBCCFCF910895F0
:100FB000282F3FEF639FC001112464E670E00E9478
:100FC000EA24822F0C9473072F923F924F925F92E4
:100FD0006F927F928F929F92AF92BF92CF92DF9249
:100FE000EF92FF920F931F93CF93DF93CDB7DEB7AE
:100FF00027970FB6F894DEBF0FBECDBF89831B01C4
:101000005D834C838CEB91E09F838E8300E010E046
:101010004A01A12CB12C80EFC82E8FE0D82EE12CF4
:10102000F12C2B01612C712C9981EE81FF81808143
:1010300097FF0DC087FF0EC08E819F8109969F8309
:101040008E83075F1F4F043B110571F727C0F9819D
:101050008F13F2CF2114310439F0C701B601A30177
:1010600092010E94122501C020E0C80184549E4FC5
:101070009B838A83FC0127838C819D81892B39F096
:10108000C701B601A50194010E94122501C020E00C
:10109000EA81FB812087F981F7FDCECF27960FB635
:1010A000F894DEBF0FBECDBFDF91CF911F910F919E
:1010B000FF90EF90DF90CF90BF90AF909F908F9078
:1010C0007F906F905F904F903F902F90089508957C
:1010D0001F920F920FB60F9211242F933F934F93AD
:1010E0005F936F937F938F939F93AF93BF93EF9390
:1010F000FF93E0910701F09108010995FF91EF91AD
:10110000BF91AF919F918F917F916F915F914F911F
:101110003F912F910F900FBE0F901F901895CF9376
:10112000DF931F92CDB7DEB76983DC01ED91FC91AF
:101130000280F381E02D41E050E0BE016F5F7F4F00
:1011400009950F90DF91CF910895CF93DF93EC0134
:101150008C859D8597FF05C082E00E946B0D9D8761
:101160008C878C859D85DF91CF91089583E00C94C9
:101170008E0EFC018485958597FD06C082E00E9455
:10118000150D90E00196089582E00E94150D90E003
:101190000895FC018485958597FD05C02FEF3FEFED
:1011A00035872487089582E00C946B0DCF93DF93ED
:1011B000EC0180911401882331F083E00E949C0DA2
:1011C0001816190634F081E090E09B838A8380E052
:1011D00090E0DF91CF910895FC0190819E5F908314
:1011E00042E450E06FE071E080E80C94340EFC01C2
:1011F00081819081913A59F4813209F048C047E0E9
:1012000050E06DE071E080E00E94340E73C09132D6
:10121000F1F5833291F49381892F90E0982F8827FC
:101220002281822BA0E0B0E08093090190930A0113
:10123000A0930B01B0930C015DC0803239F467E0DC
:1012400070E08DE091E00E945B0E06C0823209F0F2
:1012500051C08281809314018091C402882319F0C7
:10126000EEEFFAE002C0E0E0F8E080910D0190912D
:101270000E01A0910F01B0911001803B9440A10597
:10128000B10539F48091140180FF1CC002C080E0D8
:10129000089588E10FB6F894809360001092600082
:1012A0000FBEA895EE3F8AE0F80739F08091FE0A5C
:1012B0009091FF0A918380831DC01092FF0A1092C3
:1012C000FE0A18C0EE3F2AE0F20731F080819181DA
:1012D0009093FF0A8093FE0A87E797E791838083C4
:1012E0009BE088E10FB6F894A895809360000FBE4C
:1012F0009093600081E00895E4E7F2E013821282A7
:1013000088EE93E0A0E0B0E084839583A683B78362
:101310008FE591E0918380838FEF9FEF958784879E
:101320000895FC01918D228D892F90E0805C9F4F64
:10133000821B91098F7399270895FC01918D828DED
:10134000981731F0828DE80FF11D858D90E008959A
:101350008FEF9FEF0895FC01918D828D981761F0BA
:10136000828DDF01A80FB11D5D968C91928D9F5FDC
:101370009F73928F90E008958FEF9FEF08958FEA0B
:101380009AE0892B49F080E090E0892B29F00E94B7
:10139000AF0A81110C9400000895FC01848DDF01D7
:1013A000A80FB11DA35ABF4F2C91848D90E00196D8
:1013B0008F739927848FA689B7892C93A089B189C7
:1013C0008C9180648C93938D848D981306C00288D1
:1013D000F389E02D80818F7D80830895CF93DF9303
:1013E000EC01888D8823C9F0EA89FB89808185FD1D
:1013F00005C0A889B9898C9186FD0FC00FB607FC7E
:10140000F5CF808185FFF2CFA889B9898C9185FFBE
:10141000EDCFCE010E94CD09E7CFDF91CF910895A6
:10142000EF92FF920F931F93CF93DF93EC0181E034
:10143000888F9B8D8C8D981305C0E889F9898081F0
:1014400085FD24C0F62E0B8D10E00F5F1F4F0F732C
:101450001127E02E8C8DE8120CC00FB607FCFACFD6
:10146000E889F989808185FFF5CFCE010E94CD09F9
:10147000F1CF8B8DFE01E80FF11DE35AFF4FF08293
:101480000B8FEA89FB898081806207C0EE89FF8922
:101490006083E889F98980818064808381E090E0BD
:1014A000DF91CF911F910F91FF90EF9008951F92C0
:1014B0000F920FB60F9211242F938F939F93EF9358
:1014C000FF93E091D502F091D6028081E091DB029A
:1014D000F091DC0282FD12C090818091DE028F5F6C
:1014E0008F732091DF02821751F0E091DE02F0E06D
:1014F000EB53FD4F958F8093DE0201C08081FF91F9
:10150000EF919F918F912F910F900FBE0F901F9091
:1015100018951F920F920FB60F9211242F933F939D
:101520004F935F936F937F938F939F93AF93BF93EB
:10153000EF93FF9385EC92E00E94CD09FF91EF912C
:10154000BF91AF919F918F917F916F915F914F91DB
:101550003F912F910F900FBE0F901F90189585EC23
:1015600092E00E94910921E0892B09F420E0822F6A
:101570000895E5ECF2E01382128288EE93E0A0E099
:10158000B0E084839583A683B7838FE691E091834F
:1015900080838DEC90E0958784878CEC90E0978732
:1015A000868788EC90E0918B808B89EC90E0938B20
:1015B000828B8AEC90E0958B848B8EEC90E0978BFD
:1015C000868B118E128E138E148E08958F929F9299
:1015D000AF92BF92CF92DF92EF92FF920F931F9341
:1015E000CF93DF937C018B016C0182E0C80ED11C8C
:1015F0004701E5E08E0E911CC0E0D0E0F60161915C
:101600006F014AE050E0C8010E946B0C5C016EE281
:10161000C8010E94BC0B8A0D9B1DC80FD91FC8149E
:10162000D90461F74AE050E0F7016581C8010E94E2
:101630006B0C8C0F9D1FDF91CF911F910F91FF902D
:10164000EF90DF90CF90BF90AF909F908F900895D4
:10165000E2E6F3E08FE791E09183808312821382C8
:1016600014821582089508950E940F130E94330B6F
:1016700084E793E00E941B0F0E940621CFEBD9E084
:101680000E942A222097E1F30E94BF09F9CF089512
:101690000E945927CF92DF92EF92FF920F931F93F0
:1016A000CF93DF936C017A018B01C0E0D0E0CE15BF
:1016B000DF0589F0D8016D918D01D601ED91FC9186
:1016C0000190F081E02DC6010995892B11F47E016E
:1016D00002C02196ECCFC701DF91CF911F910F91EE
:1016E000FF90EF90DF90CF9008956115710579F02C
:1016F000FB0101900020E9F73197AF01461B570B22
:10170000DC01ED91FC910280F381E02D099480E0F1
:1017100090E00895EF92FF920F931F93CF93DF9382
:101720008C017B01C0E0D0E0F701EC0FFD1F64915C
:10173000662361F0D801ED91FC910190F081E02DDC
:10174000C8010995892B11F02196EECFCE01DF91CA
:10175000CF911F910F91FF90EF900895DB011496A8
:101760004D915C9115976D917C91DC01ED91FC910F
:101770000280F381E02D0994DC01ED91FC91019050
:10178000F081E02D09944F925F926F927F92EF92D9
:10179000FF920F931F93CF93DF93CDB7DEB7A1973F
:1017A0000FB6F894DEBF0FBECDBF7C01FA01CB01AE
:1017B00019A2223008F42AE08E010F5D1F4F422E3D
:1017C000512C612C712CBF01A30192010E941225A2
:1017D000F901CA01015011096A3014F4605D01C0B9
:1017E000695CD8016C93232B242B252B61F7B8015E
:1017F000C7010E94750BA1960FB6F894DEBF0FBE0D
:10180000CDBFDF91CF911F910F91FF90EF907F900F
:101810006F905F904F900895CF92DF92EF92FF927A
:101820000F931F93CF93DF93EC016A017B01211586
:10183000310579F4E881F9810190F081E02D642F80
:10184000DF91CF911F910F91FF90EF90DF90CF909C
:1018500009942A303105E9F477FF1AC06DE20E943D
:10186000BC0B8C0144275527BA014C195D096E0940
:101870007F092AE0CE010E94C30B800F911FDF91E8
:10188000CF911F910F91FF90EF90DF90CF9008952F
:101890002AE0B701A601CE01DF91CF911F910F91F0
:1018A000FF90EF90DF90CF900C94C30B9A01AB01A7
:1018B000662757FD6095762F0C940C0C2115310589
:1018C00041F4DC01ED91FC910190F081E02D642F59
:1018D00009940C94C30B9A01462F50E060E070E02D
:1018E0000C945E0C615030F02091F100FC012083DB
:1018F0000196F8CF289884E680937D03089540915F
:101900007803509179032091760330917703421741
:101910005307B4F49091E8009570E1F39091E800DA
:1019200092FD19C08093F100809178039091790322
:1019300001968F739927892B19F48EEF8093E80015
:101940008091780390917903019690937903809325
:10195000780381E0089580E00895CF92DF92EF92BE
:10196000FF920F931F93CF93DF931F92CDB7DEB7F4
:10197000182F062FE42E862F880F8E5F99830E94E2
:101980007F0C83E00E947F0CF12EC12E9981D92E0D
:101990008C2D8F19801798F4F601E7FE02C0849110
:1019A00001C080810E947F0C182F80E00E947F0C74
:1019B0008123FFEFCF1ADF0A8111EACF01C081E056
:1019C0000F90DF91CF911F910F91FF90EF90DF90DB
:1019D000CF9008958091D70081608093D70080EAEE
:1019E0008093D80089B5806189BD89B5826089BD41
:1019F00009B400FEFDCF61E070E080E090E00E945D
:101A0000C8128091D8008F7C80618093D80080912B
:101A1000E000807F8093E00008952FB7FC012083D1
:101A2000F89467706093E9000895CF93DF931F9255
:101A3000CDB7DEB7682FCE0101960E940D0D8091C3
:101A4000F20099819FBF0F90DF91CF910895EF929F
:101A5000FF920F931F93CF93DF931F92CDB7DEB703
:101A600090917C03992311F057FF03C08FEF9FEFF4
:101A70002AC08A017B01682FCE0101960E940D0DBC
:101A80008091F20090E0A801801791070CF4AC015E
:101A9000842FF70194E6815038F0289890937D03C5
:101AA0002091F1002193F7CF4115510521F080914C
:101AB000F200882321F089818FBFCA0104C08BE620
:101AC0008093E800F8CF0F90DF91CF911F910F9195
:101AD000FF90EF900895CF93DF931F92CDB7DEB7BD
:101AE00041E050E0BE016F5F7F4F0E94270D0197DC
:101AF00019F4898190E002C08FEF9FEF0F90DF9182
:101B0000CF910895CF93DF931F92CDB7DEB7682FA3
:101B1000CE0101960E940D0D9091E800892F8072F0
:101B200095FF04C09091F20080E4891B99819FBFCA
:101B30000F90DF91CF9108956F927F928F929F9235
:101B4000AF92BF92CF92DF92EF92FF920F931F93CB
:101B5000CF93DF931F92CDB7DEB7A82E6B01B42EC3
:101B6000052F80917C03882369F0E42EF52E8AEFFF
:101B7000982E8A2D8072782E9AE3892E8A2D807471
:101B8000682E12C08FEF9FEF54C08A2D0E94820DE5
:101B9000182F81110DC09A949920A1F361E070E093
:101BA00080E090E00E94C812E114F10471F737C0A0
:101BB00090E0E816F9060CF41E2D6A2DCE01019670
:101BC0000E940D0D8091E80085FF26C0812F90E0D6
:101BD000E81AF90A772029F01150A8F01092F100C4
:101BE000FBCFF601A7FE07C0115058F024912093B7
:101BF000F1003196F9CF115020F021912093F1009E
:101C0000FACFC80ED91E8091E80085FF0FC0E114FD
:101C1000F10411F461100AC089818FBFC5CF5D98AE
:101C200084E680937E038B2D902F03C08092E80082
:101C3000F3CF0F90DF91CF911F910F91FF90EF9015
:101C4000DF90CF90BF90AF909F908F907F906F90DC
:101C500008951092E90010927903109278039093FE
:101C60007703809376030895DF92EF92FF920F93AC
:101C70001F93CF93DF93D82E8A017B01E40EF51ECC
:101C8000EB01CE15DF0571F0D7FE03C0FE01849194
:101C900001C088810E947F0C21968111F2CF8FEFC5
:101CA0009FEF01C0C801DF91CF911F910F91FF906D
:101CB000EF90DF900895BF92CF92DF92EF92FF9264
:101CC0000F931F93CF93DF936C018B01EB019BEF7D
:101CD000B92E2097C1F07E01C134D1051CF080E4FB
:101CE000E82EF12C8091E80082FFFCCFC8018C1B0C
:101CF0009D0B6E2D8C0D9D1D0E94720CB092E80004
:101D0000CE19DF09E6CFC801DF91CF911F910F9166
:101D1000FF90EF90DF90CF90BF9008958093E900FF
:101D20008091F200882319F08AE38093E8000895F7
:101D30001F920F920FB60F9211242F933F934F9340
:101D40005F936F937F938F939F93AF93BF93CF9343
:101D5000EF93FF93C091E1008091E100837F809336
:101D6000E1008093E100C3FF0FC01092E90081E021
:101D70008093EB001092EC0082E38093ED001092D0
:101D80007C0388E08093F000C2FF19C083E00E94CA
:101D90008E0E80917E03882339F080917E038150DE
:101DA00080937E03882389F180917D03882339F015
:101DB00080917D03815080937D03882341F1C4FF8E
:101DC00010C08091E2008E7E81608093E20080915D
:101DD000E1008F7E8093E10080917A038E7E8061A6
:101DE00011C0C0FF16C08091E2008E7E806180939A
:101DF000E2008091E1008E7E8093E10080917A0381
:101E00008E7E816080937A0304C05D9ACDCF289A3C
:101E1000D6CFFF91EF91CF91BF91AF919F918F91CD
:101E20007F916F915F914F913F912F910F900FBED6
:101E30000F901F90189510927C0310927B031092C4
:101E40007A030E94EA0C8091E1008E7E8093E1008B
:101E50008DE08093E200559A209AEEEFFFE785919E
:101E600094918B3F9C4D19F481E08093C4020895B6
:101E7000EF92FF920F931F93CF93DF937B01FC01AF
:101E8000C281D38100E010E0209781F0E881F981E0
:101E90000280F381E02DB701CE01099597FD08C0BE
:101EA000080F191F0884D985C02DEECFC80102C0C4
:101EB0008FEF9FEFDF91CF911F910F91FF90EF90E8
:101EC00008950F931F93CF93DF938B01FC01C28181
:101ED000D381209771F0E881F9810480F581E02DAC
:101EE000B801CE010995009731F40884D985C02D39
:101EF000F0CF80E090E0DF91CF911F910F91089596
:101F00000F931F93CF93DF938B01FC01C281D38189
:101F1000209771F0E881F9810680F781E02DB80102
:101F2000CE010995080F111D0884D985C02DF0CF69
:101F3000F8011082DF91CF911F910F9108950F93B7
:101F40001F93CF93DF938B01FC01C281D381209734
:101F500071F0E881F9810190F081E02DB801CE01A6
:101F60000995811105C00884D985C02DF0CF80E086
:101F7000DF91CF911F910F910895CF93DF93FC01D3
:101F8000DB01218114968C91149790E0820F911DB2
:101F90000897B4F5C281D381209719F473836283C3
:101FA00008C088859985009711F0EC01FACFB987B0
:101FB000A887808112968C931297818113968C93B7
:101FC0001397908115968C911597890F808380E0E7
:101FD00014969C911497891788F41696CD91DC91EC
:101FE0001797C80FD11D9881C181D0E0CB5EDE4F1D
:101FF000988391819F5F91838F5FEACF81E001C0D9
:1020000080E0DF91CF91089580916C0381110DC024
:1020100082E08093680384E08093690310926B03ED
:1020200010926A0381E080936C0388E693E0089540
:10203000CF93DF931F92CDB7DEB71982CE01019601
:102040000E94EC080E940410BE016F5F7F4F0E9447
:10205000380F89810F90DF91CF9108951F920F92D1
:102060000FB60F921124CF92DF92EF92FF920F934F
:102070001F932F933F934F935F936F937F938F9310
:102080009F93AF93BF93EF93FF93CF93DF93CDB71E
:10209000DEB76C97DEBFCDBF1092E9008091E800FB
:1020A00083FF24C168E0CE0145960E94720C82EF46
:1020B0008093E8008D8987FF05C09091E80090FF2C
:1020C000FCCF03C09EEF9093E800982F907609F024
:1020D000F1C09E892F89188D91110CC0803829F488
:1020E00080917B038093F10002C01092F100109266
:1020F000F100F5C0422F50E0512B913051F4811185
:10210000EEC04130510509F0EAC080917B038D7F1C
:102110000BC0933061F48111E2C04130510509F0E8
:10212000DEC080917B03826080937B03D8C09530B2
:1021300041F48091E80080FFFCCF20682093E30009
:10214000CEC0963009F08CC0EB8CFC8C123069F557
:1021500080E090E00E94290E0E94181099E09E01F4
:102160002F5F3F4F6901F901292F11922A95E9F755
:1021700099831A8391E09E8390EA98879AEF9987D2
:102180002091780330917903275F3F4F3C832B8365
:102190008D83C7010E94290E49E050E0B60180E01E
:1021A0000E94340E0E9418109AC0C7010E94290E86
:1021B0000E940410BE016B5E7F4F0E94610F00976A
:1021C00019F00CF08CC08FC0113071F48B8D9C8D88
:1021D000089719F481E0809375038091750381114C
:1021E0002FC063E671E031C0133009F07CC08F89E5
:1021F000882349F1823029F440E86CE08EE791E0D1
:1022000006C0813039F440E868E085E791E00E943B
:10221000AD0C63C0833009F066C00E9404108E01CB
:102220000F5F1F4FB8010E94800FF801019000203E
:10223000E9F73197BF01601B710B40E0C801E7CFA0
:1022400061E571E002C06BE871E06115710509F4A8
:102250004AC0FB01449150E080E80E94340E3FC028
:10226000973009F440C0983021F481E08093F10068
:1022700036C09930A1F58370B1F5E6E1F1E081E077
:1022800021E036E39081992361F08093E900209367
:10229000EB0091919093EC003093ED008F5F8730CD
:1022A00089F78EE78093EA001092EA008F89809385
:1022B0007C0315C08B8D9C8D0E94290E898D811108
:1022C00005C0CE0145960E94F70807C00E94041081
:1022D000BE016B5E7F4F0E949F0F882321F08EEF1F
:1022E0008093E80003C081E28093EB006C960FB608
:1022F000F894DEBF0FBECDBFDF91CF91FF91EF917C
:10230000BF91AF919F918F917F916F915F914F910D
:102310003F912F911F910F91FF90EF90DF90CF9001
:102320000F900FBE0F901F90189508951F920F9257
:102330000FB60F9211242F933F934F935F936F9398
:102340007F938F939F93AF93BF93EF93FF93E0910E
:102350001C01F0911D010995FF91EF91BF91AF9183
:102360009F918F917F916F915F914F913F912F91AD
:102370000F900FBE0F901F9018951F920F920FB6DF
:102380000F9211242F933F934F935F936F937F93FB
:102390008F939F93AF93BF93EF93FF93E0911E01B1
:1023A000F0911F010995FF91EF91BF91AF919F911E
:1023B0008F917F916F915F914F913F912F910F90EE
:1023C0000FBE0F901F9018951F920F920FB60F928D
:1023D00011242F933F934F935F936F937F938F932A
:1023E0009F93AF93BF93EF93FF93E0912001F09100
:1023F00021010995FF91EF91BF91AF919F918F912D
:102400007F916F915F914F913F912F910F900FBEF0
:102410000F901F9018951F920F920FB60F921124D4
:102420002F933F934F935F936F937F938F939F93DC
:10243000AF93BF93EF93FF93E0912201F0912301BB
:102440000995FF91EF91BF91AF919F918F917F91EE
:102450006F915F914F913F912F910F900FBE0F9011
:102460001F9018951F920F920FB60F9211242F9361
:102470003F934F935F936F937F938F939F93AF930C
:10248000BF93EF93FF93E0912401F091250109950B
:10249000FF91EF91BF91AF919F918F917F916F913C
:1024A0005F914F913F912F910F900FBE0F901F9012
:1024B00018951F920F920FB60F9211242F933F93EE
:1024C0008F939F93AF93BF938091800390918103EB
:1024D000A0918203B091830330917F0323E0230F07
:1024E0002D3720F40196A11DB11D05C026E8230F4C
:1024F0000296A11DB11D20937F03809380039093CA
:102500008103A0938203B09383038091840390910D
:102510008503A0918603B09187030196A11DB11D8B
:102520008093840390938503A0938603B0938703DD
:10253000BF91AF919F918F913F912F910F900FBEBF
:102540000F901F9018953FB7F89480918403909155
:102550008503A0918603B091870326B5A89B05C08B
:102560002F3F19F00196A11DB11D3FBFBA2FA92F12
:10257000982F8827820F911DA11DB11DBC01CD018F
:1025800042E0660F771F881F991F4A95D1F708957B
:102590008F929F92AF92BF92CF92DF92EF92FF9273
:1025A0006B017C010E94A3124B015C01C114D10498
:1025B000E104F10401F10E94470B0E94A312DC0127
:1025C000CB0188199909AA09BB09883E9340A10546
:1025D000B10560F321E0C21AD108E108F10888EEE4
:1025E000880E83E0981EA11CB11CC114D104E10423
:1025F000F10419F7DBCFFF90EF90DF90CF90BF9001
:10260000AF909F908F9008958230910538F0880F99
:10261000991F880F991F05970197F1F708957894EE
:1026200084B5826084BD84B5816084BD85B58260D7
:1026300085BD85B5816085BDEEE6F0E08081816075
:102640008083E1E8F0E01082808182608083808175
:1026500081608083E0E8F0E0808181608083E1E94F
:10266000F0E0808182608083808181608083E0E906
:10267000F0E0808181608083E1ECF0E08081846023
:102680008083808182608083808181608083E3ECAD
:10269000F0E0808181608083E0ECF0E08081826006
:1026A0008083E2ECF0E0808181608083EAE7F0E003
:1026B000808184608083808182608083808181606A
:1026C0008083808180688083089590E0FC01319749
:1026D000EF30F105B0F5EA5AFF4F0C945325809185
:1026E00080008F7703C0809180008F7D8093800071
:1026F000089580918000877FF9CF84B58F7702C0DD
:1027000084B58F7D84BD0895809190008F7707C038
:10271000809190008F7D03C080919000877F80938F
:10272000900008958091C0008F7703C08091C00011
:102730008F7D8093C00008958091C200877F809331
:10274000C2000895CF93DF9390E0FC01E355FE4F64
:102750002491FC01E453FE4F8491882361F190E0C1
:10276000880F991FFC01E95FFD4FC591D491FC01D1
:10277000E750FE4FA591B491611109C09FB7F8943D
:102780008881209582238883EC912E230BC06230B0
:1027900061F49FB7F8943881822F809583238883D2
:1027A000EC912E2B2C939FBF06C08FB7F894E88135
:1027B0002E2B28838FBFDF91CF9108951F93CF9346
:1027C000DF93282F30E0F901E157FE4F8491F901A2
:1027D000E355FE4FD491F901E453FE4FC491CC234D
:1027E000C9F0162F81110E946513EC2FF0E0EE0F57
:1027F000FF1FE750FE4FA591B4918FB7F8941111C8
:1028000005C09C91ED2FE095E92302C0EC91ED2BE2
:10281000EC938FBFDF91CF911F9108954F925F92FC
:102820006F927F92AF92BF92CF92DF92EF92FF9220
:102830000F931F93CF93DF93CDB7DEB729013A01F2
:102840009B01AC01241935094609570989899A89E0
:10285000AB89BC89BC01CD016A197B098C099D0932
:102860000E94CE24A8019701241935094609570969
:102870000E943425CA01B9016A0D7B1D8C1D9D1D66
:10288000DF91CF911F910F91FF90EF90DF90CF904C
:10289000BF90AF907F906F905F904F900895FC0134
:1028A000808191810C94FD25CF93DF93EC01888189
:1028B0009981009711F00E94FD25198218821D82CE
:1028C0001C821B821A82DF91CF9108950F931F9370
:1028D000CF93DF93EC018B016F5F7F4F88819981EC
:1028E0000E949526009731F0998388831B830A8381
:1028F00081E001C080E0DF91CF911F910F91089599
:10290000CF93DF93EC0188819981892B29F08A810B
:102910009B818617970760F4CE010E946614882376
:1029200041F08C819D81892B19F4E881F981108215
:1029300081E0DF91CF910895EF92FF920F931F9363
:10294000CF93DF93EC017B018A01BA010E948014CE
:10295000811104C0CE010E94541407C01D830C8352
:10296000B701888199810E946727CE01DF91CF91BD
:102970001F910F91FF90EF900895FC01118210823A
:1029800013821282158214826115710551F0FB01C8
:1029900001900020E9F73197AF01461B570B0C94CB
:1029A0009C140895CF93DF93EC01FB0186179707E2
:1029B00061F0608171816115710529F04481558153
:1029C0000E949C1402C00E945414CE01DF91CF914A
:1029D0000895FC01118210821382128215821482E2
:1029E0000C94D214CF93DF93EC016115710559F06B
:1029F000FB0101900020E9F73197AF01461B570B0F
:102A00000E949C1402C00E945414CE01DF91CF9109
:102A10000895CF93DF9300D0CDB7DEB7FC011182CC
:102A20001082138212821582148269831A82BE0177
:102A30006F5F7F4F0E94F2140F900F90DF91CF9144
:102A40000895EF92FF920F931F93CF93DF93FC01B2
:102A5000248135816115710511F480E019C041159B
:102A60005105A9F07B01EC018A01020F131FB80187
:102A70000E948014882389F3288139818C819D816B
:102A8000B701820F931F0E9467271D830C8381E08B
:102A9000DF91CF911F910F91FF90EF900895CF9309
:102AA000DF93EC01FB0144815581608171810E94BB
:102AB0002115811103C0CE010E945414CE01DF9173
:102AC000CF91089520918A0430918B0428173907FB
:102AD000B9F49091480480914904981789F0E091E5
:102AE0004804F0E0E65BFB4F80812091480430E031
:102AF0002F5F3F4F2F7333272093480490E00895B2
:102B00008FEF9FEF08951F93CF93DF93DC015C96C7
:102B10002D913C915D972115310539F481E090E0CC
:102B200013969C938E9312973DC05196ED91FC9114
:102B3000529750969C915097892F80951FB75E961B
:102B40004C915E9741FB772770F941FD6095F894B1
:102B50004081772311F0492B01C048234083E901CC
:102B60002197F1F748E0508160FF02C0592B01C066
:102B700058235083E9012197F1F76695415099F761
:102B8000772321F090818923808303C08081982B53
:102B900090831FBF5C968D919C915D970197F1F793
:102BA00021E030E0C901DF91CF911F910895089590
:102BB00020918A0430918B042817390771F4909181
:102BC000480480914904981741F0E0914804F0E0EE
:102BD000E65BFB4F808190E008958FEF9FEF0895B3
:102BE0008091260490E020912704821B910908958A
:102BF0009091270480912604981750F4E92FF0E073
:102C0000E85DFB4F208130E09F5F9093270402C076
:102C10002FEF3FEFC9010895E0912704809126042A
:102C2000E81730F4F0E0E85DFB4F808190E0089514
:102C30008FEF9FEF0895089520918A0430918B04BF
:102C40002817390771F4809149042091480490E0D5
:102C5000805C9F4F821B910960E470E00E94FE241B
:102C6000089580E090E008951F920F920FB60F92A2
:102C700011242F933F934F935F936F937F938F9381
:102C80009F93AF93BF93EF93FF9380918D0487FF42
:102C900005C010929500109294001BC020918D04E5
:102CA000332727FD309580918C0490E02817390751
:102CB00084F480918D04992787FD9095FC01EE0F97
:102CC000FF1F8E0F9F1FFC01E257FB4F808186FD87
:102CD00015C080918D048F5F80938D0420918D04A9
:102CE000332727FD309580918C0490E02817390711
:102CF000C4F480918D048C3064F113C080918D04F4
:102D0000992787FD9095FC01EE0FFF1F8E0F9F1FE7
:102D1000FC01E257FB4F808160E08F730E94DE135D
:102D2000D8CF8091940090919500049680349C496E
:102D300018F480E49CE905C080919400909195007E
:102D4000049690939900809398008FEF80938D0460
:102D50003BC0209194003091950080918D0499277B
:102D600087FD9095FC01EE0FFF1F8E0F9F1FFC014A
:102D7000E257FB4F81819281820F931F90939900BC
:102D80008093980080918D04992787FD9095FC0190
:102D9000EE0FFF1F8E0F9F1FFC01E257FB4F80813C
:102DA00086FF12C080918D04992787FD9095FC01C4
:102DB000EE0FFF1F8E0F9F1FFC01E257FB4F80811C
:102DC00061E08F730E94DE13FF91EF91BF91AF918D
:102DD0009F918F917F916F915F914F913F912F9133
:102DE0000F900FBE0F901F901895FC0190918C04CE
:102DF0009C30A0F481E0890F80938C049083892F0C
:102E000090E0FC01EE0FFF1F8E0F9F1FFC01E257A9
:102E1000FB4F88EB9BE09283818308958FEF808343
:102E20000895DF92EF92FF920F931F93CF93DF935A
:102E3000EC01D62E7A01890188818C3008F067C0B8
:102E400061E08D2D0E94A2138881E82FF0E09F01A0
:102E5000220F331FE20FF31FE257FB4F9D2D9F738D
:102E60002081207CD22ED92AD08260E272E0AB0190
:102E70004E195F0957FF02C04D5F5F4F559547954B
:102E800055954795498340E659E09A01201B310B3F
:102E900037FF02C02D5F3F4F359527953595279514
:102EA0002A836CE00E94DE249CE0899FB0011124FB
:102EB00040E050E09A01260F371FF901EE0FFF1F87
:102EC0002E0F3F1FF901E257FB4F908196FD13C073
:102ED0004F5F5F4F4C30510569F781110CC0109264
:102EE000900082E0809391001092950010929400DF
:102EF00088BB80937100E881F0E0CF01880F991FB3
:102F0000E80FF91FE257FB4F80818064808388813E
:102F1000DF91CF911F910F91FF90EF90DF90089577
:102F200020E639E040E252E00C941117DC01EC910C
:102F3000F0E0CF01880F991FE80FF91FE257FB4F10
:102F400080818F7B80830895FC0190819C3080F587
:102F5000818128E830E0281B310987FD3395220F55
:102F6000331F220F331F621773077CF0828128E51D
:102F700032E0281B310987FD3395220F331F220FC2
:102F8000331F621773070CF49B0122503109220F83
:102F9000331F4FB7F894892F90E0FC01EE0FFF1F0D
:102FA0008E0F9F1FFC01E257FB4F328321834FBFDF
:102FB0000895AF92BF92CF92DF92EF92FF920F935C
:102FC0001F93CF93DF93EC01603282E078070CF01F
:102FD0003FC077FD06C0653B71052CF064EB70E0E7
:102FE00002C060E070E0898128E830E05901A81A49
:102FF000B10887FDB394AA0CBB1CAA0CBB1CCC2443
:10300000B7FCC094DC2C882777FD8095982F2A8107
:1030100008E512E0021B110927FD1395000F111F8F
:10302000000F111F222717FD2095322F3F932F935A
:103030001F930F9314EBE12EF12C00E010E020E041
:1030400030E0A9010E940E140F900F900F900F9086
:10305000CE01DF91CF911F910F91FF90EF90DF9004
:10306000CF90BF90AF900C94A417E0918A04F09198
:103070008B04E817F90769F4A389B4899C918589C1
:10308000809589238C9310928B0410928A0481E09E
:10309000089580E00895CF93DF93EC018A8D9B8D96
:1030A000892BF1F080918A0490918B048C179D07F5
:1030B000B9F0009711F00E9435188E8D8E7F8E8F9B
:1030C0001092490410924804D0938B04C0938A0450
:1030D000EB89FC8990818D89892B808381E001C0F7
:1030E00080E0DF91CF9108951F920F920FB60F925B
:1030F00011242F933F934F935F936F937F938F93FD
:103100009F93AF93BF93EF93FF93E0918A04F09165
:103110008B04309709F451C0968DA685B7858585B7
:1031200091FF04C09C91892329F447C09C91892375
:1031300009F043C0A389B4899C918589809589232E
:103140008C93868997890197F1F7608D718DA6859B
:10315000B785558538E020E0CB010197F1F7822F44
:1031600090E095958795282F4C91452309F020688C
:10317000315091F7868D81FD20958091490490E032
:1031800001968F73992730914804381749F0A09120
:103190004904B0E0A65BBB4F2C938093490403C065
:1031A000868D8160868F828D938D0197F1F7A3893B
:1031B000B4899C918589892B8C93FF91EF91BF9164
:1031C000AF919F918F917F916F915F914F913F91BF
:1031D0002F910F900FBE0F901F90189525E831E0AA
:1031E000FC01318320830C9435181F93CF93DF9318
:1031F000EC01162F6E8D6695617081E06827812F36
:103200000E94DE1361E0812F0E94A213612F70E003
:10321000FB01E355FE4FE491E88BFB01E453FE4FC5
:10322000E491F0E0EE0FFF1FE750FE4F859194917F
:103230009A8B898BDF91CF911F9108951F93CF9324
:10324000DF93EC01162F60E0812F0E94A2138E8D78
:1032500081FD04C061E0812F0E94DE131C87612F75
:1032600070E0FB01E355FE4FE491ED87FB01E45371
:10327000FE4FE491F0E0EE0FFF1FE551FE4F859108
:1032800094919F878E87DF91CF911F9108951F930F
:10329000CF93DF93EC01162F1B821A8288EE93E006
:1032A000A0E0B0E08C839D83AE83BF8385E891E08E
:1032B000998388831F8A1E8A198E188E1B8E1A8EF8
:1032C0001D8E1C8E8E8D8E7F20FB81F98E8F642F3C
:1032D000CE010E94F518612FCE01DF91CF911F9191
:1032E0000C941E19CF93DF93EC019A01AB011B8E56
:1032F0001A8E198E188E1F8A1E8A60E079E08DE37F
:1033000090E00E943425F9012430310518F0C901FC
:10331000039702C081E090E09D8F8C8F8C8598EFA1
:10332000980F943048F062EF680F643028F066EE32
:10333000680F633008F071C0B90176956795643104
:10334000710518F06351710902C061E070E07F8B74
:103350006E8B369720F0B9016550710902C061E0AB
:1033600070E0798F688FB901660F771F260F371FBE
:1033700036952795369527952D30310518F02C5028
:10338000310902C021E030E03B8F2A8F943058F0A1
:1033900092EF980F943038F08A51833008F442C08D
:1033A000A0E0B0E041C0A8E6B0E0E8E6F0E080814F
:1033B00081608C938C8598EF980F943058F022EFB1
:1033C000280F243038F026EE280F233018F020E0A4
:1033D00030E002C02BE630E03C8B2B8B943010F4B5
:1033E000845009C08E3069F08F3069F0803169F007
:1033F000813169F0865191E001C0990F8A95EAF711
:1034000007C098E005C092E003C094E001C091E0DD
:103410009D8B8C8D9D8D0197F1F7CE01DF91CF9122
:103420000C944B18A8E6B0E0833008F4BECFE0E07F
:10343000F0E0BDCFFC011382128288EE93E0A0E0A1
:10344000B0E084839583A683B78385E991E0918377
:103450008083089581E08093020460932504109294
:1034600004041092030408951092F50381E0809300
:10347000F3031092F20361E082E00E94DE1361E048
:1034800083E00E94DE13E9EBF0E080818E7F808391
:1034900080818D7F808388E48093B80085E4809369
:1034A000BC00089510922704109226041092040480
:1034B000109203040C94341A0F934132E8F5909162
:1034C000F5039111FCCF32E03093F5030093F30341
:1034D0003FEF309388031092CD034093CC03FB0160
:1034E0006EEC73E0DB013A2F361B341718F4319180
:1034F0003D93F9CF1092F4033091F403880F832B9E
:103500008093F4038091F203813061F41092F2030E
:103510008091F4038093BB008091BC0083FDF8CFC1
:1035200085EC01C085EE8093BC00222339F08091A8
:10353000F503823019F4F9CF91E011C0809188032E
:103540008F3F69F080918803803231F08091880349
:10355000803321F094E003C092E001C093E0892F12
:103560000F9108950F93062F21E04091030465E029
:1035700074E0809125040E945C1A10920404109259
:103580000304109202040F91089561E00C94B21AA2
:10359000613298F42091F503243089F46093AA03F2
:1035A000FC012CEA33E0D9018A2F821B861718F41C
:1035B00081918D93F9CF80E0089581E0089582E0B4
:1035C0000895CF93DF931F92CDB7DEB76983209123
:1035D00002042223D1F020910304203240F021E0A4
:1035E00030E0FC013383228380E090E015C08091BD
:1035F0000404E82FF0E0EB5FFB4F998190838F5F2D
:10360000809304048093030405C061E0CE01019619
:103610000E94C81A81E090E00F90DF91CF91089549
:10362000CF92DF92EF92FF920F931F93CF93DF938E
:103630007C01262F972F8A0180910204882391F024
:10364000C62FD72F6E01C40ED51ECC15DD0571F027
:103650006991D701ED91FC910190F081E02DC701B6
:103660000995F3CF642F822F0E94C81AC801DF91F9
:10367000CF911F910F91FF90EF90DF90CF90089521
:1036800085ED8093BC008091BC0084FDFCCF10923E
:10369000F503089585EC8093BC001092F50308951E
:1036A0001F920F920FB60F9211242F933F934F93B7
:1036B0005F936F937F938F939F93AF93BF93EF939A
:1036C000FF938091B900887F803609F49EC078F519
:1036D000883209F45DC090F4803109F456C038F4A2
:1036E000882309F4F5C0883009F44FC0F5C088314B
:1036F00009F44EC0803209F45FC0EEC0803409F492
:103700006AC058F4803309F457C0883309F0E4C024
:10371000809388030E944A1BDFC0803509F44FC0A4
:10372000883509F45DC0883409F0D6C0D3C0883923
:1037300009F4C4C0A8F4883709F467C038F488369F
:1037400009F463C0803709F460C0C6C0883809F442
:10375000B5C0803909F45FC0803809F0BDC05BC0D6
:10376000803B09F483C038F4803A09F466C0883A93
:1037700009F47CC0B1C0803C09F4A4C0883C09F4C1
:10378000A1C0883B09F487C0A7C08091F40310C092
:103790009091CD038091CC03981770F5E091CD0303
:1037A00081E08E0F8093CD03F0E0E253FC4F8081E7
:1037B0008093BB0085EC83C0809388038BC0E0912D
:1037C000CD0381E08E0F8093CD038091BB00F0E0AC
:1037D000E253FC4F80839091CD038091CC036BC06A
:1037E000E091CD0381E08E0F8093CD038091BB00EB
:1037F000F0E0E253FC4F80838091F30381116AC0B3
:1038000081E08093F20384EA5EC083E08093F50355
:1038100010928903CFCF80918903803208F04EC087
:10382000E091890381E08E0F809389038091BB0032
:10383000F0E0E657FC4F8083BDCF0E944A1B809189
:103840008903803230F4E0918903F0E0E657FC4FC1
:1038500010826091890370E0E091EE03F091EF0334
:103860008AE893E009951092890336C084E080933A
:10387000F5031092AB031092AA03E091F003F091CC
:10388000F10309958091AA03811105C081E080931D
:10389000AA031092AC03E091AB0381E08E0F8093FA
:1038A000AB03F0E0E455FC4F80818093BB00909126
:1038B000AB038091AA03981708F47CCF85E8809326
:1038C000BC000AC085EC8093BC001092F50304C0D4
:1038D000109288030E94401BFF91EF91BF91AF911E
:1038E0009F918F917F916F915F914F913F912F9118
:1038F0000F900FBE0F901F90189586EF93E00C94D9
:103900001A1A8091D8049091D904892B49F481E046
:1039100090E09093D9048093D80440E064E606C018
:103920001092D9041092D80440E060E081E10C9438
:10393000D8070F931F93CF93DF931F92CDB7DEB7B6
:103940008C0169830E9493276981681741F0C8013F
:103950000F90DF91CF911F910F910C949B270F90A7
:10396000DF91CF911F910F910895803839F421E0B4
:1039700030E03093D7042093D60411C0823839F454
:1039800021E030E03093D5042093D40408C0823382
:1039900031F421E030E03093D3042093D20420911D
:1039A000D6043091D70421303105A1F54091D404DB
:1039B0005091D5044130510509F057C04091D204CF
:1039C0005091D3044130510509F0CCC03093C70465
:1039D0002093C604843349F441E050E05093D1046D
:1039E0004093D0042130310519F54091D404509111
:1039F000D5044130510509F051C04091D004509197
:103A0000D1044130510509F0B1C05093C304409333
:103A1000C2042EC0843301F3853309F096C041E01F
:103A200050E05093CF044093CE042130310511F182
:103A30002130310509F0A2C04091D4045091D50441
:103A40004130510509F09AC003C0883309F44EC0D3
:103A50004091CA045091CB044130510509F091C006
:103A60005093BB044093BA044AC0843309F4B4CFE2
:103A70008533A9F24091D4045091D50441305105C9
:103A800081F54091CE045091CF044130510509F0A9
:103A900071C05093C5044093C40403C0853309F436
:103AA000BECF873351F441E050E05093CD044093B2
:103AB000CC042130310509F067C04091D404509105
:103AC000D50441305105C9F44091CC045091CD0446
:103AD0004130510509F0B9CF5093BD044093BC0467
:103AE00002C0873301F3883309F0A6CF41E050E0EC
:103AF0005093CB044093CA049FCF8833B9F38933E2
:103B000049F441E050E05093C9044093C804213087
:103B10003105D1F52091D4043091D50421303105FF
:103B200059F42091C8043091C9042130310521F4A1
:103B30003093B9042093B804853831F581E090E0E2
:103B40009093B3048093B2040895873309F4ABCF04
:103B5000883309F06DCF81E090E09093CB0480939F
:103B6000CA040895843309F048CF36CF853309F06D
:103B700088CF55CF873309F0A7CF95CF8933E1F6AA
:103B8000C0CF893371F6BDCF0895CF93C82F803849
:103B900029F41092D7041092D6040DC0823829F46B
:103BA0001092D5041092D40406C0823321F41092EE
:103BB000D3041092D2048091D6049091D704892B1B
:103BC00009F0A9C28091D4049091D504892B09F001
:103BD000AEC28091D2049091D304892B09F0A3C284
:103BE0008091C6049091C704019709F09CC210927D
:103BF000C7041092C60460EE82EA91E00E9484033A
:103C000082EA91E00E947A0364E670E080E090E04E
:103C10000E94C81262EE82EA91E00E94840382EA66
:103C200091E00E947A0364E670E080E090E00E94F8
:103C3000C8126AE282EA91E00E94840382EA91E07B
:103C40000E947A0364E670E080E090E00E94C8126F
:103C500082EA91E00E94FA0382EA91E00E947A03EC
:103C600088EE94E00E94930460E873E088EE94E0AC
:103C70000E948A0B41E060E088EE94E00E949A0482
:103C800060E773E088EE94E00E948A0B10926F0068
:103C900040E060E081E10E947307289A61E085E0DE
:103CA0000E94DE1360E971E080E090E00E94C8129B
:103CB00060E085E00E94DE1360E971E080E090E062
:103CC0000E94C81261E085E00E94DE1360E971E0A5
:103CD00080E090E00E94C81260E085E00E94DE1360
:103CE00060E971E080E090E00E94C81261E085E048
:103CF0000E94DE1360E971E080E090E00E94C8124B
:103D000060E085E00E94DE1360E971E080E090E011
:103D10000E94C81261E085E00E94DE1360E971E054
:103D200080E090E00E94C81260E085E00E94DE130F
:103D300060E971E080E090E00E94C812C43321F491
:103D40001092D1041092D0048091D6049091D7049F
:103D5000892B09F050C08091D4049091D504892B0F
:103D600009F0F0C18091D0049091D104892B09F021
:103D7000E5C18091C2049091C3048130910509F09E
:103D8000DDC11092C3041092C2041092BF041092BD
:103D9000BE049093C1048093C00488EE94E00E9416
:103DA00093046EE573E088EE94E00E948A0B41E094
:103DB00060E088EE94E00E949A0469E473E088EE83
:103DC00094E00E948A0B42E060E088EE94E00E945A
:103DD0009A0468E373E088EE94E00E948A0B43E063
:103DE00060E088EE94E00E949A0467E273E088EE57
:103DF00094E00E948A0BC53321F41092CF041092F4
:103E0000CE048091D6049091D704892B09F087C104
:103E10008091D4049091D504892B09F09AC18091A6
:103E2000CE049091CF04892B09F09AC18091C404EB
:103E30009091C504019709F093C11092C5041092A6
:103E4000C4041092BF041092BE041092C1041092D8
:103E5000C00488EE94E00E94930465E173E088EE6C
:103E600094E00E948A0B41E060E088EE94E00E94BA
:103E70009A046BE073E088EE94E00E948A0B60E0A5
:103E800070E08FED94E00E94D91760E070E08CED57
:103E900094E00E94D91768EE73E080E090E00E9401
:103EA000C8128FED94E00E9496178CED94E00E946A
:103EB0009617C73321F41092CD041092CC04809150
:103EC000D6049091D704892B09F055C08091D40471
:103ED0009091D504892B09F047C18091CC04909131
:103EE000CD04892B09F047C18091BC049091BD0499
:103EF000019709F040C11092BD041092BC0488EEF5
:103F000094E00E9493046DEF72E088EE94E00E94CA
:103F10008A0B41E060E088EE94E00E949A046EEE25
:103F200072E088EE94E00E948A0B67E070E08FED0B
:103F300094E00E94901780E090E00E949327682F01
:103F400070E08FED94E00E94D9176CED75E080E091
:103F500090E00E94C81260E070E08FED94E00E9453
:103F6000D91768EE73E080E090E00E94C8128FEDF0
:103F700094E00E949617C83321F41092CB0410925B
:103F8000CA048091D6049091D704892B09F0F7C018
:103F90008091D4049091D504892B09F0F0C08091D0
:103FA000CA049091CB04892B09F0ECC08091BA042B
:103FB0009091BB04019709F0E5C01092BB041092E8
:103FC000BA0488EE94E00E9493046DED72E088EEEE
:103FD00094E00E948A0B41E060E088EE94E00E9449
:103FE0009A046EEC72E088EE94E00E948A0B6EE018
:103FF00070E08CED94E00E94901781E090E00E94C8
:104000009327682F70E08CED94E00E94D91760919F
:10401000280170912901882777FD8095982F0E94AB
:10402000C81260E070E08CED94E00E94D91768EE51
:1040300073E080E090E00E94C8128CED94E00E9452
:104040009617C93321F41092C9041092C8048091C4
:10405000D6049091D704892B09F055C08091D404DF
:104060009091D504892B09F04EC08091C80490919D
:10407000C904892B09F047C08091B8049091B90414
:10408000019709F040C01092B9041092B80488EE6C
:1040900094E00E9493046EEB72E088EE94E00E943C
:1040A0008A0B41E060E088EE94E00E949A0460EBA5
:1040B00072E088EE94E00E948A0B6EE070E08CED76
:1040C00094E00E94901781E090E00E949327682F6F
:1040D00070E08CED94E00E94D91760ED77E080E00D
:1040E00090E00E94C81260E070E08CED94E00E94C5
:1040F000D91768EE73E080E090E00E94C8128CED62
:1041000094E00E949617C53809F040C01092B3049D
:104110001092B2043BC0C43309F06DCE11CEC73348
:1041200009F029CFC8CEC43309F01CCE09CEC43360
:1041300009F406CEC53309F06BCE5FCEC53309F066
:104140006ECE5BCEC53309F458CEC73309F0BECE70
:10415000B2CEC73309F4AFCEC83309F019CF0DCFB3
:10416000C73309F0BACEA7CEC83309F406CFC93396
:1041700009F074CF68CFC83309F011CFFECEC93330
:1041800011F661CFC93309F070CF5DCFCF9108959B
:1041900088EE94E00E9493046AEA72E088EE94E06C
:1041A0000C948A0B8F92AF92CF92EF920F9320E0F4
:1041B0004AE069E081E095E00E9447191F921F9252
:1041C00083E08F9387E0882E96E0A92E25E0C22E0B
:1041D00034E0E32E00E021E042E067E288EE94E084
:1041E0000E94EC058FED94E00E94F5160F900F9061
:1041F0000F908CED94E00F91EF90CF90AF908F9057
:104200000C94F51681E095E00C94EE18CF93DF93B3
:104210005D9A289A61E085E00E94A21360E085E043
:104220000E94DE1368EC70E080E090E00E94C8120B
:1042300061E085E00E94DE1368EC70E080E090E0D1
:104240000E94C81260E085E00E94DE1368EC70E016
:1042500080E090E00E94C81261E085E00E94DE13D9
:1042600068EC70E080E090E00E94C81260E085E0B9
:104270000E94DE1320E044E064E188EE94E00E94B6
:104280007C0640E855E260E070E081E095E00E9445
:10429000721988EE94E00E9493046AEA73E088EE53
:1042A00094E00E948A0B41E060E088EE94E00E9476
:1042B0009A0466E973E088EE94E00E948A0B42E07B
:1042C00060E088EE94E00E949A04CAE0D0E081E0C9
:1042D00095E00E941C161816190644F08091DA0425
:1042E0009091DB04843691050CF47AC081E095E06E
:1042F0000E941C16892B59F081E095E00E946215FE
:1043000068EC70E080E090E00E94C812EFCF88EE89
:1043100094E00E94930465E873E088EE94E00E94C4
:104320008A0B68EE73E080E090E00E94C81280E1A2
:10433000809381001092800084E0809371028BE171
:1043400097EB90937302809372029093870080930F
:10435000860084E18093810081E89CE190930801CC
:104360008093070181E080936F0082EA91E00E94D0
:10437000010480E00E94440740E060E081E10E9487
:10438000730748E552E06CE271E081E10E94E407C6
:1043900067E070E08FED94E00E9490176EE070E0AF
:1043A0008CED94E00E94901760E070E08FED94E057
:1043B0000E94D91760E070E08CED94E00E94D9175C
:1043C00068EE73E080E090E00E94C8128FED94E008
:1043D0000E9496178CED94E0DF91CF910C94961784
:1043E00064E670E080E090E00E94C8128091DA04F8
:1043F0009091DB04BE010E94FE24892B09F5609197
:104400002601709127014AE050E088EE94E00E9476
:10441000560C64E973E088EE94E00E948A0B809168
:1044200026019091270101979093270180932601FF
:10443000019731F443E060E088EE94E00E949A0432
:104440008091DA049091DB0401969093DB048093D1
:10445000DA043DCFEF92FF920F931F93CF93DF9338
:10446000CDB7DEB762970FB6F894DEBF0FBECDBFF3
:1044700081E095E00E941C16892B09F477C281E047
:1044800095E00E9462157C01811103C010922E01FB
:104490006DC2813019F4E0922E0168C220912E0184
:1044A0008091BE049091BF04222309F404C220919C
:1044B000C0043091C104892B09F045C02115310594
:1044C00009F041C00E94C8204AE062EE74E0870112
:1044D0001127C8010E946E2760E2CE0107960E9454
:1044E000091562EE74E0CE010D960E94BD14BE0166
:1044F000635F7F4FCE0101960E94E914BE01695FA0
:104500007F4FCE0101960E944F15BC0188EE94E0CA
:104510000E94AE0BCE0101960E944F14CE010D9663
:104520000E944F14CE0107960E944F14F801E154E7
:10453000FC4F649182EA91E00E94840382EA91E058
:104540000E947A03B4C12130310509F0B0C1C7011E
:104550009927883D910509F4CAC04CF48032910531
:1045600009F483C1873D910509F419C1A0C1893DB2
:10457000910509F45CC08A3D910509F098C120912C
:10458000B6043091B7042A3A31058CF44091B20454
:104590005091B30469E0649FC001659F900D1124A0
:1045A000820F931F01969093B7048093B60467E03F
:1045B00070E08FED94E00E9490176091B6047091C6
:1045C000B7048FED94E00E94D9172091B204309186
:1045D000B30480912A0190912B01289FB001299F5B
:1045E000700D389F700D112480912C0190912D0138
:1045F000680F791F882777FD8095982F0E94C81231
:104600008FED94E00E94961788EE94E00E94930448
:104610006AE972E088EE94E00E948A0B41E060E073
:1046200088EE94E00E949A046BE872E057C02091F3
:10463000B6043091B7042B3031058CF04091B204B0
:104640005091B30467EF6403C001659F900D11247E
:10465000820F931F01979093B7048093B60467E08D
:1046600070E08FED94E00E9490176091B604709115
:10467000B7048FED94E00E94D9172091B2043091D5
:10468000B30480912A0190912B01289FB001299FAA
:10469000700D389F700D112480912C0190912D0187
:1046A000680F791F882777FD8095982F0E94C81280
:1046B0008FED94E00E94961788EE94E00E94930498
:1046C0006BE772E088EE94E00E948A0B41E060E0C4
:1046D00088EE94E00E949A046CE672E088EE94E022
:1046E0000E948A0B6091B6047091B704B7C0209104
:1046F000B4043091B5042A3A31058CF44091B204E7
:104700005091B30469E0649FC001659F900D11242E
:10471000820F931F01969093B5048093B4046EE0CA
:1047200070E08CED94E00E9490176091B404709159
:10473000B5048CED94E00E94D9172091B204309119
:10474000B30480912A0190912B01289FB001299FE9
:10475000700D389F700D112480912C0190912D01C6
:10476000680F791F882777FD8095982F0E94C812BF
:104770008CED94E00E94961788EE94E00E949304DA
:104780006DE572E088EE94E00E948A0B41E060E003
:1047900088EE94E00E949A046EE472E057C0209183
:1047A000B4043091B5042B3031058CF04091B20443
:1047B0005091B30467EF6403C001659F900D11240D
:1047C000820F931F01979093B5048093B4046EE019
:1047D00070E08CED94E00E9490176091B4047091A9
:1047E000B5048CED94E00E94D9172091B204309169
:1047F000B30480912A0190912B01289FB001299F39
:10480000700D389F700D112480912C0190912D0115
:10481000680F791F882777FD8095982F0E94C8120E
:104820008CED94E00E94961788EE94E00E94930429
:104830006EE372E088EE94E00E948A0B41E060E053
:1048400088EE94E00E949A046FE272E088EE94E0B1
:104850000E948A0B6091B4047091B5044AE050E064
:1048600088EE94E00E94560C22C06091B60480E06D
:1048700090E00E94991C6091B40481E090E00E9455
:10488000991C88EE94E00E9493046FE172E088EE38
:1048900094E00E948A0B41E060E088EE94E00E9480
:1048A0009A0465E172E088EE94E00E948A0B8E2DF6
:1048B0000E94B51C4DC0892B09F047C08091C004EF
:1048C0009091C104892B09F040C00E94C8204AE0A1
:1048D00062EE74E087011127C8010E946E2760E232
:1048E000CE0107960E94091562EE74E0CE010D9686
:1048F0000E94BD14BE01635F7F4FCE0101960E94EE
:10490000E914BE01695F7F4FCE0101960E944F15E9
:10491000BC0188EE94E00E94AE0BCE0101960E948D
:104920004F14CE010D960E944F14CE0107960E949F
:104930004F14F801E154FC4F649182EA91E00E9427
:10494000AC0382EA91E00E947A038E2D0E94C51D7D
:1049500061E085E00E94DE1368E270E080E090E0B4
:104960000E94C81260E085E00E94DE1362960FB6D6
:10497000F894DEBF0FBECDBFDF91CF911F910F9195
:10498000FF90EF9008950E945925A59F900DB49F28
:10499000900DA49F800D911D11240895DB018F932C
:1049A0009F930E94C324BF91AF91A29F800D911D40
:1049B000A39F900DB29F900D11240895991B79E04B
:1049C00004C0991F961708F0961B881F7A95C9F79F
:1049D00080950895AA1BBB1B51E107C0AA1FBB1FEE
:1049E000A617B70710F0A61BB70B881F991F5A957B
:1049F000A9F780959095BC01CD01089597FB072EEE
:104A000016F4009407D077FD09D00E94EA2407FC31
:104A100005D03EF4909581959F4F089570956195CE
:104A20007F4F0895A1E21A2EAA1BBB1BFD010DC0EA
:104A3000AA1FBB1FEE1FFF1FA217B307E407F5074E
:104A400020F0A21BB30BE40BF50B661F771F881F2A
:104A5000991F1A9469F760957095809590959B01C0
:104A6000AC01BD01CF010895052E97FB1EF4009403
:104A70000E944B2557FD07D00E94122507FC03D04A
:104A80004EF40C944B2550954095309521953F4F11
:104A90004F4F5F4F089590958095709561957F4F2A
:104AA0008F4F9F4F0895EE0FFF1F0590F491E02D5B
:104AB0000994A29FB001B39FC001A39F700D811DF7
:104AC0001124911DB29F700D811D1124911D089517
:104AD000CF93DF938230910510F482E090E0E09173
:104AE0002205F091230520E030E0C0E0D0E03097CF
:104AF00011F14081518148175907C0F048175907F3
:104B000061F482819381209719F09B838A832BC063
:104B1000909323058093220526C02115310519F0B5
:104B20004217530718F49A01BE01DF01EF0102801A
:104B3000F381E02DDCCF2115310509F1281B390B5C
:104B40002430310590F412968D919C911397611544
:104B5000710521F0FB019383828304C090932305A8
:104B600080932205FD01329644C0FD01E20FF31F40
:104B700081939193225031092D933C933AC0209117
:104B8000200530912105232B41F420910201309121
:104B900003013093210520932005209100013091DD
:104BA00001012115310541F42DB73EB740910401B3
:104BB00050910501241B350BE0912005F091210552
:104BC000E217F307A0F42E1B3F0B2817390778F0E4
:104BD000AC014E5F5F4F2417350748F04E0F5F1F43
:104BE00050932105409320058193919302C0E0E00A
:104BF000F0E0CF01DF91CF9108950F931F93CF93F2
:104C0000DF93009709F48CC0FC0132971382128263
:104C100000912205109123050115110581F42081D1
:104C20003181820F931F2091200530912105281793
:104C3000390779F5F0932105E093200571C0D8017B
:104C400040E050E0AE17BF0750F412962D913C9112
:104C50001397AD012115310509F1D901F3CF9D015C
:104C6000DA013383228360817181860F971F821757
:104C7000930769F4EC0128813981260F371F2E5FD5
:104C80003F4F318320838A819B8193838283452B8D
:104C900029F4F0932305E093220542C01396FC9378
:104CA000EE931297ED01499159919E01240F351F02
:104CB000E217F30771F480819181840F951F0296AA
:104CC00011969C938E938281938113969C938E93DD
:104CD0001297E0E0F0E0D80112968D919C91139725
:104CE000009719F0F8018C01F6CF8D919C919801F5
:104CF0002E5F3F4F820F931F209120053091210599
:104D00002817390769F4309729F410922305109277
:104D1000220502C013821282109321050093200500
:104D2000DF91CF911F910F910895A0E0B0E0EBE9E2
:104D3000F6E20C94BD27EC01009721F4CB010E9410
:104D40006825B2C0FC01E60FF71F9C012250310913
:104D5000E217F30708F4A6C0D9010D911C91119731
:104D600006171707B0F00530110508F499C0C801FF
:104D700004978617970708F493C002501109061B81
:104D8000170B019311936D937C93CF010E94FD2526
:104D900087C07B01E01AF10A3C01600E711EA091F0
:104DA0002205B091230580E090E0812C912C109792
:104DB00009F444C0AD90BC901197A615B705A1F5B4
:104DC000650142E0C40ED11CCE14DF0468F1C501B8
:104DD0008E199F09AC014E5F5F4F1296FC9012979F
:104DE0001396AC914530510540F0F282A383918334
:104DF0008083D9016D937C9309C00E5F1F4FA00E75
:104E0000B11EF901B182A082EF2DFA2F8114910415
:104E100031F0D4011396FC93EE93129741C0F093B6
:104E20002305E09322053CC08A159B0508F4C501C3
:104E30004D0112960D90BC91A02DB9CFA0912005E7
:104E4000B0912105A615B705E1F486179707C8F4B8
:104E50008091000190910101009741F48DB79EB7B8
:104E60004091040150910501841B950BE817F90747
:104E7000C8F4F0932105E0932005F9017183608364
:104E80000FC0CB010E9468257C01009759F0A80152
:104E9000BE010E945E27CE010E94FD25C70104C00D
:104EA000CE0102C080E090E0CDB7DEB7EEE00C941A
:104EB000D92781E090E0F8940C94F027FB01DC0105
:104EC00002C001900D9241505040D8F70895FB0167
:104ED000DC0101900D920020E1F70895BB274A30D4
:104EE00031F4992322F4BDE2909581959F4F0C9463
:104EF0007A27BB27FB015527AA27880F991FAA1FCE
:104F0000A41710F0A41B83955051B9F7A05DAA33E4
:104F100008F0A95DA193009779F7B111B1931192AF
:104F2000CB010C94A927F999FECF92BD81BDF89AC7
:104F3000992780B50895262FF999FECF1FBA92BD03
:104F400081BD20BD0FB6F894FA9AF99A0FBE01966A
:104F50000895DC01FC01672F71917723E1F7329707
:104F600004C07C916D9370836291AE17BF07C8F344
:104F700008952F923F924F925F926F927F928F92FD
:104F80009F92AF92BF92CF92DF92EF92FF920F93D8
:104F90001F93CF93DF93CDB7DEB7CA1BDB0B0FB6E2
:104FA000F894DEBF0FBECDBF09942A88398848889F
:104FB0005F846E847D848C849B84AA84B984C88435
:104FC000DF80EE80FD800C811B81AA81B981CE0F2C
:104FD000D11D0FB6F894DEBF0FBECDBFED01089511
:104FE00012E0C6E6D2E004C0FE010E9453252196DD
:0A4FF000C736D107C9F7F894FFCFC8
:104FFA00000024052000FF6708FFFFFFFF00E10013
:10500A00000000000000C180810000009511951188
:10501A009511951195110A001027C800C8000100C2
:10502A00000000FF029802E10291020000000070F5
:10503A00044A0BDA046E046F04480B000000007087
:10504A00044A0B7C065B056F055B06000000008FB7
:10505A0008D608B908C908A508B608000000001053
:10506A000A4A0B9109AB099D09EE0900000000E606
:10507A000A0000000083154A0B1C166215D815D7C2
:10508A001500000000E11A101BF015F8150C161B8C
:02509A001600FE
:00000001FF
