:100000000C944B020C9449130C9470130C9497139A
:100010000C94BE130C9473020C9473020C94E513AD
:100020000C9473020C9477180C944B100C94E111FF
:100030000C9473020C9473020C9473020C9473026C
:100040000C9473020C9473020C9473020C9473025C
:100050000C94B6080C9473020C9473020C940C1458
:100060000C9473020C94A80A0C94DA0A0C94730290
:100070000C9473020C9473020C9473020C9473022C
:100080000C9477170C9473020C9473020C94730203
:100090000C94531B0C9473020C94E5060C9473029D
:1000A0000C9473020C9473020C9473023015331584
:1000B000221526152C1554155415541537153B15B6
:1000C0003F154515491554154F1505010902A101A4
:1000D00085010509190129081500250195087501F3
:1000E000810205010930093109381581257F75081C
:1000F00095038106C005010906A101050719E0293C
:10010000E715002501750195088102050C9501751B
:1001100008150026FF00190029FF810005081901B4
:1001200029089508750191020507950675081500BF
:1001300026E700190029E78100C000000000000048
:1001400000002A2B28000000000000000000000032
:10015000000000000000000000002C9EB4A0A1A23E
:10016000A434A6A7A5AE362D3738271E1F2021227E
:1001700023242526B333B62EB7B89F848586878877
:10018000898A8B8C8D8E8F90919293949596979867
:10019000999A9B9C9D2F3130A3AD35040506070825
:1001A000090A0B0C0D0E0F10111213141516171847
:1001B000191A1B1C1DAFB1B0B500080B00020202DA
:1001C00001000904000001020200000524001001E2
:1001D0000524010101042402060524060001070587
:1001E000810310004009040100020A000000070515
:1001F00002024000000705830240000012010002D5
:10020000EF0201404F1B069200010102030112019F
:100210000002000000404F1B069200010102030192
:10022000537061726B46756E0055534220494F20E2
:10023000426F6172640004030904000000020009B7
:100240000F0000030401000C00000000000000008B
:10025000000000000000000004080201104080407F
:1002600010204080408008020401804020100201DC
:1002700010801020404020040404040403040502FC
:100280000202020403020202020606060606060431
:1002900004020202040400000000230026002900DA
:1002A0002C002F0000000000250028002B002E004D
:1002B000310000000000240027002A002D0030003B
:1002C000436C69636B20726967687400436C69638F
:1002D0006B206C656674004D6F757365207269677D
:1002E0006874004D6F757365206C656674004D6FA2
:1002F00075736520646F776E004D6F75736520753B
:100300007000413A3A204B65793A2000656E61628F
:100310006C6564004D6F757365206D6F6465006575
:100320006E61626C6564004B6579626F6172642016
:100330006D6F6465004354524C2B414C542B444523
:100340004C4554450053656E740053797374656D64
:100350002072656164792121003A006F7220776113
:1003600069742074656E207365636F6E64730050EA
:10037000726573732061206B657920746F206265EC
:1003800067696E00000132464764280708090A0BB6
:100390000C0D0E0F101112131415161718191A1B25
:1003A0001C1D1E1F2C2122232425263428292A2BFC
:1003B000362D3738271E1F202122232425263A33A5
:1003C0003C2E3E3F404142434445464748494A4B04
:1003D0004C4D4E4F505152535455565758595A2F11
:1003E00031305E5F350405060708090A0B0C0D0E57
:1003F0000F101112131415161718191A1B1C1D7B38
:100400007C7D7E7FE0E1E2E3E4E5E6E788898A8BB4
:100410008C8D8E8F909192939495969798999A9BA4
:100420009C9D9E9FA0A1A2A3A4A5A6A7A8A9AAAB94
:10043000ACADAEAF28292A2BB4B5B6B7B8B9BABBA4
:10044000BCBDBEBFC0393A3B3C3D3E3F404142434C
:100450004445CECFD0D14A4B4C4D4E4F505152DB3C
:10046000DCDDDEDFE0E1E2E3E4E5E6E7E8E9EAEB54
:10047000ECEDEEEFF0F1F2F3F4F5F6F7F8F9FAFB44
:10048000FCFDFEFFA9025904DD08CD090A0BC30CCF
:10049000801C511F7A1F11241FBECFEFDAE0DEBF90
:1004A000CDBF11E0A0E0B1E0ECEFF9E402C00590AF
:1004B0000D92A63FB107D9F715E0A6EFB1E001C054
:1004C0001D92A33EB107E1F712E0CAE4D2E004C0F6
:1004D0002197FE010E947922C234D107C9F70E94F8
:1004E000CF0C0C94F1240C9400000F931F93CF9326
:1004F000DF93EB018A010E94730C9801AE0161E069
:10050000DF91CF911F910F910C941F0CFC0112826F
:1005100023E331E0318320838091FF01811113C0F7
:100520001092F7011092F6018AEC90E09093F90195
:100530008093F8018BE290E09093FB018093FA01A5
:1005400081E08093FF010E94730C66EF71E00C94D0
:10055000020C8CEF91E00C948602FC0182818F5B8F
:10056000FB01808381E00895FC0134969C01245FA7
:100570003F4F80E090E04081411101961192E217D7
:10058000F307C9F70895CF93DF93CDB7DEB7699727
:100590000FB6F894DEBF0FBECDBFFC01DB019C910E
:1005A0009F5F9C93BE016F5F7F4F89E1DB011D92CE
:1005B0008A95E9F729E0298384E08A8391E09D8385
:1005C00083E08E839F8398872A8721E22B879C87ED
:1005D0009D879F8722E2288B25E4298B27E02B8BA0
:1005E00025E02C8B8E8B20E430E0388F2F8B998F79
:1005F00082818B83838180688D8B49E150E080E02C
:100600000E94E70F69960FB6F894DEBF0FBECDBF0C
:10061000DF91CF910895BC01625F7F4FFC01838120
:1006200048E050E080640C944F0F0A970C940B0341
:10063000FC0120E2260F2830F0F0DC01169620E0C5
:1006400030E08D91442349F0861304C0E20FF31F7C
:10065000668326C0811107C0F9CF861304C0E20F5C
:10066000F31F16821DC02F5F3F4F2630310549F71B
:1006700080E090E008953481442349F081E090E0E7
:1006800001C0880F2A95EAF7832B848309C041E0D3
:1006900050E001C0440F2A95EAF740954323448374
:1006A00081E090E00895FB0120812138B9F4238195
:1006B0002232A1F4DC0112962C91129730E0448191
:1006C00055814217530751F421E057962C9345E486
:1006D00050E065EF70E080E80C94E70F80E090E078
:1006E0000895CF93DF93EC01FB018A8190E0248190
:1006F00035818217930709F04AC081819081913A30
:1007000069F4813009F441C0833011F48F8903C04A
:100710008230E9F5888D8093F10037C09132B9F5C8
:100720008B3019F482818F8B30C08A3019F482812A
:10073000888F2BC0893059F566817781838183301A
:1007400079F48C8D9D8D6817790709F58A8D9B8DBD
:100750000E940E108C8D9D8D90689D8F8C8F15C082
:10076000823041F46130710591F461E070E0CE01B6
:10077000499609C0813059F46830710541F468E048
:1007800070E0CE010E960E940E1081E001C080E064
:10079000DF91CF910895EF92FF920F931F93CF9324
:1007A000DF93E62FF0E0E038F10540F021E030E0A3
:1007B000DC0113963C932E93129722C0D42F7C0118
:1007C000E65CFE4FC4916C2F6F77DC01ED91FC91DC
:1007D0000084F185E02D09958C01C7FF13C0892B9A
:1007E00011F4D1110DC0D701ED91FC910084F18578
:1007F000E02D4D2F61EEC7010995802B912B02C092
:1008000080E090E0DF91CF911F910F91FF90EF90EA
:100810000895FF920F931F93CF93DF93EC01F62E71
:1008200041E00E94CB038C01892BA9F0E881F9817A
:100830000680F781E02DCE01099540E06F2DCE01B5
:100840000E94CB03892B39F0E881F9810680F7817A
:10085000E02DCE010995C801DF91CF911F910F9135
:10086000FF900895CF93DF93EC0181E08C838D831B
:100870009E012A5E3F4F3F832E83198618861D8670
:100880001C8629E331E03983288327E431E03B8764
:100890002A878F8B888F198E1B8E1A8E1D8E1C8E29
:1008A00081EC8E8B0E94B711BE01DF91CF910C9429
:1008B000701187E092E00C943204FC0112828FEFF9
:1008C0008183108213820895FC018381882331F093
:1008D000611103C08FEF818308951182089589EC1F
:1008E00094E00E942D1A89EC94E00E94C81A91E0CD
:1008F000811190E0892F0895CF93DF93EC016A83F3
:1009000089EC94E00E94551A6A81CE010E946F041E
:100910008B83882329F089EC94E00E943B1788831D
:100920008B8190E0DF91CF910895CF93DF93FC010D
:1009300023812223B1F0EC018181809568236083BB
:10094000628189EC94E00E942D1A688189EC94E020
:100950000E94E41A89EC94E00E94C81A282F30E023
:1009600002C020E030E081E090E0232B11F080E035
:1009700090E0DF91CF91089508950895DC01ED9105
:10098000FC910284F385E02D41E0099581E090E03F
:100990000895FC011382128225E531E03183208322
:1009A0000895DC01ED91FC910084F185E02D6FEF5D
:1009B0000994DC01ED91FC910284F385E02D40E087
:1009C000099461E00E94D90480ED97E00C94B7147B
:1009D000CF93DF93CDB7DEB728970FB6F894DEBF7D
:1009E0000FBECDBFFC011D8280E48E8394E19F8306
:1009F00094E5988719828A8380E18B8380E58C83D4
:100A00008781481710F04FEF480F908550E0DE01C6
:100A1000A40FB51F903129F4843019F411969C91DC
:100A200002C015969C91690F6068CF0128960FB699
:100A3000F894DEBF0FBECDBFDF91CF910C94D904E7
:100A4000FC016581262F246025836C600C94D904F9
:100A5000CF93DF93EC01423018F08C8188608C8357
:100A60004F836887222329F0413019F48C818460F8
:100A70008C8364E670E080E090E00E947B146C81DF
:100A800064FD31C0E881F9810284F385E02D42E004
:100A900063E0CE01099584E991E10E94B714E881F1
:100AA000F9810284F385E02D42E063E0CE010995EF
:100AB00086E990E00E94B714E881F9810284F38509
:100AC000E02D42E063E0CE01099586E990E00E94C6
:100AD000B714E881F9810284F385E02D42E062E0F9
:100AE000CE01099516C06062CE010E94D90484E946
:100AF00091E10E94B7146C816062CE010E94D9041A
:100B000086E990E00E94B7146C816062CE010E9479
:100B1000D90486E990E00E94B7146C816062CE012E
:100B20000E94D9048CE390E00E94B71484E08D8386
:100B3000CE010E942005CE010E94E10482E08E8356
:100B400066E0CE010E94D904CE01DF91CF910C94D2
:100B5000D10421E001C0220F6A95EAF7DC011C965E
:100B60002C931C971A965C934E931997ED91FC91D8
:100B70000084F185E02D60E00994FC0184858823E0
:100B8000A9F0218532852115310519F4611106C0BE
:100B900007C02130310521F4611102C0858701C0F1
:100BA00015866585CF010E960C94950408950F93D4
:100BB0001F93CF93DF938C01EC012E96FC0163858C
:100BC000CE010E947C04019769F461E0CE010E948D
:100BD0006404F801148260E0CE010E94950481E073
:100BE00090E002C080E090E0DF91CF911F910F91E3
:100BF00008958F92AF92CF92EF920F93CF93DF939E
:100C0000CDB7DEB7FC016387148615861286118680
:100C100081E0982F01C0990F4A95EAF7928B982F9F
:100C200001C0990F2A95EAF7938B982F01C0990F6D
:100C30000A95EAF7948B982F01C0990FEA94EAF786
:100C4000958B982F01C0990FCA94EAF7968B982F2D
:100C500001C0990FAA94EAF7978B01C0880F8A9474
:100C6000EAF7808FDF91CF910F91EF90CF90AF9007
:100C70008F9008954F925F926F927F928F92AF9272
:100C8000CF92EF920F931F93CF93DF9300D01F92D9
:100C9000CDB7DEB73C011A894B885C882B834A8329
:100CA00069830E94C90485E691E0F3019183808302
:100CB000C3010E960E945D042B814A816981C301A4
:100CC0000E94F905A201612FC3010F900F900F90B0
:100CD000DF91CF911F910F91EF90CF90AF908F90B8
:100CE0007F906F905F904F900C94A905FF920F93A7
:100CF0001F93CF93DF93EC01F62E8C01025F1F4F01
:100D00009A89692BC8010E9495049A8990956F2D44
:100D10006923C801DF91CF911F910F91FF900C942F
:100D20009504362FFC01759624E060E030FF02C088
:100D30005081652B3695215031962111F7CF4130E6
:100D400011F4FC014489FC012585622B642B0C9471
:100D500076060F931F93CF93DF93062F0F704230C9
:100D600019F440E0602F10C0142F262FEC0130E062
:100D7000B90184E0759567958A95E1F7CE010E94E7
:100D80009106412F602FCE01DF91CF911F910F91DE
:100D90000C9491060F931F93CF93DF9300D01F9273
:100DA000CDB7DEB78C012B834A8369830E94D705B8
:100DB0002B814A816981C8010F900F900F90DF91BC
:100DC000CF911F910F910C9428051F920F920FB68F
:100DD0000F9211240F931F932F933F934F935F9381
:100DE0006F937F938F939F93AF93BF93CF93DF9333
:100DF000EF93FF93809106018F5F80930601882314
:100E000029F0E5E2F2E020E030E059C005E212E02E
:100E1000EBE2F2E0CDE2D2E0CE010197DC014C91B1
:100E2000CF010197DC01411103C028812223F9F091
:100E30002C9130E0808190E0B901681B790B161687
:100E4000170644F4442389F0840F911D82179307F9
:100E500064F40AC0672B49F04881442331F0841BB5
:100E60009109281739070CF49C01208302C08C914A
:100E7000808380818823C9F0CF010597DC018C91A4
:100E8000AF0142505109D80112962D913C91139710
:100E9000D9019C91DA01811103C08C91892B03C087
:100EA0008C9180958923D9018C93075F1F4F3996C8
:100EB0002996B2E0093D1B0709F0AECFA2CF808191
:100EC00087FD15C0E901CB5DDD4F809106019E8154
:100ED00098130DC09981A281B3818C81911104C0B6
:100EE0009C918095892302C09C91892B8C93399683
:100EF000275F3F4F243B310511F7FF91EF91DF91C1
:100F0000CF91BF91AF919F918F917F916F915F91A1
:100F10004F913F912F911F910F910F900FBE0F9006
:100F20001F9018951092C00094E09093C100109209
:100F3000C2001092C3001092C4001092D10092E837
:100F40009093D10090E490937200E5E2F2E020E00B
:100F500030E09FEF9083D901AB5DBD4F11961C929D
:100F600011971382128217961C92179718961C924B
:100F70003996275F3F4F243B310561F78093D902B3
:100F80000895CF93442339F01092BF001092BE0011
:100F90009FEF90930601E5E2F2E090E0AFEF208151
:100FA00087FF03C027FF06C04BC0281719F0AF3FCB
:100FB00041F404C0658387FDFACF46C0208127FD38
:100FC000A92F9F5F3996943151F787FD3DC0AF3F00
:100FD00009F43AC0C82F89E0A802D0011124AB5D02
:100FE000BD4FCC932091D90211962C9311978C2F41
:100FF000992787FD9095FC01E958FD4FE491F0E0B9
:10100000EE0FFF1FEC55FD4F4591549113965C93E5
:101010004E931297FC01E85AFD4FE4911496EC931D
:10102000149715966C93211102C060E001C061E035
:101030008C2F0E94911561E08C2FCF910C94551547
:10104000AF3F09F0BECFBCCFCF910895282F3FEF1F
:10105000639FC001112464E670E00E941022822F79
:101060000C94C1072F923F924F925F926F927F92A2
:101070008F929F92AF92BF92CF92DF92EF92FF92A8
:101080000F931F93CF93DF93CDB7DEB727970FB69C
:10109000F894DEBF0FBECDBF89831B015D834C83F7
:1010A00085E292E09F838E8300E010E04A01A12C4C
:1010B000B12C80EFC82E8FE0D82EE12CF12C2B0123
:1010C000612C712C9981EE81FF81808197FF0DC089
:1010D00087FF0EC08E819F8109969F838E83075F55
:1010E0001F4F043B110571F727C0F9818F13F2CF11
:1010F0002114310439F0C701B601A30192010E9405
:10110000382201C020E0C8018B5D9D4F9B838A83FC
:10111000FC0127838C819D81892B39F0C701B601A1
:10112000A50194010E94382201C020E0EA81FB81E0
:101130002087F981F7FDCECF27960FB6F894DEBF52
:101140000FBECDBFDF91CF911F910F91FF90EF9018
:10115000DF90CF90BF90AF909F908F907F906F90D7
:101160005F904F903F902F90089508951F920F9297
:101170000FB60F9211242F933F934F935F936F936A
:101180007F938F939F93AF93BF93EF93FF93E091E0
:101190000701F09108010995FF91EF91BF91AF917F
:1011A0009F918F917F916F915F914F913F912F917F
:1011B0000F900FBE0F901F9018951092DD020895AA
:1011C000CF93DF931F92CDB7DEB76983DC01ED913A
:1011D000FC910280F381E02D41E050E0BE016F5FA1
:1011E0007F4F09950F90DF91CF910895CF93DF93B3
:1011F000EC018C859D8597FF05C082E00E941E0F43
:101200009D878C878C859D85DF91CF91089583E0A4
:101210000C944110FC018485958597FD06C082E001
:101220000E94C80E90E00196089582E00E94C80EC8
:1012300090E00895FC018485958597FD05C02FEF0A
:101240003FEF35872487089582E00C941E0FCF93DB
:10125000DF93EC0180911401882331F083E00E9438
:101260004F0F1816190634F081E090E09B838A83B3
:1012700080E090E0DF91CF910895FC0190819E5F26
:10128000908342E450E06AEB71E080E80C94E70F51
:10129000FC0181819081913A59F4813209F048C072
:1012A00047E050E06DE071E080E00E94E70F73C01E
:1012B0009132F1F5833291F49381892F90E0982F48
:1012C00088272281822BA0E0B0E0809309019093CF
:1012D0000A01A0930B01B0930C015DC0803239F478
:1012E00067E070E08DE091E00E940E1006C082324F
:1012F00009F051C082818093140180917E0388237C
:1013000019F0EEEFFAE002C0E0E0F8E080910D01A4
:1013100090910E01A0910F01B0911001803B94407B
:10132000A105B10539F48091140180FF1CC002C0F1
:1013300080E0089588E10FB6F894809360001092E1
:1013400060000FBEA895EE3F8AE0F80739F0809163
:10135000FE0A9091FF0A918380831DC01092FF0ABC
:101360001092FE0A18C0EE3F2AE0F20731F08081A9
:1013700091819093FF0A8093FE0A87E797E7918314
:1013800080839BE088E10FB6F894A8958093600075
:101390000FBE9093600081E00895EEE2F3E01382C7
:1013A000128288EE93E0A0E0B0E084839583A68368
:1013B000B78385E791E0918380838FEF9FEF9587D7
:1013C00084870895FC01918D228D892F90E0805CA7
:1013D0009F4F821B91098F7399270895FC01918D6E
:1013E000828D981731F0828DE80FF11D858D90E088
:1013F00008958FEF9FEF0895FC01918D828D9817CE
:1014000061F0828DDF01A80FB11D5D968C91928DE8
:101410009F5F9F73928F90E008958FEF9FEF0895E5
:1014200080E09BE0892B49F080E090E0892B29F057
:101430000E94000B81110C9400000895FC01848D22
:10144000DF01A80FB11DA35ABF4F2C91848D90E0EE
:1014500001968F739927848FA689B7892C93A089C9
:10146000B1898C9180648C93938D848D981306C080
:101470000288F389E02D80818F7D80830895CF934A
:10148000DF93EC01888D8823C9F0EA89FB8980818C
:1014900085FD05C0A889B9898C9186FD0FC00FB65E
:1014A00007FCF5CF808185FFF2CFA889B9898C919F
:1014B00085FFEDCFCE010E941E0AE7CFDF91CF91CD
:1014C0000895EF92FF920F931F93CF93DF93EC0158
:1014D00081E0888F9B8D8C8D981305C0E889F989F0
:1014E000808185FD24C0F62E0B8D10E00F5F1F4F0D
:1014F0000F731127E02E8C8DE8120CC00FB607FC7D
:10150000FACFE889F989808185FFF5CFCE010E9465
:101510001E0AF1CF8B8DFE01E80FF11DE35AFF4F3C
:10152000F0820B8FEA89FB898081806207C0EE8997
:10153000FF896083E889F98980818064808381E004
:1015400090E0DF91CF911F910F91FF90EF90089560
:101550001F920F920FB60F9211242F938F939F9388
:10156000EF93FF93E0918F03F09190038081E091DE
:101570009503F091960382FD12C0908180919803AB
:101580008F5F8F7320919903821751F0E091980338
:10159000F0E0E158FC4F958F8093980301C0808163
:1015A000FF91EF919F918F912F910F900FBE0F9010
:1015B0001F9018951F920F920FB60F9211242F9320
:1015C0003F934F935F936F937F938F939F93AF93CB
:1015D000BF93EF93FF938FE793E00E941E0AFF9162
:1015E000EF91BF91AF919F918F917F916F915F919B
:1015F0004F913F912F910F900FBE0F901F90189514
:101600008FE793E00E94E20921E0892B09F420E0B2
:10161000822F0895EFE7F3E01382128288EE93E0C1
:10162000A0E0B0E084839583A683B78385E891E04A
:10163000918380838DEC90E0958784878CEC90E09B
:101640009787868788EC90E0918B808B89EC90E07F
:10165000938B828B8AEC90E0958B848B8EEC90E060
:10166000978B868B118E128E138E148E0895DC014B
:10167000FB0188E4808389E4818384E482831D966E
:101680009C911D979F709F5B93831D968D919C915C
:101690001E9724E0969587952A95E1F78F708F5BCA
:1016A000848385E00895CF93DF93CDB7DEB7699744
:1016B0000FB6F894DEBF0FBECDBFFC01DB018C91ED
:1016C0008F5F8C93BE016F5F7F4F89E1DB011D92BD
:1016D0008A95E9F729E0298384E08A8391E09D8354
:1016E00083E08E832A8721E22B879C879D879F87B3
:1016F00022E2288B27E02B8B25E02C8B8E8B20E49D
:1017000030E0388F2F8B998F82818B8395858685EA
:10171000998B8A8B838180688D8B49E150E080E0D2
:101720000E94E70F69960FB6F894DEBF0FBECDBFDB
:10173000DF91CF910895DC01FB0112968C911297F5
:1017400090E02481358182179307D1F491818081C3
:10175000813A31F481E0913091F0933089F411C0F5
:10176000813271F49B3021F482811F968C9305C0E5
:101770009A3031F4828150968C9381E008950895D7
:1017800080E00895EF92FF920F931F93CF93DF9322
:10179000FB012081213851F52381223239F5DC010A
:1017A00012962C9130E04481558142175307F1F491
:1017B000EC010B851C85E12CF12C0115110591F034
:1017C000F801448155816281738180E80E94E70FAE
:1017D0008F3FFFEF9F0769F0E80EF91ED8010D91CA
:1017E0001C91EBCF81E08F87C70105C080E090E0BE
:1017F00002C08FEF9FEFDF91CF911F910F91FF906C
:10180000EF900895FC01A385B485109719F47487AF
:10181000638709C08D919C911197009711F0DC01AD
:10182000F9CF6D937C9325853685DB0114968D91D8
:101830009C911597820F931F968785870895AF9285
:10184000BF92CF92DF92EF92FF920F931F93CF93AD
:10185000DF931F92CDB7DEB77C0169836A0159011E
:1018600041E050E0BE016F5F7F4FFC0183810E9429
:101870004F0F8C0197FD0BC0F7018381A501B601C5
:1018800080640E944F0F97FD02C0800F911F0F9040
:10189000DF91CF911F910F91FF90EF90DF90CF904C
:1018A000BF90AF900895CF93DF93EC0181E08C83DC
:1018B0008D839E01265F3F4F3F832E8319861886B6
:1018C00025E931E0398328831C861B861E861D8608
:1018D0008F87888B81EC8A870E94B711BE01DF91C8
:1018E000CF910C94701180912D04811107C08CE16F
:1018F00094E00E94530C81E080932D048CE194E0ED
:1019000008958F929F92AF92BF92CF92DF92EF9203
:10191000FF920F931F93CF93DF937C018B016C0198
:1019200082E0C80ED11C4701E5E08E0E911CC0E09C
:10193000D0E0F60161916F014AE050E0C8010E94D9
:101940001E0E5C016EE2C8010E94590D8A0D9B1D9E
:10195000C80FD91FC814D90461F74AE050E0F70155
:101960006581C8010E941E0E8C0F9D1FDF91CF91D3
:101970001F910F91FF90EF90DF90CF90BF90AF90AD
:101980009F908F900895E5E3F4E081EA91E09183E0
:1019900080831282138214821582089508950E9412
:1019A000C2140E94CE0C87E494E00E94CE100E94E4
:1019B0007E1FC0E1DAE00E947C202097E1F30E94C4
:1019C000100AF9CF08950E947024CF92DF92EF920F
:1019D000FF920F931F93CF93DF936C017A018B01DA
:1019E000C0E0D0E0CE15DF0589F0D8016D918D0102
:1019F000D601ED91FC910190F081E02DC601099591
:101A0000892B11F47E0102C02196ECCFC701DF9132
:101A1000CF911F910F91FF90EF90DF90CF9008959D
:101A20006115710579F0FB0101900020E9F731970C
:101A3000AF01461B570BDC01ED91FC910280F38155
:101A4000E02D099480E090E00895EF92FF920F93CB
:101A50001F93CF93DF938C017B01C0E0D0E0F701AF
:101A6000EC0FFD1F6491662361F0D801ED91FC91AC
:101A70000190F081E02DC8010995892B11F0219684
:101A8000EECFCE01DF91CF911F910F91FF90EF909C
:101A90000895DB0114964D915C9115976D917C91A1
:101AA000DC01ED91FC910280F381E02D09940C940E
:101AB000100DDC01ED91FC910190F081E02D099475
:101AC00063EA71E00C94100D0F931F93CF93DF9393
:101AD000EC010E94100D8C01CE010E94600D800F60
:101AE000911FDF91CF911F910F9108954F925F92B7
:101AF0006F927F92EF92FF920F931F93CF93DF939A
:101B0000CDB7DEB7A1970FB6F894DEBF0FBECDBF3D
:101B10007C01FA01CB0119A2223008F42AE08E01DF
:101B20000F5D1F4F422E512C612C712CBF01A30160
:101B300092010E943822F901CA01015011096A304C
:101B400014F4605D01C0695CD8016C93232B242BD5
:101B5000252B61F7B801C7010E94100DA1960FB6A1
:101B6000F894DEBF0FBECDBFDF91CF911F910F91D3
:101B7000FF90EF907F906F905F904F900895CF927D
:101B8000DF92EF92FF920F931F93CF93DF93EC01BD
:101B90006A017B012115310579F4E881F981019011
:101BA000F081E02D642FDF91CF911F910F91FF9075
:101BB000EF90DF90CF9009942A303105E9F477FF58
:101BC0001AC06DE20E94590D8C0144275527BA01B5
:101BD0004C195D096E097F092AE0CE010E94760D3D
:101BE000800F911FDF91CF911F910F91FF90EF9088
:101BF000DF90CF9008952AE0B701A601CE01DF91D2
:101C0000CF911F910F91FF90EF90DF90CF900C94A8
:101C1000760D9A01AB01662757FD6095762F0C94DF
:101C2000BF0D2115310541F4DC01ED91FC910190CE
:101C3000F081E02D642F09940C94760D9A01462FC3
:101C400050E060E070E00C94110E615030F0209193
:101C5000F100FC0120830196F8CF289884E6809358
:101C60005004089540914B0450914C042091490434
:101C700030914A0442175307B4F49091E8009570EC
:101C8000E1F39091E80092FD19C08093F1008091FA
:101C90004B0490914C0401968F739927892B19F46A
:101CA0008EEF8093E80080914B0490914C04019654
:101CB00090934C0480934B0481E0089580E0089554
:101CC000CF92DF92EF92FF920F931F93CF93DF9308
:101CD0001F92CDB7DEB7182F062FE42E862F880F60
:101CE0008E5F99830E94320E83E00E94320EF12EA5
:101CF000C12E9981D92E8C2D8F19801798F4F60159
:101D0000E7FE02C0849101C080810E94320E182F2C
:101D100080E00E94320E8123FFEFCF1ADF0A81118B
:101D2000EACF01C081E00F90DF91CF911F910F9119
:101D3000FF90EF90DF90CF9008958091D700816061
:101D40008093D70080EA8093D80089B5806189BDEF
:101D500089B5826089BD09B400FEFDCF61E070E005
:101D600080E090E00E947B148091D8008F7C80619D
:101D70008093D8008091E000807F8093E0000895F8
:101D80002FB7FC012083F89467706093E9000895F1
:101D9000CF93DF931F92CDB7DEB7682FCE010196A8
:101DA0000E94C00E8091F20099819FBF0F90DF9139
:101DB000CF910895EF92FF920F931F93CF93DF93EC
:101DC0001F92CDB7DEB790914F04992311F057FFC2
:101DD00003C08FEF9FEF2AC08A017B01682FCE01DD
:101DE00001960E94C00E8091F20090E0A801801739
:101DF00091070CF4AC01842FF70194E6815038F080
:101E00002898909350042091F1002193F7CF411529
:101E1000510521F08091F200882321F089818FBF44
:101E2000CA0104C08BE68093E800F8CF0F90DF91E1
:101E3000CF911F910F91FF90EF900895CF93DF9373
:101E40001F92CDB7DEB741E050E0BE016F5F7F4F1C
:101E50000E94DA0E019719F4898190E002C08FEF99
:101E60009FEF0F90DF91CF910895CF93DF931F9253
:101E7000CDB7DEB7682FCE0101960E94C00E9091BB
:101E8000E800892F807295FF04C09091F20080E4F1
:101E9000891B99819FBF0F90DF91CF9108956F9219
:101EA0007F928F929F92AF92BF92CF92DF92EF92EA
:101EB000FF920F931F93CF93DF931F92CDB7DEB79F
:101EC000A82E6B01B42E052F80914F04882369F052
:101ED000E42EF52E8AEF982E8A2D8072782E9AE3C2
:101EE000892E8A2D8074682E12C08FEF9FEF54C008
:101EF0008A2D0E94350F182F81110DC09A949920B8
:101F0000A1F361E070E080E090E00E947B14E114B6
:101F1000F10471F737C090E0E816F9060CF41E2DB5
:101F20006A2DCE0101960E94C00E8091E80085FFC7
:101F300026C0812F90E0E81AF90A772029F0115085
:101F4000A8F01092F100FBCFF601A7FE07C01150D8
:101F500058F024912093F1003196F9CF115020F0E0
:101F600021912093F100FACFC80ED91E8091E8008C
:101F700085FF0FC0E114F10411F461100AC08981DA
:101F80008FBFC5CF5D9884E6809351048B2D902F31
:101F900003C08092E800F3CF0F90DF91CF911F91A3
:101FA0000F91FF90EF90DF90CF90BF90AF909F90F8
:101FB0008F907F906F9008951092E90010924C04DA
:101FC00010924B0490934A04809349040895DF9241
:101FD000EF92FF920F931F93CF93DF93D82E8A0136
:101FE0007B01E40EF51EEB01CE15DF0571F0D7FE87
:101FF00003C0FE01849101C088810E94320E2196A7
:102000008111F2CF8FEF9FEF01C0C801DF91CF9117
:102010001F910F91FF90EF90DF900895BF92CF92A4
:10202000DF92EF92FF920F931F93CF93DF936C0198
:102030008B01EB019BEFB92E2097C1F07E01C134DB
:10204000D1051CF080E4E82EF12C8091E80082FF9D
:10205000FCCFC8018C1B9D0B6E2D8C0D9D1D0E940D
:10206000250EB092E800CE19DF09E6CFC801DF9156
:10207000CF911F910F91FF90EF90DF90CF90BF9085
:1020800008958093E9008091F200882319F08AE393
:102090008093E80008951F920F920FB60F921124BB
:1020A0002F933F934F935F936F937F938F939F9360
:1020B000AF93BF93CF93EF93FF93C091E1008091D3
:1020C000E100837F8093E1008093E100C3FF0FC0B4
:1020D0001092E90081E08093EB001092EC0082E323
:1020E0008093ED0010924F0488E08093F000C2FFCF
:1020F00019C083E00E94411080915104882339F077
:1021000080915104815080935104882389F18091FA
:102110005004882339F080915004815080935004FA
:10212000882341F1C4FF10C08091E2008E7E81605F
:102130008093E2008091E1008F7E8093E1008091A6
:102140004D048E7E806111C0C0FF16C08091E200F8
:102150008E7E80618093E2008091E1008E7E80938C
:10216000E10080914D048E7E816080934D0404C017
:102170005D9ACDCF289AD6CFFF91EF91CF91BF91A5
:10218000AF919F918F917F916F915F914F913F910F
:102190002F910F900FBE0F901F90189510924F0423
:1021A00010924E0410924D040E949D0E8091E10009
:1021B0008E7E8093E1008DE08093E200559A209A14
:1021C000EEEFFFE7859194918B3F9C4D19F481E0F0
:1021D00080937E030895EF92FF920F931F93CF9306
:1021E000DF937B01FC01C281D38100E010E02097E6
:1021F00081F0E881F9810280F381E02DB701CE0101
:10220000099597FD08C0080F191F0884D985C02DAE
:10221000EECFC80102C08FEF9FEFDF91CF911F91EA
:102220000F91FF90EF9008950F931F93CF93DF933B
:102230008B01FC01C281D381209771F0E881F98183
:102240000480F581E02DB801CE010995009731F4A5
:102250000884D985C02DF0CF80E090E0DF91CF9148
:102260001F910F9108950F931F93CF93DF938B01CD
:10227000FC01C281D381209771F0E881F981068049
:10228000F781E02DB801CE010995080F111D0884D2
:10229000D985C02DF0CFF8011082DF91CF911F9129
:1022A0000F9108950F931F93CF93DF938B01FC0140
:1022B000C281D381209771F0E881F9810190F0818A
:1022C000E02DB801CE010995811105C00884D9859A
:1022D000C02DF0CF80E0DF91CF911F910F91089535
:1022E000CF93DF93FC01DB01218114968C9114972D
:1022F00090E0820F911D0897B4F5C281D381209799
:1023000019F47383628308C088859985009711F05A
:10231000EC01FACFB987A887808112968C93129727
:10232000818113968C931397908115968C911597B4
:10233000890F808380E014969C911497891788F404
:102340001696CD91DC911797C80FD11D9881C18148
:10235000D0E0CB5EDE4F988391819F5F91838F5F4A
:10236000EACF81E001C080E0DF91CF9108958091B4
:102370003F0481110DC082E080933B0484E0809390
:102380003C0410923E0410923D0481E080933F048F
:102390008BE394E00895CF93DF931F92CDB7DEB720
:1023A0001982CE0101960E943D090E94B711BE011B
:1023B0006F5F7F4F0E94EB1089810F90DF91CF916B
:1023C00008951F920F920FB60F921124CF92DF92B1
:1023D000EF92FF920F931F932F933F934F935F932F
:1023E0006F937F938F939F93AF93BF93EF93FF93DD
:1023F000CF93DF93CDB7DEB76C97DEBFCDBF109222
:10240000E9008091E80083FF24C168E0CE01459691
:102410000E94250E82EF8093E8008D8987FF05C01A
:102420009091E80090FFFCCF03C09EEF9093E800EE
:10243000982F907609F0F1C09E892F89188D9111FF
:102440000CC0803829F480914E048093F10002C0C2
:102450001092F1001092F100F5C0422F50E0512B84
:10246000913051F48111EEC04130510509F0EAC0BC
:1024700080914E048D7F0BC0933061F48111E2C0D6
:102480004130510509F0DEC080914E048260809396
:102490004E04D8C0953041F48091E80080FFFCCF15
:1024A00020682093E300CEC0963009F08CC0EB8CFE
:1024B000FC8C123069F580E090E00E94DC0F0E94F5
:1024C000CB1199E09E012F5F3F4F6901F901292F40
:1024D00011922A95E9F799831A8391E09E8390EAF5
:1024E00098879AEF998720914B0430914C04275F8D
:1024F0003F4F3C832B838D83C7010E94DC0F49E053
:1025000050E0B60180E00E94E70F0E94CB119AC014
:10251000C7010E94DC0F0E94B711BE016B5E7F4FA6
:102520000E941411009719F00CF08CC08FC011306C
:1025300071F48B8D9C8D089719F481E08093480489
:102540008091480481112FC06EE072E031C01330D9
:1025500009F07CC08F89882349F1823029F440E852
:102560006CE089E292E006C0813039F440E868E02E
:1025700080E292E00E94600E63C0833009F066C082
:102580000E94B7118E010F5F1F4FB8010E943311D7
:10259000F80101900020E9F73197BF01601B710B32
:1025A00040E0C801E7CF6CEF71E002C066E372E083
:1025B0006115710509F44AC0FB01449150E080E8BF
:1025C0000E94E70F3FC0973009F440C0983021F4D3
:1025D00081E08093F10036C09930A1F58370B1F5A8
:1025E000E6E1F1E081E021E036E39081992361F0BA
:1025F0008093E9002093EB0091919093EC0030934D
:10260000ED008F5F873089F78EE78093EA001092A4
:10261000EA008F8980934F0415C08B8D9C8D0E949A
:10262000DC0F898D811105C0CE0145960E944809B5
:1026300007C00E94B711BE016B5E7F4F0E9452110E
:10264000882321F08EEF8093E80003C081E280931D
:10265000EB006C960FB6F894DEBF0FBECDBFDF91D6
:10266000CF91FF91EF91BF91AF919F918F917F910A
:102670006F915F914F913F912F911F910F91FF901B
:10268000EF90DF90CF900F900FBE0F901F90189596
:1026900008951F920F920FB60F9211242F933F931C
:1026A0004F935F936F937F938F939F93AF93BF935A
:1026B000EF93FF93E0911C01F0911D010995FF91AB
:1026C000EF91BF91AF919F918F917F916F915F91AA
:1026D0004F913F912F910F900FBE0F901F90189523
:1026E0001F920F920FB60F9211242F933F934F9387
:1026F0005F936F937F938F939F93AF93BF93EF936A
:10270000FF93E0911E01F0911F010995FF91EF9158
:10271000BF91AF919F918F917F916F915F914F91F9
:102720003F912F910F900FBE0F901F9018951F9201
:102730000F920FB60F9211242F933F934F935F93F5
:102740006F937F938F939F93AF93BF93EF93FF9379
:10275000E0912001F09121010995FF91EF91BF9146
:10276000AF919F918F917F916F915F914F913F9129
:102770002F910F900FBE0F901F9018951F920F92E0
:102780000FB60F9211242F933F934F935F936F9344
:102790007F938F939F93AF93BF93EF93FF93E091BA
:1027A0002201F09123010995FF91EF91BF91AF9123
:1027B0009F918F917F916F915F914F913F912F9159
:1027C0000F900FBE0F901F9018951F920F920FB68B
:1027D0000F9211242F933F934F935F936F937F93A7
:1027E0008F939F93AF93BF93EF93FF93E091240157
:1027F000F09125010995FF91EF91BF91AF919F91C4
:102800008F917F916F915F914F913F912F910F9099
:102810000FBE0F901F9018951F920F920FB60F9238
:1028200011242F933F938F939F93AF93BF938091E6
:10283000530490915404A0915504B09156043091E2
:10284000520423E0230F2D3720F40196A11DB11D62
:1028500005C026E8230F0296A11DB11D2093520446
:102860008093530490935404A0935504B09356045A
:102870008091570490915804A0915904B0915A0442
:102880000196A11DB11D8093570490935804A09305
:102890005904B0935A04BF91AF919F918F913F918A
:1028A0002F910F900FBE0F901F9018953FB7F8947F
:1028B0008091570490915804A0915904B0915A0402
:1028C00026B5A89B05C02F3F19F00196A11DB11D8B
:1028D0003FBFBA2FA92F982F8827820F911DA11DC6
:1028E000B11DBC01CD0142E0660F771F881F991F03
:1028F0004A95D1F708958F929F92AF92BF92CF924F
:10290000DF92EF92FF926B017C010E9456144B0103
:102910005C01C114D104E104F10401F10E94E20C54
:102920000E945614DC01CB0188199909AA09BB0938
:10293000883E9340A105B10560F321E0C21AD10899
:10294000E108F10888EE880E83E0981EA11CB11CF6
:10295000C114D104E104F10419F7DBCFFF90EF902B
:10296000DF90CF90BF90AF909F908F90089582306E
:10297000910538F0880F991F880F991F05970197C7
:10298000F1F70895789484B5826084BD84B5816040
:1029900084BD85B5826085BD85B5816085BDEEE667
:1029A000F0E0808181608083E1E8F0E01082808146
:1029B00082608083808181608083E0E8F0E08081B4
:1029C00081608083E1E9F0E08081826080838081A2
:1029D00081608083E0E9F0E0808181608083E1ECC8
:1029E000F0E0808184608083808182608083808148
:1029F00081608083E3ECF0E0808181608083E0ECA3
:102A0000F0E0808182608083E2ECF0E08081816090
:102A10008083EAE7F0E08081846080838081826047
:102A20008083808181608083808180688083089535
:102A300090E0FC013197EF30F105B0F5EA5AFF4F15
:102A40000C947922809180008F7703C08091800060
:102A50008F7D80938000089580918000877FF9CFDB
:102A600084B58F7702C084B58F7D84BD0895809131
:102A700090008F7707C0809190008F7D03C0809178
:102A80009000877F8093900008958091C0008F7799
:102A900003C08091C0008F7D8093C0000895809115
:102AA000C200877F8093C2000895CF93DF9390E0A8
:102AB000FC01E85AFD4F2491FC01E958FD4F849137
:102AC000882361F190E0880F991FFC01EE54FD4FBF
:102AD000C591D491FC01EC55FD4FA591B4916111C4
:102AE00009C09FB7F8948881209582238883EC9150
:102AF0002E230BC0623061F49FB7F8943881822F87
:102B0000809583238883EC912E2B2C939FBF06C046
:102B10008FB7F894E8812E2B28838FBFDF91CF9158
:102B200008951F93CF93DF93282F30E0F901E65CDF
:102B3000FD4F8491F901E85AFD4FD491F901E9580C
:102B4000FD4FC491CC23C9F0162F81110E94181596
:102B5000EC2FF0E0EE0FFF1FEC55FD4FA591B49167
:102B60008FB7F894111105C09C91ED2FE095E923E2
:102B700002C0EC91ED2BEC938FBFDF91CF911F91B1
:102B80000895FC01808191810C941423CF93DF93ED
:102B9000EC0188819981009711F00E941423198219
:102BA00018821D821C821B821A82DF91CF910895A8
:102BB0000F931F93CF93DF93EC018B016F5F7F4FD8
:102BC000888199810E94AC23009731F09983888392
:102BD0001B830A8381E001C080E0DF91CF911F91C8
:102BE0000F910895CF93DF93EC0188819981892B10
:102BF00029F08A819B818617970760F4CE010E9495
:102C0000D815882341F08C819D81892B19F4E881A6
:102C1000F981108281E0DF91CF910895EF92FF92C8
:102C20000F931F93CF93DF93EC017B018A01BA01CD
:102C30000E94F215811104C0CE010E94C61507C082
:102C40001D830C83B701888199810E947E24CE0167
:102C5000DF91CF911F910F91FF90EF900895FC01AC
:102C600011821082138212821582148261157105FD
:102C700051F0FB0101900020E9F73197AF01461BAD
:102C8000570B0C940E160895CF93DF93EC01FB01C4
:102C90008617970761F0608171816115710529F0D0
:102CA000448155810E940E1602C00E94C615CE01B5
:102CB000DF91CF910895FC0111821082138212825C
:102CC000158214820C944416EF92FF920F931F9377
:102CD000CF93DF93FC01248135816115710511F4D7
:102CE00080E019C041155105A9F07B01EC018A0172
:102CF000020F131FB8010E94F215882389F328815F
:102D000039818C819D81B701820F931F0E947E249F
:102D10001D830C8381E0DF91CF911F910F91FF9074
:102D2000EF900895CF93DF93EC01FB01448155812F
:102D3000608171810E946416811103C0CE010E94DE
:102D4000C615CE01DF91CF91089520915D05309198
:102D50005E0528173907B9F490911B0580911C0571
:102D6000981789F0E0911B05F0E0E35EFA4F80814F
:102D700020911B0530E02F5F3F4F2F7333272093A7
:102D80001B0590E008958FEF9FEF08951F93CF9359
:102D9000DF93DC015C962D913C915D972115310507
:102DA00039F481E090E013969C938E9312973DC086
:102DB0005196ED91FC91529750969C915097892F86
:102DC00080951FB75E964C915E9741FB772770F90F
:102DD00041FD6095F8944081772311F0492B01C0A3
:102DE00048234083E9012197F1F748E0508160FFD3
:102DF00002C0592B01C058235083E9012197F1F7F4
:102E00006695415099F7772321F09081892380833B
:102E100003C08081982B90831FBF5C968D919C91FD
:102E20005D970197F1F721E030E0C901DF91CF9183
:102E30001F910895089520915D0530915E05281732
:102E4000390771F490911B0580911C05981741F08A
:102E5000E0911B05F0E0E35EFA4F808190E0089579
:102E60008FEF9FEF08958091F90490E02091FA048C
:102E7000821B910908959091FA048091F9049817A2
:102E800050F4E92FF0E0E550FB4F208130E09F5FE8
:102E90009093FA0402C02FEF3FEFC9010895E0912B
:102EA000FA048091F904E81730F4F0E0E550FB4FA4
:102EB000808190E008958FEF9FEF0895089520910D
:102EC0005D0530915E052817390771F480911C0566
:102ED00020911B0590E0805C9F4F821B910960E46C
:102EE00070E00E942422089580E090E008951F92EF
:102EF0000F920FB60F9211242F933F934F935F932E
:102F00006F937F938F939F93AF93BF93EF93FF93B1
:102F10008091600587FF05C0109295001092940083
:102F20001BC020916005332727FD309580915F05F8
:102F300090E02817390784F480916005992787FD70
:102F40009095FC01EE0FFF1F8E0F9F1FFC01EF59A4
:102F5000FA4F808186FD15C0809160058F5F809358
:102F6000600520916005332727FD309580915F052E
:102F700090E028173907C4F4809160058C3064F123
:102F800013C080916005992787FD9095FC01EE0F95
:102F9000FF1F8E0F9F1FFC01EF59FA4F808160E0E9
:102FA0008F730E949115D8CF8091940090919500D5
:102FB000049680349C4918F480E49CE905C0809113
:102FC00094009091950004969093990080939800B6
:102FD0008FEF809360053BC0209194003091950065
:102FE00080916005992787FD9095FC01EE0FFF1FEA
:102FF0008E0F9F1FFC01EF59FA4F81819281820F42
:10300000931F909399008093980080916005992771
:1030100087FD9095FC01EE0FFF1F8E0F9F1FFC0197
:10302000EF59FA4F808186FF12C080916005992781
:1030300087FD9095FC01EE0FFF1F8E0F9F1FFC0177
:10304000EF59FA4F808161E08F730E949115FF91D3
:10305000EF91BF91AF919F918F917F916F915F9110
:103060004F913F912F910F900FBE0F901F90189589
:10307000E0915D05F0915E05E817F90769F4A38911
:10308000B4899C918589809589238C9310925E05E3
:1030900010925D0581E0089580E00895CF93DF935D
:1030A000EC018A8D9B8D892BF1F080915D059091CB
:1030B0005E058C179D07B9F0009711F00E94381833
:1030C0008E8D8E7F8E8F10921C0510921B05D093D3
:1030D0005E05C0935D05EB89FC8990818D89892B04
:1030E000808381E001C080E0DF91CF9108951F923D
:1030F0000F920FB60F9211242F933F934F935F932C
:103100006F937F938F939F93AF93BF93EF93FF93AF
:10311000E0915D05F0915E05309709F451C0968D00
:10312000A685B785858591FF04C09C91892329F4E4
:1031300047C09C91892309F043C0A389B4899C911D
:103140008589809589238C93868997890197F1F7E2
:10315000608D718DA685B785558538E020E0CB015F
:103160000197F1F7822F90E095958795282F4C9144
:10317000452309F02068315091F7868D81FD209517
:1031800080911C0590E001968F73992730911B0563
:10319000381749F0A0911C05B0E0A35EBA4F2C93FC
:1031A00080931C0503C0868D8160868F828D938DF0
:1031B0000197F1F7A389B4899C918589892B8C9318
:1031C000FF91EF91BF91AF919F918F917F916F91FF
:1031D0005F914F913F912F910F900FBE0F901F90D5
:1031E000189528EB31E0FC01318320830C943818CA
:1031F0001F93CF93DF93EC01162F6E8D6695617050
:1032000081E06827812F0E94911561E0812F0E9443
:103210005515612F70E0FB01E85AFD4FE491E88BF2
:10322000FB01E958FD4FE491F0E0EE0FFF1FEC5574
:10323000FD4F859194919A8B898BDF91CF911F914E
:1032400008951F93CF93DF93EC01162F60E0812F39
:103250000E9455158E8D81FD04C061E0812F0E9472
:1032600091151C87612F70E0FB01E85AFD4FE49136
:10327000ED87FB01E958FD4FE491F0E0EE0FFF1FF1
:10328000EA56FD4F859194919F878E87DF91CF916C
:103290001F9108951F93CF93DF93EC01162F1B828C
:1032A0001A8288EE93E0A0E0B0E08C839D83AE8329
:1032B000BF8388EB91E0998388831F8A1E8A198EC9
:1032C000188E1B8E1A8E1D8E1C8E8E8D8E7F20FB6F
:1032D00081F98E8F642FCE010E94F818612FCE01E4
:1032E000DF91CF911F910C942119CF93DF93EC01C3
:1032F0009A01AB011B8E1A8E198E188E1F8A1E8A98
:1033000060E079E08DE390E00E945A22F9012430D8
:10331000310518F0C901039702C081E090E09D8F4C
:103320008C8F8C8598EF980F943048F062EF680F7F
:10333000643028F066EE680F633008F071C0B901A0
:10334000769567956431710518F06351710902C073
:1033500061E070E07F8B6E8B369720F0B90165508D
:10336000710902C061E070E0798F688FB901660F62
:10337000771F260F371F36952795369527952D30C1
:10338000310518F02C50310902C021E030E03B8FAC
:103390002A8F943058F092EF980F943038F08A5179
:1033A000833008F442C0A0E0B0E041C0A8E6B0E03D
:1033B000E8E6F0E0808181608C938C8598EF980F2F
:1033C000943058F022EF280F243038F026EE280FE2
:1033D000233018F020E030E002C02BE630E03C8BD8
:1033E0002B8B943010F4845009C08E3069F08F30EC
:1033F00069F0803169F0813169F0865191E001C056
:10340000990F8A95EAF707C098E005C092E003C0DB
:1034100094E001C091E09D8B8C8D9D8D0197F1F71B
:10342000CE01DF91CF910C944E18A8E6B0E0833026
:1034300008F4BECFE0E0F0E0BDCFFC0113821282C1
:1034400088EE93E0A0E0B0E084839583A683B78301
:1034500088EC91E091838083089581E08093D50486
:103460006093F8041092D7041092D6040895109235
:10347000C80481E08093C6041092C50461E082E034
:103480000E94911561E083E00E949115E9EBF0E064
:1034900080818E7F808380818D7F808388E480938C
:1034A000B80085E48093BC0008951092FA0410924D
:1034B000F9041092D7041092D6040C94371A0F9383
:1034C0004132E8F59091C8049111FCCF32E030937D
:1034D000C8040093C6043FEF30935B041092A0042D
:1034E00040939F04FB0161EA74E0DB013A2F361B35
:1034F000341718F431913D93F9CF1092C7043091ED
:10350000C704880F832B8093C7048091C504813042
:1035100061F41092C5048091C7048093BB00809130
:10352000BC0083FDF8CF85EC01C085EE8093BC0024
:10353000222339F08091C804823019F4F9CF91E048
:1035400011C080915B048F3F69F080915B048032F1
:1035500031F080915B04803321F094E003C092E06D
:1035600001C093E0892F0F9108950F93062F21E05A
:103570004091D60468ED74E08091F8040E945F1ACF
:103580001092D7041092D6041092D5040F9108958A
:1035900061E00C94B51A613298F42091C80424308B
:1035A00089F460937D04FC012FE734E0D9018A2F70
:1035B000821B861718F481918D93F9CF80E00895CE
:1035C00081E0089582E00895CF93DF931F92CDB7F5
:1035D000DEB769832091D5042223D1F02091D6044F
:1035E000203240F021E030E0FC013383228380E090
:1035F00090E015C08091D704E82FF0E0E852FB4F2F
:10360000998190838F5F8093D7048093D60405C0FF
:1036100061E0CE0101960E94CB1A81E090E00F900C
:10362000DF91CF910895CF92DF92EF92FF920F93A7
:103630001F93CF93DF937C01262F972F8A018091D0
:10364000D504882391F0C62FD72F6E01C40ED51E46
:10365000CC15DD0571F06991D701ED91FC910190D8
:10366000F081E02DC7010995F3CF642F822F0E94CE
:10367000CB1AC801DF91CF911F910F91FF90EF906E
:10368000DF90CF90089585ED8093BC008091BC00C1
:1036900084FDFCCF1092C804089585EC8093BC0093
:1036A0001092C80408951F920F920FB60F92112422
:1036B0002F933F934F935F936F937F938F939F933A
:1036C000AF93BF93EF93FF938091B900887F8036CB
:1036D00009F49EC078F5883209F45DC090F4803119
:1036E00009F456C038F4882309F4F5C0883009F489
:1036F0004FC0F5C0883109F44EC0803209F45FC074
:10370000EEC0803409F46AC058F4803309F457C01D
:10371000883309F0E4C080935B040E944D1BDFC036
:10372000803509F44FC0883509F45DC0883409F04C
:10373000D6C0D3C0883909F4C4C0A8F4883709F4C6
:1037400067C038F4883609F463C0803709F460C074
:10375000C6C0883809F4B5C0803909F45FC0803824
:1037600009F0BDC05BC0803B09F483C038F4803AE7
:1037700009F466C0883A09F47CC0B1C0803C09F401
:10378000A4C0883C09F4A1C0883B09F487C0A7C045
:103790008091C70410C09091A00480919F04981755
:1037A00070F5E091A00481E08E0F8093A004F0E01A
:1037B000EF55FB4F80818093BB0085EC83C08093E5
:1037C0005B048BC0E091A00481E08E0F8093A00485
:1037D0008091BB00F0E0EF55FB4F80839091A004F7
:1037E00080919F046BC0E091A00481E08E0F8093D4
:1037F000A0048091BB00F0E0EF55FB4F80838091E7
:10380000C60481116AC081E08093C50484EA5EC069
:1038100083E08093C80410925C04CFCF80915C0455
:10382000803208F04EC0E0915C0481E08E0F8093FE
:103830005C048091BB00F0E0E35AFB4F8083BDCF76
:103840000E944D1B80915C04803230F4E0915C0456
:10385000F0E0E35AFB4F108260915C0470E0E0916D
:10386000C104F091C2048DE594E0099510925C04C6
:1038700036C084E08093C80410927E0410927D04C8
:10388000E091C304F091C404099580917D048111F5
:1038900005C081E080937D0410927F04E0917E0456
:1038A00081E08E0F80937E04F0E0E158FB4F808131
:1038B0008093BB0090917E0480917D04981708F45A
:1038C0007CCF85E88093BC000AC085EC8093BC0067
:1038D0001092C80404C010925B040E94431BFF9125
:1038E000EF91BF91AF919F918F917F916F915F9178
:1038F0004F913F912F910F900FBE0F901F901895F1
:1039000089EC94E00C941D1A80919D0590919E0580
:10391000892B49F481E090E090939E0580939D056A
:1039200040E064E606C010929E0510929D0540E0BE
:1039300060E081E10C942608CF93DF9300D000D0A3
:10394000CDB7DEB7DC0112963C91129739836A83BA
:103950004B832C83ED91FC910190F081E02D44E0AC
:1039600050E0BE016F5F7F4F09950F900F900F9051
:103970000F90DF91CF910895FC01128220E040E08A
:1039800060E00C949C1CCF93DF93EC016A8320E0F1
:1039900040E060E00E949C1C1A8220E040E060E071
:1039A000CE01DF91CF910C949C1CCF93DF93EC015F
:1039B000E881F9810480F581E02D0995E881F9819C
:1039C0000680F781E02DCE01DF91CF9109940F930E
:1039D0001F93CF93DF93EC01E881F9810084F18597
:1039E000E02D41E009958C01892B39F0E881F981BE
:1039F0000680F781E02DCE010995C801DF91CF91B6
:103A00001F910F9108950F931F93CF93DF93EC01B4
:103A1000E881F9810480F581E02D09958C01892BDD
:103A200039F0E881F9810680F781E02DCE01099512
:103A3000C801DF91CF911F910F910895CF93DF932C
:103A4000EC01BC0187EA95E00E94250DBE0180ECE7
:103A500095E0DF91CF910C94250DCF93DF93EC018E
:103A6000BC0187EA95E00E94490DBE0180EC95E01B
:103A7000DF91CF910C94490D0F931F93CF93DF9358
:103A8000EC018B01AB01BC0187EA95E00E94090EB5
:103A9000A801BE0180EC95E0DF91CF911F910F91BD
:103AA0000C94090E462F682F87EA95E00E94E804DF
:103AB00080EC95E00C94600D80EC95E00C94600D2A
:103AC000803839F421E030E030939C0520939B0549
:103AD00011C0823839F421E030E030939A05209308
:103AE000990508C0823331F421E030E03093980525
:103AF0002093970520919B0530919C05213031053D
:103B000009F05EC04091990550919A0541305105E8
:103B100059F440919705509198054130510521F491
:103B20003093900520938F05813809F442C0893D78
:103B3000E1F441E050E05093940540939305213027
:103B40003105F9F4409195055091960541305105A4
:103B500081F440919305509194054130510549F409
:103B600050938C0540938B0504C021303105F1F44E
:103B7000E9CF8A3D49F481E090E0909392058093EB
:103B800091052130310531F580919505909196058B
:103B9000019701F5809191059091920581309105F1
:103BA000C9F490938E0580938D0508958A3D91F414
:103BB000E2CF41E050E05093960540939505C9CF80
:103BC000813809F0B4CF81E090E09093960580931E
:103BD0009505D7CF0895CF93DF93803829F41092BD
:103BE0009C0510929B050DC0823829F410929A050D
:103BF0001092990506C0823321F410929805109214
:103C0000970520919B0530919C052115310509F000
:103C100032C14091990550919A05452B09F09DC0FC
:103C20004091970550919805452B09F096C0409119
:103C30008F05509190054130510509F08EC01092CA
:103C4000900510928F0560EE81E192E00E94E71CE2
:103C500064E670E080E090E00E947B1462EE81E117
:103C600092E00E94E71C64E670E080E090E00E9431
:103C70007B146CE481E192E00E94E71C64E670E052
:103C800080E090E00E947B1481E192E00E94031D9D
:103C900087EA95E00E94E10485E493E00E941E1DFE
:103CA00061E080E00E94521D85E393E00E941E1DAA
:103CB0000E945C1D289A61E085E00E94911560E9F0
:103CC00071E080E090E00E947B1460E085E00E945B
:103CD000911560E971E080E090E00E947B1461E062
:103CE00085E00E94911560E971E080E090E00E941B
:103CF0007B1460E085E00E94911560E971E080E04E
:103D000090E00E947B1461E085E00E94911560E9DB
:103D100071E080E090E00E947B1460E085E00E940A
:103D2000911560E971E080E090E00E947B1461E011
:103D300085E00E94911560E971E080E090E00E94CA
:103D40007B1460E085E00E94911560E971E080E0FD
:103D500090E0DF91CF910C947B14813809F486C0F8
:103D6000893DB1F410929405109293052115310507
:103D700009F042C04091950550919605452B09F0F8
:103D800082C04091930550919405452B29F02EC097
:103D90002115310579F377C040918B0550918C0541
:103DA0004130510519F510928C0510928B058CEF5E
:103DB00091E00E94BC1C81E192E00E94D51C87EA40
:103DC00095E00E94E10487E293E00E941E1D62E0FC
:103DD00080E00E94521D8FE193E00E941E1D0E9410
:103DE0005C1D109288051092870550C08A3D39F4F9
:103DF0001092920510929105232B09F047C08091F3
:103E0000950590919605892B09F040C08091910508
:103E100090919205892BD1F5C0918D05D0918E0599
:103E2000C130D10599F510928E0510928D0581E172
:103E300092E00E94031D8CEF91E00E94BC1C87EA77
:103E400095E00E94E10484E193E00E941E1D62E07F
:103E500080E00E94521D8CE093E00E941E1D0E9493
:103E60005C1DD0938805C093870510C010929605FD
:103E70001092950586CF813809F072CF1092960581
:103E800010929505B9CF8A3D09F4B2CFDF91CF9159
:103E9000089587EA95E00E94E10482E093E00C94A3
:103EA0001E1D8F92AF92CF92EF920F9320E04AE0C7
:103EB00069E080EC95E00E944A191F921F9283E00E
:103EC0008F9387E0882E96E0A92E25E0C22E34E05D
:103ED000E32E00E021E042E067E287EA95E00E94FD
:103EE0003A060F900F900F900F91EF90CF90AF90F8
:103EF0008F90089580EC95E00C94F118CF93DF93A8
:103F00005D9A289A61E085E00E94551560E085E0A1
:103F10000E94911568EC70E080E090E00E947B14B4
:103F200061E085E00E94911568EC70E080E090E02F
:103F30000E947B1460E085E00E94911568EC70E0BF
:103F400080E090E00E947B1461E085E00E94911582
:103F500068EC70E080E090E00E947B1460E085E017
:103F60000E94911520E044E064E187EA95E00E9418
:103F7000CA0640E855E260E070E080EC95E00E94FF
:103F8000751987EA95E00E94E1040E945C1D68EBC8
:103F90007BE080E090E00E947B1487EA95E00E943D
:103FA000E1048FE693E00E941E1D61E080E00E9424
:103FB000521D8BE593E00E941E1D62E080E00E948E
:103FC000521DCAE0D0E080EC95E00E945F17181601
:103FD000190644F080919F059091A00584369105C3
:103FE0000CF456C080EC95E00E945F17892B59F0C5
:103FF00080EC95E00E94A51668EC70E080E090E00F
:104000000E947B14EFCF87EA95E00E94E1040E94B2
:104010005C1D8AE493E00E941E1D0E945C1D68EEF8
:1040200073E080E090E00E947B1480E18093810047
:104030001092800084E08093DA028BE197EB9093FA
:10404000DC028093DB02909387008093860084E1FA
:104050008093810084E89CE190930801809307019C
:1040600081E080936F0081E192E00E94D51C80E0A6
:104070000E94920740E060E081E10E94C10748E5AC
:1040800052E06CE271E081E1DF91CF910C94320853
:1040900064E670E080E090E00E947B1480919F05D0
:1040A0009091A005BE010E942422892BD9F46AE0D8
:1040B00070E080912C0190912D010E943C1D89E5BA
:1040C00093E00E941E1D80912C0190912D0101977B
:1040D00090932D0180932C01019721F463E080E0FF
:1040E0000E94521D80919F059091A005019690938A
:1040F000A00580939F0567CFDF92EF92FF920F9309
:104100001F93CF93DF93CDB7DEB762970FB6F894C6
:10411000DEBF0FBECDBF80EC95E00E945F17892BFC
:1041200009F470C180EC95E00E94A5167C018C0119
:1041300011274AE061EA75E0C8010E94852464ED18
:1041400071E080EC95E00E94570D61EA75E080EC2B
:1041500095E00E94570D69ED71E080EC95E00E94BA
:10416000640DE11003C010922E014CC181E0E812F1
:1041700003C0E0922E0146C120912E018091870557
:1041800090918805222309F4D5C0209189053091AA
:104190008A05892B09F03EC021153105D9F50E9409
:1041A000491F4AE061EA75E0C8010E94852463EE78
:1041B00071E0CE0107960E942F1661EA75E0CE01EC
:1041C0000D960E942F16BE01635F7F4FCE010196B0
:1041D0000E945B16BE01695F7F4FCE0101960E946F
:1041E00092160E942D1DCE0101960E94C115CE018E
:1041F0000D960E94C115CE0107960E94C1150E941E
:104200005C1DF801EC57FC4F649181E192E00E9443
:10421000E71C8CC02130310509F488C040912A0187
:1042200050912B012091280130912901241B350B3D
:1042300080919B0590919C05289FB001299F700D4E
:10424000389F700D11242091260130912701241BE5
:10425000350B4091950550919605249FC001259FEF
:10426000900D349F900D1124860F971F9093860513
:104270008093850587EA95E00E94E104073D1105DA
:10428000F1F184F40032110509F445C00638110536
:1042900009F04AC062E08CEF91E00E94C31C80EC00
:1042A00092E040C0093D110589F0E4F00A3D110596
:1042B000D9F58091850548ED481B20E060E08CEF42
:1042C00091E00E949C1C89EF92E02CC040918505F2
:1042D000485D20E060E08CEF91E00E949C1C8EEE37
:1042E00092E020C08091850568ED681B20E040E0E9
:1042F0008CEF91E00E949C1C83EE92E013C06091D1
:104300008505685D20E040E08CEF91E00E949C1CF8
:1043100087ED92E007C061E08CEF91E00E94C31C42
:104320008CEC92E00E941E1D0E945C1D8E2D0E944E
:10433000601D5AC0892B09F054C080918905909165
:104340008A05892B09F04DC00E94491F4AE061EAA5
:1043500075E0C8010E9485246CEE71E0CE010796DD
:104360000E942F1661EA75E0CE010D960E942F166D
:10437000BE01635F7F4FCE0101960E945B16BE01B6
:10438000695F7F4FCE0101960E9492160E942D1DFB
:10439000CE0101960E94C115CE010D960E94C11555
:1043A000CE0107960E94C1150E945C1DF801EC57D2
:1043B000FC4F6491E0911102F09112020084F185AA
:1043C000E02D40E081E192E00995892B51F0E091E8
:1043D0001102F09112020680F781E02D81E192E056
:1043E00009958E2D0E94EB1D61E085E00E949115DC
:1043F00068E270E080E090E00E947B1460E085E07D
:104400000E94911562960FB6F894DEBF0FBECDBF25
:10441000DF91CF911F910F91FF90EF90DF90089562
:10442000AA1BBB1B51E107C0AA1FBB1FA617B707DA
:1044300010F0A61BB70B881F991F5A95A9F78095F6
:104440009095BC01CD01089597FB072E16F40094BA
:1044500007D077FD09D00E94102207FC05D03EF45A
:10446000909581959F4F0895709561957F4F089520
:10447000A1E21A2EAA1BBB1BFD010DC0AA1FBB1F68
:10448000EE1FFF1FA217B307E407F50720F0A21BDA
:10449000B30BE40BF50B661F771F881F991F1A9447
:1044A00069F760957095809590959B01AC01BD0171
:1044B000CF010895052E97FB1EF400940E947122EF
:1044C00057FD07D00E94382207FC03D04EF40C940D
:1044D000712250954095309521953F4F4F4F5F4F3A
:1044E000089590958095709561957F4F8F4F9F4F60
:1044F0000895EE0FFF1F0590F491E02D0994CF93DE
:10450000DF938230910510F482E090E0E091E105C4
:10451000F091E20520E030E0C0E0D0E0309711F10A
:104520004081518148175907C0F04817590761F475
:1045300082819381209719F09B838A832BC090936B
:10454000E2058093E10526C02115310519F04217D7
:10455000530718F49A01BE01DF01EF010280F381D5
:10456000E02DDCCF2115310509F1281B390B243052
:10457000310590F412968D919C91139761157105F8
:1045800021F0FB019383828304C09093E205809322
:10459000E105FD01329644C0FD01E20FF31F819356
:1045A0009193225031092D933C933AC02091DF051D
:1045B0003091E005232B41F4209102013091030159
:1045C0003093E0052093DF05209100013091010137
:1045D0002115310541F42DB73EB7409104015091AA
:1045E0000501241B350BE091DF05F091E005E21792
:1045F000F307A0F42E1B3F0B2817390778F0AC0106
:104600004E5F5F4F2417350748F04E0F5F1F5093E2
:10461000E0054093DF058193919302C0E0E0F0E074
:10462000CF01DF91CF9108950F931F93CF93DF9325
:10463000009709F48CC0FC0132971382128200911A
:10464000E1051091E2050115110581F42081318108
:10465000820F931F2091DF053091E005281739075D
:1046600079F5F093E005E093DF0571C0D80140E0F3
:1046700050E0AE17BF0750F412962D913C9113975E
:10468000AD012115310509F1D901F3CF9D01DA0101
:104690003383228360817181860F971F821793076E
:1046A00069F4EC0128813981260F371F2E5F3F4FB7
:1046B000318320838A819B8193838283452B29F4D4
:1046C000F093E205E093E10542C01396FC93EE936C
:1046D0001297ED01499159919E01240F351FE21760
:1046E000F30771F480819181840F951F02961196D2
:1046F0009C938E938281938113969C938E931297B1
:10470000E0E0F0E0D80112968D919C91139700970C
:1047100019F0F8018C01F6CF8D919C9198012E5FD4
:104720003F4F820F931F2091DF053091E00528173E
:10473000390769F4309729F41092E2051092E105E7
:1047400002C0138212821093E0050093DF05DF910F
:10475000CF911F910F910895A0E0B0E0E2EBF3E25A
:104760000C94BE24EC01009721F4CB010E947F221F
:10477000B2C0FC01E60FF71F9C0122503109E2177D
:10478000F30708F4A6C0D9010D911C9111970617E3
:104790001707B0F00530110508F499C0C801049757
:1047A0008617970708F493C002501109061B170BD0
:1047B000019311936D937C93CF010E94142387C0C2
:1047C0007B01E01AF10A3C01600E711EA091E10527
:1047D000B091E20580E090E0812C912C109709F4D3
:1047E00044C0AD90BC901197A615B705A1F5650121
:1047F00042E0C40ED11CCE14DF0468F1C5018E194D
:104800009F09AC014E5F5F4F1296FC901297139672
:10481000AC914530510540F0F282A38391838083AF
:10482000D9016D937C9309C00E5F1F4FA00EB11E7E
:10483000F901B182A082EF2DFA2F8114910431F099
:10484000D4011396FC93EE93129741C0F093E205C6
:10485000E093E1053CC08A159B0508F4C5014D01B4
:1048600012960D90BC91A02DB9CFA091DF05B0910B
:10487000E005A615B705E1F486179707C8F48091FF
:10488000000190910101009741F48DB79EB74091CE
:10489000040150910501841B950BE817F907C8F432
:1048A000F093E005E093DF05F901718360830FC0A9
:1048B000CB010E947F227C01009759F0A801BE0124
:1048C0000E947524CE010E941423C70104C0CE01AA
:1048D00002C080E090E0CDB7DEB7EEE00C94DA24C1
:1048E00081E090E0F8940C94F124FB01DC0102C01B
:1048F00001900D9241505040D8F70895FB01DC0122
:1049000001900D920020E1F70895BB274A3031F461
:10491000992322F4BDE2909581959F4F0C949124A8
:10492000BB27FB015527AA27880F991FAA1FA41789
:1049300010F0A41B83955051B9F7A05DAA3308F07D
:10494000A95DA193009779F7B111B1931192CB01B1
:104950000C94AA24DC01FC01672F71917723E1F705
:10496000329704C07C916D9370836291AE17BF073C
:10497000C8F308952F923F924F925F926F927F9269
:104980008F929F92AF92BF92CF92DF92EF92FF925F
:104990000F931F93CF93DF93CDB7DEB7CA1BDB0B0B
:1049A0000FB6F894DEBF0FBECDBF09942A883988B0
:1049B00048885F846E847D848C849B84AA84B984B7
:1049C000C884DF80EE80FD800C811B81AA81B981C3
:1049D000CE0FD11D0FB6F894DEBF0FBECDBFED01D7
:1049E000089512E0CAE4D2E004C0FE010E947922D8
:0C49F0002196CB34D107C9F7F894FFCF13
:1049FC000000E3052000FFB508FFFFFFFF00E1000A
:104A0C00000000000000C180810000004813481322
:104A1C004813481348130500640028000A000100DD
:104A2C000000007502000000007103C3025303ADC7
:104A3C00020B03F6FF00000904E50CB40215031881
:104A4C000300000000BE04E50C2805BC04BD04E313
:104A5C000C00000000BE04E50CCA06A905BD05A9A2
:104A6C000600000000E00827090A091A09F60807E1
:104A7C000900000000610AE50CE209FC09EE093F9F
:104A8C000A000000009B0B530BC20B370B000000FD
:104A9C0000810C0D0A006E616E00696E66006F7607
:104AAC0066002E0000000000C616E50C5F17A51668
:104ABC001B171A1700000000E41A131B33173B17BF
:104ACC004F175E17413A3A2000207265636569768C
:104ADC006564002050726573736564002052656CC8
:064AEC00656173656400C2
:00000001FF
