:100000000C94B3020C9484130C94AB130C94D21381
:100010000C94F9130C94DB020C94DB020C94201466
:100020000C94DB020C94621A0C9486100C941C1233
:100030000C94DB020C94DB020C94DB020C94DB02CC
:100040000C94DB020C94DB020C94DB020C94DB02BC
:100050000C9425090C94DB020C94DB020C944714DD
:100060000C94DB020C94140B0C94460B0C94DB02E6
:100070000C94DB020C94DB020C94DB020C94DB028C
:100080000C9422180C94DB020C94DB020C94DB021F
:100090000C943E1D0C94DB020C9454070C94DB0270
:1000A0000C94DB020C94DB020C94DB026B156E15D6
:1000B0005D15611567158F158F158F1572157615DE
:1000C0007A15801584158F158A1505010906A10179
:1000D000050719E029E7150025017501950881023A
:1000E000050C95017508150026FF00190029FF81F0
:1000F0000005081901290895087501910205079561
:10010000067508150026E700190029E78100C005DB
:10011000010902A101850105091901290815002518
:100120000195087501810205010930093109381569
:1001300081257F750895038106C0080B0002020225
:100140000100090400000102020000052400100162
:100150000524010101042402060524060001070507
:10016000810310004009040100020A000000070595
:100170000202400000070583024000001201000255
:10018000EF0201404F1B0692000101020301120120
:100190000002000000404F1B069200010102030113
:1001A000537061726B46756E0055534220494F2063
:1001B000426F617264000403090400000002000938
:1001C0000F0000030401000C00000000000000000C
:1001D0000000000000000000040802011040804000
:1001E000102040804080080204018040201002015D
:1001F000108010204040200404040404030405027D
:1002000002020204030202020206060606060604B1
:10021000040202020404000000002300260029005A
:100220002C002F0000000000250028002B002E00CD
:10023000310000000000240027002A002D003000BB
:10024000436C69636B20726967687400436C69630F
:100250006B206C656674004D6F75736520726967FD
:100260006874004D6F757365206C656674004D6F22
:1002700075736520646F776E004D6F7573652075BB
:100280007000746F20454550524F4D00506F736998
:1002900074696F6E7320736176656400536572765E
:1002A0006F20706F732069733A2000536572766F08
:1002B00020706F776572206F757400536572766F6A
:1002C00020706F732069733A2000536572766F2037
:1002D000706F77657220696E00536572766F20705B
:1002E0006F732069733A2000536572766F207265D0
:1002F000736574206F757400536572766F20706F2C
:10030000732069733A2000536572766F20726573AB
:10031000657420696E2E004B65793A2000636F6D1D
:100320007075746572206E6F772E00506F776572EE
:10033000696E67206F6E2074686500636F6D7075FD
:10034000746572206E6F77212100506F7765726936
:100350006E67206F66662074686500636F6D7075E8
:10036000746572206E6F7721210052657365747415
:10037000696E67207468650064697361626C6564A6
:100380002E00536572766F2061646A757374206DF8
:100390006F64650053706163652062617220746FE1
:1003A000207365742E006B65797320746F206D6FF8
:1003B000766520616E6400656E61626C65642E20F6
:1003C0005072657373206172726F77005365727635
:1003D0006F2061646A757374206D6F646500656E6B
:1003E00061626C6564004D6F757365206D6F646547
:1003F00000656E61626C6564004B6579626F617265
:1004000064206D6F6465004354524C2B414C542B57
:1004100044454C4554450053656E740053797374DC
:10042000656D2072656164792121003A006F722048
:10043000776169742074656E207365636F6E647391
:100440000050726573732061206B657920746F2092
:10045000626567696E000001324647649E070809BD
:100460000A0B0C0D0E0F1011121314151617181974
:100470001A1B1C1D1E1F2C2122232425263428294B
:100480002A2B362D3738271E1F20212223242526EC
:100490003A333C2E3E3F404142434445464748495B
:1004A0004A4B4C4D4E4F5051525354555657585934
:1004B0005A2F31305E5F350405060708090A0B0C18
:1004C0000D0E0F101112131415161718191A1B1CE4
:1004D0001D7B7C7D7E7FE0E1E2E3E4E5E6E7888961
:1004E0008A8B8C8D8E8F90919293949596979899F4
:1004F0009A9B9C9D9E9FA0A1A2A3A4A5A6A7A8A9E4
:10050000AAABACADAEAF28292A2BB4B5B6B7B8B9F3
:10051000BABBBCBDBEBFC0393A3B3C3D3E3F40418B
:1005200042434445CECFD0D14A4B4C4D4E4F505113
:1005300052DBDCDDDEDFE0E1E2E3E4E5E6E7E8E92B
:10054000EAEBECEDEEEFF0F1F2F3F4F5F6F7F8F993
:10055000FAFBFCFDFEFF6104C804390A760B160D98
:100560006B1EC623F62311241FBECFEFDAE0DEBFD9
:10057000CDBF11E0A0E0B1E0E8EEF6E502C00590E5
:100580000D92A43BB107D9F715E0A4EBB1E001C08F
:100590001D92A936B107E1F712E0C2EBD2E004C028
:1005A0002197FE010E94CA28CB3AD107C9F70E94C1
:1005B000220D0C94672B0C940000FC0182818F5B50
:1005C000FB01808381E00895CF93DF93CDB7DEB741
:1005D00069970FB6F894DEBF0FBECDBFFC01DB01FB
:1005E0009C919F5F9C93BE016F5F7F4F89E1DB0110
:1005F0001D928A95E9F729E0298384E08A8391E0B6
:100600009D8383E08E839F8398872A8721E22B87AF
:100610009C8721E12D879F8722E2288B25E4298B67
:1006200027E02B8B25E02C8B8E8B20E430E0388F5D
:100630002F8B998F82818B83838180688D8B49E199
:1006400050E080E00E94221069960FB6F894DEBF59
:100650000FBECDBFDF91CF910895FB0120812138DE
:10066000B9F423812232A1F4DC0112962C91129765
:1006700030E0448155814217530751F421E05396ED
:100680002C9345E450E06AEC70E080E80C94221072
:1006900080E090E00895CF93DF93EC01FB018A8125
:1006A00090E0248135818217930709F04AC0818147
:1006B0009081913A69F4813009F441C0833011F49A
:1006C0008B8903C08230E9F58C898093F10037C0B3
:1006D0009132B9F58B3019F482818B8B30C08A301E
:1006E00019F482818C8B2BC0893059F56681778112
:1006F0008381833079F4888D998D6817790709F59E
:100700008E899F890E944910888D998D9068998F54
:10071000888F15C0823041F46130710591F461E039
:1007200070E0CE01459609C0813059F468307105FA
:1007300041F468E070E0CE010A960E94491081E021
:1007400001C080E0DF91CF910895CF93DF93EC015A
:1007500081E08C838D839E012E5E3F4F3F832E83ED
:100760001986188629E331E0398328838B8B8C8B9B
:100770001D8A1F8A1E8A198E188E81EC8A8B0E9410
:10078000F211BE01DF91CF910C94AB11BC01665FF9
:100790007F4FFC01838148E050E080640C948A0F15
:1007A00020E2260F283058F441E050E001C0440F09
:1007B0002A95EAF7FC012285422B428716C0FC01EC
:1007C0003C9620E030E04191461779F0411105C098
:1007D000FC01E20FF31F648708C02F5F3F4F2630F4
:1007E000310589F780E090E0089581E090E0089578
:1007F000CF93DF9320E2260F283068F4675E21E074
:1008000030E001C0220F6A95EAF72095FC0132859D
:100810002323228736C0FC013C969C012E5E3F4F6D
:100820004081461301C010823196E217F307C1F7E9
:1008300040E050E0C6E0D0E0252F30E0B901640F81
:10084000711D66307105ECF4FC01E20FF31F248585
:10085000211115C04F5FA52FBE01641B71092A2FFE
:1008600030E0FC012617370730F4E20FF31F25852F
:100870002487AF5FF4CFE60FF71F1486DDCF5F5FED
:10088000DBCF81E090E0DF91CF9108950A9628E0D8
:10089000FC0111922A95E9F70895CF93DF93EC01BB
:1008A0000E944604CE01DF91CF910C94C603CF93F2
:1008B000DF93EC010E944604CE01DF91CF910C94AE
:1008C000C60384EB91E00C94A5038091D5018111BE
:1008D00013C01092CF011092CE018FE091E090935F
:1008E000D1018093D0018BE290E09093D30180936B
:1008F000D20181E08093D5010E94C60C6EEC71E0BC
:100900000C94820C0F931F93CF93DF93EB018A011A
:100910000E94C60C9801AE0161E0DF91CF911F915A
:100920000F910C949F0CCF93DF9300D000D0CDB7E4
:10093000DEB7FC01308139836A834B832C8344E02A
:1009400050E0BE016F5F7F4F0E9482040F900F90B6
:100950000F900F90DF91CF910895FC01108220E05D
:1009600040E060E00C9493040C94AD04CF93DF93CB
:10097000EC01688320E040E060E00E94930418826C
:1009800020E040E060E0CE01DF91CF910C94930431
:1009900084ED91E00C946504FC0112828FEF818359
:1009A000108213820895FC018381882331F0611144
:1009B00003C08FEF818308951182089581E394E04D
:1009C0000E94181C81E394E00E94B31C91E0811105
:1009D00090E0892F0895CF93DF93EC016A8381E340
:1009E00094E00E94401C6A81CE010E94DE048B8349
:1009F000882329F081E394E00E94E61788838B81A5
:100A000090E0DF91CF910895CF93DF93FC01238194
:100A10002223B1F0EC01818180956823608362819B
:100A200081E394E00E94181C688181E394E00E94B5
:100A3000CF1C81E394E00E94B31C282F30E002C059
:100A400020E030E081E090E0232B11F080E090E0A6
:100A5000DF91CF91089508950895DC01ED91FC9107
:100A60000284F385E02D41E0099581E090E008954E
:100A7000FC011382128225E431E031832083089542
:100A8000DC01ED91FC910084F185E02D6FEF09947C
:100A9000DC01ED91FC910284F385E02D40E00994A6
:100AA00061E00E94480580ED97E00C94F214CF932A
:100AB000DF93CDB7DEB728970FB6F894DEBF0FBE31
:100AC000CDBFFC011D8280E48E8394E19F8394E579
:100AD000988719828A8380E18B8380E58C83878164
:100AE000481710F04FEF480F908550E0DE01A40F3B
:100AF000B51F903129F4843019F411969C9102C0ED
:100B000015969C91690F6068CF0128960FB6F894EE
:100B1000DEBF0FBECDBFDF91CF910C944805FC0125
:100B20006581262F246025836C600C944805CF9343
:100B3000DF93EC01423018F08C8188608C834F8306
:100B40006887222329F0413019F48C8184608C83DA
:100B500064E670E080E090E00E94B6146C8164FD71
:100B600031C0E881F9810284F385E02D42E063E041
:100B7000CE01099584E991E10E94F214E881F9819E
:100B80000284F385E02D42E063E0CE01099586E919
:100B900090E00E94F214E881F9810284F385E02D4F
:100BA00042E063E0CE01099586E990E00E94F214EC
:100BB000E881F9810284F385E02D42E062E0CE0114
:100BC000099516C06062CE010E94480584E991E152
:100BD0000E94F2146C816062CE010E94480586E991
:100BE00090E00E94F2146C816062CE010E94480580
:100BF00086E990E00E94F2146C816062CE010E944E
:100C000048058CE390E00E94F21484E08D83CE01CD
:100C10000E948F05CE010E94500582E08E8366E01F
:100C2000CE010E944805CE01DF91CF910C94400582
:100C300021E001C0220F6A95EAF7DC011C962C9393
:100C40001C971A965C934E931997ED91FC91008432
:100C5000F185E02D60E00994FC0184858823A9F0EA
:100C6000218532852115310519F4611106C007C0AF
:100C70002130310521F4611102C0858701C015863C
:100C80006585CF010E960C94040508950F931F936C
:100C9000CF93DF938C01EC012E96FC016385CE018E
:100CA0000E94EB04019769F461E0CE010E94D30435
:100CB000F801148260E0CE010E94040581E090E01A
:100CC00002C080E090E0DF91CF911F910F910895D5
:100CD0008F92AF92CF92EF920F93CF93DF93CDB7D6
:100CE000DEB7FC016387148615861286118681E0C3
:100CF000982F01C0990F4A95EAF7928B982F01C05F
:100D0000990F2A95EAF7938B982F01C0990F0A95AE
:100D1000EAF7948B982F01C0990FEA94EAF7958B24
:100D2000982F01C0990FCA94EAF7968B982F01C0AB
:100D3000990FAA94EAF7978B01C0880F8A94EAF773
:100D4000808FDF91CF910F91EF90CF90AF908F90E8
:100D500008954F925F926F927F928F92AF92CF924F
:100D6000EF920F931F93CF93DF9300D01F92CDB7D5
:100D7000DEB73C011A894B885C882B834A836983E0
:100D80000E94380585E591E0F30191838083C301DA
:100D90000E960E94CC042B814A816981C3010E9476
:100DA0006806A201612FC3010F900F900F90DF9191
:100DB000CF911F910F91EF90CF90AF908F907F9038
:100DC0006F905F904F900C941806FF920F931F93B3
:100DD000CF93DF93EC01F62E8C01025F1F4F9A89AF
:100DE000692BC8010E9404059A8990956F2D69238B
:100DF000C801DF91CF911F910F91FF900C940405D2
:100E0000362FFC01759624E060E030FF02C050816F
:100E1000652B3695215031962111F7CF413011F4D1
:100E2000FC014489FC012585622B642B0C94E506AA
:100E30000F931F93CF93DF93062F0F70423019F457
:100E400040E0602F10C0142F262FEC0130E0B901D4
:100E500084E0759567958A95E1F7CE010E940007B9
:100E6000412F602FCE01DF91CF911F910F910C94F4
:100E700000070F931F93CF93DF9300D01F92CDB73E
:100E8000DEB78C012B834A8369830E9446062B813F
:100E90004A816981C8010F900F900F90DF91CF9127
:100EA0001F910F910C9497051F920F920FB60F92FE
:100EB00011240F931F932F933F934F935F936F933F
:100EC0007F938F939F93AF93BF93CF93DF93EF93D2
:100ED000FF93809106018F5F80930601882329F09C
:100EE000EDEDF1E020E030E059C00DED11E0E3EE72
:100EF000F1E0C5EED1E0CE010197DC014C91CF01CC
:100F00000197DC01411103C028812223F9F02C91C3
:100F100030E0808190E0B901681B790B1616170646
:100F200044F4442389F0840F911D8217930764F4DD
:100F30000AC0672B49F04881442331F0841B910992
:100F4000281739070CF49C01208302C08C91808300
:100F500080818823C9F0CF010597DC018C91AF0116
:100F600042505109D80112962D913C911397D90105
:100F70009C91DA01811103C08C91892B03C08C9163
:100F800080958923D9018C93075F1F4F3996299645
:100F9000B2E001391B0709F0AECFA2CF808187FDF7
:100FA00015C0E901C352DE4F809106019E8198135E
:100FB0000DC09981A281B3818C81911104C09C9153
:100FC0008095892302C09C91892B8C933996275F49
:100FD0003F4F243B310511F7FF91EF91DF91CF9106
:100FE000BF91AF919F918F917F916F915F914F9141
:100FF0003F912F911F910F910F900FBE0F901F9057
:1010000018951092C00094E09093C1001092C20015
:101010001092C3001092C4001092D10092E89093F5
:10102000D10090E490937200EDEDF1E020E030E02B
:101030009FEF9083D901A352BE4F11961C92119736
:101040001382128217961C92179718961C92399643
:10105000275F3F4F243B310561F78093910208954C
:10106000CF93442339F01092BF001092BE009FEF3F
:1010700090930601EDEDF1E090E0AFEF208187FF66
:1010800003C027FF06C04BC0281719F0AF3F41F43B
:1010900004C0658387FDFACF46C0208127FDA92FB4
:1010A0009F5F3996943151F787FD3DC0AF3F09F4FA
:1010B0003AC0C82F89E0A802D0011124A352BE4F24
:1010C000CC932091910211962C9311978C2F9927F4
:1010D00087FD9095FC01E950FE4FE491F0E0EE0FA2
:1010E000FF1FEC5DFD4F4591549113965C934E9319
:1010F0001297FC01E852FE4FE4911496EC9314977A
:1011000015966C93211102C060E001C061E08C2F44
:101110000E94CC1561E08C2FCF910C949015AF3FBD
:1011200009F0BECFBCCFCF910895282F3FEF639F2A
:10113000C001112464E670E00E946128822F0C94A3
:1011400030082F923F924F925F926F927F928F92D0
:101150009F92AF92BF92CF92DF92EF92FF920F9346
:101160001F93CF93DF93CDB7DEB727970FB6F894D1
:10117000DEBF0FBECDBF89831B015D834C838DED28
:1011800091E09F838E8300E010E04A01A12CB12CF6
:1011900080EFC82E8FE0D82EE12CF12C2B01612C92
:1011A000712C9981EE81FF81808197FF0DC087FFAF
:1011B0000EC08E819F8109969F838E83075F1F4F8C
:1011C000043B110571F727C0F9818F13F2CF211469
:1011D000310439F0C701B601A30192010E948928A8
:1011E00001C020E0C80183529E4F9B838A83FC018B
:1011F00027838C819D81892B39F0C701B601A50118
:1012000094010E94892801C020E0EA81FB812087A7
:10121000F981F7FDCECF27960FB6F894DEBF0FBE4B
:10122000CDBFDF91CF911F910F91FF90EF90DF9095
:10123000CF90BF90AF909F908F907F906F905F9076
:101240004F903F902F90089508951F920F920FB6E0
:101250000F9211242F933F934F935F936F937F933C
:101260008F939F93AF93BF93EF93FF93E091070109
:10127000F09108010995FF91EF91BF91AF919F9176
:101280008F917F916F915F914F913F912F910F902F
:101290000FBE0F901F901895CF93DF931F92CDB77D
:1012A000DEB76983DC01ED91FC910280F381E02DD2
:1012B00041E050E0BE016F5F7F4F09950F90DF91D5
:1012C000CF910895CF93DF93EC018C859D8597FF97
:1012D00005C082E00E94590F9D878C878C859D8573
:1012E000DF91CF91089583E00C947C10FC018485FC
:1012F000958597FD06C082E00E94030F90E001965D
:10130000089582E00E94030F90E00895FC01848517
:10131000958597FD05C02FEF3FEF3587248708950A
:1013200082E00C94590FCF93DF93EC01809114016C
:10133000882331F083E00E948A0F1816190634F0D2
:1013400081E090E09B838A8380E090E0DF91CF9101
:101350000895FC0190819E5F908342E450E06AE32F
:1013600071E080E80C942210FC0181819081913A17
:1013700059F4813209F048C047E050E06DE071E077
:1013800080E00E94221073C09132F1F5833291F413
:101390009381892F90E0982F88272281822BA0E0CB
:1013A000B0E08093090190930A01A0930B01B093E0
:1013B0000C015DC0803239F467E070E08DE091E0AF
:1013C0000E94491006C0823209F051C08281809388
:1013D00014018091E502882319F0EEEFFAE002C0D3
:1013E000E0E0F8E080910D0190910E01A0910F01D5
:1013F000B0911001803B9440A105B10539F4809172
:10140000140180FF1CC002C080E0089588E10FB67F
:10141000F89480936000109260000FBEA895EE3F94
:101420008AE0F80739F08091FE0A9091FF0A9183D3
:1014300080831DC01092FF0A1092FE0A18C0EE3F72
:101440002AE0F20731F0808191819093FF0A809326
:10145000FE0A87E797E7918380839BE088E10FB6D8
:10146000F894A895809360000FBE9093600081E08F
:101470000895E5E9F2E01382128288EE93E0A0E09D
:10148000B0E084839583A683B78385E691E091835A
:1014900080838FEF9FEF958784870895FC01918D5E
:1014A000228D892F90E0805C9F4F821B91098F7362
:1014B00099270895FC01918D828D981731F0828DC6
:1014C000E80FF11D858D90E008958FEF9FEF08954F
:1014D000FC01918D828D981761F0828DDF01A80F3C
:1014E000B11D5D968C91928D9F5F9F73928F90E05E
:1014F00008958FEF9FEF08958CE69BE0892B49F0CC
:1015000080E090E0892B29F00E946C0B81110C94F3
:1015100000000895FC01848DDF01A80FB11DA35ABE
:10152000BF4F2C91848D90E001968F739927848F03
:10153000A689B7892C93A089B1898C9180648C93FA
:10154000938D848D981306C00288F389E02D8081E5
:101550008F7D80830895CF93DF93EC01888D88235E
:10156000C9F0EA89FB89808185FD05C0A889B98910
:101570008C9186FD0FC00FB607FCF5CF808185FFEB
:10158000F2CFA889B9898C9185FFEDCFCE010E9459
:101590008A0AE7CFDF91CF910895EF92FF920F93E0
:1015A0001F93CF93DF93EC0181E0888F9B8D8C8D0F
:1015B000981305C0E889F989808185FD24C0F62E3D
:1015C0000B8D10E00F5F1F4F0F731127E02E8C8DD6
:1015D000E8120CC00FB607FCFACFE889F9898081C0
:1015E00085FFF5CFCE010E948A0AF1CF8B8DFE01D7
:1015F000E80FF11DE35AFF4FF0820B8FEA89FB8958
:101600008081806207C0EE89FF896083E889F9895B
:1016100080818064808381E090E0DF91CF911F9191
:101620000F91FF90EF9008951F920F920FB60F92B7
:1016300011242F938F939F93EF93FF93E091F602E2
:10164000F091F7028081E091FC02F091FD0282FDB1
:1016500012C090818091FF028F5F8F7320910003F1
:10166000821751F0E091FF02F0E0EA51FD4F958FB3
:101670008093FF0201C08081FF91EF919F918F9134
:101680002F910F900FBE0F901F9018951F920F92E1
:101690000FB60F9211242F933F934F935F936F9345
:1016A0007F938F939F93AF93BF93EF93FF9386EEB8
:1016B00092E00E948A0AFF91EF91BF91AF919F91B2
:1016C0008F917F916F915F914F913F912F910F90EB
:1016D0000FBE0F901F90189586EE92E00E944E0A62
:1016E00021E0892B09F420E0822F0895E6EEF2E054
:1016F0001382128288EE93E0A0E0B0E084839583A9
:10170000A683B78385E791E0918380838DEC90E099
:10171000958784878CEC90E09787868788EC90E0AB
:10172000918B808B89EC90E0938B828B8AEC90E09C
:10173000958B848B8EEC90E0978B868B118E128E1E
:10174000138E148E0895DC01FB0188E4808389E404
:10175000818384E482831F969C911F979F709F5B77
:1017600093831F968D919C91509724E09695879531
:101770002A95E1F78F708F5B848385E00895CF937E
:10178000DF93CDB7DEB769970FB6F894DEBF0FBE13
:10179000CDBFFC01DB018C918F5F8C93BE016F5F2D
:1017A0007F4F89E1DB011D928A95E9F729E02983C2
:1017B00084E08A8391E09D8383E08E839F83988772
:1017C0002A8721E22B879C8721E12D879F8722E2B0
:1017D000288B27E02B8B25E02C8B8E8B20E430E0B0
:1017E000388F2F8B998F82818B8397858089998BF6
:1017F0008A8B838180688D8B49E150E080E00E9474
:10180000221069960FB6F894DEBF0FBECDBFDF91F0
:10181000CF910895EF92FF920F931F93CF93DF9391
:10182000FB012081213869F52381223251F5DC0149
:1018300012962C9130E0448155814217530709F5E7
:10184000EC010D851E85E12CF12C0115110591F09F
:10185000F801448155816281738180E80E942210E1
:101860008F3FFFEF9F0781F0E80EF91ED8010D9121
:101870001C91EBCF81E08A878B858F5F8B87C701B7
:1018800005C080E090E002C08FEF9FEFDF91CF9125
:101890001F910F91FF90EF900895FC01DB01828171
:1018A00090E014962D913C9115978217930741F57E
:1018B00011968C9111979C91913A99F48130F1F0A5
:1018C000833021F4BF01665F7F4F05C08230C1F4D1
:1018D000BF016F5E7F4F41E050E083810E948A0F1D
:1018E0000DC0913269F48B3021F412968C9182876D
:1018F00005C08A3029F412968C91818B81E008957D
:1019000080E00895FC01A585B685109719F47687C7
:10191000658709C08D919C911197009711F0DC01AA
:10192000F9CF6D937C9327853089DB0114968D91D7
:101930009C911597820F931F908B87870895BA010A
:10194000FC018381A90180640C948A0FCF93DF93FB
:10195000EC0181E08C838D839E01245F3F4F3F83A8
:101960002E831986188625E831E0398328838A87F3
:101970001E861D86188A1F86898B81EC8C870E94A3
:10198000F211BE01DF91CF910C94AB1180919503C0
:10199000811107C083E893E00E94A60C81E0809348
:1019A000950383E893E008958F929F92AF92BF9240
:1019B000CF92DF92EF92FF920F931F93CF93DF931B
:1019C0007C018B016C0182E0C80ED11C4701E5E06F
:1019D0008E0E911CC0E0D0E0F60161916F014AE0EB
:1019E00050E0C8010E94590E5C016EE2C8010E94DD
:1019F000AA0D8A0D9B1DC80FD91FC814D90461F701
:101A00004AE050E0F7016581C8010E94590E8C0F31
:101A10009D1FDF91CF911F910F91FF90EF90DF906D
:101A2000CF90BF90AF909F908F900895EDE9F3E035
:101A300081E991E09183808312821382148215825E
:101A4000089508950E94FD140E94210D8FEA93E0ED
:101A50000E9409110E94FA23CCE7DAE00E941E25B9
:101A60002097E1F30E947C0AF9CF08950E94D02AC2
:101A7000CF92DF92EF92FF920F931F93CF93DF935A
:101A80006C017A018B01C0E0D0E0CE15DF0589F052
:101A9000D8016D918D01D601ED91FC910190F081FD
:101AA000E02DC6010995892B11F47E0102C0219613
:101AB000ECCFC701DF91CF911F910F91FF90EF9075
:101AC000DF90CF9008956115710579F0FB010190C9
:101AD0000020E9F73197AF01461B570BDC01ED9170
:101AE000FC910280F381E02D099480E090E008955C
:101AF000EF92FF920F931F93CF93DF938C017B01A3
:101B0000C0E0D0E0F701EC0FFD1F6491662361F0A7
:101B1000D801ED91FC910190F081E02DC80109956B
:101B2000892B11F02196EECFCE01DF91CF911F913D
:101B30000F91FF90EF900895DB0114964D915C9109
:101B400015976D917C91DC01ED91FC910280F38100
:101B5000E02D0994DC01ED91FC910190F081E02DE4
:101B600009944F925F926F927F92EF92FF920F9340
:101B70001F93CF93DF93CDB7DEB7A1970FB6F8943D
:101B8000DEBF0FBECDBF7C01FA01CB0119A222300E
:101B900008F42AE08E010F5D1F4F422E512C612C5C
:101BA000712CBF01A30192010E948928F901CA0189
:101BB000015011096A3014F4605D01C0695CD801FC
:101BC0006C93232B242B252B61F7B801C7010E94AE
:101BD000630DA1960FB6F894DEBF0FBECDBFDF91A7
:101BE000CF911F910F91FF90EF907F906F905F903A
:101BF0004F900895CF92DF92EF92FF920F931F9331
:101C0000CF93DF93EC016A017B012115310579F453
:101C1000E881F9810190F081E02D642FDF91CF916F
:101C20001F910F91FF90EF90DF90CF9009942A3091
:101C30003105E9F477FF1AC06DE20E94AA0D8C010C
:101C400044275527BA014C195D096E097F092AE01E
:101C5000CE010E94B10D800F911FDF91CF911F9196
:101C60000F91FF90EF90DF90CF9008952AE0B70199
:101C7000A601CE01DF91CF911F910F91FF90EF90C0
:101C8000DF90CF900C94B10D9A01AB01662757FD00
:101C90006095762F0C94FA0D2115310541F4DC0185
:101CA000ED91FC910190F081E02D642F09940C944A
:101CB000B10D9A01462F50E060E070E00C944C0E9C
:101CC000615030F02091F100FC0120830196F8CFA3
:101CD000289884E68093B80308954091B303509107
:101CE000B4032091B1033091B20342175307B4F407
:101CF0009091E8009570E1F39091E80092FD19C091
:101D00008093F1008091B3039091B40301968F7397
:101D10009927892B19F48EEF8093E8008091B30303
:101D20009091B40301969093B4038093B30381E040
:101D3000089580E00895CF92DF92EF92FF920F9383
:101D40001F93CF93DF931F92CDB7DEB7182F062FC7
:101D5000E42E862F880F8E5F99830E946D0E83E09C
:101D60000E946D0EF12EC12E9981D92E8C2D8F19C6
:101D7000801798F4F601E7FE02C0849101C08081CB
:101D80000E946D0E182F80E00E946D0E8123FFEFE0
:101D9000CF1ADF0A8111EACF01C081E00F90DF91F5
:101DA000CF911F910F91FF90EF90DF90CF9008950A
:101DB0008091D70081608093D70080EA8093D8001B
:101DC00089B5806189BD89B5826089BD09B400FE8D
:101DD000FDCF61E070E080E090E00E94B614809159
:101DE000D8008F7C80618093D8008091E000807F54
:101DF0008093E00008952FB7FC012083F89467706A
:101E00006093E9000895CF93DF931F92CDB7DEB7BB
:101E1000682FCE0101960E94FB0E8091F2009981FD
:101E20009FBF0F90DF91CF910895EF92FF920F9394
:101E30001F93CF93DF931F92CDB7DEB79091B70377
:101E4000992311F057FF03C08FEF9FEF2AC08A013B
:101E50007B01682FCE0101960E94FB0E8091F2005B
:101E600090E0A801801791070CF4AC01842FF701D2
:101E700094E6815038F028989093B8032091F100AF
:101E80002193F7CF4115510521F08091F20088236D
:101E900021F089818FBFCA0104C08BE68093E800DE
:101EA000F8CF0F90DF91CF911F910F91FF90EF909E
:101EB0000895CF93DF931F92CDB7DEB741E050E096
:101EC000BE016F5F7F4F0E94150F019719F4898142
:101ED00090E002C08FEF9FEF0F90DF91CF910895B8
:101EE000CF93DF931F92CDB7DEB7682FCE01019657
:101EF0000E94FB0E9091E800892F807295FF04C02C
:101F00009091F20080E4891B99819FBF0F90DF912F
:101F1000CF9108956F927F928F929F92AF92BF92CE
:101F2000CF92DF92EF92FF920F931F93CF93DF93A5
:101F30001F92CDB7DEB7A82E6B01B42E052F80916E
:101F4000B703882369F0E42EF52E8AEF982E8A2DA8
:101F50008072782E9AE3892E8A2D8074682E12C0A2
:101F60008FEF9FEF54C08A2D0E94700F182F8111A0
:101F70000DC09A949920A1F361E070E080E090E0B8
:101F80000E94B614E114F10471F737C090E0E8162E
:101F9000F9060CF41E2D6A2DCE0101960E94FB0E4F
:101FA0008091E80085FF26C0812F90E0E81AF90AA9
:101FB000772029F01150A8F01092F100FBCFF60124
:101FC000A7FE07C0115058F024912093F1003196DC
:101FD000F9CF115020F021912093F100FACFC80ED3
:101FE000D91E8091E80085FF0FC0E114F10411F4BF
:101FF00061100AC089818FBFC5CF5D9884E6809348
:10200000B9038B2D902F03C08092E800F3CF0F907F
:10201000DF91CF911F910F91FF90EF90DF90CF90C4
:10202000BF90AF909F908F907F906F900895109287
:10203000E9001092B4031092B3039093B20380931B
:10204000B1030895DF92EF92FF920F931F93CF9306
:10205000DF93D82E8A017B01E40EF51EEB01CE152D
:10206000DF0571F0D7FE03C0FE01849101C08881B5
:102070000E946D0E21968111F2CF8FEF9FEF01C06C
:10208000C801DF91CF911F910F91FF90EF90DF90EA
:102090000895BF92CF92DF92EF92FF920F931F931A
:1020A000CF93DF936C018B01EB019BEFB92E20974F
:1020B000C1F07E01C134D1051CF080E4E82EF12C82
:1020C0008091E80082FFFCCFC8018C1B9D0B6E2D18
:1020D0008C0D9D1D0E94600EB092E800CE19DF09A4
:1020E000E6CFC801DF91CF911F910F91FF90EF9044
:1020F000DF90CF90BF9008958093E9008091F20027
:10210000882319F08AE38093E80008951F920F92C4
:102110000FB60F9211242F933F934F935F936F93BA
:102120007F938F939F93AF93BF93CF93EF93FF933F
:10213000C091E1008091E100837F8093E100809372
:10214000E100C3FF0FC01092E90081E08093EB0033
:102150001092EC0082E38093ED001092B70388E0C8
:102160008093F000C2FF19C083E00E947C10809130
:10217000B903882339F08091B90381508093B90362
:10218000882389F18091B803882339F08091B803BE
:1021900081508093B803882341F1C4FF10C080911F
:1021A000E2008E7E81608093E2008091E1008F7E6C
:1021B0008093E1008091B5038E7E806111C0C0FFE5
:1021C00016C08091E2008E7E80618093E200809153
:1021D000E1008E7E8093E1008091B5038E7E816068
:1021E0008093B50304C05D9ACDCF289AD6CFFF91D6
:1021F000EF91CF91BF91AF919F918F917F916F910F
:102200005F914F913F912F910F900FBE0F901F90B4
:1022100018951092B7031092B6031092B5030E945E
:10222000D80E8091E1008E7E8093E1008DE0809356
:10223000E200559A209AEEEFFFE7859194918B3F4B
:102240009C4D19F481E08093E5020895EF92FF928E
:102250000F931F93CF93DF937B01FC01C281D38146
:1022600000E010E0209781F0E881F9810280F3819D
:10227000E02DB701CE01099597FD08C0080F191F81
:102280000884D985C02DEECFC80102C08FEF9FEF23
:10229000DF91CF911F910F91FF90EF9008950F93D1
:1022A0001F93CF93DF938B01FC01C281D3812097D1
:1022B00071F0E881F9810480F581E02DB801CE014B
:1022C0000995009731F40884D985C02DF0CF80E0BE
:1022D00090E0DF91CF911F910F9108950F931F937D
:1022E000CF93DF938B01FC01C281D381209771F0E2
:1022F000E881F9810680F781E02DB801CE010995CA
:10230000080F111D0884D985C02DF0CFF801108267
:10231000DF91CF911F910F9108950F931F93CF934A
:10232000DF938B01FC01C281D381209771F0E8819A
:10233000F9810190F081E02DB801CE01099581115C
:1023400005C00884D985C02DF0CF80E0DF91CF9102
:102350001F910F910895CF93DF93FC01DB01218141
:1023600014968C91149790E0820F911D0897B4F504
:10237000C281D381209719F47383628308C0888552
:102380009985009711F0EC01FACFB987A887808171
:1023900012968C931297818113968C931397908148
:1023A00015968C911597890F808380E014969C91E7
:1023B0001497891788F41696CD91DC911797C80F5A
:1023C000D11D9881C181D0E0CB5EDE4F9883918191
:1023D0009F5F91838F5FEACF81E001C080E0DF9152
:1023E000CF9108958091A70381110DC082E0809361
:1023F000A30384E08093A4031092A6031092A50384
:1024000081E08093A70383EA93E00895CF93DF935D
:102410001F92CDB7DEB71982CE0101960E94A9099D
:102420000E94F211BE016F5F7F4F0E9426118981C9
:102430000F90DF91CF9108951F920F920FB60F92D8
:102440001124CF92DF92EF92FF920F931F932F935D
:102450003F934F935F936F937F938F939F93AF932C
:10246000BF93EF93FF93CF93DF93CDB7DEB76C9716
:10247000DEBFCDBF1092E9008091E80083FF24C148
:1024800068E0CE0145960E94600E82EF8093E800DE
:102490008D8987FF05C09091E80090FFFCCF03C0B5
:1024A0009EEF9093E800982F907609F0F1C09E89F6
:1024B0002F89188D91110CC0803829F48091B603B2
:1024C0008093F10002C01092F1001092F100F5C06B
:1024D000422F50E0512B913051F48111EEC0413028
:1024E000510509F0EAC08091B6038D7F0BC093308F
:1024F00061F48111E2C04130510509F0DEC08091E4
:10250000B60382608093B603D8C0953041F48091C1
:10251000E80080FFFCCF20682093E300CEC0963017
:1025200009F08CC0EB8CFC8C123069F580E090E0F7
:102530000E9417100E94061299E09E012F5F3F4FE4
:102540006901F901292F11922A95E9F799831A83D4
:1025500091E09E8390EA98879AEF99872091B30340
:102560003091B403275F3F4F3C832B838D83C7019A
:102570000E94171049E050E0B60180E00E9422104E
:102580000E9406129AC0C7010E9417100E94F21101
:10259000BE016B5E7F4F0E944F11009719F00CF047
:1025A0008CC08FC0113071F48B8D9C8D089719F4FD
:1025B00081E08093B0038091B00381112FC06EE859
:1025C00071E031C0133009F07CC08F89882349F154
:1025D000823029F440E86CE089EA91E006C081305D
:1025E00039F440E868E080EA91E00E949B0E63C005
:1025F000833009F066C00E94F2118E010F5F1F4FF9
:10260000B8010E946E11F80101900020E9F731979E
:10261000BF01601B710B40E0C801E7CF6CE771E0C0
:1026200002C066EB71E06115710509F44AC0FB0157
:10263000449150E080E80E9422103FC0973009F496
:1026400040C0983021F481E08093F10036C0993089
:10265000A1F58370B1F5E6E1F1E081E021E036E338
:102660009081992361F08093E9002093EB00919190
:102670009093EC003093ED008F5F873089F78EE701
:102680008093EA001092EA008F898093B70315C007
:102690008B8D9C8D0E941710898D811105C0CE01F4
:1026A00045960E94B40907C00E94F211BE016B5EFC
:1026B0007F4F0E948D11882321F08EEF8093E800D8
:1026C00003C081E28093EB006C960FB6F894DEBFF6
:1026D0000FBECDBFDF91CF91FF91EF91BF91AF9131
:1026E0009F918F917F916F915F914F913F912F912A
:1026F0001F910F91FF90EF90DF90CF900F900FBE42
:102700000F901F90189508951F920F920FB60F9279
:1027100011242F933F934F935F936F937F938F93E6
:102720009F93AF93BF93EF93FF93E0911C01F091C0
:102730001D010995FF91EF91BF91AF919F918F91ED
:102740007F916F915F914F913F912F910F900FBEAD
:102750000F901F9018951F920F920FB60F92112491
:102760002F933F934F935F936F937F938F939F9399
:10277000AF93BF93EF93FF93E0911E01F0911F0180
:102780000995FF91EF91BF91AF919F918F917F91AB
:102790006F915F914F913F912F910F900FBE0F90CE
:1027A0001F9018951F920F920FB60F9211242F931E
:1027B0003F934F935F936F937F938F939F93AF93C9
:1027C000BF93EF93FF93E0912001F09121010995D0
:1027D000FF91EF91BF91AF919F918F917F916F91F9
:1027E0005F914F913F912F910F900FBE0F901F90CF
:1027F00018951F920F920FB60F9211242F933F93AB
:102800004F935F936F937F938F939F93AF93BF93F8
:10281000EF93FF93E0912201F09123010995FF913D
:10282000EF91BF91AF919F918F917F916F915F9148
:102830004F913F912F910F900FBE0F901F901895C1
:102840001F920F920FB60F9211242F933F934F9325
:102850005F936F937F938F939F93AF93BF93EF9308
:10286000FF93E0912401F09125010995FF91EF91EB
:10287000BF91AF919F918F917F916F915F914F9198
:102880003F912F910F900FBE0F901F9018951F92A0
:102890000F920FB60F9211242F933F938F939F9314
:1028A000AF93BF938091BB039091BC03A091BD03F4
:1028B000B091BE033091BA0323E0230F2D3720F4EB
:1028C0000196A11DB11D05C026E8230F0296A11D8A
:1028D000B11D2093BA038093BB039093BC03A093D4
:1028E000BD03B093BE038091BF039091C003A0913C
:1028F000C103B091C2030196A11DB11D8093BF0316
:102900009093C003A093C103B093C203BF91AF9152
:102910009F918F913F912F910F900FBE0F901F901D
:1029200018953FB7F8948091BF039091C003A09190
:10293000C103B091C20326B5A89B05C02F3F19F073
:102940000196A11DB11D3FBFBA2FA92F982F88272F
:10295000820F911DA11DB11DBC01CD0142E0660F8A
:10296000771F881F991F4A95D1F708958F929F92DC
:10297000AF92BF92CF92DF92EF92FF926B017C01F8
:102980000E9491144B015C01C114D104E104F104D3
:1029900001F10E94350D0E949114DC01CB018819D0
:1029A0009909AA09BB09883E9340A105B10560F3C6
:1029B00021E0C21AD108E108F10888EE880E83E010
:1029C000981EA11CB11CC114D104E104F10419F733
:1029D000DBCFFF90EF90DF90CF90BF90AF909F90B4
:1029E0008F9008958230910538F0880F991F880FD5
:1029F000991F05970197F1F70895789484B582603F
:102A000084BD84B5816084BD85B5826085BD85B592
:102A1000816085BDEEE6F0E0808181608083E1E841
:102A2000F0E0108280818260808380818160808379
:102A3000E0E8F0E0808181608083E1E9F0E080817E
:102A400082608083808181608083E0E9F0E0808122
:102A500081608083E1ECF0E080818460808380810C
:102A600082608083808181608083E3ECF0E08081FC
:102A700081608083E0ECF0E0808182608083E2EC22
:102A8000F0E0808181608083EAE7F0E0808184600B
:102A90008083808182608083808181608083808167
:102AA00080688083089590E0FC013197EF30F10554
:102AB000B0F5EA5AFF4F0C94CA28809180008F77B6
:102AC00003C0809180008F7D809380000895809165
:102AD0008000877FF9CF84B58F7702C084B58F7D62
:102AE00084BD0895809190008F7707C080919000F9
:102AF0008F7D03C080919000877F80939000089520
:102B00008091C0008F7703C08091C0008F7D80933B
:102B1000C00008958091C200877F8093C20008950D
:102B2000CF93DF9390E0FC01E852FE4F2491FC012B
:102B3000E950FE4F8491882361F190E0880F991F3E
:102B4000FC01EE5CFD4FC591D491FC01EC5DFD4FA5
:102B5000A591B491611109C09FB7F894888120951F
:102B600082238883EC912E230BC0623061F49FB7DF
:102B7000F8943881822F809583238883EC912E2BC3
:102B80002C939FBF06C08FB7F894E8812E2B288323
:102B90008FBFDF91CF9108951F93CF93DF93282F9D
:102BA00030E0F901E654FE4F8491F901E852FE4FFE
:102BB000D491F901E950FE4FC491CC23C9F0162FEE
:102BC00081110E945315EC2FF0E0EE0FFF1FEC5D1A
:102BD000FD4FA591B4918FB7F894111105C09C9148
:102BE000ED2FE095E92302C0EC91ED2BEC938FBF24
:102BF000DF91CF911F9108954F925F926F927F92D4
:102C0000AF92BF92CF92DF92EF92FF920F931F93FA
:102C1000CF93DF93CDB7DEB729013A019B01AC0119
:102C2000241935094609570989899A89AB89BC89CC
:102C3000BC01CD016A197B098C099D090E944528B8
:102C4000A801970124193509460957090E94AB28A4
:102C5000CA01B9016A0D7B1D8C1D9D1DDF91CF91AD
:102C60001F910F91FF90EF90DF90CF90BF90AF90AA
:102C70007F906F905F904F900895FC0180819181CB
:102C80000C947429CF93DF93EC018881998100978C
:102C900011F00E947429198218821D821C821B82E5
:102CA0001A82DF91CF9108950F931F93CF93DF93F3
:102CB000EC018B016F5F7F4F888199810E940C2A04
:102CC000009731F0998388831B830A8381E001C0D8
:102CD00080E0DF91CF911F910F910895CF93DF9303
:102CE000EC0188819981892B29F08A819B81861743
:102CF000970760F4CE010E945416882341F08C811E
:102D00009D81892B19F4E881F981108281E0DF919E
:102D1000CF910895EF92FF920F931F93CF93DF937C
:102D2000EC017B018A01BA010E946E16811104C078
:102D3000CE010E94421607C01D830C83B701888113
:102D400099810E94DE2ACE01DF91CF911F910F91D0
:102D5000FF90EF900895FC0111821082138212827D
:102D6000158214826115710551F0FB01019000205C
:102D7000E9F73197AF01461B570B0C948A1608955B
:102D8000CF93DF93EC01FB018617970761F0608119
:102D900071816115710529F0448155810E948A165F
:102DA00002C00E944216CE01DF91CF910895FC012E
:102DB0001182108213821282158214820C94C01622
:102DC000CF93DF93EC016115710559F0FB01019080
:102DD0000020E9F73197AF01461B570B0E948A1676
:102DE00002C00E944216CE01DF91CF910895CF9389
:102DF000DF9300D0CDB7DEB7FC01118210821382C1
:102E000012821582148269831A82BE016F5F7F4F1E
:102E10000E94E0160F900F90DF91CF910895EF92EE
:102E2000FF920F931F93CF93DF93FC012481358191
:102E30006115710511F480E019C041155105A9F023
:102E40007B01EC018A01020F131FB8010E946E166C
:102E5000882389F3288139818C819D81B701820F74
:102E6000931F0E94DE2A1D830C8381E0DF91CF91A6
:102E70001F910F91FF90EF900895CF93DF93EC0196
:102E8000FB0144815581608171810E940F1781117E
:102E900003C0CE010E944216CE01DF91CF9108956A
:102EA0002091C5043091C60428173907B9F49091D0
:102EB000830480918404981789F0E0918304F0E002
:102EC000EB57FB4F80812091830430E02F5F3F4F11
:102ED0002F7333272093830490E008958FEF9FEFA3
:102EE00008951F93CF93DF93DC015C962D913C9165
:102EF0005D972115310539F481E090E013969C939C
:102F00008E9312973DC05196ED91FC915297509639
:102F10009C915097892F80951FB75E964C915E9734
:102F200041FB772770F941FD6095F8944081772344
:102F300011F0492B01C048234083E9012197F1F7A3
:102F400048E0508160FF02C0592B01C058235083D4
:102F5000E9012197F1F76695415099F7772321F020
:102F600090818923808303C08081982B90831FBF29
:102F70005C968D919C915D970197F1F721E030E08F
:102F8000C901DF91CF911F91089508952091C50443
:102F90003091C6042817390771F490918304809109
:102FA0008404981741F0E0918304F0E0EB57FB4F65
:102FB000808190E008958FEF9FEF089580916104E4
:102FC00090E020916204821B91090895909162041F
:102FD00080916104981750F4E92FF0E0ED59FB4F10
:102FE000208130E09F5F9093620402C02FEF3FEF9B
:102FF000C9010895E091620480916104E81730F4FA
:10300000F0E0ED59FB4F808190E008958FEF9FEF46
:10301000089508952091C5043091C60428173907F2
:1030200071F4809184042091830490E0805C9F4F30
:10303000821B910960E470E00E947528089580E089
:1030400090E008951F920F920FB60F9211242F93C4
:103050003F934F935F936F937F938F939F93AF9320
:10306000BF93EF93FF938091C80487FF05C0109230
:103070009500109294001BC02091C804332727FDAF
:1030800030958091C70490E02817390784F4809127
:10309000C804992787FD9095FC01EE0FFF1F8E0F46
:1030A0009F1FFC01E753FB4F808186FD15C0809177
:1030B000C8048F5F8093C8042091C804332727FD7C
:1030C00030958091C70490E028173907C4F48091A7
:1030D000C8048C3064F113C08091C804992787FD1F
:1030E0009095FC01EE0FFF1F8E0F9F1FFC01E75311
:1030F000FB4F808160E08F730E94CC15D8CF809108
:10310000940090919500049680349C4918F480E4D2
:103110009CE905C08091940090919500049690934D
:103120009900809398008FEF8093C8043BC0209152
:103130009400309195008091C804992787FD90955F
:10314000FC01EE0FFF1F8E0F9F1FFC01E753FB4F8B
:1031500081819281820F931F9093990080939800B0
:103160008091C804992787FD9095FC01EE0FFF1F01
:103170008E0F9F1FFC01E753FB4F808186FF12C01B
:103180008091C804992787FD9095FC01EE0FFF1FE1
:103190008E0F9F1FFC01E753FB4F808161E08F730F
:1031A0000E94CC15FF91EF91BF91AF919F918F91AC
:1031B0007F916F915F914F913F912F910F900FBE33
:1031C0000F901F901895FC019091C7049C30A0F4BB
:1031D00081E0890F8093C7049083892F90E0FC01E0
:1031E000EE0FFF1F8E0F9F1FFC01E753FB4F88EB75
:1031F0009BE09283818308958FEF80830895DF920F
:10320000EF92FF920F931F93CF93DF93EC01D62E93
:103210007A01890188818C3008F067C061E08D2DCA
:103220000E9490158881E82FF0E09F01220F331F44
:10323000E20FF31FE753FB4F9D2D9F732081207CEE
:10324000D22ED92AD08260E272E0AB014E195F091A
:1032500057FF02C04D5F5F4F559547955595479570
:10326000498340E659E09A01201B310B37FF02C029
:103270002D5F3F4F35952795359527952A836CE02F
:103280000E9455289CE0899FB001112440E050E045
:103290009A01260F371FF901EE0FFF1F2E0F3F1F58
:1032A000F901E753FB4F908196FD13C04F5F5F4FCD
:1032B0004C30510569F781110CC01092900082E0EA
:1032C00080939100109295001092940088BB809397
:1032D0007100E881F0E0CF01880F991FE80FF91F16
:1032E000E753FB4F8081806480838881DF91CF9199
:1032F0001F910F91FF90EF90DF90089520E639E045
:1033000040E252E00C94FF18DC01EC91F0E0CF01B8
:10331000880F991FE80FF91FE753FB4F80818F7BC0
:1033200080830895FC0190819C3080F5818128E89C
:1033300030E0281B310987FD3395220F331F220F00
:10334000331F621773077CF0828128E532E0281B67
:10335000310987FD3395220F331F220F331F621768
:1033600073070CF49B0122503109220F331F4FB712
:10337000F894892F90E0FC01EE0FFF1F8E0F9F1F26
:10338000FC01E753FB4F328321834FBF0895AF9277
:10339000BF92CF92DF92EF92FF920F931F93CF9342
:1033A000DF93EC01603282E078070CF03FC077FDDC
:1033B00006C0653B71052CF064EB70E002C060E074
:1033C00070E0898128E830E05901A81AB10887FD2A
:1033D000B394AA0CBB1CAA0CBB1CCC24B7FCC09495
:1033E000DC2C882777FD8095982F2A8108E512E04C
:1033F000021B110927FD1395000F111F000F111F4C
:10340000222717FD2095322F3F932F931F930F9361
:1034100014EBE12EF12C00E010E020E030E0A901F7
:103420000E94FC150F900F900F900F90CE01DF912E
:10343000CF911F910F91FF90EF90DF90CF90BF90B1
:10344000AF900C949219E091C504F091C604E8176E
:10345000F90769F4A389B4899C91858980958923AA
:103460008C931092C6041092C50481E0089580E008
:103470000895CF93DF93EC018A8D9B8D892BF1F01A
:103480008091C5049091C6048C179D07B9F00097F0
:1034900011F00E94231A8E8D8E7F8E8F10928404DD
:1034A00010928304D093C604C093C504EB89FC89B1
:1034B00090818D89892B808381E001C080E0DF913C
:1034C000CF9108951F920F920FB60F9211242F9350
:1034D0003F934F935F936F937F938F939F93AF939C
:1034E000BF93EF93FF93E091C504F091C60430972A
:1034F00009F451C0968DA685B785858591FF04C0D6
:103500009C91892329F447C09C91892309F043C0E9
:10351000A389B4899C918589809589238C93868918
:1035200097890197F1F7608D718DA685B7855585CF
:1035300038E020E0CB010197F1F7822F90E09595DC
:103540008795282F4C91452309F02068315091F739
:10355000868D81FD20958091840490E001968F7383
:10356000992730918304381749F0A0918404B0E082
:10357000AB57BB4F2C938093840403C0868D81602E
:10358000868F828D938D0197F1F7A389B4899C91E1
:103590008589892B8C93FF91EF91BF91AF919F917A
:1035A0008F917F916F915F914F913F912F910F90EC
:1035B0000FBE0F901F90189527E931E0FC01318371
:1035C00020830C94231A1F93CF93DF93EC01162FC3
:1035D0006E8D6695617081E06827812F0E94CC1501
:1035E00061E0812F0E949015612F70E0FB01E8528D
:1035F000FE4FE491E88BFB01E950FE4FE491F0E0CF
:10360000EE0FFF1FEC5DFD4F859194919A8B898B96
:10361000DF91CF911F9108951F93CF93DF93EC011A
:10362000162F60E0812F0E9490158E8D81FD04C0C1
:1036300061E0812F0E94CC151C87612F70E0FB0197
:10364000E852FE4FE491ED87FB01E950FE4FE49113
:10365000F0E0EE0FFF1FEA5EFD4F859194919F878A
:103660008E87DF91CF911F9108951F93CF93DF93A2
:10367000EC01162F1B821A8288EE93E0A0E0B0E0E6
:103680008C839D83AE83BF8387E991E09983888390
:103690001F8A1E8A198E188E1B8E1A8E1D8E1C8EE6
:1036A0008E8D8E7F20FB81F98E8F642FCE010E943C
:1036B000E31A612FCE01DF91CF911F910C940C1B67
:1036C000CF93DF93EC019A01AB011B8E1A8E198EFA
:1036D000188E1F8A1E8A60E079E08DE390E00E94D8
:1036E000AB28F9012430310518F0C901039702C055
:1036F00081E090E09D8F8C8F8C8598EF980F9430AF
:1037000048F062EF680F643028F066EE680F6330AF
:1037100008F071C0B901769567956431710518F0AC
:103720006351710902C061E070E07F8B6E8B369748
:1037300020F0B9016550710902C061E070E0798F35
:10374000688FB901660F771F260F371F36952795AB
:10375000369527952D30310518F02C50310902C0CF
:1037600021E030E03B8F2A8F943058F092EF980F91
:10377000943038F08A51833008F442C0A0E0B0E0C1
:1037800041C0A8E6B0E0E8E6F0E0808181608C937B
:103790008C8598EF980F943058F022EF280F243042
:1037A00038F026EE280F233018F020E030E002C079
:1037B0002BE630E03C8B2B8B943010F4845009C006
:1037C0008E3069F08F3069F0803169F0813169F0B5
:1037D000865191E001C0990F8A95EAF707C098E0F9
:1037E00005C092E003C094E001C091E09D8B8C8DF8
:1037F0009D8D0197F1F7CE01DF91CF910C94391A8D
:10380000A8E6B0E0833008F4BECFE0E0F0E0BDCF42
:10381000FC011382128288EE93E0A0E0B0E0848382
:103820009583A683B78387EA91E091838083089587
:1038300081E080933D046093600410923F041092F5
:103840003E0408951092300481E080932E0410927B
:103850002D0461E082E00E94CC1561E083E00E94CB
:10386000CC15E9EBF0E080818E7F808380818D7FB5
:10387000808388E48093B80085E48093BC00089539
:10388000109262041092610410923F0410923E0460
:103890000C94221C0F934132E8F590913004911161
:1038A000FCCF32E03093300400932E043FEF30938E
:1038B000C3031092080440930704FB0169E074E01D
:1038C000DB013A2F361B341718F431913D93F9CFB1
:1038D00010922F0430912F04880F832B80932F0494
:1038E00080912D04813061F410922D0480912F0479
:1038F0008093BB008091BC0083FDF8CF85EC01C0B4
:1039000085EE8093BC00222339F080913004823010
:1039100019F4F9CF91E011C08091C3038F3F69F092
:103920008091C303803231F08091C303803321F052
:1039300094E003C092E001C093E0892F0F910895B5
:103940000F93062F21E040913E0460E474E08091E3
:1039500060040E944A1C10923F0410923E04109290
:103960003D040F91089561E00C94A01C613298F41D
:1039700020913004243089F46093E503FC0127EEA4
:1039800033E0D9018A2F821B861718F481918D9319
:10399000F9CF80E0089581E0089582E00895CF9303
:1039A000DF931F92CDB7DEB7698320913D042223B8
:1039B000D1F020913E04203240F021E030E0FC01C3
:1039C0003383228380E090E015C080913F04E82F8C
:1039D000F0E0E05CFB4F998190838F5F80933F0420
:1039E00080933E0405C061E0CE0101960E94B61CA2
:1039F00081E090E00F90DF91CF910895CF92DF9218
:103A0000EF92FF920F931F93CF93DF937C01262FAA
:103A1000972F8A0180913D04882391F0C62FD72FDC
:103A20006E01C40ED51ECC15DD0571F06991D7016C
:103A3000ED91FC910190F081E02DC7010995F3CF44
:103A4000642F822F0E94B61CC801DF91CF911F9175
:103A50000F91FF90EF90DF90CF90089585ED8093C8
:103A6000BC008091BC0084FDFCCF1092300408950E
:103A700085EC8093BC001092300408951F920F9241
:103A80000FB60F9211242F933F934F935F936F9331
:103A90007F938F939F93AF93BF93EF93FF93809107
:103AA000B900887F803609F49EC078F5883209F421
:103AB0005DC090F4803109F456C038F4882309F4CD
:103AC000F5C0883009F44FC0F5C0883109F44EC004
:103AD000803209F45FC0EEC0803409F46AC058F443
:103AE000803309F457C0883309F0E4C08093C303DE
:103AF0000E94381DDFC0803509F44FC0883509F4B5
:103B00005DC0883409F0D6C0D3C0883909F4C4C078
:103B1000A8F4883709F467C038F4883609F463C01C
:103B2000803709F460C0C6C0883809F4B5C0803950
:103B300009F45FC0803809F0BDC05BC0803B09F468
:103B400083C038F4803A09F466C0883A09F47CC02E
:103B5000B1C0803C09F4A4C0883C09F4A1C0883BF2
:103B600009F487C0A7C080912F0410C09091080469
:103B700080910704981770F5E091080481E08E0F9A
:103B800080930804F0E0E75FFB4F80818093BB00E7
:103B900085EC83C08093C3038BC0E091080481E06F
:103BA0008E0F809308048091BB00F0E0E75FFB4F2D
:103BB000808390910804809107046BC0E091080411
:103BC00081E08E0F809308048091BB00F0E0E75FF6
:103BD000FB4F808380912E0481116AC081E0809325
:103BE0002D0484EA5EC083E0809330041092C40305
:103BF000CFCF8091C403803208F04EC0E091C4035F
:103C000081E08E0F8093C4038091BB00F0E0EB5302
:103C1000FC4F8083BDCF0E94381D8091C403803249
:103C200030F4E091C403F0E0EB53FC4F108260915C
:103C3000C40370E0E0912904F0912A0485EC93E03C
:103C400009951092C40336C084E08093300410922A
:103C5000E6031092E503E0912B04F0912C04099502
:103C60008091E503811105C081E08093E503109206
:103C7000E703E091E60381E08E0F8093E603F0E036
:103C8000E951FC4F80818093BB009091E6038091C5
:103C9000E503981708F47CCF85E88093BC000AC040
:103CA00085EC8093BC001092300404C01092C303D2
:103CB0000E942E1DFF91EF91BF91AF919F918F9127
:103CC0007F916F915F914F913F912F910F900FBE18
:103CD0000F901F90189581E394E00C94081C80913C
:103CE0001D0590911E05892B49F481E090E0909389
:103CF0001E0580931D0540E064E606C010921E0577
:103D000010921D0540E060E081E10C9495080F934E
:103D10001F93CF93DF931F92CDB7DEB78C016983DA
:103D20000E940A2B6981681741F0C8010F90DF914A
:103D3000CF911F910F910C94122B0F90DF91CF9187
:103D40001F910F910895803839F421E030E03093CD
:103D50001C0520931B0511C0823839F421E030E0A6
:103D600030931A052093190508C0823331F421E0FD
:103D700030E0309318052093170520911B053091F2
:103D80001C0521303105A9F44091190550911A05FF
:103D90004130510509F022C1409117055091180595
:103DA0004130510509F01AC13093060520930505ED
:103DB00015C1813839F441E050E050931605409325
:103DC00015052AC0893DE1F441E050E05093140507
:103DD0004093130521303105F9F4409115055091B8
:103DE00016054130510529F54091130550911405F0
:103DF00041305105F1F4509302054093010519C07B
:103E00002130310551F38A3D09F066C041E050E0B0
:103E100050931205409311052130310509F084C0FB
:103E20004091190550911A054130510509F0A2C081
:103E30002CC08A3D31F441E050E05093120540938C
:103E4000110540911505509116054130510551F16C
:103E5000843351F441E050E05093100540930F0536
:103E60002130310509F044C04091190550911A05DF
:103E70004130510509F078C040910F05509110056F
:103E800041305105D9F0853301F140910D05509134
:103E90000E054130510509F0B5C05093020540931D
:103EA000010565C040911105509112054130510541
:103EB00079F65093040540930305CACF509300054B
:103EC0004093FF04853309F0ABCF41E050E05093BD
:103ED0000E0540930D05A4CF843309F4BBCF853381
:103EE00009F09ACF41E050E050930E0540930D0544
:103EF0002130310509F08AC04091190550911A0509
:103F00004130510509F082C002C08833C1F14091AF
:103F1000090550910A054130510509F07AC05093C6
:103F2000F8044093F70434C0873309F061C041E0DE
:103F300050E050930C0540930B052130310509F0FA
:103F40006BC04091190550911A0541305105F1F4AB
:103F500040910B0550910C0541305105B1F650933D
:103F6000FA044093F90408C0853309F4AECF8733CF
:103F700041F7DDCF8733D9F2883309F0BDCF41E077
:103F800050E050930A0540930905B6CF8833B9F342
:103F9000893349F441E050E0509308054093070508
:103FA00021303105C9F52091190530911A052130CC
:103FB000310559F42091070530910805213031056C
:103FC00021F43093F6042093F504853829F581E037
:103FD00090E09093F0048093EF040895813809F005
:103FE000F1CE41E050E05093160540931505FCCE0C
:103FF000883309F07DCF81E090E090930A058093AB
:1040000009050895873309F0A3CF91CF8933E9F6E5
:10401000C1CF893379F6BECF08950F931F93CF9305
:10402000C82F803829F410921C0510921B050DC072
:10403000823829F410921A051092190506C08233AD
:1040400021F4109218051092170580911B0590918C
:104050001C05892B09F0BCC08091190590911A05A7
:10406000892B09F0B5C08091170590911805892B0F
:1040700009F0AEC08091050590910605019709F001
:10408000A7C0109206051092050560EE84EB91E042
:104090000E94D00384EB91E00E94C60364E670E0C6
:1040A00080E090E00E94B61462EE84EB91E00E9402
:1040B000D00384EB91E00E94C60364E670E080E0E8
:1040C00090E00E94B6146CE484EB91E00E94D0036F
:1040D00084EB91E00E94C60364E670E080E090E02B
:1040E0000E94B61484EB91E00E94460484EB91E0B8
:1040F0000E94C6038DE295E00E94500567E174E0DE
:104100008DE295E00E94780D41E060E08DE295E05F
:104110000E94570567E074E08DE295E00E94780DFB
:1041200010926F0040E060E081E10E943008289A20
:1041300061E085E00E94CC1560E971E080E090E0EC
:104140000E94B61460E085E00E94CC1560E971E041
:1041500080E090E00E94B61461E085E00E94CC15FA
:1041600060E971E080E090E00E94B61460E085E0D4
:104170000E94CC1560E971E080E090E00E94B614E6
:1041800061E085E00E94CC1560E971E080E090E09C
:104190000E94B61460E085E00E94CC1560E971E0F1
:1041A00080E090E00E94B61461E085E00E94CC15AA
:1041B00060E971E080E090E00E94B61460E085E084
:1041C0000E94CC1560E971E080E090E00E94B61496
:1041D000C13829F4109216051092150506C0C93D84
:1041E00021F4109214051092130580911B059091F3
:1041F0001C05892B09F07DC280911505909116054B
:10420000892B09F07DC28091130590911405892BAB
:1042100009F081C28091010590910205019709F092
:104220007AC2109202051092010584ED91E00E947D
:10423000AD0484EB91E00E944D048DE295E00E9474
:10424000500569EF73E08DE295E00E94780D42E041
:1042500060E08DE295E00E94570561EF73E08DE22A
:1042600095E00E94780D1092FC041092FB04CA3D68
:1042700021F4109212051092110580911B05909166
:104280001C05892B09F038C28091150590911605FF
:10429000892B09F038C28091110590911205892B64
:1042A00009F031C200910305109104050130110598
:1042B00009F029C2109204051092030584EB91E0E5
:1042C0000E94570484ED91E00E94B4048DE295E0D1
:1042D0000E94500566EE73E08DE295E00E94780D35
:1042E00042E060E08DE295E00E9457056EED73E0DC
:1042F0008DE295E00E94780D1093FC040093FB047E
:10430000C43321F41092100510920F0580911B0503
:1043100090911C05892B09F050C08091190590914E
:104320001A05892B09F0FBC180910F0590911005AA
:10433000892B09F0FBC18091FF0490910005813029
:10434000910509F0F3C1109200051092FF0410923C
:10435000FC041092FB049093FE048093FD048DE214
:1043600095E00E9450056CEC73E08DE295E00E94B0
:10437000780D41E060E08DE295E00E94570567EB23
:1043800073E08DE295E00E94780D42E060E08DE2FE
:1043900095E00E94570566EA73E08DE295E00E9481
:1043A000780D43E060E08DE295E00E94570564E9F6
:1043B00073E08DE295E00E94780DC53321F41092F0
:1043C0000E0510920D0580911B0590911C05892BFF
:1043D00009F09DC18091190590911A05892B09F06A
:1043E000A9C180910D0590910E05892B09F0A9C1F5
:1043F0008091010590910205019709F0A2C11092E8
:104400000205109201051092FC041092FB04109218
:10441000FE041092FD048DE295E00E94500562E8D2
:1044200073E08DE295E00E94780D41E060E08DE25E
:1044300095E00E94570568E773E08DE295E00E94E1
:10444000780D67E070E084E295E00E947E196EE0EE
:1044500070E081E295E00E947E1960E070E084E205
:1044600095E00E94C71960E070E081E295E00E944B
:10447000C71968EE73E080E090E00E94B61484E211
:1044800095E00E94841981E295E00E948419C73367
:1044900021F410920C0510920B0580911B05909150
:1044A0001C05892B09F055C08091190590911A05BA
:1044B000892B09F04EC180910B0590910C05892B39
:1044C00009F043C18091F9049091FA04019709F031
:1044D0003CC11092FA041092F9048DE295E00E941A
:1044E00050056AE673E08DE295E00E94780D41E0A8
:1044F00060E08DE295E00E9457056BE573E08DE288
:1045000095E00E94780D67E070E084E295E00E94FB
:104510007E1980E090E00E940A2B682F70E084E210
:1045200095E00E94C7196CED75E080E090E00E9474
:10453000B61460E070E084E295E00E94C71968EE6E
:1045400073E080E090E00E94B61484E295E00E945F
:104550008419C83321F410920A051092090580913C
:104560001B0590911C05892B09F0FAC08091190553
:1045700090911A05892B09F0F3C08091090590915B
:104580000A05892B09F0F0C08091F7049091F80496
:10459000019709F0E9C01092F8041092F7048DE237
:1045A00095E00E9450056AE473E08DE295E00E9478
:1045B000780D41E060E08DE295E00E9457056BE3E5
:1045C00073E08DE295E00E94780D6EE070E081E28C
:1045D00095E00E947E1981E090E00E940A2B682FEE
:1045E00070E081E295E00E94C71960912E01709100
:1045F0002F01882777FD8095982F0E94B61460E0E0
:1046000070E081E295E00E94C71968EE73E080E0F7
:1046100090E00E94B61481E295E00E948419C933AB
:1046200021F4109208051092070580911B059091C6
:104630001C05892B09F055C08091190590911A0528
:10464000892B09F04EC08091070590910805892BB0
:1046500009F047C08091F5049091F604019709F0A4
:1046600040C01092F6041092F5048DE295E00E948D
:1046700050056BE273E08DE295E00E94780D41E019
:1046800060E08DE295E00E9457056DE173E08DE2F8
:1046900095E00E94780D6EE070E081E295E00E9466
:1046A0007E1981E090E00E940A2B682F70E081E281
:1046B00095E00E94C71960ED77E080E090E00E94ED
:1046C000B61460E070E081E295E00E94C71968EEE0
:1046D00073E080E090E00E94B61481E295E00E94D1
:1046E0008419C53809F044C01092F0041092EF0408
:1046F0003FC0CA3D09F4BDCDC43309F05ECE02CE41
:10470000CA3D09F4B6CDC43309F007CEFBCDC7339B
:1047100009F01FCFBECECA3D09F0BDCDAACDC5332D
:1047200009F44DCEC73309F0BFCEB3CEC53309F07F
:1047300058CE45CEC73309F4ACCEC83309F016CFF6
:104740000ACFC73309F0B7CEA4CEC83309F015CFCE
:1047500002CFC83309F4FFCEC93309F06DCF61CF62
:10476000C93309F0BECF5DCFC93309F06CCF59CF43
:10477000CF911F910F9108958DE295E00E94500511
:1047800067E173E08DE295E00C94780D8F92AF9223
:10479000CF92EF920F9320E04AE069E086E495E043
:1047A0000E94351B1F921F9283E08F9387E0882E13
:1047B00096E0A92E25E0C22E34E0E32E00E021E0B1
:1047C00042E067E28DE295E00E94A90684E295E06E
:1047D0000E94E3180F900F900F9081E295E00F91E7
:1047E000EF90CF90AF908F900C94E31886E495E013
:1047F0000C94DC1ACF93DF935D9A289A61E085E0F0
:104800000E94901560E085E00E94CC1568EC70E095
:1048100080E090E00E94B61461E085E00E94CC1533
:1048200068EC70E080E090E00E94B61460E085E003
:104830000E94CC1568EC70E080E090E00E94B61415
:1048400061E085E00E94CC1568EC70E080E090E0CB
:104850000E94B61460E085E00E94CC1520E044E0A0
:1048600064E18DE295E00E94390740E855E260E09E
:1048700070E086E495E00E94601B8DE295E00E9466
:10488000500561E474E08DE295E00E94780D41E00E
:1048900060E08DE295E00E9457056DE274E08DE2E4
:1048A00095E00E94780D42E060E08DE295E00E9484
:1048B0005705CAE0D0E086E495E00E940A18181671
:1048C000190644F080911F059091200584369105CA
:1048D0000CF47AC086E495E00E940A18892B59F0FE
:1048E00086E495E00E94501768EC70E080E090E06C
:1048F0000E94B614EFCF8DE295E00E9450056CE166
:1049000074E08DE295E00E94780D68EE73E080E03F
:1049100090E00E94B61480E18093810010928000A4
:1049200084E0809392028BE197EB909394028093C2
:104930009302909387008093860084E180938100A6
:104940008FE69EE1909308018093070181E08093B8
:104950006F0084EB91E00E944D0480E00E9401080A
:1049600040E060E081E10E94300848E552E06CE2FE
:1049700071E081E10E94A10867E070E084E295E0C7
:104980000E947E196EE070E081E295E00E947E193F
:1049900060E070E084E295E00E94C71960E070E09A
:1049A00081E295E00E94C71968EE73E080E090E034
:1049B0000E94B61484E295E00E94841981E295E099
:1049C000DF91CF910C94841964E670E080E090E070
:1049D0000E94B61480911F0590912005BE010E948F
:1049E0007528892B09F560912C0170912D014AE001
:1049F00050E08DE295E00E94440E6BE274E08DE29F
:104A000095E00E94780D80912C0190912D010197E5
:104A100090932D0180932C01019731F443E060E0E5
:104A20008DE295E00E94570580911F059091200529
:104A300001969093200580931F053DCFEF92FF9242
:104A40000F931F93CF93DF93CDB7DEB762970FB667
:104A5000F894DEBF0FBECDBF86E495E00E940A1831
:104A6000892B09F4FAC286E495E00E9450177C0174
:104A7000811103C010923401F0C2813019F4E09228
:104A80003401EBC2209134018091FB049091FC042D
:104A9000222309F487C22091FD043091FE0487018E
:104AA0001127892B09F043C02115310509F03FC0BA
:104AB0000E94BC234AE067E275E0C8010E94E52A33
:104AC00060E2CE0107960E94F71667E275E0CE011C
:104AD0000D960E94AB16BE01635F7F4FCE0101961B
:104AE0000E94D716BE01695F7F4FCE0101960E94DA
:104AF0003D17BC018DE295E00E949C0DCE01019610
:104B00000E943D16CE010D960E943D16CE010796DD
:104B10000E943D16F801EA5AFB4F649184EB91E044
:104B20000E94D00384EB91E00E94C60337C221307B
:104B3000310509F0ABC1083D110509F4CAC04CF4B8
:104B40000032110509F483C1073D110509F419C1AB
:104B500025C2093D110509F45CC00A3D110509F0A3
:104B60001DC22091F3043091F4042A3A31058CF4EB
:104B70004091EF045091F00469E0649FC001659F8B
:104B8000900D1124820F931F01969093F40480934B
:104B9000F30467E070E084E295E00E947E19609182
:104BA000F3047091F40484E295E00E94C719209107
:104BB000EF043091F0048091300190913101289FF1
:104BC000B001299F700D389F700D11248091320122
:104BD00090913301680F791F882777FD8095982F72
:104BE0000E94B61484E295E00E9484198DE295E05B
:104BF0000E94500567E073E08DE295E00E94780D19
:104C000041E060E08DE295E00E94570568EF72E0B8
:104C100057C02091F3043091F4042B3031058CF00F
:104C20004091EF045091F00467EF6403C001659F69
:104C3000900D1124820F931F01979093F404809399
:104C4000F30467E070E084E295E00E947E196091D1
:104C5000F3047091F40484E295E00E94C719209156
:104C6000EF043091F0048091300190913101289F40
:104C7000B001299F700D389F700D11248091320171
:104C800090913301680F791F882777FD8095982FC1
:104C90000E94B61484E295E00E9484198DE295E0AA
:104CA0000E94500568EE72E08DE295E00E94780D5A
:104CB00041E060E08DE295E00E94570569ED72E009
:104CC0008DE295E00E94780D6091F3047091F404F8
:104CD000B7C02091F1043091F2042A3A31058CF4E6
:104CE0004091EF045091F00469E0649FC001659F1A
:104CF000900D1124820F931F01969093F2048093DC
:104D0000F1046EE070E081E295E00E947E1960910E
:104D1000F1047091F20481E295E00E94C71920919C
:104D2000EF043091F0048091300190913101289F7F
:104D3000B001299F700D389F700D112480913201B0
:104D400090913301680F791F882777FD8095982F00
:104D50000E94B61481E295E00E9484198DE295E0EC
:104D60000E9450056AEC72E08DE295E00E94780D99
:104D700041E060E08DE295E00E9457056BEB72E048
:104D800057C02091F1043091F2042B3031058CF0A2
:104D90004091EF045091F00467EF6403C001659FF8
:104DA000900D1124820F931F01979093F20480932A
:104DB000F1046EE070E081E295E00E947E1960915E
:104DC000F1047091F20481E295E00E94C7192091EC
:104DD000EF043091F0048091300190913101289FCF
:104DE000B001299F700D389F700D11248091320100
:104DF00090913301680F791F882777FD8095982F50
:104E00000E94B61481E295E00E9484198DE295E03B
:104E10000E9450056BEA72E08DE295E00E94780DE9
:104E200041E060E08DE295E00E9457056CE972E098
:104E30008DE295E00E94780D6091F1047091F2048A
:104E40004AE050E08DE295E00E94440EA7C06091D8
:104E5000F30480E090E00E94871E6091F10481E0FD
:104E600090E00E94871E8DE295E00E9450056CE85C
:104E700072E08DE295E00E94780D41E060E08DE205
:104E800095E00E94570562E872E084C040912A01D3
:104E900050912B012091280130912901241B350BC1
:104EA00080911B0590911C05289FB001299F700DD2
:104EB000389F700D11242091260130912701241B69
:104EC000350B4091150550911605249FC001259F73
:104ED000900D349F900D1124860F971F9093EE0430
:104EE0008093ED048DE295E00E945005073D110589
:104EF000F1F184F40032110509F445C006381105BA
:104F000009F04CC062E084ED91E00E94B60460E4D8
:104F100072E040C0093D110589F0E4F00A3D110539
:104F2000E9F58091ED0448ED481B20E060E084ED58
:104F300091E00E94930469E772E02CC04091ED0477
:104F4000485D20E060E084ED91E00E9493046EE60D
:104F500072E020C08091ED0468ED681B20E040E025
:104F600084ED91E00E94930463E672E013C06091C7
:104F7000ED04685D20E040E084ED91E00E94930440
:104F800067E572E007C061E084ED91E00E94B6043D
:104F90006CE472E08DE295E00E94780D8E2D0E9407
:104FA000A31E4DC0892B09F047C08091FD0490914C
:104FB000FE04892B09F040C00E94BC234AE067E24E
:104FC00075E087011127C8010E94E52A60E2CE0141
:104FD00007960E94F71667E275E0CE010D960E94D3
:104FE000AB16BE01635F7F4FCE0101960E94D716BC
:104FF000BE01695F7F4FCE0101960E943D17BC0143
:105000008DE295E00E949C0DCE0101960E943D1616
:10501000CE010D960E943D16CE0107960E943D16C8
:10502000F801EA5AFB4F649184EB91E00E94F80387
:1050300084EB91E00E94C6038E2D0E940D2061E05A
:1050400085E00E94CC1568E270E080E090E00E946C
:10505000B61460E085E00E94CC1562960FB6F89415
:10506000DEBF0FBECDBFDF91CF911F910F91FF909B
:10507000EF9008950E94D028A59F900DB49F900DA9
:10508000A49F800D911D11240895DB018F939F93A0
:105090000E943A28BF91AF91A29F800D911DA39FBE
:1050A000900DB29F900D11240895991B79E004C0D2
:1050B000991F961708F0961B881F7A95C9F7809557
:1050C0000895AA1BBB1B51E107C0AA1FBB1FA6174F
:1050D000B70710F0A61BB70B881F991F5A95A9F7A1
:1050E00080959095BC01CD01089597FB072E16F48D
:1050F000009407D077FD09D00E94612807FC05D0F5
:105100003EF4909581959F4F0895709561957F4FDE
:105110000895A1E21A2EAA1BBB1BFD010DC0AA1FF8
:10512000BB1FEE1FFF1FA217B307E407F50720F010
:10513000A21BB30BE40BF50B661F771F881F991F8B
:105140001A9469F760957095809590959B01AC01D4
:10515000BD01CF010895052E97FB1EF400940E9417
:10516000C22857FD07D00E94892807FC03D04EF4BF
:105170000C94C22850954095309521953F4F4F4F44
:105180005F4F089590958095709561957F4F8F4FF3
:105190009F4F0895EE0FFF1F0590F491E02D0994A5
:1051A000A29FB001B39FC001A39F700D811D112468
:1051B000911DB29F700D811D1124911D0895CF93F3
:1051C000DF938230910510F482E090E0E091670572
:1051D000F091680520E030E0C0E0D0E0309711F1B8
:1051E0004081518148175907C0F04817590761F4A9
:1051F00082819381209719F09B838A832BC090939F
:1052000068058093670526C02115310519F04217FE
:10521000530718F49A01BE01DF01EF010280F38108
:10522000E02DDCCF2115310509F1281B390B243085
:10523000310590F412968D919C911397611571052B
:1052400021F0FB019383828304C0909368058093CF
:105250006705FD01329644C0FD01E20FF31F819303
:105260009193225031092D933C933AC020916505CA
:1052700030916605232B41F4209102013091030106
:10528000309366052093650520910001309101015E
:105290002115310541F42DB73EB7409104015091DD
:1052A0000501241B350BE0916505F0916605E217B9
:1052B000F307A0F42E1B3F0B2817390778F0AC0139
:1052C0004E5F5F4F2417350748F04E0F5F1F509316
:1052D0006605409365058193919302C0E0E0F0E09C
:1052E000CF01DF91CF9108950F931F93CF93DF9359
:1052F000009709F48CC0FC0132971382128200914E
:105300006705109168050115110581F4208131812F
:10531000820F931F20916505309166052817390784
:1053200079F5F0936605E093650571C0D80140E01A
:1053300050E0AE17BF0750F412962D913C91139791
:10534000AD012115310509F1D901F3CF9D01DA0134
:105350003383228360817181860F971F82179307A1
:1053600069F4EC0128813981260F371F2E5F3F4FEA
:10537000318320838A819B8193838283452B29F407
:10538000F0936805E093670542C01396FC93EE9393
:105390001297ED01499159919E01240F351FE21793
:1053A000F30771F480819181840F951F0296119605
:1053B0009C938E938281938113969C938E931297E4
:1053C000E0E0F0E0D80112968D919C911397009740
:1053D00019F0F8018C01F6CF8D919C9198012E5F08
:1053E0003F4F820F931F2091650530916605281766
:1053F000390769F4309729F410926805109267050F
:1054000002C0138212821093660500936505DF9136
:10541000CF911F910F910895A0E0B0E0E2E1FAE290
:105420000C94342BEC01009721F4CB010E94DF286F
:10543000B2C0FC01E60FF71F9C0122503109E217B0
:10544000F30708F4A6C0D9010D911C911197061716
:105450001707B0F00530110508F499C0C80104978A
:105460008617970708F493C002501109061B170B03
:10547000019311936D937C93CF010E94742987C08F
:105480007B01E01AF10A3C01600E711EA0916705D4
:10549000B091680580E090E0812C912C109709F480
:1054A00044C0AD90BC901197A615B705A1F5650154
:1054B00042E0C40ED11CCE14DF0468F1C5018E1980
:1054C0009F09AC014E5F5F4F1296FC9012971396A6
:1054D000AC914530510540F0F282A38391838083E3
:1054E000D9016D937C9309C00E5F1F4FA00EB11EB2
:1054F000F901B182A082EF2DFA2F8114910431F0CD
:10550000D4011396FC93EE93129741C0F093680573
:10551000E09367053CC08A159B0508F4C5014D0161
:1055200012960D90BC91A02DB9CFA0916505B091B8
:105530006605A615B705E1F486179707C8F48091AC
:10554000000190910101009741F48DB79EB7409101
:10555000040150910501841B950BE817F907C8F465
:10556000F0936605E0936505F901718360830FC0D0
:10557000CB010E94DF287C01009759F0A801BE01F1
:105580000E94D52ACE010E947429C70104C0CE0111
:1055900002C080E090E0CDB7DEB7EEE00C94502B77
:1055A00081E090E0F8940C94672BFB01DC0102C0D1
:1055B00001900D9241505040D8F70895FB01DC0155
:1055C00001900D920020E1F70895BB274A3031F495
:1055D000992322F4BDE2909581959F4F0C94F12A76
:1055E000BB27FB015527AA27880F991FAA1FA417BD
:1055F00010F0A41B83955051B9F7A05DAA3308F0B1
:10560000A95DA193009779F7B111B1931192CB01E4
:105610000C94202BF999FECF92BD81BDF89A992761
:1056200080B50895262FF999FECF1FBA92BD81BD8E
:1056300020BD0FB6F894FA9AF99A0FBE0196089514
:10564000DC01FC01672F71917723E1F7329704C0E9
:105650007C916D9370836291AE17BF07C8F3089574
:105660002F923F924F925F926F927F928F929F9272
:10567000AF92BF92CF92DF92EF92FF920F931F9360
:10568000CF93DF93CDB7DEB7CA1BDB0B0FB6F89411
:10569000DEBF0FBECDBF09942A88398848885F8451
:1056A0006E847D848C849B84AA84B984C884DF80C2
:1056B000EE80FD800C811B81AA81B981CE0FD11DA6
:1056C0000FB6F894DEBF0FBECDBFED01089512E016
:1056D000C2EBD2E004C0FE010E94CA282196C33B5F
:0856E000D107C9F7F894FFCFD0
:1056E800000069052000FF2409FFFFFFFF00E1001B
:1056F800000000000000C1808100000083138313B4
:105708008313831383130500640028000A001027FD
:10571800C800C80001000000004B03E4022D03DDAF
:1057280002000000002D05380D97052B052C0536C5
:105738000D000000002D05380D390718062C061835
:1057480007000000004C099309760986096209736D
:105758000900000000CD0A380D4E0A680A5A0AAB43
:105768000A000000004D0CBF0B0A0CA30B00000040
:1057780000D40C000000007117380D0A185017C625
:1057880017C51700000000CF1CFE1CDE17E617FA2D
:0457980017091800D5
:00000001FF
