:100000000C94A0030C94CF1E0C94F61E0C941D1F90
:100010000C94441F0C94C8030C94C8030C946B1FDD
:100020000C94C8030C94FF230C94D11B0C94671DF3
:100030000C94C8030C94C8030C94C8030C94C80314
:100040000C94C8030C94C8030C94C8030C94C80304
:100050000C94F80F0C94C8030C94C8030C94921FD2
:100060000C94C8030C9428160C945A160C94C803CC
:100070000C94C8030C94C8030C94C8030C94C803D4
:100080000C94C8030C94C8030C94C8030C94C803C4
:100090000C9411270C94C8030C94270E0C94C803DD
:1000A0000C94C8030C94C8030C94C803B620B92060
:1000B000A820AC20B220DA20DA20DA20BD20C1202E
:1000C000C520CB20CF20DA20D52005010902A101CF
:1000D00085010509190129081500250195087501F3
:1000E000810205010930093109381581257F75081C
:1000F00095038106C005010906A101050719E0293C
:10010000E715002501750195088102050C9501751B
:1001100008150026FF00190029FF810005081901B4
:1001200029089508750191020507950675081500BF
:1001300026E700190029E78100C000000000000048
:1001400000002A2B28000000000000000000000032
:10015000000000000000000000002C9EB4A0A1A23E
:10016000A434A6A7A5AE362D3738271E1F2021227E
:1001700023242526B333B62EB7B89F848586878877
:10018000898A8B8C8D8E8F90919293949596979867
:10019000999A9B9C9D2F3130A3AD35040506070825
:1001A000090A0B0C0D0E0F10111213141516171847
:1001B000191A1B1C1DAFB1B0B500504120506F770C
:1001C000657209203D2025530D0A00435243204CFF
:1001D000656E67746809203D2025530D0A004D6F38
:1001E00064656C0909203D2025530D0A00446174A3
:1001F00061205261746509203D2025530D0A004499
:10020000594E50442F4645415455524500434F4E98
:10021000464947090052465F5345545550005246DF
:100220005F43480900454E5F5258414444520045DF
:100230004E5F4141090052585F50575F50302D3694
:100240000054585F41444452090052585F414444AD
:10025000525F50322D350052585F414444525F5036
:10026000302D31000D0A0025303278002030780022
:10027000255309203D000D0A0020307825303278C2
:1002800000255309203D005354415455530909207A
:100290003D203078253032782052585F44523D2539
:1002A000782054585F44533D2578204D41585F5283
:1002B000543D25782052585F505F4E4F3D257820A1
:1002C00054585F46554C4C3D25780D0A00111213C9
:1002D0001415160A0B0C0D0E0F000102030405FD88
:1002E00002F602EE02E70250415F4D4158005041D4
:1002F0005F484947480050415F4C4F570050415FAD
:100300004D494E00190312030A0331362062697405
:1003100073003820626974730044697361626C65AC
:100320006400300326036E524632344C30312B00C9
:100330006E524632344C3031004D0347033F033296
:1003400035304B42505300324D42505300314D42F4
:100350005053002D4641494C2D00080B000202026B
:100360000100090400000102020000052400100140
:1003700005240101010424020605240600010705E5
:10038000810310004009040100020A000000070573
:100390000202400000070583024000001201000233
:1003A000EF0201404F1B06920001010203011201FE
:1003B0000002000000404F1B0692000101020301F1
:1003C000537061726B46756E0055534220494F2041
:1003D000426F617264000403090400000002000916
:1003E0000F0000030401000C0000000000000000EA
:1003F00000000000000000000408020110408040DE
:10040000102040804080080204018040201002013A
:10041000108010204040200404040404030405025A
:10042000020202040302020202060606060606048F
:100430000402020204040000000023002600290038
:100440002C002F0000000000250028002B002E00AB
:10045000310000000000240027002A002D00300099
:100460002052656C656173656400436C69636B2041
:10047000726967687400436C69636B206C656674AD
:10048000004D6F757365207269676874004D6F75F4
:100490007365206C656674004D6F75736520646FBD
:1004A000776E004D6F757365207570002050726512
:1004B00073736564002072656365697665640041E5
:1004C0003A3A2000413A204B65793A20004E6F209D
:1004D000726164696F206C696E6B2E00656E61627B
:1004E0006C6564004D6F757365206D6F64650065A4
:1004F0006E61626C6564004B6579626F6172642045
:100500006D6F6465004354524C2B414C542B444551
:100510004C4554450053656E740053656E64696EB6
:1005200067206661696C65642E00476F7420726590
:1005300073706F6E73653A20004661696C65642C58
:1005400020726573706F6E73652074696D656420C9
:100550006F75742E0053656E742064617461206D34
:10056000617962650053656E64696E6720646174C9
:10057000610053797374656D20726561647921211E
:10058000003A006F7220776169742074656E207381
:1005900065636F6E64730050726573732061206BC6
:1005A000657920746F20626567696E00456E6372BD
:1005B000797074656420646174613A00456E637299
:1005C0007970746564206C656E6774683A00526176
:1005D00074652069733A2000506F776572206973E3
:1005E0003A20004368616E6E656C2069733A2000A2
:1005F000436865636B696E67207468652072616427
:10060000696F0053657475702069733A20002A2A57
:10061000526164696F20636865636B212A2A004315
:10062000727970742050617373776F726400000187
:1006300032464764280708090A0B0C0D0E0F1011EB
:1006400012131415161718191A1B1C1D1E1F2C2106
:1006500022232425263428292A2B362D3738271EF5
:100660001F202122232425263A333C2E3E3F4041A1
:1006700042434445464748494A4B4C4D4E4F5051E2
:1006800052535455565758595A2F31305E5F3504DE
:1006900005060708090A0B0C0D0E0F101112131492
:1006A00015161718191A1B1C1D7B7C7D7E7FE0E137
:1006B000E2E3E4E5E6E788898A8B8C8D8E8F909162
:1006C00092939495969798999A9B9C9D9E9FA0A192
:1006D000A2A3A4A5A6A7A8A9AAABACADAEAF282992
:1006E0002A2BB4B5B6B7B8B9BABBBCBDBEBFC0390A
:1006F0003A3B3C3D3E3F404142434445CECFD0D1C2
:100700004A4B4C4D4E4F505152DBDCDDDEDFE0E119
:10071000E2E3E4E5E6E7E8E9EAEBECEDEEEFF0F141
:10072000F2F3F4F5F6F7F8F9FAFBFCFDFEFFFE0331
:10073000AE055D144D158A1643183E28B32AE32AE8
:1007400011241FBECFEFDAE0DEBFCDBF12E0A0E084
:10075000B1E0E0E8FDE602C005900D92A432B107D9
:10076000D9F716E0A4E2B2E001C01D92A43DB107A2
:10077000E1F713E0CFE9D3E004C02197FE010E9426
:10078000FB30C739D107C9F70E944F180C94B33614
:100790000C9400000F931F93CF93DF93EB018A011A
:1007A0000E94F3179801AE0161E0DF91CF911F9194
:1007B0000F910C949F17FC01128228E331E03183E2
:1007C000208380912D02811113C010922502109276
:1007D00024028AEC90E090932702809326028BE219
:1007E00090E0909329028093280281E080932D026B
:1007F0000E94F31764E272E00C9482178AE292E09E
:100800000C94DB03FC0182818F5BFB01808381E020
:100810000895FC0134969C01245F3F4F80E090E0F6
:100820004081411101961192E217F307C9F708952B
:10083000CF93DF93CDB7DEB769970FB6F894DEBFDD
:100840000FBECDBFFC01DB019C919F5F9C93BE015D
:100850006F5F7F4F89E1DB011D928A95E9F729E0FF
:10086000298384E08A8391E09D8383E08E839F8344
:1008700098872A8721E22B879C879D879F8722E282
:10088000288B25E4298B27E02B8B25E02C8B8E8B66
:1008900020E430E0388F2F8B998F82818B83838186
:1008A00080688D8B49E150E080E00E946D1B699665
:1008B0000FB6F894DEBF0FBECDBFDF91CF91089584
:1008C000BC01625F7F4FFC01838148E050E080649F
:1008D0000C94D51A0A970C946004FC0120E2260FB0
:1008E0002830F0F0DC01169620E030E08D914423B2
:1008F00049F0861304C0E20FF31F668326C08111FE
:1009000007C0F9CF861304C0E20FF31F16821DC083
:100910002F5F3F4F2630310549F780E090E0089582
:100920003481442349F081E090E001C0880F2A958A
:10093000EAF7832B848309C041E050E001C0440FF3
:100940002A95EAF740954323448381E090E0089597
:10095000FB0120812138B9F423812232A1F4DC018A
:1009600012962C91129730E044815581421753071B
:1009700051F421E057962C9345E450E065EF70E088
:1009800080E80C946D1B80E090E00895CF93DF9396
:10099000EC01FB018A8190E0248135818217930765
:1009A00009F04AC081819081913A69F4813009F45B
:1009B00041C0833011F48F8903C08230E9F5888DFE
:1009C0008093F10037C09132B9F58B3019F48281F0
:1009D0008F8B30C08A3019F48281888F2BC0893088
:1009E00059F5668177818381833079F48C8D9D8D73
:1009F0006817790709F58A8D9B8D0E94941B8C8D51
:100A00009D8D90689D8F8C8F15C0823041F4613030
:100A1000710591F461E070E0CE01499609C0813022
:100A200059F46830710541F468E070E0CE010E962B
:100A30000E94941B81E001C080E0DF91CF91089576
:100A4000EF92FF920F931F93CF93DF93E62FF0E087
:100A5000E038F10540F021E030E0DC0113963C93F2
:100A60002E93129722C0D42F7C01E65CFE4FC491D6
:100A70006C2F6F77DC01ED91FC910084F185E02D06
:100A800009958C01C7FF13C0892B11F4D1110DC03A
:100A9000D701ED91FC910084F185E02D4D2F61EEA1
:100AA000C7010995802B912B02C080E090E0DF9177
:100AB000CF911F910F91FF90EF900895FF920F93A8
:100AC0001F93CF93DF93EC01F62E41E00E942005A7
:100AD0008C01892BA9F0E881F9810680F781E02D4E
:100AE000CE01099540E06F2DCE010E942005892B93
:100AF00039F0E881F9810680F781E02DCE01099572
:100B0000C801DF91CF911F910F91FF900895CF936E
:100B1000DF93EC0181E08C838D839E012A5E3F4F41
:100B20003F832E83198618861D861C862EE331E0AE
:100B3000398328832CE431E03B872A878F8B888F89
:100B4000198E1B8E1A8E1D8E1C8E81EC8E8B0E9430
:100B50003D1DBE01DF91CF910C94F61C85E392E020
:100B60000C948705FC0112828FEF8183108213821F
:100B70000895FC018381882331F0611103C08FEF58
:100B8000818308951182089587E595E00E94EB2501
:100B900087E595E00E94862691E0811190E0892FFB
:100BA0000895CF93DF93EC016A8387E595E00E9477
:100BB00013266A81CE010E94C4058B83882329F005
:100BC00087E595E00E94842388838B8190E0DF9104
:100BD000CF910895CF93DF93FC0123812223B1F0BD
:100BE000EC018181809568236083628187E595E0CF
:100BF0000E94EB25688187E595E00E94A22687E5A3
:100C000095E00E948626282F30E002C020E030E0E8
:100C100081E090E0232B11F080E090E0DF91CF9114
:100C2000089508950895DC01ED91FC910284F38507
:100C3000E02D41E0099581E090E00895FC011382E8
:100C400012822AE531E0318320830895DC01ED91A1
:100C5000FC910084F185E02D6FEF0994DC01ED91AA
:100C6000FC910284F385E02D40E0099461E00E944C
:100C70002E0680ED97E00C943D20CF93DF93CDB707
:100C8000DEB728970FB6F894DEBF0FBECDBFFC01CC
:100C90001D8280E48E8394E19F8394E59887198276
:100CA0008A8380E18B8380E58C838781481710F0ED
:100CB0004FEF480F908550E0DE01A40FB51F903133
:100CC00029F4843019F411969C9102C015969C91D8
:100CD000690F6068CF0128960FB6F894DEBF0FBE8B
:100CE000CDBFDF91CF910C942E06FC016581262F9C
:100CF000246025836C600C942E06CF93DF93EC0167
:100D0000423018F08C8188608C834F83688722235F
:100D100029F0413019F48C8184608C8364E670E0A2
:100D200080E090E00E9401206C8164FD31C0E88188
:100D3000F9810284F385E02D42E063E0CE0109955C
:100D400084E991E10E943D20E881F9810284F385E4
:100D5000E02D42E063E0CE01099586E990E00E9433
:100D60003D20E881F9810284F385E02D42E063E0D3
:100D7000CE01099586E990E00E943D20E881F98145
:100D80000284F385E02D42E062E0CE01099516C0B1
:100D90006062CE010E942E0684E991E10E943D200E
:100DA0006C816062CE010E942E0686E990E00E946E
:100DB0003D206C816062CE010E942E0686E990E0A3
:100DC0000E943D206C816062CE010E942E068CE361
:100DD00090E00E943D2084E08D83CE010E94750644
:100DE000CE010E94360682E08E8366E0CE010E942C
:100DF0002E06CE01DF91CF910C94260621E001C092
:100E0000220F6A95EAF7DC011C962C931C971A9620
:100E10005C934E931997ED91FC910084F185E02D40
:100E200060E00994FC0184858823A9F0218532853E
:100E30002115310519F4611106C007C021303105B3
:100E400021F4611102C0858701C015866585CF0137
:100E50000E960C94EA0508950F931F93CF93DF939A
:100E60008C01EC012E96FC016385CE010E94D10518
:100E7000019769F461E0CE010E94B905F80114827E
:100E800060E0CE010E94EA0581E090E002C080E0CF
:100E900090E0DF91CF911F910F9108958F92AF92C3
:100EA000CF92EF920F93CF93DF93CDB7DEB7FC01D4
:100EB0006387148615861286118681E0982F01C0FB
:100EC000990F4A95EAF7928B982F01C0990F2A95AE
:100ED000EAF7938B982F01C0990F0A95EAF7948B44
:100EE000982F01C0990FEA94EAF7958B982F01C0CB
:100EF000990FCA94EAF7968B982F01C0990FAA947C
:100F0000EAF7978B01C0880F8A94EAF7808FDF9108
:100F1000CF910F91EF90CF90AF908F9008954F9217
:100F20005F926F927F928F92AF92CF92EF920F93D8
:100F30001F93CF93DF9300D01F92CDB7DEB73C0154
:100F40001A894B885C882B834A8369830E941E061A
:100F50008AE691E0F30191838083C3010E960E949B
:100F6000B2052B814A816981C3010E944E07A2010B
:100F7000612FC3010F900F900F90DF91CF911F91C0
:100F80000F91EF90CF90AF908F907F906F905F9088
:100F90004F900C94FE06FF920F931F93CF93DF9315
:100FA000EC01F62E8C01025F1F4F9A89692BC80154
:100FB0000E94EA059A8990956F2D6923C801DF91F7
:100FC000CF911F910F91FF900C94EA05362FFC01F1
:100FD000759624E060E030FF02C05081652B3695A5
:100FE000215031962111F7CF413011F4FC01448991
:100FF000FC012585622B642B0C94CB070F931F9368
:10100000CF93DF93062F0F70423019F440E0602F2A
:1010100010C0142F262FEC0130E0B90184E0759543
:1010200067958A95E1F7CE010E94E607412F602F70
:10103000CE01DF91CF911F910F910C94E6070F9392
:101040001F93CF93DF9300D01F92CDB7DEB78C01F3
:101050002B834A8369830E942C072B814A816981F3
:10106000C8010F900F900F90DF91CF911F910F91BA
:101070000C947D068EBD00000DB407FEFDCF8EB52D
:101080000895CF93DF93EC019CB59F7D9CBD9CB5EB
:10109000937F9CBD9CB59C7F9CBD9DB591609DBD83
:1010A0008A810E9417218C899D89DF91CF910C94B0
:1010B0003D20FC01208131818281938128173907ED
:1010C00019F0822F0C941721089560E00C944108C8
:1010D00061E00C944108CF92DF92EF92FF920F9360
:1010E0001F93CF93DF9300D01F92CDB7DEB77C0163
:1010F000142F2A835B8369830E9465086981862F88
:101100008F710E943A08082FC12E5B81D52E2A814B
:10111000120F1C1539F08FEF0E943A08F6018193E7
:101120006F01F7CFC7010E946808802F0F900F90C2
:101130000F90DF91CF911F910F91FF90EF90DF9073
:10114000CF900895EF92FF921F93CF93DF931F925A
:10115000CDB7DEB77C0169830E9465086981862F5F
:101160008F710E943A088FEF0E943A08182FC7012A
:101170000E946808812F0F90DF91CF911F91FF90FF
:10118000EF900895CF92DF92EF92FF920F931F930B
:10119000CF93DF9300D01F92CDB7DEB77C01142F21
:1011A0002A835B8369830E9465086981862F8F711A
:1011B00080620E943A08082FC12E5B81D52E2A81B9
:1011C000120F1C1531F0F60181916F010E943A084F
:1011D000F8CFC7010E946808802F0F900F900F90E2
:1011E000DF91CF911F910F91FF90EF90DF90CF9003
:1011F0000895EF92FF921F93CF93DF9300D0CDB766
:10120000DEB77C014A8369830E9465086981862F65
:101210008F7180620E943A08182F4A81842F0E94A1
:101220003A08C7010E946808812F0F900F90DF9144
:10123000CF911F91FF90EF900895BF92CF92DF92D0
:10124000EF92FF920F931F93CF93DF9300D01F92E3
:10125000CDB7DEB77C01FC01C780B42EC41608F4FC
:10126000BC2CF7018085811102C0CB1801C0C12CB4
:10127000C70129836A837B830E9465082981822FA5
:101280000E943A08D82E6A81062F7B81172FB60E4E
:10129000B01631F0F80181918F010E943A08F8CF21
:1012A000CC2029F080E00E943A08CA94F9CFC70107
:1012B0000E9468088D2D0F900F900F90DF91CF91B5
:1012C0001F910F91FF90EF90DF90CF90BF90089506
:1012D000BF92CF92DF92EF92FF920F931F93CF9323
:1012E000DF9300D0CDB7DEB77C01FC01C780B42E00
:1012F000C41608F4BC2CF7018085811102C0CB18FC
:1013000001C0C12CC70169837A830E94650881E608
:101310000E943A08D82E6981062F7A81172FB60EBF
:10132000B01639F08FEF0E943A08F80181938F01CF
:10133000F7CFCC2029F08FEF0E943A08CA94F9CF5A
:10134000C7010E9468088D2D0F900F90DF91CF91FB
:101350001F910F91FF90EF90DF90CF90BF90089575
:10136000EF92FF921F93CF93DF931F92CDB7DEB71B
:101370007C0169830E9465086981862F0E943A0872
:10138000182FC7010E946808812F0F90DF91CF911D
:101390001F91FF90EF90089562EE0C94B00961EEFA
:1013A0000C94B0096FEF0C94B009862F90E0262FB3
:1013B00021701F922F9395958795877099279F93FA
:1013C0008F9364FB882780F91F928F9365FB882792
:1013D00080F91F928F9366FB882780F91F928F9365
:1013E0001F926F9387E892E09F938F930E94A5339B
:1013F0008DB79EB70E960FB6F8949EBF0FBE8DBFE9
:101400000895CF92DF92EF92FF920F931F93CF93A5
:10141000DF931F92CDB7DEB77C01C22E7F936F930F
:1014200021E832E03F932F9349830E94A5334981FD
:10143000C40E0F900F900F900F9009E712E04C151B
:1014400099F0DD24D394D40E642FC7010E94A20822
:101450001F928F931F930F930E94A5330F900F90AD
:101460000F900F904D2DEBCF86E792E09F938F93D7
:101470000E94A5330F900F900F90DF91CF911F9195
:101480000F91FF90EF90DF90CF9008952F923F92B1
:101490004F925F926F927F928F929F92AF92BF9284
:1014A000CF92DF92EF92FF920F931F93CF93DF9330
:1014B0001F92CDB7DEB76C01322E4DB65EB67F936C
:1014C0006F9380E792E09F938F9349830E94A533A7
:1014D0003981330E0F900F900F900F908CE6A82E4D
:1014E00082E0B82E97E6892E92E0992E3315E1F12D
:1014F0006DB67EB6F6012685022F10E08DB79EB739
:10150000801B910B0FB6F8949EBF0FBE8DBFEDB739
:10151000FEB731967F0122242394230EAF01632F5F
:10152000C6010E946B08BF92AF920E94A5330E0DB8
:101530001F1D0F900F90015011090E151F0568F027
:10154000F80180811F928F939F928F920E94A53302
:101550000F900F900F900F90EECF0FB6F8947EBEC5
:101560000FBE6DBE322DC2CF84E692E09F938F9363
:101570000E94A5330F900F900FB6F8945EBE0FBE79
:101580004DBE0F90DF91CF911F910F91FF90EF9083
:10159000DF90CF90BF90AF909F908F907F906F9093
:1015A0005F904F903F902F900895FC01718360836E
:1015B00053834283168280E28783108685E0868784
:1015C00085E090E0A0E0B0E0848B958BA68BB78B94
:1015D00011860895462F6E3708F04DE765E00C94AC
:1015E000F90865E00C94A208CF93DF93EC0160E06A
:1015F0000E945908888999890E943D206DE1CE0199
:101600000E94A20881FF07C0888999890E943D2015
:10161000CE010E94CF0960E0CE010E94A208482FAF
:101620004E7F60E0CE010E94F90862E0CE010E9488
:10163000A208E9EDF2E0E49141E050E001C0440F7E
:10164000EA95EAF7482B62E0CE01DF91CF910C9446
:10165000F908CF93DF93EC0160E00E94A20881FDBE
:101660000EC0482F426060E0CE010E94F90865E09C
:1016700070E080E090E0DF91CF910C940120DF9149
:10168000CF9108950F93CF93DF93EC01211102C006
:1016900020EA01C020EBCE010E941D09002339F091
:1016A00061E0CE01DF91CF910F910C945908DF9149
:1016B000CF910F9108950F93CF93DF93EC0101E049
:1016C0000E94420BCE010E94D2098073D9F360E0E0
:1016D000CE010E94590840E767E0CE010E94F90858
:1016E00084FF05C0CE010E94CF0980E001C081E0E7
:1016F000DF91CF910F91089520E00C945B0B0F9335
:101700001F93CF93DF938C01EB0167E10E94A20846
:1017100080FD0BC0209759F0C8010E94D20990E0CB
:10172000959587958770888302C080E001C081E02D
:10173000DF91CF911F910F91089560E070E00C94BC
:101740007F0BCF93DF93EC010E94680940E767E0CD
:10175000CE01DF91CF910C94F9080F931F93CF9393
:10176000DF93EC018B012E85AB016AE00E94C20879
:101770002E85A80160E1CE010E94C2084F8161E17F
:10178000CE01DF91CF911F910F910C94F908EF9248
:10179000FF920F931F93CF93DF938C01C62F7A0193
:1017A000611108C0FC01468550E0B70109960E940E
:1017B000163305C0673008F037C0613041F4EC2FB4
:1017C000F0E0ED52FD4F6491F801268506C0E62F4A
:1017D000F0E0ED52FD4F649121E0A701C8010E94A5
:1017E000C208D0E0FE01E353FD4F6491F801478148
:1017F000C8010E94F90862E0C8010E94A208FE0127
:10180000E752FD4FE49141E050E001C0440FEA95FA
:10181000EAF7482B62E0C801DF91CF911F910F9149
:10182000FF90EF900C94F908DF91CF911F910F91E9
:10183000FF90EF9008950F931F93CF938C01C62FC5
:1018400062E00E94A208EC2FF0E0E752FD4FE49125
:1018500021E030E001C0220FEA95EAF72095422FFF
:10186000482362E0C801CF911F910F910C94F908B1
:10187000CF93DF93EC010E94290B60E0CE010E9420
:10188000A208482F416060E0CE010E94F90840E7BD
:1018900067E0CE010E94F90861E0CE010E9459087C
:1018A0008985882349F02E85AE01475F5F4F6AE046
:1018B000CE010E94C20804C060E0CE010E941B0C51
:1018C0006DE1CE010E94A20881FF05C0CE01DF912B
:1018D000CF910C94CF09DF91CF910895CF93DF93EF
:1018E000EC010E94650880E50E943A0883E70E94A7
:1018F0003A08CE01DF91CF910C9468080F931F93A3
:10190000CF938C01C62F66E00E94A208887FC43066
:1019100018F4CC0FCF5F01C0C7E04C2F482B66E016
:10192000C801CF911F910F910C94F90866E00E94B5
:10193000A208867086950895EF92FF920F931F93E9
:10194000CF938C017B0166E00E94A208C82FC77D5F
:1019500082E0E816F10431F4C0628BE990E0A0E087
:10196000B0E00DC0EA94EF2829F085E590E0A0E012
:10197000B0E005C0C86081E490E0A0E0B0E0F8010C
:10198000808B918BA28BB38B4C2F66E0C8010E9499
:10199000F90866E0C8010E94A20891E08C1390E06B
:1019A000892FCF911F910F91FF90EF9008951F9372
:1019B000CF93DF93EC01888199812A813B81821743
:1019C000930719F061E00E94DB208A819B812881C6
:1019D00039812817390719F061E00E94DB200E9445
:1019E000A52560E0CE010E94590861E0CE010E9469
:1019F000410865E070E080E090E00E9401204CE04A
:101A000060E0CE010E94F9084FE564E0CE010E943B
:101A1000F90862E070E0CE010E949C0C882311F06E
:101A200081E08E8366E0CE010E94A208182F60E05C
:101A300070E0CE010E949C0CCE010E946E0C40E032
:101A40006DE1CE010E94F90840E06CE1CE010E94F8
:101A5000F908188640E767E0CE010E94F9086CE4B7
:101A6000CE010E94EA0ACE010E94CC09CE010E945A
:101A7000CF09CE010E94290B60E0CE010E94A2088E
:101A8000482F4E7F60E0CE010E94F908115081E09E
:101A90001E3F08F080E0DF91CF911F91089566E02E
:101AA0000E94A208282F2872203231F081E090E0B5
:101AB000283021F080E0089582E090E008950F93AF
:101AC0001F93CF938C0160E00E94A208C82F61E0B1
:101AD000C8010E94A208C3FD02C0882329F0C2FDEC
:101AE00006C081E090E005C080E090E002C082E0A6
:101AF00090E0CF911F910F910895CF93DF93EC0168
:101B00000E94D209682FCE010E94D50922E04AE046
:101B100067E572E0CE010E94460A24E04CE06AE4E8
:101B200072E0CE010E94010A21E040E161E472E02E
:101B3000CE010E94460A26E041E166E372E0CE0152
:101B40000E94010A21E041E06FE272E0CE010E94B2
:101B5000010A21E042E065E272E0CE010E94010A42
:101B600021E045E06EE172E0CE010E94010A21E031
:101B700046E065E172E0CE010E94010A21E040E00A
:101B80006DE072E0CE010E94010A22E04CE16FEFAD
:101B900071E0CE010E94010ACE010E944F0D880F14
:101BA000991FFC01E75CFC4F859194919F938F9363
:101BB0008DEE91E09F938F930E94A533EE81F0E02C
:101BC000EE0FFF1FEE5DFC4F859194919F938F93D5
:101BD0008EED91E09F938F930E94A533CE010E94DA
:101BE0005F0D880F991FFC01EC5FFC4F859194916C
:101BF0009F938F938BEC91E09F938F930E94A533DB
:101C0000CE010E94960CE82FF0E0EE0FFF1FE1528C
:101C1000FD4F859194919F938F938AEB91E09F93D1
:101C20008F930E94A5338DB79EB740960FB6F89458
:101C30009EBF0FBE8DBFDF91CF91089520E1629FBF
:101C4000B00111244F70462B64E00C94F9081F92E8
:101C50000F920FB60F9211240F931F932F933F9360
:101C60004F935F936F937F938F939F93AF93BF93A4
:101C7000CF93DF93EF93FF93809106018F5F809363
:101C80000601882329F0E3E5F2E020E030E059C0C6
:101C900003E512E0E9E5F2E0CBE5D2E0CE01019701
:101CA000DC014C91CF010197DC01411103C0288177
:101CB0002223F9F02C9130E0808190E0B901681B7B
:101CC000790B1616170644F4442389F0840F911DEE
:101CD0008217930764F40AC0672B49F048814423B4
:101CE00031F0841B9109281739070CF49C012083DB
:101CF00002C08C91808380818823C9F0CF01059731
:101D0000DC018C91AF0142505109D80112962D91FE
:101D10003C911397D9019C91DA01811103C08C91F8
:101D2000892B03C08C9180958923D9018C93075FFF
:101D30001F4F39962996B3E007301B0709F0AECF45
:101D4000A2CF808187FD15C0E901CD5ADD4F80917A
:101D500006019E8198130DC09981A281B3818C8167
:101D6000911104C09C918095892302C09C91892B7C
:101D70008C933996275F3F4F243B310511F7FF9134
:101D8000EF91DF91CF91BF91AF919F918F917F9113
:101D90006F915F914F913F912F911F910F910F90F4
:101DA0000FBE0F901F9018951092C00094E0909372
:101DB000C1001092C2001092C3001092C400109291
:101DC000D10092E89093D10090E490937200E3E503
:101DD000F2E020E030E09FEF9083D901AD5ABD4F93
:101DE00011961C9211971382128217961C921797C4
:101DF00018961C923996275F3F4F243B310561F7B7
:101E0000809307030895CF93442339F01092BF00C5
:101E10001092BE009FEF90930601E3E5F2E090E0A0
:101E2000AFEF208187FF03C027FF06C04BC02817F4
:101E300019F0AF3F41F404C0658387FDFACF46C077
:101E4000208127FDA92F9F5F3996943151F787FD97
:101E50003DC0AF3F09F43AC0C82F89E0A802D001C5
:101E60001124AD5ABD4FCC932091070311962C93AA
:101E700011978C2F992787FD9095FC01E95EFB4F08
:101E8000E491F0E0EE0FFF1FEC5BFB4F45915491A6
:101E900013965C934E931297FC01E850FC4FE4912B
:101EA0001496EC93149715966C93211102C060E080
:101EB00001C061E08C2F0E94172161E08C2FCF912F
:101EC0000C94DB20AF3F09F0BECFBCCFCF9108957B
:101ED000282F3FEF639FC001112464E670E00E9449
:101EE0009230822F0C94030F2F923F924F925F9269
:101EF0006F927F928F929F92AF92BF92CF92DF921A
:101F0000EF92FF920F931F93CF93DF93CDB7DEB77E
:101F100027970FB6F894DEBF0FBECDBF89831B0194
:101F20005D834C8383E592E09F838E8300E010E025
:101F30004A01A12CB12C80EFC82E8FE0D82EE12CC5
:101F4000F12C2B01612C712C9981EE81FF81808114
:101F500097FF0DC087FF0EC08E819F8109969F83DA
:101F60008E83075F1F4F043B110571F727C0F9816E
:101F70008F13F2CF2114310439F0C701B601A30148
:101F800092010E94BA3001C020E0C8018D5A9D4FD5
:101F90009B838A83FC0127838C819D81892B39F067
:101FA000C701B601A50194010E94BA3001C020E02A
:101FB000EA81FB812087F981F7FDCECF27960FB606
:101FC000F894DEBF0FBECDBFDF91CF911F910F916F
:101FD000FF90EF90DF90CF90BF90AF909F908F9049
:101FE0007F906F905F904F903F902F90089508954D
:101FF0001F920F920FB60F9211242F933F934F937E
:102000005F936F937F938F939F93AF93BF93EF9360
:10201000FF93E0910701F09108010995FF91EF917D
:10202000BF91AF919F918F917F916F915F914F91F0
:102030003F912F910F900FBE0F901F9018952F92E8
:102040003F924F925F926F927F928F929F92AF9248
:10205000BF92CF92DF92EF92FF920F931F93CF9395
:10206000DF93CDB7DEB76B970FB6F894DEBF0FBE28
:10207000CDBF1C014A015B013E872D8742305105CF
:10208000610571050CF435C1CA018150904C880F6F
:10209000991F880F991F2101480E591E5A824982A3
:1020A000D201CD90DD90ED90FC9064E370E080E093
:1020B00090E0A50194010E94DC302D833E834F8384
:1020C000588700E010E09801B501A4014150510982
:1020D000610971094B8B5C8B6D8B7E8B437055272F
:1020E000588F4F8B07541648284C3146D901C801E8
:1020F000F2E0B695A79597958795FA95D1F7AC013B
:10210000BD01437055276627772749875A876B8714
:102110007C873B8E2A8E40E050E0BA014601570191
:10212000B4E0880C991CAA1CBB1CBA95D1F72601F7
:10213000370185E076946794579447948A95D1F750
:102140004F86588A698A7A8A8B899C89AD89BE892B
:10215000481759076A077B0708F063C0EA8DFB8DB3
:1021600084819581A681B7813A01F3E06F227724BB
:1021700049845A8464247524660C771C660C771C89
:102180004D845E84640C751CF30140805180628034
:102190007380C424D524E624F7242C013D01402675
:1021A000512662267326C40CD51CE61CF71C2C0194
:1021B0003D01F3E07694679457944794FA95D1F7EC
:1021C00084249524A624B724E2E0880F991FAA1F2F
:1021D000BB1FEA95D1F74F84588869887A8884258F
:1021E0009525A625B725880D991DAA1DBB1DC826B6
:1021F000D926EA26FB26EA8DFB8D80819181A2817A
:10220000B381C80ED91EEA1EFB1EDF01CD92DD92FE
:10221000ED92FD92BB8FAA8F4F5F5F4F6F4F7F4F45
:102220007DCFD1014D915D916D917C91DB01CA0112
:10223000E3E0B695A79597958795EA95D1F7882617
:102240009926AA26BB26DB01CA01F2E0880F991F56
:10225000AA1FBB1FFA95D1F784259525A625B7257A
:10226000880E991EAA1EBB1EEF89F88D49845A84D8
:10227000E425F525EE0FFF1FEE0FFF1F6D847E8412
:10228000E60DF71D80819181A281B381C826D926F0
:10229000EA26FB264027512762277327C40ED51E46
:1022A000E61EF71E8C249D24AE24BF24A981BA818A
:1022B000CD90DD90ED90FC901397C80CD91CEA1CD2
:1022C000FB1CFD01C082D182E282F3824D815E81DE
:1022D0006F81788541505109610971094D835E8391
:1022E0006F8378874A3F5F4F6F4F7F4F09F0FACE79
:1022F00054C14F3F9FEF5907690779070CF04DC153
:10230000CC24DD247601C41AD50AE60AF70A64E370
:1023100070E080E090E0A70196010E94DC30290186
:102320003A012A5F3F4F4F4F5F4F69EB79E787E3F1
:102330009EE90E948230AB01BC01F1018081918154
:10234000A281B381F1E0CF1AF0ECDF0ACC0CDD1CE6
:10235000CC0CDD1C81010C0D1D1D1C8B0B8B4D82CB
:102360005E826F82788680949094A094B0948F8AD5
:10237000998E880C991C880C991C9101280D391D87
:10238000388B2F876A017B01F2E0F694E794D794AB
:10239000C794FA95D1F79701860103701127222778
:1023A000332709871A872B873C876F88798C4F845E
:1023B0005888F20132912291129102912F010983E2
:1023C0001A832B833C8383010370112729853A8567
:1023D00002271327000F111F000F111FED85FE8527
:1023E0000E0F1F1FF801C080D180E280F3800981A9
:1023F0001A812B813C81C026D126E226F3268C014E
:102400009D010427152726273727C00ED11EE21E5F
:10241000F31E4C015D0133E0B694A7949794879422
:102420003A95D1F709811A812B813C81E4E0000FB4
:10243000111F221F331FEA95D1F780269126A2266D
:10244000B326F2E0880F991FAA1FBB1FFA95D1F798
:1024500009811A812B813C81E5E0369527951795F6
:102460000795EA95D1F780279127A227B327880DF2
:10247000991DAA1DBB1DC826D926EA26FB26F201F6
:1024800084819581A681B7818C199D09AE09BF0908
:1024900084839583A683B783F1E06F1A7108421491
:1024A000530409F086CFEB89FC89C080D180E2809B
:1024B000F3804C015D0123E0B694A7949794879430
:1024C0002A95D1F797018601E4E0000F111F221F22
:1024D000331FEA95D1F780269126A226B3262C0138
:1024E0003D01F2E0440C551C661C771CFA95D1F7AF
:1024F00097018601E5E03695279517950795EA95AA
:10250000D1F70425152526253725080D191D2A1D67
:102510003B1D84279527A627B727A984BA84AA0C30
:10252000BB1CAA0CBB1C4D845E84A40CB51CF5011D
:1025300080809180A280B380C824D924EA24FB241F
:102540008C0D9D1DAE1DBF1D80279127A227B3278F
:1025500049805A806B807C80481A590A6A0A7B0A33
:10256000D301C201F1014082518262827382495BD0
:10257000594767437E490D811E812F81388501505F
:102580001109210931090D831E832F8338870A3FE2
:102590001F4F2F4F3F4F09F0F5CE6B960FB6F894B3
:1025A000DEBF0FBECDBFDF91CF911F910F91FF9086
:1025B000EF90DF90CF90BF90AF909F908F907F90E3
:1025C0006F905F904F903F902F9008950F931F93BF
:1025D0000097C9F08A019B010150110921093109B5
:1025E000003111052105310570F420E1ECE5F3E03F
:1025F000DF011D922A95E9F7BC01CF010E94163335
:1026000080E090E002C082E090E01F910F91089579
:102610004F925F926F927F92AF92BF92CF92DF9272
:10262000EF92FF920F931F93CF93DF935901E8012D
:10263000009709F471C08A019B0101501109210919
:102640003109003511052105310508F065C0A114D7
:10265000B10409F461C0088119812A813B811016F7
:102660001106120613060CF057C0041715072607AB
:1026700037070CF451C06A017B01E2E0F594E7945E
:10268000D794C794EA95D1F72A013B01A3E04A22E7
:1026900055246624772445284628472859F0BFEF5B
:1026A000CB1ADB0AEB0AFB0AE5E1CE16D104E10402
:1026B000F104A9F12601370162E0440C551C661CA7
:1026C000771C6A95D1F704151505260537053CF1E9
:1026D00020E5ECE6F3E0DF011D922A95E9F7BC0165
:1026E000CF010E9416332CE533E0B701A6018CE63A
:1026F00093E00E941F10A601440F551F440F551F61
:102700006CE673E0C5010E941633488259826A82E2
:102710007B8280E090E005C082E090E002C083E030
:1027200090E0DF91CF911F910F91FF90EF90DF909C
:10273000CF90BF90AF907F906F905F904F90089533
:10274000CF93DF93FC011082FB014481558141311D
:10275000510550F4EC0160E070E0808191810E94AD
:10276000E61281E0888301C080E0DF91CF91089577
:102770008F929F92AF92BF92CF92DF92EF92FF9291
:102780000F931F93CF93DF93CDB7DEB72A970FB682
:10279000F894DEBF0FBECDBF7C01FA01DB018C9146
:1027A000882309F471C044815581CA0101978F348F
:1027B000910508F069C080E590E0A0E0B0E08F836B
:1027C0009887A987BA876B01BFEFCB1ADB0A60E055
:1027D00070E08E01095F1F4F9601808191810E94F8
:1027E0000813892B09F050C061EB71E0CE0101960E
:1027F0000E9403226F817885660F771F6F5F7F4F7E
:10280000CE0101960E94C62161EB71E0CE010196D6
:102810000E9459228601812C912C54018F81988528
:10282000A985BA8588169906AA06BB0614F568011B
:10283000F801608162956F706A3010F0695C01C0C8
:10284000605DCE0101960E94C8220F5F1F4FD60126
:102850006C916F706A3010F0695C01C0605DCE01F0
:1028600001960E94C822BFEF8B1A9B0AAB0ABB0AD3
:10287000D5CFBE016F5F7F4FC7010E947021CE018F
:1028800001960E94952105C063E573E0C7010E948F
:102890009122C7012A960FB6F894DEBF0FBECDBFB6
:1028A000DF91CF911F910F91FF90EF90DF90CF902C
:1028B000BF90AF909F908F90089510920B03089552
:1028C000CF93DF931F92CDB7DEB76983DC01ED9123
:1028D000FC910280F381E02D41E050E0BE016F5F8A
:1028E0007F4F09950F90DF91CF910895CF93DF939C
:1028F000EC018C859D8597FF05C082E00E94A41A9B
:102900009D878C878C859D85DF91CF91089583E08D
:102910000C94C71BFC018485958597FD06C082E059
:102920000E944E1A90E00196089582E00E944E1A8D
:1029300090E00895FC018485958597FD05C02FEFF3
:102940003FEF35872487089582E00C94A41ACF9333
:10295000DF93EC0180911401882331F083E00E9421
:10296000D51A1816190634F081E090E09B838A830B
:1029700080E090E0DF91CF910895FC0190819E5F0F
:10298000908342E450E06AE573E080E80C946D1BAC
:10299000FC0181819081913A59F4813209F048C05B
:1029A00047E050E06DE071E080E00E946D1B73C075
:1029B0009132F1F5833291F49381892F90E0982F31
:1029C00088272281822BA0E0B0E0809309019093B8
:1029D0000A01A0930B01B0930C015DC0803239F461
:1029E00067E070E08DE091E00E94941B06C08232A7
:1029F00009F051C082818093140180910C048823D6
:102A000019F0EEEFFAE002C0E0E0F8E080910D018D
:102A100090910E01A0910F01B0911001803B944064
:102A2000A105B10539F48091140180FF1CC002C0DA
:102A300080E0089588E10FB6F894809360001092CA
:102A400060000FBEA895EE3F8AE0F80739F080914C
:102A5000FE0A9091FF0A918380831DC01092FF0AA5
:102A60001092FE0A18C0EE3F2AE0F20731F0808192
:102A700091819093FF0A8093FE0A87E797E79183FD
:102A800080839BE088E10FB6F894A895809360005E
:102A90000FBE9093600081E00895ECEBF3E01382A9
:102AA000128288EE93E0A0E0B0E084839583A68351
:102AB000B78381E891E0918380838FEF9FEF9587C3
:102AC00084870895FC01918D228D892F90E0805C90
:102AD0009F4F821B91098F7399270895FC01918D57
:102AE000828D981731F0828DE80FF11D858D90E071
:102AF00008958FEF9FEF0895FC01918D828D9817B7
:102B000061F0828DDF01A80FB11D5D968C91928DD1
:102B10009F5F9F73928F90E008958FEF9FEF0895CE
:102B200080E896E1892B49F080E090E0892B29F03C
:102B30000E94801681110C9400000895FC01848D80
:102B4000DF01A80FB11DA35ABF4F2C91848D90E0D7
:102B500001968F739927848FA689B7892C93A089B2
:102B6000B1898C9180648C93938D848D981306C069
:102B70000288F389E02D80818F7D80830895CF9333
:102B8000DF93EC01888D8823C9F0EA89FB89808175
:102B900085FD05C0A889B9898C9186FD0FC00FB647
:102BA00007FCF5CF808185FFF2CFA889B9898C9188
:102BB00085FFEDCFCE010E949E15E7CFDF91CF912B
:102BC0000895EF92FF920F931F93CF93DF93EC0141
:102BD00081E0888F9B8D8C8D981305C0E889F989D9
:102BE000808185FD24C0F62E0B8D10E00F5F1F4FF6
:102BF0000F731127E02E8C8DE8120CC00FB607FC66
:102C0000FACFE889F989808185FFF5CFCE010E944E
:102C10009E15F1CF8B8DFE01E80FF11DE35AFF4F9A
:102C2000F0820B8FEA89FB898081806207C0EE8980
:102C3000FF896083E889F98980818064808381E0ED
:102C400090E0DF91CF911F910F91FF90EF90089549
:102C50001F920F920FB60F9211242F938F939F9371
:102C6000EF93FF93E0911D04F0911E048081E091A9
:102C70002304F091240482FD12C0908180912604E7
:102C80008F5F8F7320912704821751F0E091260403
:102C9000F0E0E35FFB4F958F8093260401C08081B5
:102CA000FF91EF919F918F912F910F900FBE0F90F9
:102CB0001F9018951F920F920FB60F9211242F9309
:102CC0003F934F935F936F937F938F939F93AF93B4
:102CD000BF93EF93FF938DE094E00E949E15FF91C8
:102CE000EF91BF91AF919F918F917F916F915F9184
:102CF0004F913F912F910F900FBE0F901F901895FD
:102D00008DE094E00E94621521E0892B09F420E017
:102D1000822F0895EDE0F4E01382128288EE93E0B2
:102D2000A0E0B0E084839583A683B78381E991E036
:102D3000918380838DEC90E0958784878CEC90E084
:102D40009787868788EC90E0918B808B89EC90E068
:102D5000938B828B8AEC90E0958B848B8EEC90E049
:102D6000978B868B118E128E138E148E0895DC0134
:102D7000FB0188E4808389E4818384E482831D9657
:102D80009C911D979F709F5B93831D968D919C9145
:102D90001E9724E0969587952A95E1F78F708F5BB3
:102DA000848385E00895CF93DF93CDB7DEB769972D
:102DB0000FB6F894DEBF0FBECDBFFC01DB018C91D6
:102DC0008F5F8C93BE016F5F7F4F89E1DB011D92A6
:102DD0008A95E9F729E0298384E08A8391E09D833D
:102DE00083E08E832A8721E22B879C879D879F879C
:102DF00022E2288B27E02B8B25E02C8B8E8B20E486
:102E000030E0388F2F8B998F82818B8395858685D3
:102E1000998B8A8B838180688D8B49E150E080E0BB
:102E20000E946D1B69960FB6F894DEBF0FBECDBF32
:102E3000DF91CF910895DC01FB0112968C911297DE
:102E400090E02481358182179307D1F491818081AC
:102E5000813A31F481E0913091F0933089F411C0DE
:102E6000813271F49B3021F482811F968C9305C0CE
:102E70009A3031F4828150968C9381E008950895C0
:102E800080E00895EF92FF920F931F93CF93DF930B
:102E9000FB012081213851F52381223239F5DC01F3
:102EA00012962C9130E04481558142175307F1F47A
:102EB000EC010B851C85E12CF12C0115110591F01D
:102EC000F801448155816281738180E80E946D1B05
:102ED0008F3FFFEF9F0769F0E80EF91ED8010D91B3
:102EE0001C91EBCF81E08F87C70105C080E090E0A7
:102EF00002C08FEF9FEFDF91CF911F910F91FF9055
:102F0000EF900895FC01A385B485109719F4748798
:102F1000638709C08D919C911197009711F0DC0196
:102F2000F9CF6D937C9325853685DB0114968D91C1
:102F30009C911597820F931F968785870895AF926E
:102F4000BF92CF92DF92EF92FF920F931F93CF9396
:102F5000DF931F92CDB7DEB77C0169836A01590107
:102F600041E050E0BE016F5F7F4FFC0183810E9412
:102F7000D51A8C0197FD0BC0F7018381A501B6011D
:102F800080640E94D51A97FD02C0800F911F0F9098
:102F9000DF91CF911F910F91FF90EF90DF90CF9035
:102FA000BF90AF900895CF93DF93EC0181E08C83C5
:102FB0008D839E01265F3F4F3F832E83198618869F
:102FC00021EA31E0398328831C861B861E861D86F4
:102FD0008F87888B81EC8A870E943D1DBE01DF911F
:102FE000CF910C94F61C8091BB04811107C08AEA32
:102FF00094E00E94D31781E08093BB048AEA94E0B6
:1030000008958F929F92AF92BF92CF92DF92EF92EC
:10301000FF920F931F93CF93DF937C018B016C0181
:1030200082E0C80ED11C4701E5E08E0E911CC0E085
:10303000D0E0F60161916F014AE050E0C8010E94C2
:103040009E195C016EE2C8010E94D9188A0D9B1D71
:10305000C80FD91FC814D90461F74AE050E0F7013E
:103060006581C8010E949E198C0F9D1FDF91CF9131
:103070001F910F91FF90EF90DF90CF90BF90AF9096
:103080009F908F900895E3ECF4E08DEA91E09183B6
:1030900080831282138214821582089508950E94FB
:1030A00048200E944E1885ED94E00E94541C0E9416
:1030B000F42AC0E9D5E10E94AC2E2097E1F30E94EA
:1030C0009015F9CF08950E940133CF92DF92EF92CD
:1030D000FF920F931F93CF93DF936C017A018B01C3
:1030E000C0E0D0E0CE15DF0589F0D8016D918D01EB
:1030F000D601ED91FC910190F081E02DC60109957A
:10310000892B11F47E0102C02196ECCFC701DF911B
:10311000CF911F910F91FF90EF90DF90CF90089586
:103120006115710579F0FB0101900020E9F73197F5
:10313000AF01461B570BDC01ED91FC910280F3813E
:10314000E02D099480E090E00895EF92FF920F93B4
:103150001F93CF93DF938C017B01C0E0D0E0F70198
:10316000EC0FFD1F6491662361F0D801ED91FC9195
:103170000190F081E02DC8010995892B11F021966D
:10318000EECFCE01DF91CF911F910F91FF90EF9085
:103190000895DB0114964D915C9115976D917C918A
:1031A000DC01ED91FC910280F381E02D09940C94F7
:1031B0009018DC01ED91FC910190F081E02D0994D3
:1031C0006FEA71E00C9490180F931F93CF93DF93E5
:1031D000EC010E94A5188C01CE010E94E018800F1E
:1031E000911FDF91CF911F910F9108954F925F92A0
:1031F0006F927F92EF92FF920F931F93CF93DF9383
:10320000CDB7DEB7A1970FB6F894DEBF0FBECDBF26
:103210007C01FA01CB0119A2223008F42AE08E01C8
:103220000F5D1F4F422E512C612C712CBF01A30149
:1032300092010E94BA30F901CA01015011096A30A5
:1032400014F4605D01C0695CD8016C93232B242BBE
:10325000252B61F7B801C7010E949018A1960FB6FF
:10326000F894DEBF0FBECDBFDF91CF911F910F91BC
:10327000FF90EF907F906F905F904F900895CF9266
:10328000DF92EF92FF920F931F93CF93DF93EC01A6
:103290006A017B012115310579F4E881F9810190FA
:1032A000F081E02D642FDF91CF911F910F91FF905E
:1032B000EF90DF90CF9009942A303105E9F477FF41
:1032C0001AC06DE20E94D9188C0144275527BA0113
:1032D0004C195D096E097F092AE0CE010E94F6189B
:1032E000800F911FDF91CF911F910F91FF90EF9071
:1032F000DF90CF9008952AE0B701A601CE01DF91BB
:10330000CF911F910F91FF90EF90DF90CF900C9491
:10331000F6189A01AB01662757FD6095762F0C943D
:103320003F192115310541F4DC01ED91FC9101902B
:10333000F081E02D642F09940C94F6189A01462F21
:1033400050E060E070E00C9491199A01AB0160E0EC
:1033500070E00C949119615030F02091F100FC0163
:1033600020830196F8CF289884E68093DE040895A0
:103370004091D9045091DA042091D7043091D804B7
:1033800042175307B4F49091E8009570E1F39091DF
:10339000E80092FD19C08093F1008091D9049091CA
:1033A000DA0401968F739927892B19F48EEF809395
:1033B000E8008091D9049091DA0401969093DA04A0
:1033C0008093D90481E0089580E00895CF92DF9240
:1033D000EF92FF920F931F93CF93DF931F92CDB77E
:1033E000DEB7182F062FE42E862F880F8E5F998365
:1033F0000E94B81983E00E94B819F12EC12E99815C
:10340000D92E8C2D8F19801798F4F601E7FE02C093
:10341000849101C080810E94B819182F80E00E9419
:10342000B8198123FFEFCF1ADF0A8111EACF01C05B
:1034300081E00F90DF91CF911F910F91FF90EF905E
:10344000DF90CF9008958091D70081608093D7005E
:1034500080EA8093D80089B5806189BD89B5826092
:1034600089BD09B400FEFDCF61E070E080E090E02E
:103470000E9401208091D8008F7C80618093D800C9
:103480008091E000807F8093E00008952FB7FC01D9
:103490002083F89467706093E9000895CF93DF93D9
:1034A0001F92CDB7DEB7682FCE0101960E94461A53
:1034B0008091F20099819FBF0F90DF91CF91089585
:1034C000EF92FF920F931F93CF93DF931F92CDB78D
:1034D000DEB79091DD04992311F057FF03C08FEF01
:1034E0009FEF2AC08A017B01682FCE0101960E94BE
:1034F000461A8091F20090E0A801801791070CF421
:10350000AC01842FF70194E6815038F0289890930D
:10351000DE042091F1002193F7CF4115510521F0F0
:103520008091F200882321F089818FBFCA0104C0F5
:103530008BE68093E800F8CF0F90DF91CF911F9139
:103540000F91FF90EF900895CF93DF931F92CDB727
:10355000DEB741E050E0BE016F5F7F4F0E94601A0E
:10356000019719F4898190E002C08FEF9FEF0F90CF
:10357000DF91CF910895CF93DF931F92CDB7DEB740
:10358000682FCE0101960E94461A9091E800892F7B
:10359000807295FF04C09091F20080E4891B9981AC
:1035A0009FBF0F90DF91CF9108956F927F928F927E
:1035B0009F92AF92BF92CF92DF92EF92FF920F93C2
:1035C0001F93CF93DF931F92CDB7DEB7A82E6B0169
:1035D000B42E052F8091DD04882369F0E42EF52EAA
:1035E0008AEF982E8A2D8072782E9AE3892E8A2D62
:1035F0008074682E12C08FEF9FEF54C08A2D0E94F6
:10360000BB1A182F81110DC09A949920A1F361E083
:1036100070E080E090E00E940120E114F10471F775
:1036200037C090E0E816F9060CF41E2D6A2DCE0185
:1036300001960E94461A8091E80085FF26C0812FDE
:1036400090E0E81AF90A772029F01150A8F01092BA
:10365000F100FBCFF601A7FE07C0115058F02491EE
:103660002093F1003196F9CF115020F02191209351
:10367000F100FACFC80ED91E8091E80085FF0FC077
:10368000E114F10411F461100AC089818FBFC5CF24
:103690005D9884E68093DF048B2D902F03C0809289
:1036A000E800F3CF0F90DF91CF911F910F91FF9022
:1036B000EF90DF90CF90BF90AF909F908F907F90D2
:1036C0006F9008951092E9001092DA041092D904D4
:1036D0009093D8048093D7040895DF92EF92FF92DD
:1036E0000F931F93CF93DF93D82E8A017B01E40EB3
:1036F000F51EEB01CE15DF0571F0D7FE03C0FE010C
:10370000849101C088810E94B81921968111F2CF5D
:103710008FEF9FEF01C0C801DF91CF911F910F91F3
:10372000FF90EF90DF900895BF92CF92DF92EF92DB
:10373000FF920F931F93CF93DF936C018B01EB01EB
:103740009BEFB92E2097C1F07E01C134D1051CF04A
:1037500080E4E82EF12C8091E80082FFFCCFC801C4
:103760008C1B9D0B6E2D8C0D9D1D0E94AB19B09274
:10377000E800CE19DF09E6CFC801DF91CF911F9194
:103780000F91FF90EF90DF90CF90BF9008958093BE
:10379000E9008091F200882319F08AE38093E80021
:1037A00008951F920F920FB60F9211242F933F93FB
:1037B0004F935F936F937F938F939F93AF93BF9339
:1037C000CF93EF93FF93C091E1008091E100837F5D
:1037D0008093E1008093E100C3FF0FC01092E900E5
:1037E00081E08093EB001092EC0082E38093ED0087
:1037F0001092DD0488E08093F000C2FF19C083E0DE
:103800000E94C71B8091DF04882339F08091DF0478
:1038100081508093DF04882389F18091DE0488231E
:1038200039F08091DE0481508093DE04882341F1D9
:10383000C4FF10C08091E2008E7E81608093E20020
:103840008091E1008F7E8093E1008091DB048E7E89
:10385000806111C0C0FF16C08091E2008E7E806141
:103860008093E2008091E1008E7E8093E100809160
:10387000DB048E7E81608093DB0404C05D9ACDCF33
:10388000289AD6CFFF91EF91CF91BF91AF919F91A1
:103890008F917F916F915F914F913F912F910F90F9
:1038A0000FBE0F901F9018951092DD041092DC044B
:1038B0001092DB040E94231A8091E1008E7E809397
:1038C000E1008DE08093E200559A209AEEEFFFE749
:1038D000859194918B3F9C4D19F481E080930C0469
:1038E0000895EF92FF920F931F93CF93DF937B0185
:1038F000FC01C281D38100E010E0209781F0E881D3
:10390000F9810280F381E02DB701CE01099597FD81
:1039100008C0080F191F0884D985C02DEECFC80133
:1039200002C08FEF9FEFDF91CF911F910F91FF901A
:10393000EF9008950F931F93CF93DF938B01FC01BA
:10394000C281D381209771F0E881F9810480F581EB
:10395000E02DB801CE010995009731F40884D9858E
:10396000C02DF0CF80E090E0DF91CF911F910F91BB
:1039700008950F931F93CF93DF938B01FC01C281B6
:10398000D381209771F0E881F9810680F781E02DDD
:10399000B801CE010995080F111D0884D985C02DE5
:1039A000F0CFF8011082DF91CF911F910F91089510
:1039B0000F931F93CF93DF938B01FC01C281D381BF
:1039C000209771F0E881F9810190F081E02DB80134
:1039D000CE010995811105C00884D985C02DF0CF8D
:1039E00080E0DF91CF911F910F910895CF93DF93E6
:1039F000FC01DB01218114968C91149790E0820FD9
:103A0000911D0897B4F5C281D381209719F473836F
:103A1000628308C088859985009711F0EC01FACF80
:103A2000B987A887808112968C931297818113960B
:103A30008C931397908115968C911597890F80839D
:103A400080E014969C911497891788F41696CD916E
:103A5000DC911797C80FD11D9881C181D0E0CB5E52
:103A6000DE4F988391819F5F91838F5FEACF81E0E2
:103A700001C080E0DF91CF9108958091CD04811144
:103A80000DC082E08093C90484E08093CA04109240
:103A9000CC041092CB0481E08093CD0489EC94E0B7
:103AA0000895CF93DF931F92CDB7DEB71982CE0171
:103AB00001960E94BD140E943D1DBE016F5F7F4FA5
:103AC0000E94711C89810F90DF91CF9108951F9200
:103AD0000F920FB60F921124CF92DF92EF92FF92C6
:103AE0000F931F932F933F934F935F936F937F9306
:103AF0008F939F93AF93BF93EF93FF93CF93DF93F6
:103B0000CDB7DEB76C97DEBFCDBF1092E9008091D4
:103B1000E80083FF24C168E0CE0145960E94AB19FE
:103B200082EF8093E8008D8987FF05C09091E800BF
:103B300090FFFCCF03C09EEF9093E800982F907603
:103B400009F0F1C09E892F89188D91110CC0803821
:103B500029F48091DC048093F10002C01092F100FE
:103B60001092F100F5C0422F50E0512B913051F4EA
:103B70008111EEC04130510509F0EAC08091DC04AA
:103B80008D7F0BC0933061F48111E2C0413051054B
:103B900009F0DEC08091DC0482608093DC04D8C030
:103BA000953041F48091E80080FFFCCF206820939D
:103BB000E300CEC0963009F08CC0EB8CFC8C123048
:103BC00069F580E090E00E94621B0E94511D99E01F
:103BD0009E012F5F3F4F6901F901292F11922A950C
:103BE000E9F799831A8391E09E8390EA98879AEF88
:103BF00099872091D9043091DA04275F3F4F3C83A5
:103C00002B838D83C7010E94621B49E050E0B601FF
:103C100080E00E946D1B0E94511D9AC0C7010E9446
:103C2000621B0E943D1DBE016B5E7F4F0E949A1C6D
:103C3000009719F00CF08CC08FC0113071F48B8D8F
:103C40009C8D089719F481E08093D6048091D60466
:103C500081112FC06EEA73E031C0133009F07CC0CF
:103C60008F89882349F1823029F440E86CE089EC9F
:103C700093E006C0813039F440E868E080EC93E0DE
:103C80000E94E61963C0833009F066C00E943D1DA2
:103C90008E010F5F1F4FB8010E94B91CF8010190FF
:103CA0000020E9F73197BF01601B710B40E0C801AC
:103CB000E7CF6CE973E002C066ED73E06115710552
:103CC00009F44AC0FB01449150E080E80E946D1B5A
:103CD0003FC0973009F440C0983021F481E08093D0
:103CE000F10036C09930A1F58370B1F5E6E1F1E05D
:103CF00081E021E036E39081992361F08093E9002F
:103D00002093EB0091919093EC003093ED008F5F46
:103D1000873089F78EE78093EA001092EA008F8956
:103D20008093DD0415C08B8D9C8D0E94621B898D54
:103D3000811105C0CE0145960E94C81407C00E949B
:103D40003D1DBE016B5E7F4F0E94D81C882321F071
:103D50008EEF8093E80003C081E28093EB006C96C5
:103D60000FB6F894DEBF0FBECDBFDF91CF91FF91AC
:103D7000EF91BF91AF919F918F917F916F915F91E3
:103D80004F913F912F911F910F91FF90EF90DF90F6
:103D9000CF900F900FBE0F901F90189508951F920F
:103DA0000F920FB60F9211242F933F934F935F936F
:103DB0006F937F938F939F93AF93BF93EF93FF93F3
:103DC000E0911C01F0911D010995FF91EF91BF91C8
:103DD000AF919F918F917F916F915F914F913F91A3
:103DE0002F910F900FBE0F901F9018951F920F925A
:103DF0000FB60F9211242F933F934F935F936F93BE
:103E00007F938F939F93AF93BF93EF93FF93E09133
:103E10001E01F0911F010995FF91EF91BF91AF91A4
:103E20009F918F917F916F915F914F913F912F91D2
:103E30000F900FBE0F901F9018951F920F920FB604
:103E40000F9211242F933F934F935F936F937F9320
:103E50008F939F93AF93BF93EF93FF93E0912001D4
:103E6000F09121010995FF91EF91BF91AF919F9141
:103E70008F917F916F915F914F913F912F910F9013
:103E80000FBE0F901F9018951F920F920FB60F92B2
:103E900011242F933F934F935F936F937F938F934F
:103EA0009F93AF93BF93EF93FF93E0912201F09123
:103EB00023010995FF91EF91BF91AF919F918F9150
:103EC0007F916F915F914F913F912F910F900FBE16
:103ED0000F901F9018951F920F920FB60F921124FA
:103EE0002F933F934F935F936F937F938F939F9302
:103EF000AF93BF93EF93FF93E0912401F0912501DD
:103F00000995FF91EF91BF91AF919F918F917F9113
:103F10006F915F914F913F912F910F900FBE0F9036
:103F20001F9018951F920F920FB60F9211242F9386
:103F30003F938F939F93AF93BF938091E1049091B0
:103F4000E204A091E304B091E4043091E00423E0A2
:103F5000230F2D3720F40196A11DB11D05C026E8C1
:103F6000230F0296A11DB11D2093E0048093E1046C
:103F70009093E204A093E304B093E4048091E504F9
:103F80009091E604A091E704B091E8040196A11D88
:103F9000B11D8093E5049093E604A093E704B093E9
:103FA000E804BF91AF919F918F913F912F910F9016
:103FB0000FBE0F901F9018953FB7F8948091E504BD
:103FC0009091E604A091E704B091E80426B5A89B7F
:103FD00005C02F3F19F00196A11DB11D3FBFBA2F9B
:103FE000A92F982F8827820F911DA11DB11DBC01FB
:103FF000CD0142E0660F771F881F991F4A95D1F7C0
:1040000008958F929F92AF92BF92CF92DF92EF92DC
:10401000FF926B017C010E94DC1F4B015C01C1140B
:10402000D104E104F10401F10E9462180E94DC1F36
:10403000DC01CB0188199909AA09BB09883E934084
:10404000A105B10560F321E0C21AD108E108F10829
:1040500088EE880E83E0981EA11CB11CC114D10407
:10406000E104F10419F7DBCFFF90EF90DF90CF90E0
:10407000BF90AF909F908F9008958230910538F057
:10408000880F991F880F991F05970197F1F70895D9
:10409000789484B5826084BD84B5816084BD85B523
:1040A000826085BD85B5816085BDEEE6F0E08081EA
:1040B00081608083E1E8F0E010828081826080830B
:1040C000808181608083E0E8F0E08081816080838E
:1040D000E1E9F0E08081826080838081816080837B
:1040E000E0E9F0E0808181608083E1ECF0E08081B4
:1040F000846080838081826080838081816080830E
:10410000E3ECF0E0808181608083E0ECF0E080818E
:1041100082608083E2ECF0E0808181608083EAE766
:10412000F0E08081846080838081826080838081F0
:1041300081608083808180688083089590E0FC01A5
:104140003197EF30F105B0F5EA5AFF4F0C94FB3090
:10415000809180008F7703C0809180008F7D809355
:104160008000089580918000877FF9CF84B58F7794
:1041700002C084B58F7D84BD0895809190008F77B3
:1041800007C0809190008F7D03C080919000877F51
:104190008093900008958091C0008F7703C0809134
:1041A000C0008F7D8093C00008958091C200877FFA
:1041B0008093C2000895CF93DF9390E0FC01E85014
:1041C000FC4F2491FC01E95EFB4F8491882361F14F
:1041D00090E0880F991FFC01EE5AFB4FC591D491D6
:1041E000FC01EC5BFB4FA591B491611109C09FB735
:1041F000F8948881209582238883EC912E230BC02C
:10420000623061F49FB7F8943881822F80958323C0
:104210008883EC912E2B2C939FBF06C08FB7F89408
:10422000E8812E2B28838FBFDF91CF9108951F93B4
:10423000CF93DF93282F30E0F901E652FC4F8491B1
:10424000F901E850FC4FD491F901E95EFB4FC491AC
:10425000CC23C9F0162F81110E949E20EC2FF0E094
:10426000EE0FFF1FEC5BFB4FA591B4918FB7F89455
:10427000111105C09C91ED2FE095E92302C0EC914E
:10428000ED2BEC938FBFDF91CF911F910895CF93CA
:10429000DF93282F30E0F901E652FC4F8491F901B9
:1042A000E850FC4FD491F901E95EFB4FC491CC2357
:1042B00091F081110E949E20EC2FF0E0EE0FFF1F85
:1042C000EA5CFB4FA591B491EC91ED2381E090E085
:1042D00021F480E002C080E090E0DF91CF9108956A
:1042E000DC01FB0111961C921E9213961C921E92E9
:1042F000129715961C921E921497808191811196A7
:104300009C938E938281938113969C938E931297A4
:104310008481958115969C938E93149711821082B7
:1043200013821282158214820895FC01808191818A
:104330000C94A531CF93DF93EC018881998100978C
:1043400011F00E94A531198218821D821C821B82E5
:104350001A82DF91CF9108950F931F93CF93DF932C
:10436000EC018B016F5F7F4F888199810E943D3204
:10437000009731F0998388831B830A8381E001C011
:1043800080E0DF91CF911F910F910895CF93DF933C
:10439000EC0188819981892B29F08A819B8186177C
:1043A000970760F4CE010E94AC21882341F08C81F4
:1043B0009D81892B19F4E881F981108281E0DF91D8
:1043C000CF910895EF92FF920F931F93CF93DF93B6
:1043D000EC017B018A01BA010E94C621811104C04F
:1043E000CE010E949A2107C01D830C83B7018881EA
:1043F00099810E941F33CE01DF91CF911F910F91C0
:10440000FF90EF900895FC011182108213821282B6
:10441000158214826115710551F0FB010190002095
:10442000E9F73197AF01461B570B0C94E221089531
:10443000EF92FF920F931F93CF93DF93EC017B01D9
:104440008A01BA010E94C621811104C0CE010E94D6
:104450009A2107C01D830C83B701888199810E942E
:104460000633CE01DF91CF911F910F91FF90EF9016
:104470000895CF93DF93EC01FB018617970761F056
:10448000608171816115710529F0448155810E9417
:10449000E22102C00E949A21CE01DF91CF910895BE
:1044A000FC011182108213821282158214820C94F4
:1044B0003922CF93DF93EC016115710559F0FB01AF
:1044C00001900020E9F73197AF01461B570B0E947E
:1044D000E22102C00E949A21CE01DF91CF9108957E
:1044E0000F931F93CF93DF9300D0CDB7DEB78C012E
:1044F0006115710561F0CB0169837A830E940D33E8
:10450000AC0169817A81C8010E94182202C00E9410
:104510009A21C8010F900F90DF91CF911F910F91B9
:104520000895FC0111821082138212821582148276
:104530000C947022EF92FF920F931F93CF93DF930F
:10454000FC01248135816115710511F480E019C0E9
:1045500041155105A9F07B01EC018A01020F131FDF
:10456000B8010E94C621882389F3288139818C8172
:104570009D81B701820F931F0E941F331D830C83FF
:1045800081E0DF91CF911F910F91FF90EF900895FF
:10459000CF93DF9300D0CDB7DEB769831A8241E0B5
:1045A00050E0BE016F5F7F4F0E949A220F900F90E4
:1045B000DF91CF910895CF93DF93EC01FB0144810C
:1045C0005581608171810E949A22811103C0CE01C0
:1045D0000E949A21CE01DF91CF9108952091EC05A0
:1045E0003091ED0528173907B9F49091AA0580910B
:1045F000AB05981789F0E091AA05F0E0E455FA4F71
:1046000080812091AA0530E02F5F3F4F2F73332721
:104610002093AA0590E008958FEF9FEF08951F93D0
:10462000CF93DF93DC015C962D913C915D97211532
:10463000310539F481E090E013969C938E931297A4
:104640003DC05196ED91FC91529750969C91509798
:10465000892F80951FB75E964C915E9741FB772717
:1046600070F941FD6095F8944081772311F0492B52
:1046700001C048234083E9012197F1F748E05081C8
:1046800060FF02C0592B01C058235083E9012197D4
:10469000F1F76695415099F7772321F090818923AE
:1046A000808303C08081982B90831FBF5C968D917F
:1046B0009C915D970197F1F721E030E0C901DF910E
:1046C000CF911F91089508952091EC053091ED054B
:1046D0002817390771F49091AA058091AB059817B6
:1046E00041F0E091AA05F0E0E455FA4F808190E0B6
:1046F00008958FEF9FEF08958091870590E02091B6
:104700008805821B910908959091880580918705FD
:10471000981750F4E92FF0E0E757FA4F208130E086
:104720009F5F9093880502C02FEF3FEFC901089566
:10473000E091880580918705E81730F4F0E0E757AD
:10474000FA4F808190E008958FEF9FEF08950895CC
:104750002091EC053091ED052817390771F480910F
:10476000AB052091AA0590E0805C9F4F821B9109C8
:1047700060E470E00E94A630089580E090E0089523
:10478000E091EC05F091ED05E817F90769F4A389CC
:10479000B4899C918589809589238C931092ED052D
:1047A0001092EC0581E0089580E00895CF93DF93A7
:1047B000EC018A8D9B8D892BF1F08091EC05909115
:1047C000ED058C179D07B9F0009711F00E94C023EA
:1047D0008E8D8E7F8E8F1092AB051092AA05D0938E
:1047E000ED05C093EC05EB89FC8990818D89892BBF
:1047F000808381E001C080E0DF91CF9108951F9216
:104800000F920FB60F9211242F933F934F935F9304
:104810006F937F938F939F93AF93BF93EF93FF9388
:10482000E091EC05F091ED05309709F451C0968DBB
:10483000A685B785858591FF04C09C91892329F4BD
:1048400047C09C91892309F043C0A389B4899C91F6
:104850008589809589238C93868997890197F1F7BB
:10486000608D718DA685B785558538E020E0CB0138
:104870000197F1F7822F90E095958795282F4C911D
:10488000452309F02068315091F7868D81FD2095F0
:104890008091AB0590E001968F7399273091AA051E
:1048A000381749F0A091AB05B0E0A455BA4F2C934E
:1048B0008093AB0503C0868D8160868F828D938D3A
:1048C0000197F1F7A389B4899C918589892B8C93F1
:1048D000FF91EF91BF91AF919F918F917F916F91D8
:1048E0005F914F913F912F910F900FBE0F901F90AE
:1048F000189524EC31E0FC01318320830C94C02313
:104900001F93CF93DF93EC01162F6E8D6695617028
:1049100081E06827812F0E94172161E0812F0E948A
:10492000DB20612F70E0FB01E850FC4FE491E88B45
:10493000FB01E95EFB4FE491F0E0EE0FFF1FEC5B43
:10494000FB4F859194919A8B898BDF91CF911F9129
:1049500008951F93CF93DF93EC01162F60E0812F12
:104960000E94DB208E8D81FD04C061E0812F0E94BA
:1049700017211C87612F70E0FB01E850FC4FE49188
:10498000ED87FB01E95EFB4FE491F0E0EE0FFF1FC6
:10499000EA5CFB4F859194919F878E87DF91CF9141
:1049A0001F9108951F93CF93DF93EC01162F1B8265
:1049B0001A8288EE93E0A0E0B0E08C839D83AE8302
:1049C000BF8384EC91E0998388831F8A1E8A198EA5
:1049D000188E1B8E1A8E1D8E1C8E8E8D8E7F20FB48
:1049E00081F98E8F642FCE010E948024612FCE0129
:1049F000DF91CF911F910C94A924CF93DF93EC0109
:104A00009A01AB011B8E1A8E198E188E1F8A1E8A70
:104A100060E079E08DE390E00E94DC30F901243021
:104A2000310518F0C901039702C081E090E09D8F25
:104A30008C8F8C8598EF980F943048F062EF680F58
:104A4000643028F066EE680F633008F071C0B90179
:104A5000769567956431710518F06351710902C04C
:104A600061E070E07F8B6E8B369720F0B901655066
:104A7000710902C061E070E0798F688FB901660F3B
:104A8000771F260F371F36952795369527952D309A
:104A9000310518F02C50310902C021E030E03B8F85
:104AA0002A8F943058F092EF980F943038F08A5152
:104AB000833008F442C0A0E0B0E041C0A8E6B0E016
:104AC000E8E6F0E0808181608C938C8598EF980F08
:104AD000943058F022EF280F243038F026EE280FBB
:104AE000233018F020E030E002C02BE630E03C8BB1
:104AF0002B8B943010F4845009C08E3069F08F30C5
:104B000069F0803169F0813169F0865191E001C02E
:104B1000990F8A95EAF707C098E005C092E003C0B4
:104B200094E001C091E09D8B8C8D9D8D0197F1F7F4
:104B3000CE01DF91CF910C94D623A8E6B0E083306C
:104B400008F4BECFE0E0F0E0BDCFCF93CFB7F8944C
:104B50008091A905811127C0E8E2F4E08491E9E0A1
:104B6000F4E09491E82FF0E0EE0FFF1FEE5AFB4FB8
:104B7000A591B491EC91E92321F461E081E10E94D7
:104B8000172161E081E10E94DB208CB580618CBD42
:104B90008CB580648CBD61E08FE00E94DB2061E019
:104BA00080E10E94DB208091A9058F5F8093A90599
:104BB000CFBFCF910895FC011382128288EE93E05B
:104BC000A0E0B0E084839583A683B78384ED91E071
:104BD00091838083089581E08093630560938605C7
:104BE000109265051092640508951092560581E0B3
:104BF000809354051092530561E082E00E941721D2
:104C000061E083E00E941721E9EBF0E080818E7F74
:104C1000808380818D7F808388E48093B80085E4E1
:104C20008093BC0008951092880510928705109219
:104C30006505109264050C94F5250F934132E8F553
:104C4000909156059111FCCF32E0309356050093B8
:104C500054053FEF3093E90410922E0540932D0543
:104C6000FB016FE275E0DB013A2F361B341718F4B5
:104C700031913D93F9CF1092550530915505880F2C
:104C8000832B8093550580915305813061F41092F8
:104C90005305809155058093BB008091BC0083FD36
:104CA000F8CF85EC01C085EE8093BC00222339F05B
:104CB00080915605823019F4F9CF91E011C08091AE
:104CC000E9048F3F69F08091E904803231F08091EE
:104CD000E904803321F094E003C092E001C093E046
:104CE000892F0F9108950F93062F21E040916405BD
:104CF00066E675E0809186050E941D261092650586
:104D000010926405109263050F91089561E00C9470
:104D10007326613298F420915605243089F460930B
:104D20000B05FC012DE035E0D9018A2F821B861787
:104D300018F481918D93F9CF80E0089581E0089572
:104D400082E00895CF93DF931F92CDB7DEB76983DA
:104D5000209163052223D1F020916405203240F098
:104D600021E030E0FC013383228380E090E015C035
:104D700080916505E82FF0E0EA59FA4F9981908318
:104D80008F5F809365058093640505C061E0CE0167
:104D900001960E94892681E090E00F90DF91CF91EB
:104DA0000895CF92DF92EF92FF920F931F93CF93CC
:104DB000DF937C01262F972F8A018091630588233A
:104DC00091F0C62FD72F6E01C40ED51ECC15DD0570
:104DD00071F06991D701ED91FC910190F081E02D86
:104DE000C7010995F3CF642F822F0E948926C8013D
:104DF000DF91CF911F910F91FF90EF90DF90CF90B7
:104E0000089585ED8093BC008091BC0084FDFCCFAB
:104E100010925605089585EC8093BC0010925605BB
:104E200008951F920F920FB60F9211242F933F9364
:104E30004F935F936F937F938F939F93AF93BF93A2
:104E4000EF93FF938091B900887F803609F49EC06C
:104E500078F5883209F45DC090F4803109F456C0C9
:104E600038F4882309F4F5C0883009F44FC0F5C040
:104E7000883109F44EC0803209F45FC0EEC080343E
:104E800009F46AC058F4803309F457C0883309F034
:104E9000E4C08093E9040E940B27DFC0803509F449
:104EA0004FC0883509F45DC0883409F0D6C0D3C03E
:104EB000883909F4C4C0A8F4883709F467C038F405
:104EC000883609F463C0803709F460C0C6C08838EA
:104ED00009F4B5C0803909F45FC0803809F0BDC05D
:104EE0005BC0803B09F483C038F4803A09F466C0A3
:104EF000883A09F47CC0B1C0803C09F4A4C0883C65
:104F000009F4A1C0883B09F487C0A7C0809155056A
:104F100010C090912E0580912D05981770F5E091A5
:104F20002E0581E08E0F80932E05F0E0E15DFA4FB3
:104F300080818093BB0085EC83C08093E9048BC0A3
:104F4000E0912E0581E08E0F80932E058091BB00AD
:104F5000F0E0E15DFA4F808390912E0580912D0560
:104F60006BC0E0912E0581E08E0F80932E0580911D
:104F7000BB00F0E0E15DFA4F808380915405811120
:104F80006AC081E08093530584EA5EC083E0809329
:104F900056051092EA04CFCF8091EA04803208F0DF
:104FA0004EC0E091EA0481E08E0F8093EA04809184
:104FB000BB00F0E0E551FB4F8083BDCF0E940B2783
:104FC0008091EA04803230F4E091EA04F0E0E551A7
:104FD000FB4F10826091EA0470E0E0914F05F09180
:104FE00050058BEE94E009951092EA0436C084E0F7
:104FF0008093560510920C0510920B05E091510517
:10500000F0915205099580910B05811105C081E051
:1050100080930B0510920D05E0910C0581E08E0F39
:1050200080930C05F0E0E35FFA4F80818093BB0032
:1050300090910C0580910B05981708F47CCF85E8BA
:105040008093BC000AC085EC8093BC00109256058A
:1050500004C01092E9040E940127FF91EF91BF91D3
:10506000AF919F918F917F916F915F914F913F9100
:105070002F910F900FBE0F901F90189587E595E028
:105080000C94DB2580910A0690910B06892B49F43C
:1050900081E090E090930B0680930A0640E064E67E
:1050A00006C010920B0610920A0640E060E081E113
:1050B0000C94680FCF93DF9300D000D0CDB7DEB74C
:1050C000DC0112963C91129739836A834B832C83BF
:1050D000ED91FC910190F081E02D44E050E0BE01A3
:1050E0006F5F7F4F09950F900F900F900F90DF919A
:1050F000CF910895FC01128220E040E060E00C9422
:105100005A28CF93DF93EC016A8320E040E060E00F
:105110000E945A281A8220E040E060E0CE01DF9130
:10512000CF910C945A28CF93DF93EC01E881F98159
:105130000480F581E02D0995E881F9810680F781E9
:10514000E02DCE01DF91CF9109940F931F93CF9360
:10515000DF93EC01E881F9810084F185E02D41E0E5
:1051600009958C01892B39F0E881F9810680F78156
:10517000E02DCE010995C801DF91CF911F910F91CC
:1051800008950F931F93CF93DF93EC01E881F9818A
:105190000480F581E02D09958C01892B39F0E88197
:1051A000F9810680F781E02DCE010995C801DF91D4
:1051B000CF911F910F91089560E070E087EE9AE221
:1051C0000C945A33CF93DF93EC01BC0181E996E054
:1051D0000E94A5188091AA06811107C0BE018BEA22
:1051E00096E0DF91CF910C94A518DF91CF910895AF
:1051F000CF93DF93EC01BC0181E996E00E94C918CE
:105200008091AA06811107C0BE018BEA96E0DF916A
:10521000CF910C94C918DF91CF910895CF93DF936C
:10522000EC01BC0181E996E00E94D7188091AA06A2
:10523000811107C0BE018BEA96E0DF91CF910C94FB
:10524000D718DF91CF9108950F931F93CF93C82F55
:105250008B01AB01682F81E996E00E949E19809135
:10526000AA06811109C0A8016C2F8BEA96E0CF91A4
:105270001F910F910C949E19CF911F910F9108953A
:105280000F931F93CF93DF93EC018B01AB01BC0114
:1052900081E996E00E9489198091AA0681110AC0CD
:1052A000A801BE018BEA96E0DF91CF911F910F918B
:1052B0000C948919DF91CF911F910F9108950F934D
:1052C0001F93CF93DF93EC018B01AB01BC0181E90C
:1052D00096E00E94A5198091AA0681110AC0A80132
:1052E000BE018BEA96E0DF91CF911F910F910C9454
:1052F000A519DF91CF911F910F910895462F682F27
:1053000081E996E00E943D068091AA06811104C0C1
:105310008BEA96E00C94E01808958091AA0681111A
:1053200004C08BEA96E00C94E0180895CF92DF92C7
:10533000EF92FF928FE696E00E94F40A85E695E0F0
:105340000E94E22840E26FE476E08FE696E00E9459
:105350007C0B80930C0661E080E00E947E2985E54D
:1053600095E00E94E22862E080E00E947E29809120
:105370000C068823F1F08FE696E00E94380C0E941C
:10538000DC1F6B017C018FE696E00E949D0B811172
:1053900018C00E94DC1FDC01CB018C199D09AE09ED
:1053A000BF0981309D42A143B14068F389E395E094
:1053B00002C08AE195E0FF90EF90DF90CF900C94CF
:1053C000E22840E26FE276E08FE696E00E94A10BD1
:1053D0008AE295E00E94E22863E080E00E947E2954
:1053E0008FE296E00E940E2981E080930D06FF90E7
:1053F000EF90DF90CF900895803839F421E030E0CD
:10540000309309062093080611C0823839F421E050
:1054100030E0309307062093060608C0823331F44B
:1054200021E030E030930506209304062091080621
:105430003091090621303105A9F4409106065091BA
:1054400007064130510509F075C04091040650919E
:1054500005064130510509F06DC03093FB052093DE
:10546000FA0568C0813839F481E090E09093030632
:10547000809302060895893DE9F441E050E050939D
:105480000106409300062130310509F063C04091C8
:105490000206509103064130510589F440910006FF
:1054A000509101064130510551F45093F705409356
:1054B000F60505C02130310509F046C0E8CF8A3D28
:1054C00051F441E050E05093FF054093FE05213038
:1054D000310509F03FC0409102065091030641306A
:1054E000510559F44091FE055091FF054130510599
:1054F00021F45093F9054093F805863349F481E08F
:1055000090E09093FD058093FC052130310511F565
:1055100080910606909107060197E1F48091FC05C1
:105520009091FD0581309105A9F49093EF0580934A
:10553000EE050895813809F09ECF41E050E0509388
:10554000030640930206AACF8A3D09F4BACF8633F8
:10555000B1F20895089581E996E00E94360684EC40
:1055600094E00C94E2288F92AF92CF92EF920F9337
:1055700020E04AE069E08BEA96E00E94D2241F9284
:105580001F9283E08F9387E0882E96E0A92E25E076
:10559000C22E34E0E32E00E021E042E067E281E940
:1055A00096E00E948F070F900F900F9043E150E01C
:1055B00062E170E08FE696E00F91EF90CF90AF90B0
:1055C0008F900C94D50A8BEA96E00C947924CF93B3
:1055D000C82F682F8CEB93E00E9460148C2F9927C2
:1055E00087FD9095CF9108950F931F93CF93DF93ED
:1055F000CDB7DEB762970FB6F894DEBF0FBECDBF52
:1056000060EE71E08FE096E00E941F336FE176E07C
:10561000CE0101960E949122BE016F5F7F4F8BE009
:1056200093E00E94A013CE0101960E94952162E0B2
:1056300080912E010E94DB205D9A289A61E085E02E
:105640000E94DB2081E090E090938806809387069B
:1056500080918706909188060597B4F485E00E94B2
:10566000472161E0892B09F060E085E00E94172165
:1056700060E971E080E090E00E940120809187065F
:10568000909188060196E0CF20E044E064E181E952
:1056900096E00E941F0840E855E260E070E08BEA67
:1056A00096E00E94FD2481E996E00E9436066EE0B5
:1056B00076E0CE010D960E949122BE01635F7F4F7E
:1056C000CE0101960E945022AE014F5F5F4F6BE00A
:1056D00073E0CE0107960E94B813CE0101960E9496
:1056E00095210E94DC2880912E010E944721892B60
:1056F00019F410920D06D7C08FE696E00E94D70CE1
:1057000080930E0683E096E00E94E2286AE070E053
:1057100080910E060E9424290E948D2960EA7FE074
:1057200080E090E00E94012081E996E00E94360628
:1057300069E68FE696E00E94EA0A61E08FE696E06D
:105740000E947E0C62E070E08FE696E00E949C0C66
:105750004AE061E08FE696E00E941E0E80EF95E041
:105760000E94E2288FE696E00E94F10A80930E06DE
:1057700061E080E00E947E2983EE95E00E94E228AD
:105780006AE070E080910E060E94242968EB7BE0BD
:1057900080E090E00E9401208FE696E00E94960C47
:1057A00080930E0662E080E00E947E2988ED95E0FD
:1057B0000E94E2286AE070E080910E060E9424298F
:1057C00068EB7BE080E090E00E9401208FE696E0AD
:1057D0000E944F0D80930E0663E080E00E947E29B8
:1057E0008EEC95E00E94E2286AE070E080910E065F
:1057F0000E9424290E948D2967E172E08FE696E0DD
:105800000E94AD0B4DE152E061E08FE696E00E9410
:10581000C70B68EB7BE080E090E00E94012081E90B
:1058200096E00E9436068FE696E00E94380C64E609
:1058300070E080E090E00E9401208CEB95E00E94F7
:10584000E2286AE070E08B859C850E945F2961E018
:1058500080E00E947E298CEA95E00E94E22862E0C6
:1058600080E00E947E29CE0107960E94F8280E94BF
:105870008D2960ED77E080E090E00E94012081E9D1
:1058800096E00E94360640E250E063EF71E08FE45C
:1058900096E00E9426330E9496290E948D298FE669
:1058A00096E00E947D0D0E948D2968EB7BE080E0F0
:1058B00090E00E94012081E996E00E94360687E987
:1058C00095E00E94E22861E080E00E947E2983E862
:1058D00095E00E94E22862E080E00E947E290AE0D2
:1058E00010E08BEA96E00E94A8231816190644F0EF
:1058F0008091890690918A06843691050CF467C0E0
:105900008BEA96E00E94A823892B59F08BEA96E057
:105910000E94EE2268EC70E080E090E00E9401209E
:10592000EFCF81E996E00E9436060E948D2982E73A
:1059300095E00E94E2280E948D2968EE73E080E0E5
:1059400090E00E94012080E180938100109280000D
:1059500084E0809308038BE197EB90930A03809394
:105960000903909387008093860084E180938100EF
:1059700082E498E2909308018093070181E080938C
:105980006F008FE392E00E94932880E00E94D40E83
:1059900040E060E081E10E94030F48E552E068E5E5
:1059A00072E081E10E94740FCE0107960E9495215A
:1059B000CE010D960E94952162960FB6F894DEBF37
:1059C0000FBECDBFDF91CF911F910F91089564E677
:1059D00070E080E090E00E94012080918906909123
:1059E0008A06B8010E94A630892BD9F46AE070E0DB
:1059F00080913001909131010E94402981E895E029
:105A00000E94E2288091300190913101019790939A
:105A1000310180933001019721F463E080E00E941E
:105A20007E298091890690918A06019690938A0634
:105A30008093890656CFCF93DF93803829F4109254
:105A40000906109208060DC0823829F41092070644
:105A50001092060606C0823321F4109205061092B9
:105A6000040620910806309109062115310509F038
:105A700084C04091060650910706452B09F05AC193
:105A80004091040650910506452B09F053C1C09181
:105A9000FA05D091FB05C130D10509F04BC1109238
:105AA000FB051092FA058091260190912701892B20
:105AB00049F46FEF81E996E00E941207D093270125
:105AC000C093260160EE8FE392E00E94A52864E671
:105AD00070E080E090E00E94012062EE8FE392E0AF
