:100000000C9412010C945A100C9481100C94A810AA
:100010000C94CF100C943A010C943A010C94F61005
:100020000C943A010C942D170C945C0D0C94F20E68
:100030000C943A010C943A010C943A010C943A0154
:100040000C943A010C94F8140C943A010C943A0173
:100050000C9413070C943A010C943A010C941D1162
:100060000C943A010C9402090C9434090C943A0152
:100070000C943A010C943A010C943A010C943A0114
:100080000C94D10A0C943A010C943A010C943A0164
:100090000C94091A0C943A010C9442050C943A0100
:1000A0000C943A010C943A010C943A014112441216
:1000B000331237123D1265126512651248124C1246
:1000C000501256125A126512601205010906A1015A
:1000D000050719E029E7150025017501950881023A
:1000E000050C95017508150026FF00190029FF81F0
:1000F0000005081901290895087501910205079561
:10010000067508150026E700190029E78100C008D8
:100110000B000202020100090400000102020000BB
:100120000524001001052401010104240206052410
:100130000600010705810310004009040100020ABE
:10014000000000070502024000000705830240008E
:100150000012010002EF0201404F1B069200010154
:1001600002030112010002000000404F1B06920032
:100170000101020301537061726B46756E005553A5
:100180004220494F20426F61726400040309040059
:1001900000000200090F0000030401000C00000031
:1001A0000000000000000000000000000004080241
:1001B00001104080401020408040800802040180EF
:1001C000402010020110801020404020040404044C
:1001D00004030405020202020403020202020606EC
:1001E00006060606040402020204040000000023BE
:1001F00000260029002C002F000000000025002808
:10020000002B002E00310000000000240027002AEF
:10021000002D00300000B60227086409D309361B00
:10022000661C961C11241FBECFEFDAE0DEBFCDBFE7
:1002300011E0A0E0B1E0E4E3F3E402C005900D9228
:10024000AC3EB107D9F715E0ACEEB1E001C01D92AC
:10025000A935B107E1F711E0C1E1D1E004C0219770
:10026000FE010E94061FCB30D107C9F70E94DF09AB
:100270000C948D210C940000FC0182818F5BFB01AA
:10028000808381E00895CF93DF93CDB7DEB7699780
:100290000FB6F894DEBF0FBECDBFFC01DB019C9111
:1002A0009F5F9C93BE016F5F7F4F89E1DB011D92D1
:1002B0008A95E9F729E0298384E08A8391E09D8388
:1002C00083E08E839F8398872A8721E22B879C87F0
:1002D00021E12D879F8722E2288B25E4298B27E0C7
:1002E0002B8B25E02C8B8E8B20E430E0388F2F8BEE
:1002F000998F82818B83838180688D8B49E150E067
:1003000080E00E94F80C69960FB6F894DEBF0FBE2D
:10031000CDBFDF91CF910895FB0120812138B9F441
:1003200023812232A1F4DC0112962C91129730E045
:10033000448155814217530751F421E053962C9381
:1003400045E450E06AEC70E080E80C94F80C80E042
:1003500090E00895CF93DF93EC01FB018A8190E058
:10036000248135818217930709F04AC081819081E9
:10037000913A69F4813009F441C0833011F48B89DA
:1003800003C08230E9F58C898093F10037C0913247
:10039000B9F58B3019F482818B8B30C08A3019F417
:1003A00082818C8B2BC0893059F56681778183815E
:1003B000833079F4888D998D6817790709F58E89CE
:1003C0009F890E941F0D888D998D9068998F888FC5
:1003D00015C0823041F46130710591F461E070E044
:1003E000CE01459609C0813059F46830710541F459
:1003F00068E070E0CE010A960E941F0D81E001C006
:1004000080E0DF91CF910895CF93DF93EC0181E0FD
:100410008C838D839E012E5E3F4F3F832E831986F2
:1004200018862BE231E0398328838B8B8C8B1D8AD5
:100430001F8A1E8A198E188E81EC8A8B0E94C80E24
:10044000BE01DF91CF910C94810EBC01665F7F4F9E
:10045000FC01838148E050E080640C94600C20E251
:10046000260F283058F441E050E001C0440F2A958F
:10047000EAF7FC012285422B428716C0FC013C961C
:1004800020E030E04191461779F0411105C0FC01B0
:10049000E20FF31F648708C02F5F3F4F26303105FE
:1004A00089F780E090E0089581E090E00895CF938F
:1004B000DF9320E2260F283068F4675E21E030E009
:1004C00001C0220F6A95EAF72095FC0132852323AB
:1004D000228736C0FC013C969C012E5E3F4F408136
:1004E000461301C010823196E217F307C1F740E0CE
:1004F00050E0C6E0D0E0252F30E0B901640F711D57
:1005000066307105ECF4FC01E20FF31F2485211124
:1005100015C04F5FA52FBE01641B71092A2F30E063
:10052000FC012617370730F4E20FF31F25852487D7
:10053000AF5FF4CFE60FF71F1486DDCF5F5FDBCF31
:1005400081E090E0DF91CF9108950A9628E0FC01C8
:1005500011922A95E9F70895CF93DF93EC010E9459
:10056000A502CE01DF91CF910C9425028CEE91E093
:100570000C940402FC0112828FEF8183108213829B
:100580000895FC018381882331F0611103C08FEF4E
:10059000818308951182089587E494E00E94E3180E
:1005A00087E494E00E947E1991E0811190E0892F08
:1005B0000895CF93DF93EC016A8387E494E00E946F
:1005C0000B196A81CE010E94CC028B83882329F00B
:1005D00087E494E00E94BC1488838B8190E0DF91D3
:1005E000CF910895CF93DF93FC0123812223B1F0B3
:1005F000EC018181809568236083628187E494E0C7
:100600000E94E318688187E494E00E949A1987E4C5
:1006100094E00E947E19282F30E002C020E030E0F4
:1006200081E090E0232B11F080E090E0DF91CF910A
:10063000089508950895DC01ED91FC910284F385FD
:10064000E02D41E0099581E090E00895FC011382DE
:10065000128227E331E0318320830895DC01ED919C
:10066000FC910084F185E02D6FEF0994DC01ED91A0
:10067000FC910284F385E02D40E0099461E00E9442
:10068000360380ED97E00C94C811CF93DF93CDB77C
:10069000DEB728970FB6F894DEBF0FBECDBFFC01C2
:1006A0001D8280E48E8394E19F8394E5988719826C
:1006B0008A8380E18B8380E58C838781481710F0E3
:1006C0004FEF480F908550E0DE01A40FB51F903129
:1006D00029F4843019F411969C9102C015969C91CE
:1006E000690F6068CF0128960FB6F894DEBF0FBE81
:1006F000CDBFDF91CF910C943603FC016581262F8D
:10070000246025836C600C943603CF93DF93EC0157
:10071000423018F08C8188608C834F836887222355
:1007200029F0413019F48C8184608C8364E670E098
:1007300080E090E00E948C116C8164FD31C0E88102
:10074000F9810284F385E02D42E063E0CE01099552
:1007500084E991E10E94C811E881F9810284F3855E
:10076000E02D42E063E0CE01099586E990E00E9429
:10077000C811E881F9810284F385E02D42E063E04D
:10078000CE01099586E990E00E94C811E881F981BF
:100790000284F385E02D42E062E0CE01099516C0A7
:1007A0006062CE010E94360384E991E10E94C81183
:1007B0006C816062CE010E94360386E990E00E945F
:1007C000C8116C816062CE010E94360386E990E018
:1007D0000E94C8116C816062CE010E9436038CE3D6
:1007E00090E00E94C81184E08D83CE010E947D03B9
:1007F000CE010E943E0382E08E8366E0CE010E941D
:100800003603CE01DF91CF910C942E0321E001C07D
:10081000220F6A95EAF7DC011C962C931C971A9616
:100820005C934E931997ED91FC910084F185E02D36
:1008300060E00994FC0184858823A9F02185328534
:100840002115310519F4611106C007C021303105A9
:1008500021F4611102C0858701C015866585CF012D
:100860000E960C94F20208950F931F93CF93DF938B
:100870008C01EC012E96FC016385CE010E94D90209
:10088000019769F461E0CE010E94C102F80114826F
:1008900060E0CE010E94F20281E090E002C080E0C0
:1008A00090E0DF91CF911F910F9108958F92AF92B9
:1008B000CF92EF920F93CF93DF93CDB7DEB7FC01CA
:1008C0006387148615861286118681E0982F01C0F1
:1008D000990F4A95EAF7928B982F01C0990F2A95A4
:1008E000EAF7938B982F01C0990F0A95EAF7948B3A
:1008F000982F01C0990FEA94EAF7958B982F01C0C1
:10090000990FCA94EAF7968B982F01C0990FAA9471
:10091000EAF7978B01C0880F8A94EAF7808FDF91FE
:10092000CF910F91EF90CF90AF908F9008954F920D
:100930005F926F927F928F92AF92CF92EF920F93CE
:100940001F93CF93DF9300D01F92CDB7DEB73C014A
:100950001A894B885C882B834A8369830E9426030B
:1009600087E491E0F30191838083C3010E960E9496
:10097000BA022B814A816981C3010E945604A201F7
:10098000612FC3010F900F900F90DF91CF911F91B6
:100990000F91EF90CF90AF908F907F906F905F907E
:1009A0004F900C940604FF920F931F93CF93DF9305
:1009B000EC01F62E8C01025F1F4F9A89692BC8014A
:1009C0000E94F2029A8990956F2D6923C801DF91E8
:1009D000CF911F910F91FF900C94F202362FFC01E2
:1009E000759624E060E030FF02C05081652B36959B
:1009F000215031962111F7CF413011F4FC01448987
:100A0000FC012585622B642B0C94D3040F931F9358
:100A1000CF93DF93062F0F70423019F440E0602F20
:100A200010C0142F262FEC0130E0B90184E0759539
:100A300067958A95E1F7CE010E94EE04412F602F61
:100A4000CE01DF91CF911F910F910C94EE040F9383
:100A50001F93CF93DF9300D01F92CDB7DEB78C01E9
:100A60002B834A8369830E9434042B814A816981E4
:100A7000C8010F900F900F90DF91CF911F910F91B0
:100A80000C9485031F920F920FB60F9211240F93AF
:100A90001F932F933F934F935F936F937F938F9306
:100AA0009F93AF93BF93CF93DF93EF93FF93809187
:100AB00006018F5F80930601882329F0E6E0F2E0CB
:100AC00020E030E059C006E012E0ECE0F2E0CEE0D9
:100AD000D2E0CE010197DC014C91CF010197DC01FE
:100AE000411103C028812223F9F02C9130E080814C
:100AF00090E0B901681B790B1616170644F44423DD
:100B000089F0840F911D8217930764F40AC0672B44
:100B100049F04881442331F0841B91092817390793
:100B20000CF49C01208302C08C91808380818823F7
:100B3000C9F0CF010597DC018C91AF0142505109FA
:100B4000D80112962D913C911397D9019C91DA010D
:100B5000811103C08C91892B03C08C9180958923CE
:100B6000D9018C93075F1F4F39962996B2E00A3B53
:100B70001B0709F0AECFA2CF808187FD15C0E90128
:100B8000CA5FDD4F809106019E8198130DC0998147
:100B9000A281B3818C81911104C09C91809589239D
:100BA00002C09C91892B8C933996275F3F4F243B41
:100BB000310511F7FF91EF91DF91CF91BF91AF9187
:100BC0009F918F917F916F915F914F913F912F9165
:100BD0001F910F910F900FBE0F901F9018951092BC
:100BE000C00094E09093C1001092C2001092C30024
:100BF0001092C4001092D10092E89093D10090E43A
:100C000090937200E6E0F2E020E030E09FEF908306
:100C1000D901AA5FBD4F11961C92119713821282BF
:100C200017961C92179718961C923996275F3F4F7C
:100C3000243B310561F78093BA020895CF93442392
:100C400039F01092BF001092BE009FEF9093060102
:100C5000E6E0F2E090E0AFEF208187FF03C027FFDE
:100C600006C04BC0281719F0AF3F41F404C065839C
:100C700087FDFACF46C0208127FDA92F9F5F3996B7
:100C8000943151F787FD3DC0AF3F09F43AC0C82FFA
:100C900089E0A802D0011124AA5FBD4FCC93209116
:100CA000BA0211962C9311978C2F992787FD909556
:100CB000FC01E453FE4FE491F0E0EE0FFF1FE7501C
:100CC000FE4F4591549113965C934E931297FC01FD
:100CD000E355FE4FE4911496EC93149715966C939C
:100CE000211102C060E001C061E08C2F0E94A212BD
:100CF00061E08C2FCF910C946612AF3F09F0BECF0C
:100D0000BCCFCF910895282F3FEF639FC0011124DE
:100D100064E670E00E949D1E822F0C941E062F92A6
:100D20003F924F925F926F927F928F929F92AF927B
:100D3000BF92CF92DF92EF92FF920F931F93CF93C8
:100D4000DF93CDB7DEB727970FB6F894DEBF0FBE9F
:100D5000CDBF89831B015D834C8386E092E09F8336
:100D60008E8300E010E04A01A12CB12C80EFC82E48
:100D70008FE0D82EE12CF12C2B01612C712C998164
:100D8000EE81FF81808197FF0DC087FF0EC08E81AD
:100D90009F8109969F838E83075F1F4F043B110538
:100DA00071F727C0F9818F13F2CF2114310439F084
:100DB000C701B601A30192010E94C51E01C020E037
:100DC000C8018A5F9D4F9B838A83FC0127838C81A6
:100DD0009D81892B39F0C701B601A50194010E94BC
:100DE000C51E01C020E0EA81FB812087F981F7FD63
:100DF000CECF27960FB6F894DEBF0FBECDBFDF91E2
:100E0000CF911F910F91FF90EF90DF90CF90BF9007
:100E1000AF909F908F907F906F905F904F903F909A
:100E20002F90089508951F920F920FB60F921124DC
:100E30002F933F934F935F936F937F938F939F93E2
:100E4000AF93BF93EF93FF93E0910701F0910801F7
:100E50000995FF91EF91BF91AF919F918F917F91F4
:100E60006F915F914F913F912F910F900FBE0F9017
:100E70001F901895CF93DF931F92CDB7DEB769838C
:100E8000DC01ED91FC910280F381E02D41E050E026
:100E9000BE016F5F7F4F09950F90DF91CF9108954D
:100EA000CF93DF93EC018C859D8597FF05C082E091
:100EB0000E942F0C9D878C878C859D85DF91CF911B
:100EC000089583E00C94520DFC018485958597FD6F
:100ED00006C082E00E94D90B90E00196089582E05E
:100EE0000E94D90B90E00895FC018485958597FDBB
:100EF00005C02FEF3FEF35872487089582E00C94DB
:100F00002F0CCF93DF93EC0180911401882331F0F3
:100F100083E00E94600C1816190634F081E090E01E
:100F20009B838A8380E090E0DF91CF910895FC015C
:100F300090819E5F908342E450E06FE071E080E832
:100F40000C94F80CFC0181819081913A59F4813222
:100F500009F048C047E050E06DE071E080E00E9499
:100F6000F80C73C09132F1F5833291F49381892F9B
:100F700090E0982F88272281822BA0E0B0E0809318
:100F8000090190930A01A0930B01B0930C015DC07D
:100F9000803239F467E070E08DE091E00E941F0D2F
:100FA00006C0823209F051C0828180931401809181
:100FB0000E03882319F0EEEFFAE002C0E0E0F8E05B
:100FC00080910D0190910E01A0910F01B09110013F
:100FD000803B9440A105B10539F48091140180FF54
:100FE0001CC002C080E0089588E10FB6F894809399
:100FF0006000109260000FBEA895EE3F8AE0F807EF
:1010000039F08091FE0A9091FF0A918380831DC080
:101010001092FF0A1092FE0A18C0EE3F2AE0F20773
:1010200031F0808191819093FF0A8093FE0A87E7D7
:1010300097E7918380839BE088E10FB6F894A895A9
:10104000809360000FBE9093600081E00895EEEB06
:10105000F2E01382128288EE93E0A0E0B0E0848395
:101060009583A683B78387E591E0918380838FEF93
:101070009FEF958784870895FC01918D228D892F9C
:1010800090E0805C9F4F821B91098F739927089590
:10109000FC01918D828D981731F0828DE80FF11D42
:1010A000858D90E008958FEF9FEF0895FC01918D5D
:1010B000828D981761F0828DDF01A80FB11D5D96BA
:1010C0008C91928D9F5F9F73928F90E008958FEF28
:1010D0009FEF08958AE599E0892B49F080E090E040
:1010E000892B29F00E945A0981110C94000008955F
:1010F000FC01848DDF01A80FB11DA35ABF4F2C91B5
:10110000848D90E001968F739927848FA689B78983
:101110002C93A089B1898C9180648C93938D848D5C
:10112000981306C00288F389E02D80818F7D80832B
:101130000895CF93DF93EC01888D8823C9F0EA8965
:10114000FB89808185FD05C0A889B9898C9186FDC0
:101150000FC00FB607FCF5CF808185FFF2CFA889BD
:10116000B9898C9185FFEDCFCE010E947808E7CF39
:10117000DF91CF910895EF92FF920F931F93CF933A
:10118000DF93EC0181E0888F9B8D8C8D981305C0D7
:10119000E889F989808185FD24C0F62E0B8D10E049
:1011A0000F5F1F4F0F731127E02E8C8DE8120CC0BC
:1011B0000FB607FCFACFE889F989808185FFF5CF62
:1011C000CE010E947808F1CF8B8DFE01E80FF11D52
:1011D000E35AFF4FF0820B8FEA89FB89808180629E
:1011E00007C0EE89FF896083E889F989808180647E
:1011F000808381E090E0DF91CF911F910F91FF906C
:10120000EF9008951F920F920FB60F9211242F9313
:101210008F939F93EF93FF93E0911F03F09120032F
:101220008081E0912503F091260382FD12C0908118
:10123000809128038F5F8F7320912903821751F0CB
:10124000E0912803F0E0E15FFC4F958F8093280345
:1012500001C08081FF91EF919F918F912F910F900D
:101260000FBE0F901F9018951F920F920FB60F92FE
:1012700011242F933F934F935F936F937F938F939B
:101280009F93AF93BF93EF93FF938FE093E00E9400
:101290007808FF91EF91BF91AF919F918F917F91CE
:1012A0006F915F914F913F912F910F900FBE0F90D3
:1012B0001F9018958FE093E00E943C0821E0892B55
:1012C00009F420E0822F0895EFE0F3E01382128208
:1012D00088EE93E0A0E0B0E084839583A683B78393
:1012E00087E691E0918380838DEC90E095878487F9
:1012F0008CEC90E09787868788EC90E0918B808BD0
:1013000089EC90E0938B828B8AEC90E0958B848BB8
:101310008EEC90E0978B868B118E128E138E148E2E
:1013200008958F929F92AF92BF92CF92DF92EF92E9
:10133000FF920F931F93CF93DF937C018B016C017E
:1013400082E0C80ED11C4701E5E08E0E911CC0E082
:10135000D0E0F60161916F014AE050E0C8010E94BF
:10136000A20A5C016EE2C8010E94450A8A0D9B1D1B
:10137000C80FD91FC814D90461F74AE050E0F7013B
:101380006581C8010E94A20A8C0F9D1FDF91CF9139
:101390001F910F91FF90EF90DF90CF90BF90AF9093
:1013A0009F908F900895ECEAF3E087E791E09183B6
:1013B00080831282138214821582089508950E94F8
:1013C000D3110E94DE0985EC93E00E94DF0D0E949C
:1013D0009A1CCAE6D8E00E948B1D2097E1F30E9478
:1013E0006A08F9CF08950E940C21CF92DF92EF9204
:1013F000FF920F931F93CF93DF936C017A018B01C0
:10140000C0E0D0E0CE15DF0589F0D8016D918D01E7
:10141000D601ED91FC910190F081E02DC601099576
:10142000892B11F47E0102C02196ECCFC701DF9118
:10143000CF911F910F91FF90EF90DF90CF90089583
:101440006115710579F0FB0101900020E9F73197F2
:10145000AF01461B570BDC01ED91FC910280F3813B
:10146000E02D099480E090E00895DB0114964D9101
:101470005C9115976D917C91DC01ED91FC9102805E
:10148000F381E02D09940C94200ADC01ED91FC918C
:101490000190F081E02D09944F925F926F927F92BC
:1014A000EF92FF920F931F93CF93DF93CDB7DEB7E9
:1014B000A1970FB6F894DEBF0FBECDBF7C01FA0135
:1014C000CB0119A2223008F42AE08E010F5D1F4FD4
:1014D000422E512C612C712CBF01A30192010E945C
:1014E000C51EF901CA01015011096A3014F4605D8A
:1014F00001C0695CD8016C93232B242B252B61F749
:10150000B801C7010E94200AA1960FB6F894DEBF69
:101510000FBECDBFDF91CF911F910F91FF90EF9044
:101520007F906F905F904F9008952115310541F4A1
:10153000DC01ED91FC910190F081E02D642F099484
:101540000C944C0A9A01462F50E060E070E00C9435
:10155000950A8230A1F028F4882341F0813049F0C7
:101560000895833091F08430B1F0089510926E00A8
:10157000089580916F008D7F80936F000895809112
:1015800070008D7F809370000895809171008D7F31
:10159000809371000895809172008F7B8093720018
:1015A00008951F920F920FB60F9211242F933F931D
:1015B0004F935F936F937F938F939F93AF93BF935B
:1015C000EF93FF938091B5039091B603A091B70379
:1015D000B091B803892B8A2B8B2B51F18091B203E8
:1015E000E091B303F091B4039081892780838091C7
:1015F000B5039091B603A091B703B091B803181644
:1016000019061A061B060CF58091B5039091B603D6
:10161000A091B703B091B8030197A109B1098093D4
:10162000B5039093B603A093B703B093B8030DC06E
:1016300083E00E94A90A8091B203E091B303F09184
:10164000B4039081809589238083FF91EF91BF91AE
:10165000AF919F918F917F916F915F914F913F914A
:101660002F910F900FBE0F901F901895615030F082
:101670002091F100FC0120830196F8CF289884E6A0
:101680008093CE0308954091C9035091CA032091DD
:10169000C7033091C80342175307B4F49091E80090
:1016A0009570E1F39091E80092FD19C08093F100EC
:1016B0008091C9039091CA0301968F739927892B52
:1016C00019F48EEF8093E8008091C9039091CA03CA
:1016D00001969093CA038093C90381E0089580E046
:1016E0000895CF92DF92EF92FF920F931F93CF93C3
:1016F000DF931F92CDB7DEB7182F062FE42E862F6B
:10170000880F8E5F99830E94430B83E00E94430BF6
:10171000F12EC12E9981D92E8C2D8F19801798F416
:10172000F601E7FE02C0849101C080810E94430B54
:10173000182F80E00E94430B8123FFEFCF1ADF0AAE
:101740008111EACF01C081E00F90DF91CF911F910D
:101750000F91FF90EF90DF90CF9008958091D70088
:1017600081608093D70080EA8093D80089B580613A
:1017700089BD89B5826089BD09B400FEFDCF61E0F5
:1017800070E080E090E00E948C118091D8008F7C06
:1017900080618093D8008091E000807F8093E0009A
:1017A00008952FB7FC012083F89467706093E900D7
:1017B0000895CF93DF931F92CDB7DEB7682FCE0188
:1017C00001960E94D10B8091F20099819FBF0F90EA
:1017D000DF91CF910895EF92FF920F931F93CF93D4
:1017E000DF931F92CDB7DEB79091CD03992311F00F
:1017F00057FF03C08FEF9FEF2AC08A017B01682F3C
:10180000CE0101960E94D10B8091F20090E0A801D8
:10181000801791070CF4AC01842FF70194E68150F6
:1018200038F028989093CE032091F1002193F7CFC0
:101830004115510521F08091F200882321F0898122
:101840008FBFCA0104C08BE68093E800F8CF0F90E9
:10185000DF91CF911F910F91FF90EF900895CF935B
:10186000DF931F92CDB7DEB741E050E0BE016F5F5E
:101870007F4F0E94EB0B019719F4898190E002C021
:101880008FEF9FEF0F90DF91CF910895CF93DF936C
:101890001F92CDB7DEB7682FCE0101960E94D10B03
:1018A0009091E800892F807295FF04C09091F2001A
:1018B00080E4891B99819FBF0F90DF91CF9108959C
:1018C0006F927F928F929F92AF92BF92CF92DF9250
:1018D000EF92FF920F931F93CF93DF931F92CDB799
:1018E000DEB7A82E6B01B42E052F8091CD0388237F
:1018F00069F0E42EF52E8AEF982E8A2D8072782ECC
:101900009AE3892E8A2D8074682E12C08FEF9FEF84
:1019100054C08A2D0E94460C182F81110DC09A9434
:101920009920A1F361E070E080E090E00E948C11CA
:10193000E114F10471F737C090E0E816F9060CF4F1
:101940001E2D6A2DCE0101960E94D10B8091E800D8
:1019500085FF26C0812F90E0E81AF90A772029F048
:101960001150A8F01092F100FBCFF601A7FE07C0BE
:10197000115058F024912093F1003196F9CF115075
:1019800020F021912093F100FACFC80ED91E80914A
:10199000E80085FF0FC0E114F10411F461100AC0E2
:1019A00089818FBFC5CF5D9884E68093CF038B2D4F
:1019B000902F03C08092E800F3CF0F90DF91CF917A
:1019C0001F910F91FF90EF90DF90CF90BF90AF905D
:1019D0009F908F907F906F9008951092E9001092E1
:1019E000CA031092C9039093C8038093C703089554
:1019F000DF92EF92FF920F931F93CF93DF93D82E36
:101A00008A017B01E40EF51EEB01CE15DF0571F0B6
:101A1000D7FE03C0FE01849101C088810E94430B60
:101A200021968111F2CF8FEF9FEF01C0C801DF91A6
:101A3000CF911F910F91FF90EF90DF900895BF928B
:101A4000CF92DF92EF92FF920F931F93CF93DF938A
:101A50006C018B01EB019BEFB92E2097C1F07E0149
:101A6000C134D1051CF080E4E82EF12C8091E8000F
:101A700082FFFCCFC8018C1B9D0B6E2D8C0D9D1D14
:101A80000E94360BB092E800CE19DF09E6CFC801FC
:101A9000DF91CF911F910F91FF90EF90DF90CF904A
:101AA000BF9008958093E9008091F200882319F097
:101AB0008AE38093E80008951F920F920FB60F9269
:101AC00011242F933F934F935F936F937F938F9343
:101AD0009F93AF93BF93CF93EF93FF93C091E10098
:101AE0008091E100837F8093E1008093E100C3FF58
:101AF0000FC01092E90081E08093EB001092EC009F
:101B000082E38093ED001092CD0388E08093F00093
:101B1000C2FF19C083E00E94520D8091CF03882339
:101B200039F08091CF0381508093CF03882389F1CE
:101B30008091CE03882339F08091CE038150809329
:101B4000CE03882341F1C4FF10C08091E2008E7E55
:101B500081608093E2008091E1008F7E8093E100BC
:101B60008091CB038E7E806111C0C0FF16C0809132
:101B7000E2008E7E80618093E2008091E1008E7EA3
:101B80008093E1008091CB038E7E81608093CB03B4
:101B900004C05D9ACDCF289AD6CFFF91EF91CF9117
:101BA000BF91AF919F918F917F916F915F914F9175
:101BB0003F912F910F900FBE0F901F90189510928C
:101BC000CD031092CC031092CB030E94AE0B8091F8
:101BD000E1008E7E8093E1008DE08093E200559AD3
:101BE000209AEEEFFFE7859194918B3F9C4D19F47D
:101BF00081E080930E030895EF92FF920F931F935D
:101C0000CF93DF937B01FC01C281D38100E010E020
:101C1000209781F0E881F9810280F381E02DB701FE
:101C2000CE01099597FD08C0080F191F0884D985B2
:101C3000C02DEECFC80102C08FEF9FEFDF91CF9193
:101C40001F910F91FF90EF9008950F931F93CF93E3
:101C5000DF938B01FC01C281D381209771F0E88171
:101C6000F9810480F581E02DB801CE010995009736
:101C700031F40884D985C02DF0CF80E090E0DF9169
:101C8000CF911F910F9108950F931F93CF93DF93DF
:101C90008B01FC01C281D381209771F0E881F98129
:101CA0000680F781E02DB801CE010995080F111DBE
:101CB0000884D985C02DF0CFF8011082DF91CF9133
:101CC0001F910F9108950F931F93CF93DF938B0173
:101CD000FC01C281D381209771F0E881F9810190E4
:101CE000F081E02DB801CE010995811105C008846D
:101CF000D985C02DF0CF80E0DF91CF911F910F915A
:101D00000895CF93DF93FC01DB01218114968C9120
:101D1000149790E0820F911D0897B4F5C281D3818A
:101D2000209719F47383628308C08885998500978A
:101D300011F0EC01FACFB987A887808112968C93B5
:101D40001297818113968C931397908115968C919D
:101D50001597890F808380E014969C9114978917BA
:101D600088F41696CD91DC911797C80FD11D9881F4
:101D7000C181D0E0CB5EDE4F988391819F5F9183DC
:101D80008F5FEACF81E001C080E0DF91CF910895BD
:101D90008091BD0381110DC082E08093B90384E07E
:101DA0008093BA031092BC031092BB0381E080932E
:101DB000BD0389EB93E00895CF93DF931F92CDB7D6
:101DC000DEB71982CE0101960E9497070E94C80EC5
:101DD000BE016F5F7F4F0E94FC0D89810F90DF91E4
:101DE000CF9108951F920F920FB60F921124CF92A8
:101DF000DF92EF92FF920F931F932F933F934F9396
:101E00005F936F937F938F939F93AF93BF93EF9362
:101E1000FF93CF93DF93CDB7DEB76C97DEBFCDBF17
:101E20001092E9008091E80083FF24C168E0CE01B0
:101E300045960E94360B82EF8093E8008D8987FFDC
:101E400005C09091E80090FFFCCF03C09EEF9093F7
:101E5000E800982F907609F0F1C09E892F89188D9F
:101E600091110CC0803829F48091CC038093F1004B
:101E700002C01092F1001092F100F5C0422F50E024
:101E8000512B913051F48111EEC04130510509F0D0
:101E9000EAC08091CC038D7F0BC0933061F4811137
:101EA000E2C04130510509F0DEC08091CC03826070
:101EB0008093CC03D8C0953041F48091E80080FF36
:101EC000FCCF20682093E300CEC0963009F08CC090
:101ED000EB8CFC8C123069F580E090E00E94ED0CF8
:101EE0000E94DC0E99E09E012F5F3F4F6901F901CE
:101EF000292F11922A95E9F799831A8391E09E83FD
:101F000090EA98879AEF99872091C9033091CA0384
:101F1000275F3F4F3C832B838D83C7010E94ED0CCD
:101F200049E050E0B60180E00E94F80C0E94DC0E0F
:101F30009AC0C7010E94ED0C0E94C80EBE016B5EE4
:101F40007F4F0E94250E009719F00CF08CC08FC0B7
:101F5000113071F48B8D9C8D089719F481E080937A
:101F6000C6038091C60381112FC063E671E031C0C2
:101F7000133009F07CC08F89882349F1823029F41D
:101F800040E86CE08EE791E006C0813039F440E82B
:101F900068E085E791E00E94710B63C0833009F02F
:101FA00066C00E94C80E8E010F5F1F4FB8010E94CD
:101FB000440EF80101900020E9F73197BF01601B42
:101FC000710B40E0C801E7CF61E571E002C06BE84A
:101FD00071E06115710509F44AC0FB01449150E0BC
:101FE00080E80E94F80C3FC0973009F440C0983058
:101FF00021F481E08093F10036C09930A1F583701F
:10200000B1F5E6E1F1E081E021E036E3908199234A
:1020100061F08093E9002093EB0091919093EC00A4
:102020003093ED008F5F873089F78EE78093EA0069
:102030001092EA008F898093CD0315C08B8D9C8D03
:102040000E94ED0C898D811105C0CE0145960E943C
:10205000A20707C00E94C80EBE016B5E7F4F0E94A0
:10206000630E882321F08EEF8093E80003C081E2A5
:102070008093EB006C960FB6F894DEBF0FBECDBF19
:10208000DF91CF91FF91EF91BF91AF919F918F9190
:102090007F916F915F914F913F912F911F910F9180
:1020A000FF90EF90DF90CF900F900FBE0F901F909A
:1020B000189508951F920F920FB60F9211242F9327
:1020C0003F934F935F936F937F938F939F93AF93C0
:1020D000BF93EF93FF93E0911C01F0911D010995CF
:1020E000FF91EF91BF91AF919F918F917F916F91F0
:1020F0005F914F913F912F910F900FBE0F901F90C6
:1021000018951F920F920FB60F9211242F933F93A1
:102110004F935F936F937F938F939F93AF93BF93EF
:10212000EF93FF93E0911E01F0911F010995FF913C
:10213000EF91BF91AF919F918F917F916F915F913F
:102140004F913F912F910F900FBE0F901F901895B8
:102150001F920F920FB60F9211242F933F934F931C
:102160005F936F937F938F939F93AF93BF93EF93FF
:10217000FF93E0912001F09121010995FF91EF91EA
:10218000BF91AF919F918F917F916F915F914F918F
:102190003F912F910F900FBE0F901F9018951F9297
:1021A0000F920FB60F9211242F933F934F935F938B
:1021B0006F937F938F939F93AF93BF93EF93FF930F
:1021C000E0912201F09123010995FF91EF91BF91D8
:1021D000AF919F918F917F916F915F914F913F91BF
:1021E0002F910F900FBE0F901F9018951F920F9276
:1021F0000FB60F9211242F933F934F935F936F93DA
:102200007F938F939F93AF93BF93EF93FF93E0914F
:102210002401F09125010995FF91EF91BF91AF91B4
:102220009F918F917F916F915F914F913F912F91EE
:102230000F900FBE0F901F9018951F920F920FB620
:102240000F9211242F933F938F939F93AF93BF933C
:102250008091D1039091D203A091D303B091D40384
:102260003091D00323E0230F2D3720F40196A11DD8
:10227000B11D05C026E8230F0296A11DB11D2093B4
:10228000D0038093D1039093D203A093D303B09350
:10229000D4038091D5039091D603A091D703B09138
:1022A000D8030196A11DB11D8093D5039093D60349
:1022B000A093D703B093D803BF91AF919F918F9113
:1022C0003F912F910F900FBE0F901F9018953FB721
:1022D000F8948091D5039091D603A091D703B09143
:1022E000D80326B5A89B05C02F3F19F00196A11D64
:1022F000B11D3FBFBA2FA92F982F8827820F911D9C
:10230000A11DB11DBC01CD0142E0660F771F881FE2
:10231000991F4A95D1F708958F929F92AF92BF92DD
:10232000CF92DF92EF92FF926B017C010E946711C6
:102330004B015C01C114D104E104F10401F10E94DC
:10234000F2090E946711DC01CB0188199909AA09D9
:10235000BB09883E9340A105B10560F321E0C21A94
:10236000D108E108F10888EE880E83E0981EA11CD0
:10237000B11CC114D104E104F10419F7DBCFFF90C3
:10238000EF90DF90CF90BF90AF909F908F90089587
:102390008230910538F0880F991F880F991F059793
:1023A0000197F1F70895789484B5826084BD84B56F
:1023B000816084BD85B5826085BD85B5816085BD40
:1023C000EEE6F0E0808181608083E1E8F0E0108259
:1023D000808182608083808181608083E0E8F0E09A
:1023E000808181608083E1E9F0E080818260808388
:1023F000808181608083E0E9F0E08081816080837A
:10240000E1ECF0E080818460808380818260808361
:10241000808181608083E3ECF0E080818160808353
:10242000E0ECF0E0808182608083E2ECF0E080818B
:1024300081608083EAE7F0E080818460808380812E
:1024400082608083808181608083808180688083D6
:10245000089590E0FC013197EF30F105B0F5EA5AAC
:10246000FF4F0C94061F809180008F7703C08091EE
:1024700080008F7D80938000089580918000877F09
:10248000F9CF84B58F7702C084B58F7D84BD089560
:10249000809190008F7707C0809190008F7D03C05E
:1024A00080919000877F8093900008958091C00074
:1024B0008F7703C08091C0008F7D8093C000089506
:1024C0008091C200877F8093C2000895CF93DF93ED
:1024D00090E0FC01E355FE4F2491FC01E453FE4FD4
:1024E0008491882361F190E0880F991FFC01E95FD6
:1024F000FD4FC591D491FC01E750FE4FA591B491D9
:10250000611109C09FB7F894888120958223888340
:10251000EC912E230BC0623061F49FB7F8943881A0
:10252000822F809583238883EC912E2B2C939FBF41
:1025300006C08FB7F894E8812E2B28838FBFDF91D8
:10254000CF9108951F93CF93DF93282F30E0F901A7
:10255000E157FE4F8491F901E355FE4FD491F90103
:10256000E453FE4FC491CC23C9F0162F81110E9471
:102570002912EC2FF0E0EE0FFF1FE750FE4FA59160
:10258000B4918FB7F894111105C09C91ED2FE0958F
:10259000E92302C0EC91ED2BEC938FBFDF91CF913B
:1025A0001F9108954F925F926F927F92AF92BF9268
:1025B000CF92DF92EF92FF920F931F93CF93DF930F
:1025C000CDB7DEB729013A019B01AC0124193509C9
:1025D0004609570989899A89AB89BC89BC01CD0113
:1025E0006A197B098C099D090E94811EA801970127
:1025F00024193509460957090E94E71ECA01B90185
:102600006A0D7B1D8C1D9D1DDF91CF911F910F9138
:10261000FF90EF90DF90CF90BF90AF907F906F9042
:102620005F904F900895FC01808191810C94B01FC0
:10263000CF93DF93EC0188819981009711F00E947C
:10264000B01F198218821D821C821B821A82DF91A0
:10265000CF9108950F931F93CF93DF93EC018B01DC
:102660006F5F7F4F888199810E944820009731F0E9
:10267000998388831B830A8381E001C080E0DF9116
:10268000CF911F910F910895CF93DF93EC01888133
:102690009981892B29F08A819B818617970760F49D
:1026A000CE010E942A13882341F08C819D81892BC1
:1026B00019F4E881F981108281E0DF91CF910895CA
:1026C000EF92FF920F931F93CF93DF93EC017B0167
:1026D0008A01BA010E944413811104C0CE010E94F4
:1026E000181307C01D830C83B701888199810E944C
:1026F0001A21CE01DF91CF911F910F91FF90EF90A2
:102700000895FC01118210821382128215821482B4
:102710006115710551F0FB0101900020E9F7319737
:10272000AF01461B570B0C9460130895CF93DF93B2
:10273000EC01FB018617970761F0608171816115DB
:10274000710529F0448155810E94601302C00E94E6
:102750001813CE01DF91CF910895FC0111821082F0
:1027600013821282158214820C949613CF93DF93F6
:10277000EC016115710559F0FB0101900020E9F7AA
:102780003197AF01461B570B0E94601302C00E9495
:102790001813CE01DF91CF910895CF93DF9300D02E
:1027A000CDB7DEB7FC01118210821382128215822E
:1027B000148269831A82BE016F5F7F4F0E94B61335
:1027C0000F900F90DF91CF910895EF92FF920F93AA
:1027D0001F93CF93DF93FC0124813581611571052F
:1027E00011F480E019C041155105A9F07B01EC01FD
:1027F0008A01020F131FB8010E944413882389F332
:10280000288139818C819D81B701820F931F0E949D
:102810001A211D830C8381E0DF91CF911F910F91CD
:10282000FF90EF900895CF93DF93EC01FB0144817B
:102830005581608171810E94E513811103C0CE0131
:102840000E941813CE01DF91CF9108952091DB04EF
:102850003091DC0428173907B9F4909199048091DC
:102860009A04981789F0E0919904F0E0E556FB4F3F
:1028700080812091990430E02F5F3F4F2F733327E1
:102880002093990490E008958FEF9FEF08951F9390
:10289000CF93DF93DC015C962D913C915D972115E0
:1028A000310539F481E090E013969C938E93129752
:1028B0003DC05196ED91FC91529750969C91509746
:1028C000892F80951FB75E964C915E9741FB7727C5
:1028D00070F941FD6095F8944081772311F0492B00
:1028E00001C048234083E9012197F1F748E0508176
:1028F00060FF02C0592B01C058235083E901219782
:10290000F1F76695415099F7772321F0908189235B
:10291000808303C08081982B90831FBF5C968D912C
:102920009C915D970197F1F721E030E0C901DF91BB
:10293000CF911F91089508952091DB043091DC041C
:102940002817390771F49091990480919A04981787
:1029500041F0E0919904F0E0E556FB4F808190E072
:1029600008958FEF9FEF08958091770490E0209174
:102970007804821B910908959091780480917704DE
:10298000981750F4E92FF0E0E758FB4F208130E032
:102990009F5F9093780402C02FEF3FEFC901089525
:1029A000E091780480917704E81730F4F0E0E7587C
:1029B000FB4F808190E008958FEF9FEF0895089579
:1029C0002091DB043091DC042817390771F48091E1
:1029D0009A042091990490E0805C9F4F821B91099A
:1029E00060E470E00E94B11E089580E090E00895D8
:1029F0001F920F920FB60F9211242F933F934F9374
:102A00005F936F937F938F939F93AF93BF93EF9356
:102A1000FF938091DE0487FF05C01092850010921D
:102A200084001BC02091DE04332727FD3095809160
:102A3000DD0490E02817390784F48091DE0499279B
:102A400087FD9095FC01EE0FFF1F8E0F9F1FFC016D
:102A5000E152FB4F808186FD15C08091DE048F5FBF
:102A60008093DE042091DE04332727FD309580918A
:102A7000DD0490E028173907C4F48091DE048C301F
:102A800064F113C08091DE04992787FD9095FC01C5
:102A9000EE0FFF1F8E0F9F1FFC01E152FB4F808145
:102AA00060E08F730E94A212D8CF80918400909131
:102AB0008500049680349C4918F480E49CE905C0A4
:102AC0008091840090918500049690938900809372
:102AD00088008FEF8093DE043BC02091840030910A
:102AE00085008091DE04992787FD9095FC01EE0F0B
:102AF000FF1F8E0F9F1FFC01E152FB4F81819281CE
:102B0000820F931F90938900809388008091DE0448
:102B1000992787FD9095FC01EE0FFF1F8E0F9F1FD9
:102B2000FC01E152FB4F808186FF12C08091DE04E0
:102B3000992787FD9095FC01EE0FFF1F8E0F9F1FB9
:102B4000FC01E152FB4F808161E08F730E94A21271
:102B5000FF91EF91BF91AF919F918F917F916F9175
:102B60005F914F913F912F910F900FBE0F901F904B
:102B70001895FC019091DD049C30A0F481E0890F50
:102B80008093DD049083892F90E0FC01EE0FFF1FFE
:102B90008E0F9F1FFC01E152FB4F88EB9BE092835D
:102BA000818308958FEF80830895DF92EF92FF92E3
:102BB0000F931F93CF93DF93EC01D62E7A018901F7
:102BC00088818C3008F06AC061E08D2D0E94661209
:102BD0008881E82FF0E09F01220F331FE20FF31FDF
:102BE000E152FB4F9D2D9F732081207CD22ED92A4C
:102BF000D08260E272E0AB014E195F0957FF02C05C
:102C00004D5F5F4F5595479555954795498340E6EC
:102C100059E09A01201B310B37FF02C02D5F3F4F57
:102C200035952795359527952A836CE00E94911E4E
:102C30009CE0899FB001112440E050E09A01260FEA
:102C4000371FF901EE0FFF1F2E0F3F1FF901E15251
:102C5000FB4F908196FD16C04F5F5F4F4C30510582
:102C600069F781110FC01092800082E0809381008B
:102C70001092850010928400B19A80916F0082605A
:102C800080936F00E881F0E0CF01880F991FE80F73
:102C9000F91FE152FB4F8081806480838881DF913E
:102CA000CF911F910F91FF90EF90DF90089520E654
:102CB00039E040E252E00C94D515FC0190819C3043
:102CC00080F5818128E830E0281B310987FD3395A4
:102CD000220F331F220F331F621773077CF082818C
:102CE00028E532E0281B310987FD3395220F331F79
:102CF000220F331F621773070CF49B012250310916
:102D0000220F331F4FB7F894892F90E0FC01EE0F8C
:102D1000FF1F8E0F9F1FFC01E152FB4F3283218367
:102D20004FBF0895AF92BF92CF92DF92EF92FF9282
:102D30000F931F93CF93DF93EC01603282E078070B
:102D40000CF03FC077FD06C0653B71052CF064EBCD
:102D500070E002C060E070E0898128E830E059014D
:102D6000A81AB10887FDB394AA0CBB1CAA0CBB1C03
:102D7000CC24B7FCC094DC2C882777FD8095982F55
:102D80002A8108E512E0021B110927FD1395000FA7
:102D9000111F000F111F222717FD2095322F3F937F
:102DA0002F931F930F9314EBE12EF12C00E010E012
:102DB00020E030E0A9010E94D2120F900F900F90F6
:102DC0000F90CE01DF91CF911F910F91FF90EF9067
:102DD000DF90CF90BF90AF900C945D16E091DB0434
:102DE000F091DC04E817F90769F4A389B4899C9190
:102DF0008589809589238C931092DC041092DB04E2
:102E000081E0089580E00895CF93DF93EC018A8DEF
:102E10009B8D892BF1F08091DB049091DC048C1761
:102E20009D07B9F0009711F00E94EE168E8D8E7FEF
:102E30008E8F10929A0410929904D093DC04C09360
:102E4000DB04EB89FC8990818D89892B808381E06B
:102E500001C080E0DF91CF9108951F920F920FB6CD
:102E60000F9211242F933F934F935F936F937F9310
:102E70008F939F93AF93BF93EF93FF93E091DB0406
:102E8000F091DC04309709F451C0968DA685B78582
:102E9000858591FF04C09C91892329F447C09C91AA
:102EA000892309F043C0A389B4899C9185898095C1
:102EB00089238C93868997890197F1F7608D718DAD
:102EC000A685B785558538E020E0CB010197F1F75D
:102ED000822F90E095958795282F4C91452309F0F6
:102EE0002068315091F7868D81FD209580919A045C
:102EF00090E001968F73992730919904381749F023
:102F0000A0919A04B0E0A556BB4F2C9380939A04ED
:102F100003C0868D8160868F828D938D0197F1F736
:102F2000A389B4899C918589892B8C93FF91EF911A
:102F3000BF91AF919F918F917F916F915F914F91D1
:102F40003F912F910F900FBE0F901F9018952DE776
:102F500031E0FC01318320830C94EE161F93CF9354
:102F6000DF93EC01162F6E8D6695617081E0682706
:102F7000812F0E94A21261E0812F0E946612612FB0
:102F800070E0FB01E355FE4FE491E88BFB01E45355
:102F9000FE4FE491F0E0EE0FFF1FE750FE4F8591EA
:102FA00094919A8B898BDF91CF911F9108951F93F4
:102FB000CF93DF93EC01162F60E0812F0E94661201
:102FC0008E8D81FD04C061E0812F0E94A2121C87BA
:102FD000612F70E0FB01E355FE4FE491ED87FB01AB
:102FE000E453FE4FE491F0E0EE0FFF1FE551FE4F7A
:102FF000859194919F878E87DF91CF911F9108953E
:103000001F93CF93DF93EC01162F1B821A8288EE59
:1030100093E0A0E0B0E08C839D83AE83BF838DE717
:1030200091E0998388831F8A1E8A198E188E1B8EC1
:103030001A8E1D8E1C8E8E8D8E7F20FB81F98E8FB9
:10304000642FCE010E94AE17612FCE01DF91CF9188
:103050001F910C94D717CF93DF93EC019A01AB012A
:103060001B8E1A8E198E188E1F8A1E8A60E079E0D8
:103070008DE390E00E94E71EF9012430310518F03D
:10308000C901039702C081E090E09D8F8C8F8C85F1
:1030900098EF980F943048F062EF680F643028F092
:1030A00066EE680F633008F071C0B90176956795D8
:1030B0006431710518F06351710902C061E070E07C
:1030C0007F8B6E8B369720F0B9016550710902C075
:1030D00061E070E0798F688FB901660F771F260F66
:1030E000371F36952795369527952D30310518F0E1
:1030F0002C50310902C021E030E03B8F2A8F943000
:1031000058F092EF980F943038F08A51833008F4D9
:1031100042C0A0E0B0E041C0A8E6B0E0E8E6F0E0E0
:10312000808181608C938C8598EF980F943058F053
:1031300022EF280F243038F026EE280F233018F025
:1031400020E030E002C02BE630E03C8B2B8B94304B
:1031500010F4845009C08E3069F08F3069F08031EE
:1031600069F0813169F0865191E001C0990F8A952B
:10317000EAF707C098E005C092E003C094E001C000
:1031800091E09D8B8C8D9D8D0197F1F7CE01DF91A4
:10319000CF910C940417A8E6B0E0833008F4BECFBA
:1031A000E0E0F0E0BDCFFC011382128288EE93E0F4
:1031B000A0E0B0E084839583A683B7838DE891E097
:1031C00091838083089581E0809353046093760413
:1031D000109255041092540408951092460481E010
:1031E000809344041092430461E082E00E94A212A2
:1031F00061E083E00E94A212E9EBF0E080818E7F23
:10320000808380818D7F808388E48093B80085E40B
:103210008093BC0008951092780410927704109265
:103220005504109254040C94ED180F934132E8F5B4
:10323000909146049111FCCF32E030934604009304
:1032400044043FEF3093D90310921E0440931D04B1
:10325000FB016FE174E0DB013A2F361B341718F4E1
:1032600031913D93F9CF1092450430914504880F78
:10327000832B8093450480914304813061F4109244
:103280004304809145048093BB008091BC0083FD82
:10329000F8CF85EC01C085EE8093BC00222339F085
:1032A00080914604823019F4F9CF91E011C08091E9
:1032B000D9038F3F69F08091D903803231F080913A
:1032C000D903803321F094E003C092E001C093E081
:1032D000892F0F9108950F93062F21E040915404F8
:1032E00066E574E0809176040E94151910925504E9
:1032F00010925404109253040F91089561E00C94BD
:103300006B19613298F420914604243089F460935B
:10331000FB03FC012DEF33E0D9018A2F821B8617B6
:1033200018F481918D93F9CF80E0089581E008959C
:1033300082E00895CF93DF931F92CDB7DEB7698304
:10334000209153042223D1F020915404203240F0E4
:1033500021E030E0FC013383228380E090E015C05F
:1033600080915504E82FF0E0EA5AFB4F9981908351
:103370008F5F809355048093540405C061E0CE01B3
:1033800001960E94811981E090E00F90DF91CF912A
:103390000895CF92DF92EF92FF920F931F93CF93F6
:1033A000DF937C01262F972F8A0180915304882375
:1033B00091F0C62FD72F6E01C40ED51ECC15DD059A
:1033C00071F06991D701ED91FC910190F081E02DB0
:1033D000C7010995F3CF642F822F0E948119C8017C
:1033E000DF91CF911F910F91FF90EF90DF90CF90E1
:1033F000089585ED8093BC008091BC0084FDFCCFD6
:1034000010924604089585EC8093BC001092460407
:1034100008951F920F920FB60F9211242F933F938E
:103420004F935F936F937F938F939F93AF93BF93CC
:10343000EF93FF938091B900887F803609F49EC096
:1034400078F5883209F45DC090F4803109F456C0F3
:1034500038F4882309F4F5C0883009F44FC0F5C06A
:10346000883109F44EC0803209F45FC0EEC0803468
:1034700009F46AC058F4803309F457C0883309F05E
:10348000E4C08093D9030E94031ADFC0803509F499
:103490004FC0883509F45DC0883409F0D6C0D3C068
:1034A000883909F4C4C0A8F4883709F467C038F42F
:1034B000883609F463C0803709F460C0C6C0883814
:1034C00009F4B5C0803909F45FC0803809F0BDC087
:1034D0005BC0803B09F483C038F4803A09F466C0CD
:1034E000883A09F47CC0B1C0803C09F4A4C0883C8F
:1034F00009F4A1C0883B09F487C0A7C080914504A6
:1035000010C090911E0480911D04981770F5E091F1
:103510001E0481E08E0F80931E04F0E0E15EFB4FFD
:1035200080818093BB0085EC83C08093D9038BC0DE
:10353000E0911E0481E08E0F80931E048091BB00F9
:10354000F0E0E15EFB4F808390911E0480911D04AA
:103550006BC0E0911E0481E08E0F80931E04809169
:10356000BB00F0E0E15EFB4F808380914404811159
:103570006AC081E08093430484EA5EC083E0809364
:1035800046041092DA03CFCF8091DA03803208F03C
:103590004EC0E091DA0381E08E0F8093DA038091D0
:1035A000BB00F0E0E552FC4F8083BDCF0E94031AC0
:1035B0008091DA03803230F4E091DA03F0E0E552F2
:1035C000FC4F10826091DA0370E0E0913F04F091CB
:1035D00040048BED93E009951092DA0336C084E045
:1035E000809346041092FC031092FB03E091410487
:1035F000F091420409958091FB03811105C081E09F
:103600008093FB031092FD03E091FC0381E08E0F99
:103610008093FC03F0E0E350FC4F80818093BB007B
:103620009091FC038091FB03981708F47CCF85E808
:103630008093BC000AC085EC8093BC0010924604C5
:1036400004C01092D9030E94F919FF91EF91BF9124
:10365000AF919F918F917F916F915F914F913F912A
:103660002F910F900FBE0F901F90189587E494E054
:103670000C94D31880910D0590910E05892B49F477
:1036800081E090E090930E0580930D0540E064E6A4
:1036900006C010920E0510920D0540E060E081E139
:1036A0000C948306803839F481E090E090930C0507
:1036B00080930B0511C0823839F481E090E090933B
:1036C0000A058093090508C0823331F481E090E057
:1036D000909308058093070580910B0590910C0548
:1036E000019789F48091090590910A05019759F491
:1036F00080910705909108058130910521F4909300
:103700000605809305050895803829F410920C056C
:1037100010920B050DC0823829F410920A05109200
:10372000090506C0823321F410920805109207059E
:1037300080910B0590910C05892B09F0BCC08091FC
:10374000090590910A05892B09F0B5C080910705FC
:1037500090910805892B09F0AEC0809105059091E4
:103760000605019709F0A7C01092060510920505FD
:1037700060EE8CEE91E00E942F028CEE91E00E94B0
:10378000250264E670E080E090E00E948C1162EE19
:103790008CEE91E00E942F028CEE91E00E942502B7
:1037A00064E670E080E090E00E948C116AE28CEEAA
:1037B00091E00E942F028CEE91E00E94250264E6C7
:1037C00070E080E090E00E948C118CEE91E00E940D
:1037D000A5028CEE91E00E9425028DE195E00E9409
:1037E0003E0369E971E08DE195E00E94430A41E002
:1037F00060E08DE195E00E9445036EE971E08DE1A6
:1038000095E00E94430A10926F0040E060E081E181
:103810000E941E06289A61E085E00E94A21260E9DB
:1038200071E080E090E00E948C1160E085E00E94F1
:10383000A21260E971E080E090E00E948C1161E0EA
:1038400085E00E94A21260E971E080E090E00E94B1
:103850008C1160E085E00E94A21260E971E080E0D6
:1038600090E00E948C1161E085E00E94A21260E964
:1038700071E080E090E00E948C1160E085E00E94A1
:10388000A21260E971E080E090E00E948C1161E09A
:1038900085E00E94A21260E971E080E090E00E9461
:1038A0008C1160E085E00E94A21260E971E080E086
:1038B00090E00C948C1108958DE195E00E943E03F8
:1038C0006EEA71E08DE195E00C94430A8F92AF921D
:1038D000CF92EF920F9320E04AE069E086E395E013
:1038E0000E9400181F921F9283E08F9387E0882E1A
:1038F00096E0A92E25E0C22E34E0E32E00E021E080
:1039000042E067E28DE195E00E94970484E195E052
:103910000E94B9150F900F900F9081E195E00F91E3
:10392000EF90CF90AF908F900C94B91586E395E00F
:103930000C94A7175D9A289A67E070E084E195E0FF
:103940000E9457166EE070E081E195E00E945716E4
:1039500061E085E00E94661260E085E00E94A212AC
:1039600068EC70E080E090E00E948C1161E085E0FE
:103970000E94A21268EC70E080E090E00E948C113E
:1039800060E085E00E94A21268EC70E080E090E0C8
:103990000E948C1161E085E00E94A21268EC70E048
:1039A00080E090E00E948C1160E085E00E94A2120D
:1039B00020E044E064E18DE195E00E94270540E8C5
:1039C00055E260E070E086E395E00E942B188DE1FF
:1039D00095E00E943E0364EB71E08DE195E00E946A
:1039E000430A41E060E08DE195E00E94450369EC07
:1039F00071E08DE195E00E94430A86E395E00E9424
:103A0000E01418161906BCF080910F05909110056E
:103A10008436910584F464E670E080E090E00E94D2
:103A20008C1180910F0590911005019690931005CF
:103A300080930F05E2CF86E395E00E94E014892B86
:103A400059F086E395E00E94261468EC70E080E06F
:103A500090E00E948C11EFCF8DE195E00E943E0333
:103A60006DED71E08DE195E00E94430A68EE73E030
:103A700080E090E00E948C1180E1809381001092A0
:103A8000800084E08093BB028BE197EB9093BD02B2
:103A90008093BC02909387008093860084E180939A
:103AA00081008AE39BE1909308018093070181E004
:103AB00080936F008CEE91E00E94AC0280E00E9447
:103AC000EF0540E060E081E10E941E0648E552E01B
:103AD0006CE271E081E10E948F066DE270E084E1AA
:103AE00095E00E94921667E870E081E195E00E94FF
:103AF000921668EE73E080E090E00E948C116AE517
:103B000070E084E195E00E9492166AE570E081E140
:103B100095E00C9492161F93CF93DF93CDB7DEB749
:103B200062970FB6F894DEBF0FBECDBF11E0612FD4
:103B30008CEE91E00E942F028CEE91E00E94250213
:103B400068EC70E080E090E00E948C11612F8CEEB8
:103B500091E00E9457028CEE91E00E94250268ECF1
:103B600070E080E090E00E948C111F5F1F3FF9F62B
:103B700086E395E00E94E014892B09F4ADC086E34A
:103B800095E00E942614182F811103C0109226017F
:103B9000A3C0813019F4109326019EC080912601A4
:103BA000882309F446C00E945C1C80910305909113
:103BB0000405892BD1F54AE067E175E0812F90E09B
:103BC0000E94212160E2CE0107960E94CD1367E199
:103BD00075E0CE010D960E948113BE01635F7F4F99
:103BE000CE0101960E94AD13BE01695F7F4FCE01E9
:103BF00001960E941314BC018DE195E00E94350AE4
:103C0000CE0101960E941313CE010D960E9413134C
:103C1000CE0107960E941313612F8CEE91E00E9453
:103C20002F028CEE91E00E942502812F0E94521BF0
:103C300045C08091030590910405892BE1F50E9410
:103C40005C1C4AE067E175E0812F90E00E94212131
:103C500060E2CE0107960E94CD1367E175E0CE01C8
:103C60000D960E948113BE01635F7F4FCE010196C6
:103C70000E94AD13BE01695F7F4FCE0101960E9485
:103C80001314BC018DE195E00E94350ACE01019626
:103C90000E941313CE010D960E941313CE010796B6
:103CA0000E941313612F8CEE91E00E9457028CEE5C
:103CB00091E00E942502812F0E94841B61E085E033
:103CC0000E94A21268E270E080E090E00E948C11F5
:103CD00060E085E00E94A21262960FB6F894DEBF03
:103CE0000FBECDBFDF91CF911F9108950E940C1F91
:103CF000A59F900DB49F900DA49F800D911D112440
:103D00000895DB018F939F930E94761EBF91AF9120
:103D1000A29F800D911DA39F900DB29F900D112425
:103D20000895991B79E004C0991F961708F0961B17
:103D3000881F7A95C9F780950895AA1BBB1B51E18E
:103D400007C0AA1FBB1FA617B70710F0A61BB70B0B
:103D5000881F991F5A95A9F780959095BC01CD01B0
:103D6000089597FB072E16F4009407D077FD09D02D
:103D70000E949D1E07FC05D03EF4909581959F4FB3
:103D80000895709561957F4F0895A1E21A2EAA1BA0
:103D9000BB1BFD010DC0AA1FBB1FEE1FFF1FA217FB
:103DA000B307E407F50720F0A21BB30BE40BF50BF8
:103DB000661F771F881F991F1A9469F76095709581
:103DC000809590959B01AC01BD01CF010895052E12
:103DD00097FB1EF400940E94FE1E57FD07D00E9420
:103DE000C51E07FC03D04EF40C94FE1E5095409562
:103DF000309521953F4F4F4F5F4F08959095809597
:103E0000709561957F4F8F4F9F4F0895EE0FFF1F65
:103E10000590F491E02D0994A29FB001B39FC001D9
:103E2000A39F700D811D1124911DB29F700D811DE6
:103E30001124911D0895CF93DF938230910510F4E2
:103E400082E090E0E0915705F091580520E030E0E5
:103E5000C0E0D0E0309711F14081518148175907F7
:103E6000C0F04817590761F482819381209719F0B7
:103E70009B838A832BC0909358058093570526C057
:103E80002115310519F04217530718F49A01BE01A4
:103E9000DF01EF010280F381E02DDCCF2115310538
:103EA00009F1281B390B2430310590F412968D91BD
:103EB0009C9113976115710521F0FB019383828317
:103EC00004C09093580580935705FD01329644C075
:103ED000FD01E20FF31F81939193225031092D933D
:103EE0003C933AC02091550530915605232B41F45F
:103EF000209102013091030130935605209355051E
:103F000020910001309101012115310541F42DB7B7
:103F10003EB74091040150910501241B350BE091FF
:103F20005505F0915605E217F307A0F42E1B3F0B41
:103F30002817390778F0AC014E5F5F4F241735071B
:103F400048F04E0F5F1F50935605409355058193DF
:103F5000919302C0E0E0F0E0CF01DF91CF910895AE
:103F60000F931F93CF93DF93009709F48CC0FC014C
:103F7000329713821282009157051091580501154E
:103F8000110581F420813181820F931F2091550505
:103F9000309156052817390779F5F0935605E093C7
:103FA000550571C0D80140E050E0AE17BF0750F48E
:103FB00012962D913C911397AD012115310509F110
:103FC000D901F3CF9D01DA013383228360817181AE
:103FD000860F971F8217930769F4EC0128813981B6
:103FE000260F371F2E5F3F4F318320838A819B81AD
:103FF00093838283452B29F4F0935805E09357056A
:1040000042C01396FC93EE931297ED01499159919A
:104010009E01240F351FE217F30771F4808191810F
:10402000840F951F029611969C938E9382819381A3
:1040300013969C938E931297E0E0F0E0D8011296CD
:104040008D919C911397009719F0F8018C01F6CF90
:104050008D919C9198012E5F3F4F820F931F20916D
:104060005505309156052817390769F4309729F41A
:10407000109258051092570502C0138212821093B5
:10408000560500935505DF91CF911F910F9108952B
:10409000A0E0B0E0EEE4F0E20C945A21EC010097CD
:1040A00021F4CB010E941B1FB2C0FC01E60FF71FD9
:1040B0009C0122503109E217F30708F4A6C0D90188
:1040C0000D911C91119706171707B0F005301105D7
:1040D00008F499C0C80104978617970708F493C09D
:1040E00002501109061B170B019311936D937C93DA
:1040F000CF010E94B01F87C07B01E01AF10A3C018A
:10410000600E711EA0915705B091580580E090E0B7
:10411000812C912C109709F444C0AD90BC9011975C
:10412000A615B705A1F5650142E0C40ED11CCE1459
:10413000DF0468F1C5018E199F09AC014E5F5F4F26
:104140001296FC9012971396AC914530510540F0B1
:10415000F282A38391838083D9016D937C9309C0FC
:104160000E5F1F4FA00EB11EF901B182A082EF2D8C
:10417000FA2F8114910431F0D4011396FC93EE933D
:10418000129741C0F0935805E09357053CC08A153B
:104190009B0508F4C5014D0112960D90BC91A02D10
:1041A000B9CFA0915505B0915605A615B705E1F414
:1041B00086179707C8F4809100019091010100973C
:1041C00041F48DB79EB74091040150910501841BC5
:1041D000950BE817F907C8F4F0935605E0935505D9
:1041E000F901718360830FC0CB010E941B1F7C010A
:1041F000009759F0A801BE010E941121CE010E9432
:10420000B01FC70104C0CE0102C080E090E0CDB76E
:10421000DEB7EEE00C94762181E090E0F8940C9407
:104220008D21FB01DC0102C001900D9241505040F4
:10423000D8F70895FB01DC0101900D920020E1F711
:104240000895BB274A3031F4992322F4BDE29095BA
:1042500081959F4F0C942D21BB27FB015527AA2741
:10426000880F991FAA1FA41710F0A41B8395505103
:10427000B9F7A05DAA3308F0A95DA193009779F77B
:10428000B111B1931192CB010C944621DC01FC01D8
:10429000672F71917723E1F7329704C07C916D937A
:1042A00070836291AE17BF07C8F308952F923F92B3
:1042B0004F925F926F927F928F929F92AF92BF9236
:1042C000CF92DF92EF92FF920F931F93CF93DF93E2
:1042D000CDB7DEB7CA1BDB0B0FB6F894DEBF0FBE3F
:1042E000CDBF09942A88398848885F846E847D848C
:1042F0008C849B84AA84B984C884DF80EE80FD808E
:104300000C811B81AA81B981CE0FD11D0FB6F89403
:10431000DEBF0FBECDBFED01089511E0C1E1D1E0D8
:1043200004C0FE010E94061F2196C231D107C9F7C1
:04433000F894FFCF2F
:10433400000059052000FF1207FFFFFFFF00E10006
:10434400000000000000C1808100000059105910D5
:104354005910591059100100000000AA0143018CA2
:10436400013C01000000001B03F509850319031A31
:1043740003F309000000001B03F509270506041ACE
:10438400040605000000003A07810764077407501B
:1043940007610700000000BB08F5093C08560848FF
:1043A400089908000000009109000000004714F576
:1043B40009E01426149C149B14000000009A19C9E7
:1043C40019B414BC14D014DF1453656E7400435430
:1043D400524C2B414C542B44454C455445004B65A1
:1043E400793A200050726573732061206B657920DF
:1043F400746F20626567696E006F722077616974FB
:104404002074656E207365636F6E647300537973F3
:0C44140074656D207265616479212100DF
:00000001FF
