:100000000C9469030C94E51C0C940C1D0C94331D8A
:100010000C945A1D0C9491030C9491030C94811D23
:100020000C9491030C9446240C94E7190C947D1BBA
:100030000C9491030C9491030C9491030C949103F0
:100040000C9491030C9491030C9491030C949103E0
:100050000C94240E0C9491030C9491030C94A81D01
:100060000C9491030C9454140C9486140C949103E6
:100070000C9491030C9491030C9491030C949103B0
:100080000C9406220C9491030C9491030C9491030C
:100090000C9458270C9491030C94530C0C949103DA
:1000A0000C9491030C9491030C949103CC1ECF1EDD
:1000B000BE1EC21EC81EF01EF01EF01ED31ED71E8E
:1000C000DB1EE11EE51EF01EEB1E05010902A1016B
:1000D00085010509190129081500250195087501F3
:1000E000810205010930093109381581257F75081C
:1000F00095038106C005010906A101050719E0293C
:10010000E715002501750195088102050C9501751B
:1001100008150026FF00190029FF810005081901B4
:1001200029089508750191020507950675081500BF
:1001300026E700190029E78100C000000000000048
:1001400000002A2B28000000000000000000000032
:10015000000000000000000000002C9EB4A0A1A23E
:10016000A434A6A7A5AE362D3738271E1F2021227E
:1001700023242526B333B62EB7B89F848586878877
:10018000898A8B8C8D8E8F90919293949596979867
:10019000999A9B9C9D2F3130A3AD35040506070825
:1001A000090A0B0C0D0E0F10111213141516171847
:1001B000191A1B1C1DAFB1B0B5001112131415167E
:1001C0000A0B0C0D0E0F0001020304052D464149D8
:1001D0004C2D00080B00020202010009040000017E
:1001E000020200000524001001052401010104247D
:1001F00002060524060001070581031000400904DA
:100200000100020A00000007050202400000070585
:10021000830240000012010002EF0201404F1B0662
:100220009200010102030112010002000000404F90
:100230001B0692000101020301537061726B467547
:100240006E0055534220494F20426F617264000492
:100250000309040000000200090F0000030401006C
:100260000C00000000000000000000000000000082
:1002700000040802011040804010204080408008A7
:100280000204018040201002011080102040402014
:10029000040404040403040502020202040302022B
:1002A0000202060606060606040402020204040010
:1002B0000000002300260029002C002F0000000071
:1002C00000250028002B002E003100000000002433
:1002D0000027002A002D003000436C69636B2072F8
:1002E0006967687400436C69636B206C65667400B1
:1002F0004D6F757365207269676874004D6F757313
:1003000065206C656674004D6F75736520646F774A
:100310006E004D6F75736520757000746F204545D4
:1003200050524F4D00506F736974696F6E73207334
:100330006176656400536572766F20706F73206913
:10034000733A2000536572766F20706F7765722064
:100350006F757400536572766F20706F73206973C8
:100360003A2000536572766F20706F77657220694E
:100370006E00536572766F20706F732069733A2038
:1003800000536572766F207265736574206F7574A3
:1003900000536572766F20706F732069733A200086
:1003A000536572766F20726573657420696E2E00D6
:1003B0004B65793A2000636F6D7075746572206EBD
:1003C0006F772E00506F776572696E67206F6E20B1
:1003D00074686500636F6D7075746572206E6F77F9
:1003E000212100506F776572696E67206F66662005
:1003F00074686500636F6D7075746572206E6F77D9
:10040000212100526573657474696E672074686594
:100410000064697361626C65642E00536572766F67
:100420002061646A757374206D6F64650053706138
:1004300063652062617220746F207365742E006B97
:1004400065797320746F206D6F766520616E64002E
:10045000656E61626C65642E2050726573732061F5
:1004600072726F7700536572766F2061646A75737C
:1004700074206D6F646500656E61626C6564004D2B
:100480006F757365206D6F646500656E61626C6584
:1004900064004B6579626F617264206D6F64650002
:1004A0004354524C2B414C542B44454C455445002D
:1004B00053656E740053797374656D207265616461
:1004C000792121003A006F72207761697420746588
:1004D0006E207365636F6E64730050726573732072
:1004E00061206B657920746F20626567696E0053C7
:1004F000656E64696E67206661696C65642E00478D
:100500006F7420726573706F6E73652000476F742F
:1005100020626C616E6B20726573706F6E73652EF6
:100520000053656E742064617461206D6179626549
:100530000053656E64696E67206461746100456E86
:100540006372797074656420646174613A00456E09
:1005500063727970746564206C656E6774683A00C4
:100560002A2A526164696F20636865636B212A2AB5
:1005700000526174652069733A2000506F7765728C
:100580002069733A20004368616E6E656C20697360
:100590003A2000436865636B696E67207468652064
:1005A000726164696F0053657475702069733A20D5
:1005B0000043727970742050617373776F726400B6
:1005C000000132464764280708090A0B0C0D0E0F7C
:1005D000101112131415161718191A1B1C1D1E1FA3
:1005E0002C2122232425263428292A2B362D37385E
:1005F000271E1F202122232425263A333C2E3E3F4E
:10060000404142434445464748494A4B4C4D4E4F72
:10061000505152535455565758595A2F31305E5FE6
:10062000350405060708090A0B0C0D0E0F101112F0
:10063000131415161718191A1B1C1D7B7C7D7E7F41
:10064000E0E1E2E3E4E5E6E788898A8B8C8D8E8F32
:10065000909192939495969798999A9B9C9D9E9F22
:10066000A0A1A2A3A4A5A6A7A8A9AAABACADAEAF12
:1006700028292A2BB4B5B6B7B8B9BABBBCBDBEBF22
:10068000C0393A3B3C3D3E3F404142434445CECFDA
:10069000D0D14A4B4C4D4E4F505152DBDCDDDEDFAA
:1006A000E0E1E2E3E4E5E6E7E8E9EAEBECEDEEEFD2
:1006B000F0F1F2F3F4F5F6F7F8F9FAFBFCFDFEFFC2
:1006C000C703770589127913B6146F1685282D2E66
:1006D000632E11241FBECFEFDAE0DEBFCDBF11E0E5
:1006E000A0E0B1E0EAE5FFE602C005900D92AC3D66
:1006F000B107D9F716E0ACEDB1E001C01D92AC3BFB
:10070000B107E1F713E0C8E6D3E004C02197FE018A
:100710000E94E434C036D107C9F70E947B160C94BE
:10072000A0370C9400000F931F93CF93DF93EB013E
:100730008A010E941F169801AE0161E0DF91CF91FE
:100740001F910F910C94CB15FC01128225E431E02E
:10075000318320838091E501811113C01092DD0166
:100760001092DC018AEC90E09093DF018093DE012F
:100770008BE290E09093E1018093E00181E080932F
:10078000E5010E941F166CED71E00C94AE1582EE2F
:1007900091E00C94A403FC0182818F5BFB018083B8
:1007A00081E00895FC0134969C01245F3F4F80E076
:1007B00090E04081411101961192E217F307C9F7C9
:1007C0000895CF93DF93CDB7DEB769970FB6F8944E
:1007D000DEBF0FBECDBFFC01DB019C919F5F9C93F0
:1007E000BE016F5F7F4F89E1DB011D928A95E9F7BA
:1007F00029E0298384E08A8391E09D8383E08E83CE
:100800009F8398872A8721E22B879C879D879F87D4
:1008100022E2288B25E4298B27E02B8B25E02C8BEB
:100820008E8B20E430E0388F2F8B998F82818B83E1
:10083000838180688D8B49E150E080E00E948319BC
:1008400069960FB6F894DEBF0FBECDBFDF91CF9192
:100850000895BC01625F7F4FFC01838148E050E056
:1008600080640C94EB180A970C942904FC0120E294
:10087000260F2830F0F0DC01169620E030E08D9154
:10088000442349F0861304C0E20FF31F668326C099
:10089000811107C0F9CF861304C0E20FF31F16823F
:1008A0001DC02F5F3F4F2630310549F780E090E0B3
:1008B00008953481442349F081E090E001C0880F1D
:1008C0002A95EAF7832B848309C041E050E001C0F8
:1008D000440F2A95EAF740954323448381E090E052
:1008E0000895FB0120812138B9F423812232A1F43B
:1008F000DC0112962C91129730E044815581421709
:10090000530751F421E057962C9345E450E065EFEE
:1009100070E080E80C94831980E090E00895CF9314
:10092000DF93EC01FB018A8190E0248135818217FD
:10093000930709F04AC081819081913A69F481302E
:1009400009F441C0833011F48F8903C08230E9F586
:10095000888D8093F10037C09132B9F58B3019F44E
:1009600082818F8B30C08A3019F48281888F2BC0AE
:10097000893059F5668177818381833079F48C8D54
:100980009D8D6817790709F58A8D9B8D0E94AA199C
:100990008C8D9D8D90689D8F8C8F15C0823041F419
:1009A0006130710591F461E070E0CE01499609C0B3
:1009B000813059F46830710541F468E070E0CE018F
:1009C0000E960E94AA1981E001C080E0DF91CF91CC
:1009D0000895EF92FF920F931F93CF93DF93E62F2B
:1009E000F0E0E038F10540F021E030E0DC01139662
:1009F0003C932E93129722C0D42F7C01E65CFE4FCD
:100A0000C4916C2F6F77DC01ED91FC910084F1852E
:100A1000E02D09958C01C7FF13C0892B11F4D1116A
:100A20000DC0D701ED91FC910084F185E02D4D2F93
:100A300061EEC7010995802B912B02C080E090E008
:100A4000DF91CF911F910F91FF90EF900895FF924A
:100A50000F931F93CF93DF93EC01F62E41E00E949A
:100A6000E9048C01892BA9F0E881F9810680F781DE
:100A7000E02DCE01099540E06F2DCE010E94E904E2
:100A8000892B39F0E881F9810680F781E02DCE01CC
:100A90000995C801DF91CF911F910F91FF900895A3
:100AA000CF93DF93EC0181E08C838D839E012A5EDE
:100AB0003F4F3F832E83198618861D861C862BE4A4
:100AC00031E03983288329E531E03B872A878F8B02
:100AD000888F198E1B8E1A8E1D8E1C8E81EC8E8B2C
:100AE0000E94531BBE01DF91CF910C940C1B8DEE25
:100AF00091E00C945005FC0112828FEF81831082EB
:100B000013820895FC018381882331F0611103C0B1
:100B10008FEF81830895118208958FE095E00E9400
:100B200032268FE095E00E94CD2691E0811190E081
:100B3000892F0895CF93DF93EC016A838FE095E0CE
:100B40000E945A266A81CE010E948D058B838823DC
:100B500029F08FE095E00E94CA2188838B8190E084
:100B6000DF91CF910895CF93DF93FC01238122235E
:100B7000B1F0EC01818180956823608362818FE010
:100B800095E00E94322668818FE095E00E94E92678
:100B90008FE095E00E94CD26282F30E002C020E0B3
:100BA00030E081E090E0232B11F080E090E0DF91D5
:100BB000CF91089508950895DC01ED91FC91028490
:100BC000F385E02D41E0099581E090E00895FC0176
:100BD0001382128227E631E0318320830895DC01FD
:100BE000ED91FC910084F185E02D6FEF0994DC011B
:100BF000ED91FC910284F385E02D40E0099461E0E1
:100C00000E94F70580ED97E00C94531ECF93DF937D
:100C1000CDB7DEB728970FB6F894DEBF0FBECDBFB5
:100C2000FC011D8280E48E8394E19F8394E5988784
:100C300019828A8380E18B8380E58C8387814817C2
:100C400010F04FEF480F908550E0DE01A40FB51F64
:100C5000903129F4843019F411969C9102C01596B4
:100C60009C91690F6068CF0128960FB6F894DEBF9B
:100C70000FBECDBFDF91CF910C94F705FC016581CC
:100C8000262F246025836C600C94F705CF93DF93A7
:100C9000EC01423018F08C8188608C834F83688728
:100CA000222329F0413019F48C8184608C8364E61E
:100CB00070E080E090E00E94171E6C8164FD31C0FE
:100CC000E881F9810284F385E02D42E063E0CE0102
:100CD000099584E991E10E94531EE881F98102841B
:100CE000F385E02D42E063E0CE01099586E990E0CE
:100CF0000E94531EE881F9810284F385E02D42E0D1
:100D000063E0CE01099586E990E00E94531EE881D8
:100D1000F9810284F385E02D42E062E0CE0109957D
:100D200016C06062CE010E94F70584E991E10E943D
:100D3000531E6C816062CE010E94F70586E990E047
:100D40000E94531E6C816062CE010E94F70586E905
:100D500090E00E94531E6C816062CE010E94F705F4
:100D60008CE390E00E94531E84E08D83CE010E94AC
:100D70003E06CE010E94FF0582E08E8366E0CE0132
:100D80000E94F705CE01DF91CF910C94EF0521E091
:100D900001C0220F6A95EAF7DC011C962C931C9780
:100DA0001A965C934E931997ED91FC910084F1850E
:100DB000E02D60E00994FC0184858823A9F0218559
:100DC00032852115310519F4611106C007C02130A3
:100DD000310521F4611102C0858701C01586658542
:100DE000CF010E960C94B30508950F931F93CF93E4
:100DF000DF938C01EC012E96FC016385CE010E94ED
:100E00009A05019769F461E0CE010E948205F8011C
:100E1000148260E0CE010E94B30581E090E002C040
:100E200080E090E0DF91CF911F910F9108958F9214
:100E3000AF92CF92EF920F93CF93DF93CDB7DEB700
:100E4000FC016387148615861286118681E0982F2F
:100E500001C0990F4A95EAF7928B982F01C0990F1C
:100E60002A95EAF7938B982F01C0990F0A95EAF714
:100E7000948B982F01C0990FEA94EAF7958B982FDD
:100E800001C0990FCA94EAF7968B982F01C0990F69
:100E9000AA94EAF7978B01C0880F8A94EAF7808FAB
:100EA000DF91CF910F91EF90CF90AF908F900895F9
:100EB0004F925F926F927F928F92AF92CF92EF920A
:100EC0000F931F93CF93DF9300D01F92CDB7DEB760
:100ED0003C011A894B885C882B834A8369830E9472
:100EE000E70587E791E0F30191838083C3010E96C4
:100EF0000E947B052B814A816981C3010E941707EB
:100F0000A201612FC3010F900F900F90DF91CF913D
:100F10001F910F91EF90CF90AF908F907F906F9037
:100F20005F904F900C94C706FF920F931F93CF933F
:100F3000DF93EC01F62E8C01025F1F4F9A89692B1B
:100F4000C8010E94B3059A8990956F2D6923C80145
:100F5000DF91CF911F910F91FF900C94B305362F25
:100F6000FC01759624E060E030FF02C05081652BE3
:100F70003695215031962111F7CF413011F4FC0103
:100F80004489FC012585622B642B0C9494070F93F4
:100F90001F93CF93DF93062F0F70423019F440E078
:100FA000602F10C0142F262FEC0130E0B90184E02F
:100FB000759567958A95E1F7CE010E94AF07412F9D
:100FC000602FCE01DF91CF911F910F910C94AF074D
:100FD0000F931F93CF93DF9300D01F92CDB7DEB74F
:100FE0008C012B834A8369830E94F5062B814A81F9
:100FF0006981C8010F900F900F90DF91CF911F91E1
:101000000F910C9446068EBD00000DB407FEFDCF77
:101010008EB508952CB52F7D2CBD2CB5237F2CBD0E
:101020002CB52C7F2CBD2DB521602DBDFC018181FF
:101030000E942D1F85E090E00C94531EFC018081DE
:10104000918189130C942D1F089560E00C940A0877
:1010500061E00C940A08EF92FF921F93CF93DF9305
:101060001F92CDB7DEB77C0169830E942508698194
:10107000862F8F710E9403088FEF0E940308182F9C
:10108000C7010E942808812F0F90DF91CF911F91F7
:10109000FF90EF900895CF92DF92EF92FF920F931F
:1010A0001F93CF93DF9300D01F92CDB7DEB77C01A3
:1010B000142F2A835B8369830E9425086981862F08
:1010C0008F7180620E940308082FC12E5B81D52E8C
:1010D0002A81120F1C1531F0F60181916F010E94D7
:1010E0000308F8CFC7010E942808802F0F900F90A7
:1010F0000F90DF91CF911F910F91FF90EF90DF90B4
:10110000CF900895EF92FF921F93CF93DF9300D07B
:10111000CDB7DEB77C014A8369830E9425086981C7
:10112000862F8F7180620E940308182F4A81842FB6
:101130000E940308C7010E942808812F0F900F907A
:10114000DF91CF911F91FF90EF900895BF92CF92C2
:10115000DF92EF92FF920F931F93CF93DF9300D014
:101160001F92CDB7DEB77C01FC01C580B42EC4163A
:1011700008F4BC2CF7018681811102C0CB1801C094
:10118000C12CC70129836A837B830E94250829819A
:10119000822F0E940308D82E6A81062F7B81172F89
:1011A000B60EB01631F0F80181918F010E9403084C
:1011B000F8CFCC2029F080E00E940308CA94F9CF30
:1011C000C7010E9428088D2D0F900F900F90DF917E
:1011D000CF911F910F91FF90EF90DF90CF90BF9034
:1011E0000895BF92CF92DF92EF92FF920F931F93D9
:1011F000CF93DF9300D0CDB7DEB77C01FC01C58073
:10120000B42EC41608F4BC2CF7018681811102C0EB
:10121000CB1801C0C12CC70169837A830E942508BD
:1012200081E60E940308D82E6981062F7A81172F44
:10123000B60EB01639F08FEF0E940308F8018193C3
:101240008F01F7CFCC2029F08FEF0E940308CA94BA
:10125000F9CFC7010E9428088D2D0F900F90DF91C4
:10126000CF911F910F91FF90EF90DF90CF90BF90A3
:101270000895EF92FF921F93CF93DF931F92CDB704
:10128000DEB77C0169830E9425086981862F0E9450
:101290000308182FC7010E942808812F0F90DF91A3
:1012A000CF911F91FF90EF90089562EE0C94390951
:1012B00061EE0C9439096FEF0C943909FC016083DD
:1012C0004183148280E28583168285E084871782B9
:1012D0000895462F6E3708F04DE765E00C948208BC
:1012E00065E00C942B08CF93DF93EC0160E00E9443
:1012F0002B0881FD0EC0482F426060E0CE010E94A5
:10130000820865E070E080E090E0DF91CF910C947E
:10131000171EDF91CF9108950F93CF93DF93EC01C8
:10132000211102C020EA01C020EBCE010E94A608D4
:10133000002339F061E0CE01DF91CF910F910C9441
:101340001E08DF91CF910F910895CF92DF92EF9217
:10135000FF920F93CF93DF9300D0CDB7DEB76C0130
:101360007B01C6012A8349830E945B092A81498146
:1013700080FF10C0C6012A8349830E945B092A812D
:10138000498184FFEECF40E167E0C6010E948208F8
:1013900080E006C001E0B701C6010E948C0981E02F
:1013A0000F900F90DF91CF910F91FF90EF90DF9012
:1013B000CF90089520E00C94A509CF93DF93EC0122
:1013C00067E1CE010E942B0884FD13C0CE010E946C
:1013D0005B0984FFF5CF40E167E0CE010E948208FF
:1013E00060E0CE010E941E08CE010E94580980E0F4
:1013F00005C060E0CE010E941E0881E0DF91CF9120
:1014000008950F931F93CF93DF938C01EB0167E156
:101410000E942B0880FD0BC0209759F0C8010E9444
:101420005B0990E0959587958770888302C080E07E
:1014300001C081E0DF91CF911F910F91089560E08D
:1014400070E00C94010ACF93DF93EC010E94F10845
:1014500040E767E0CE01DF91CF910C9482080F93B3
:101460001F93CF93DF93EC018B012C85AB016AE0D6
:101470000E944B082C85A80160E1CE010E944B0818
:101480004D8161E1CE01DF91CF911F910F910C94BD
:101490008208EF92FF920F931F93CF93DF938C01FB
:1014A000C62F7A01611108C0FC01448550E0B701E4
:1014B00007960E94FF3605C0673008F037C06130DC
:1014C00041F4EC2FF0E0E054FE4F6491F8012485E4
:1014D00006C0E62FF0E0E054FE4F649121E0A70142
:1014E000C8010E944B08D0E0FE01E654FE4F649113
:1014F000F8014581C8010E94820862E0C8010E948B
:101500002B08FE01EA53FE4FE49141E050E001C098
:10151000440FEA95EAF7482B62E0C801DF91CF91CA
:101520001F910F91FF90EF900C948208DF91CF9163
:101530001F910F91FF90EF9008950F931F93CF93FA
:101540008C01C62F62E00E942B08EC2FF0E0EA53DA
:10155000FE4FE49121E030E001C0220FEA95EAF766
:101560002095422F482362E0C801CF911F910F912F
:101570000C948208CF93DF93EC010E94730960E022
:10158000CE010E942B08482F416060E0CE010E94EE
:10159000820840E767E0CE010E94820861E0CE0148
:1015A0000E941E088F81882349F02C85AE01495F77
:1015B0005F4F6AE0CE010E944B0804C060E0CE019C
:1015C0000E949D0A6DE1CE010E942B0881FF05C09B
:1015D000CE01DF91CF910C945809DF91CF910895FE
:1015E000CF93DF93EC010E94250880E50E94030859
:1015F00083E70E940308CE01DF91CF910C94280865
:10160000CF93DF93EC016DE10E942B08482F4460DB
:101610006DE1CE010E9482086CE1CE010E942B0890
:10162000482F4F636CE1CE010E94820881E08E83D7
:10163000DF91CF910895CF93DF93EC016DE10E948C
:101640002B08482F46606DE1CE010E9482086CE1B4
:10165000CE010E942B08482F43606CE1CE010E940E
:10166000820881E08E83DF91CF910895EF92FF92FF
:101670000F931F93CF93DF9300D000D0CDB7DEB789
:101680007C01213208F020E2C7012C834A835B836E
:1016900069830E9425086981862F8770886A0E9465
:1016A00003084A81042F5B81152F2C81215038F0CB
:1016B000F80181918F012C830E940308F6CFC701A6
:1016C0000F900F900F900F90DF91CF911F910F917E
:1016D000FF90EF900C942808662311F04FE301C0AF
:1016E00040E061E00C9482080F931F93CF938C012C
:1016F000C62F66E00E942B08887FC43018F4CC0FF8
:10170000CF5F01C0C7E04C2F482B66E0C801CF91E6
:101710001F910F910C94820866E00E942B0886703E
:1017200086950895EF92FF920F931F93CF938C01AC
:101730007B0166E00E942B08C82FC77D82E0E81677
:10174000F10431F4C0628BE990E0A0E0B0E00DC09C
:10175000EA94EF2829F085E590E0A0E0B0E005C02C
:10176000C86081E490E0A0E0B0E0F801858796874A
:10177000A787B08B4C2F66E0C8010E94820866E004
:10178000C8010E942B0891E08C1390E0892FCF9123
:101790001F910F91FF90EF9008951F93CF93DF93C8
:1017A000EC0188819981891719F061E00E94F11E8E
:1017B00089819881981719F061E00E94F11E0E94BA
:1017C000EC2560E0CE010E941E0861E0CE010E947F
:1017D0000A0865E070E080E090E00E94171E4CE08F
:1017E00060E0CE010E9482084FE564E0CE010E94D5
:1017F000820862E070E0CE010E94920B882311F013
:1018000081E08C8366E0CE010E942B08182F60E0F7
:1018100070E0CE010E94920BCE010E94F00A40E0DF
:101820006DE1CE010E94820840E06CE1CE010E9491
:10183000820840E767E0CE010E9482086CE4CE0196
:101840000E946909CE010E945509CE010E945809E3
:10185000CE010E94730960E0CE010E942B08482F40
:101860004E7F60E0CE010E948208812FDF91CF91F0
:101870001F91089566E00E942B08282F28722032BD
:1018800031F081E090E0283021F080E0089582E09E
:1018900090E0089520E1629FB00111244F70462B23
:1018A00064E00C9482081F920F920FB60F921124DD
:1018B0000F931F932F933F934F935F936F937F9358
:1018C0008F939F93AF93BF93CF93DF93EF93FF9348
:1018D000809106018F5F80930601882329F0EBE059
:1018E000F2E020E030E059C00BE012E0E1E1F2E08C
:1018F000C3E1D2E0CE010197DC014C91CF01019709
:10190000DC01411103C028812223F9F02C9130E041
:10191000808190E0B901681B790B1616170644F414
:10192000442389F0840F911D8217930764F40AC041
:10193000672B49F04881442331F0841B9109281713
:1019400039070CF49C01208302C08C918083808134
:101950008823C9F0CF010597DC018C91AF0142507B
:101960005109D80112962D913C911397D9019C9160
:10197000DA01811103C08C91892B03C08C91809571
:101980008923D9018C93075F1F4F39962996B2E0BE
:101990000F3B1B0709F0AECFA2CF808187FD15C09A
:1019A000E901C55FDD4F809106019E8198130DC04E
:1019B0009981A281B3818C81911104C09C91809501
:1019C000892302C09C91892B8C933996275F3F4FC6
:1019D000243B310511F7FF91EF91DF91CF91BF913A
:1019E000AF919F918F917F916F915F914F913F91B7
:1019F0002F911F910F910F900FBE0F901F90189570
:101A00001092C00094E09093C1001092C200109216
:101A1000C3001092C4001092D10092E89093D100BC
:101A200090E490937200EBE0F2E020E030E09FEF72
:101A30009083D901A55FBD4F11961C921197138217
:101A4000128217961C92179718961C923996275F48
:101A50003F4F243B310561F78093BF020895CF9338
:101A6000442339F01092BF001092BE009FEF909374
:101A70000601EBE0F2E090E0AFEF208187FF03C0CA
:101A800027FF06C04BC0281719F0AF3F41F404C030
:101A9000658387FDFACF46C0208127FDA92F9F5F70
:101AA0003996943151F787FD3DC0AF3F09F43AC0F4
:101AB000C82F89E0A802D0011124A55FBD4FCC93A7
:101AC0002091BF0211962C9311978C2F992787FD97
:101AD0009095FC01E057FD4FE491F0E0EE0FFF1F01
:101AE000E354FD4F4591549113965C934E93129796
:101AF000FC01EF58FD4FE4911496EC931497159662
:101B00006C93211102C060E001C061E08C2F0E9443
:101B10002D1F61E08C2FCF910C94F11EAF3F09F087
:101B2000BECFBCCFCF910895282F3FEF639FC00158
:101B3000112464E670E00E947B34822F0C942F0DF8
:101B40002F923F924F925F926F927F928F929F92CD
:101B5000AF92BF92CF92DF92EF92FF920F931F93BB
:101B6000CF93DF93CDB7DEB727970FB6F894DEBFDC
:101B70000FBECDBF89831B015D834C838BE092E058
:101B80009F838E8300E010E04A01A12CB12C80EFEE
:101B9000C82E8FE0D82EE12CF12C2B01612C712C5A
:101BA0009981EE81FF81808197FF0DC087FF0EC074
:101BB0008E819F8109969F838E83075F1F4F043B11
:101BC000110571F727C0F9818F13F2CF2114310469
:101BD00039F0C701B601A30192010E94A33401C0EC
:101BE00020E0C801855F9D4F9B838A83FC0127838A
:101BF0008C819D81892B39F0C701B601A501940123
:101C00000E94A33401C020E0EA81FB812087F98192
:101C1000F7FDCECF27960FB6F894DEBF0FBECDBF2F
:101C2000DF91CF911F910F91FF90EF90DF90CF90B8
:101C3000BF90AF909F908F907F906F905F904F90EC
:101C40003F902F90089508951F920F920FB60F9214
:101C500011242F933F934F935F936F937F938F93B1
:101C60009F93AF93BF93EF93FF93E0910701F091A0
:101C700008010995FF91EF91BF91AF919F918F91CD
:101C80007F916F915F914F913F912F910F900FBE78
:101C90000F901F9018952F923F924F925F926F92E4
:101CA0007F928F929F92AF92BF92CF92DF92EF92EC
:101CB000FF920F931F93CF93DF93CDB7DEB76B9750
:101CC0000FB6F894DEBF0FBECDBF1C014A015B0109
:101CD0003E872D8742305105610571050CF435C1F1
:101CE000CA018150904C880F991F880F991F2101BC
:101CF000480E591E5A824982D201CD90DD90ED9056
:101D0000FC9064E370E080E090E0A50194010E9403
:101D1000C5342D833E834F83588700E010E098013F
:101D2000B501A40141505109610971094B8B5C8BCC
:101D30006D8B7E8B43705527588F4F8B07541648F9
:101D4000284C3146D901C801F2E0B695A795979580
:101D50008795FA95D1F7AC01BD01437055276627E9
:101D6000772749875A876B877C873B8E2A8E40E08E
:101D700050E0BA0146015701B4E0880C991CAA1C36
:101D8000BB1CBA95D1F72601370185E0769467949C
:101D9000579447948A95D1F74F86588A698A7A8AE8
:101DA0008B899C89AD89BE89481759076A077B07CB
:101DB00008F063C0EA8DFB8D84819581A681B7818F
:101DC0003A01F3E06F22772449845A84642475240D
:101DD000660C771C660C771C4D845E84640C751C45
:101DE000F3014080518062807380C424D524E624AE
:101DF000F7242C013D014026512662267326C40C8F
:101E0000D51CE61CF71C2C013D01F3E07694679489
:101E100057944794FA95D1F784249524A624B7249F
:101E2000E2E0880F991FAA1FBB1FEA95D1F74F84E4
:101E3000588869887A8884259525A625B725880D30
:101E4000991DAA1DBB1DC826D926EA26FB26EA8DA8
:101E5000FB8D80819181A281B381C80ED91EEA1EBB
:101E6000FB1EDF01CD92DD92ED92FD92BB8FAA8F1A
:101E70004F5F5F4F6F4F7F4F7DCFD1014D915D9190
:101E80006D917C91DB01CA01E3E0B695A79597952A
:101E90008795EA95D1F788269926AA26BB26DB01E5
:101EA000CA01F2E0880F991FAA1FBB1FFA95D1F74C
:101EB00084259525A625B725880E991EAA1EBB1E2A
:101EC000EF89F88D49845A84E425F525EE0FFF1F2C
:101ED000EE0FFF1F6D847E84E60DF71D80819181DA
:101EE000A281B381C826D926EA26FB26402751279E
:101EF00062277327C40ED51EE61EF71E8C249D2470
:101F0000AE24BF24A981BA81CD90DD90ED90FC90E4
:101F10001397C80CD91CEA1CFB1CFD01C082D1829E
:101F2000E282F3824D815E816F8178854150510953
:101F3000610971094D835E836F8378874A3F5F4FE4
:101F40006F4F7F4F09F0FACE54C14F3F9FEF5907B3
:101F5000690779070CF04DC1CC24DD247601C41A41
:101F6000D50AE60AF70A64E370E080E090E0A70192
:101F700096010E94C53429013A012A5F3F4F4F4F15
:101F80005F4F69EB79E787E39EE90E945F34AB011D
:101F9000BC01F10180819181A281B381F1E0CF1A6E
:101FA000F0ECDF0ACC0CDD1CCC0CDD1C81010C0D2F
:101FB0001D1D1C8B0B8B4D825E826F8278868094F8
:101FC0009094A094B0948F8A998E880C991C880C58
:101FD000991C9101280D391D388B2F876A017B01CF
:101FE000F2E0F694E794D794C794FA95D1F7970165
:101FF0008601037011272227332709871A872B8729
:102000003C876F88798C4F845888F20132912291F5
:10201000129102912F0109831A832B833C83830140
:102020000370112729853A8502271327000F111FF6
:10203000000F111FED85FE850E0F1F1FF801C080D8
:10204000D180E280F38009811A812B813C81C026F6
:10205000D126E226F3268C019D0104271527262789
:102060003727C00ED11EE21EF31E4C015D0133E086
:10207000B694A794979487943A95D1F709811A81D9
:102080002B813C81E4E0000F111F221F331FEA95D2
:10209000D1F780269126A226B326F2E0880F991F59
:1020A000AA1FBB1FFA95D1F709811A812B813C81A8
:1020B000E5E03695279517950795EA95D1F780279E
:1020C0009127A227B327880D991DAA1DBB1DC826DD
:1020D000D926EA26FB26F20184819581A681B78163
:1020E0008C199D09AE09BF0984839583A683B783A4
:1020F000F1E06F1A71084214530409F086CFEB899E
:10210000FC89C080D180E280F3804C015D0123E036
:10211000B694A794979487942A95D1F7970186014E
:10212000E4E0000F111F221F331FEA95D1F780262C
:102130009126A226B3262C013D01F2E0440C551C49
:10214000661C771CFA95D1F797018601E5E0369574
:10215000279517950795EA95D1F704251525262586
:102160003725080D191D2A1D3B1D84279527A627F5
:10217000B727A984BA84AA0CBB1CAA0CBB1C4D842B
:102180005E84A40CB51CF50180809180A280B38090
:10219000C824D924EA24FB248C0D9D1DAE1DBF1D2F
:1021A00080279127A227B32749805A806B807C80A3
:1021B000481A590A6A0A7B0AD301C201F101408216
:1021C000518262827382495B594767437E490D8120
:1021D0001E812F81388501501109210931090D8394
:1021E0001E832F8338870A3F1F4F2F4F3F4F09F021
:1021F000F5CE6B960FB6F894DEBF0FBECDBFDF9164
:10220000CF911F910F91FF90EF90DF90CF90BF90F3
:10221000AF909F908F907F906F905F904F903F9086
:102220002F9008950F931F930097C9F08A019B0187
:10223000015011092109310900311105210531052C
:1022400070F420E1E4E1F3E0DF011D922A95E9F763
:10225000BC01CF010E94FF3680E090E002C082E026
:1022600090E01F910F9108954F925F926F927F922D
:10227000AF92BF92CF92DF92EF92FF920F931F9394
:10228000CF93DF935901E801009709F471C08A01E7
:102290009B01015011092109310900351105210562
:1022A000310508F065C0A114B10409F461C00881CA
:1022B00019812A813B8110161106120613060CF0B3
:1022C00057C004171507260737070CF451C06A01D9
:1022D0007B01E2E0F594E794D794C794EA95D1F7AF
:1022E0002A013B01A3E04A2255246624772445288D
:1022F0004628472859F0BFEFCB1ADB0AEB0AFB0A46
:10230000E5E1CE16D104E104F104A9F1260137017B
:1023100062E0440C551C661C771C6A95D1F70415C5
:102320001505260537053CF120E5E4E2F3E0DF0181
:102330001D922A95E9F7BC01CF010E94FF3624E1E6
:1023400033E0B701A60184E293E00E944B0EA601A0
:10235000440F551F440F551F64E273E0C5010E94EE
:10236000FF36488259826A827B8280E090E005C015
:1023700082E090E002C083E090E0DF91CF911F9176
:102380000F91FF90EF90DF90CF90BF90AF907F9034
:102390006F905F904F900895CF93DF93FC01108270
:1023A000FB01448155814131510550F4EC0160E05D
:1023B00070E0808191810E94121181E0888301C0C8
:1023C00080E0DF91CF9108958F929F92AF92BF925C
:1023D000CF92DF92EF92FF920F931F93CF93DF93F1
:1023E000CDB7DEB72A970FB6F894DEBF0FBECDBFCC
:1023F0007C01FA01DB018C91882309F471C04481CE
:102400005581CA0101978F34910508F069C080E5B4
:1024100090E0A0E0B0E08F839887A987BA876B012E
:10242000BFEFCB1ADB0A60E070E08E01095F1F4F3F
:102430009601808191810E943411892B09F050C04E
:1024400069E871E0CE0101960E9431206F817885A4
:10245000660F771F6F5F7F4FCE0101960E94F41FBA
:1024600069E871E0CE0101960E9487208601812CE7
:10247000912C54018F819885A985BA858816990673
:10248000AA06BB0614F56801F801608162956F70B9
:102490006A3010F0695C01C0605DCE0101960E9457
:1024A0000E210F5F1F4FD6016C916F706A3010F0D4
:1024B000695C01C0605DCE0101960E940E21BFEFF4
:1024C0008B1A9B0AAB0ABB0AD5CFBE016F5F7F4F49
:1024D000C7010E949E1FCE0101960E94C31F05C026
:1024E0006CEC71E0C7010E94D720C7012A960FB695
:1024F000F894DEBF0FBECDBFDF91CF911F910F913A
:10250000FF90EF90DF90CF90BF90AF909F908F9013
:1025100008951092C3020895CF93DF931F92CDB711
:10252000DEB76983DC01ED91FC910280F381E02D3F
:1025300041E050E0BE016F5F7F4F09950F90DF9142
:10254000CF910895CF93DF93EC018C859D8597FF04
:1025500005C082E00E94BA189D878C878C859D8576
:10256000DF91CF91089583E00C94DD19FC018485FF
:10257000958597FD06C082E00E94641890E0019660
:10258000089582E00E94641890E00895FC0184851B
:10259000958597FD05C02FEF3FEF35872487089578
:1025A00082E00C94BA18CF93DF93EC018091140170
:1025B000882331F083E00E94EB181816190634F0D6
:1025C00081E090E09B838A8380E090E0DF91CF916F
:1025D0000895FC0190819E5F908342E450E063ED9A
:1025E00071E080E80C948319FC0181819081913A1B
:1025F00059F4813209F048C047E050E06DE071E0E5
:1026000080E00E94831973C09132F1F5833291F416
:102610009381892F90E0982F88272281822BA0E038
:10262000B0E08093090190930A01A0930B01B0934D
:102630000C015DC0803239F467E070E08DE091E01C
:102640000E94AA1906C0823209F051C0828180938B
:1026500014018091C403882319F0EEEFFAE002C060
:10266000E0E0F8E080910D0190910E01A0910F0142
:10267000B0911001803B9440A105B10539F48091DF
:10268000140180FF1CC002C080E0089588E10FB6ED
:10269000F89480936000109260000FBEA895EE3F02
:1026A0008AE0F80739F08091FE0A9091FF0A918341
:1026B00080831DC01092FF0A1092FE0A18C0EE3FE0
:1026C0002AE0F20731F0808191819093FF0A809394
:1026D000FE0A87E797E7918380839BE088E10FB646
:1026E000F894A895809360000FBE9093600081E0FD
:1026F0000895E4E7F3E01382128288EE93E0A0E00D
:10270000B0E084839583A683B7838EE891E09183BC
:1027100080838FEF9FEF958784870895FC01918DCB
:10272000228D892F90E0805C9F4F821B91098F73CF
:1027300099270895FC01918D828D981731F0828D33
:10274000E80FF11D858D90E008958FEF9FEF0895BC
:10275000FC01918D828D981761F0828DDF01A80FA9
:10276000B11D5D968C91928D9F5F9F73928F90E0CB
:1027700008958FEF9FEF08958CEA94E1892B49F03B
:1027800080E090E0892B29F00E94AC1481110C9418
:1027900000000895FC01848DDF01A80FB11DA35A2C
:1027A000BF4F2C91848D90E001968F739927848F71
:1027B000A689B7892C93A089B1898C9180648C9368
:1027C000938D848D981306C00288F389E02D808153
:1027D0008F7D80830895CF93DF93EC01888D8823CC
:1027E000C9F0EA89FB89808185FD05C0A889B9897E
:1027F0008C9186FD0FC00FB607FCF5CF808185FF59
:10280000F2CFA889B9898C9185FFEDCFCE010E94C6
:10281000CA13E7CFDF91CF910895EF92FF920F9304
:102820001F93CF93DF93EC0181E0888F9B8D8C8D7C
:10283000981305C0E889F989808185FD24C0F62EAA
:102840000B8D10E00F5F1F4F0F731127E02E8C8D43
:10285000E8120CC00FB607FCFACFE889F98980812D
:1028600085FFF5CFCE010E94CA13F1CF8B8DFE01FB
:10287000E80FF11DE35AFF4FF0820B8FEA89FB89C5
:102880008081806207C0EE89FF896083E889F989C9
:1028900080818064808381E090E0DF91CF911F91FF
:1028A0000F91FF90EF9008951F920F920FB60F9225
:1028B00011242F938F939F93EF93FF93E091D50370
:1028C000F091D6038081E091DB03F091DC0382FD7F
:1028D00012C090818091DE038F5F8F732091DF03A0
:1028E000821751F0E091DE03F0E0EB53FC4F958F3F
:1028F0008093DE0301C08081FF91EF919F918F91C2
:102900002F910F900FBE0F901F9018951F920F924E
:102910000FB60F9211242F933F934F935F936F93B2
:102920007F938F939F93AF93BF93EF93FF9385EC28
:1029300093E00E94CA13FF91EF91BF91AF919F91D5
:102940008F917F916F915F914F913F912F910F9058
:102950000FBE0F901F90189585EC93E00E948E1388
:1029600021E0892B09F420E0822F0895E5ECF3E0C3
:102970001382128288EE93E0A0E0B0E08483958316
:10298000A683B7838EE991E0918380838DEC90E0FC
:10299000958784878CEC90E09787868788EC90E019
:1029A000918B808B89EC90E0938B828B8AEC90E00A
:1029B000958B848B8EEC90E0978B868B118E128E8C
:1029C000138E148E0895DC01FB0188E4808389E472
:1029D000818384E482831D969C911D979F709F5BE9
:1029E00093831D968D919C911E9724E096958795D3
:1029F0002A95E1F78F708F5B848385E00895CF93EC
:102A0000DF93CDB7DEB769970FB6F894DEBF0FBE80
:102A1000CDBFFC01DB018C918F5F8C93BE016F5F9A
:102A20007F4F89E1DB011D928A95E9F729E029832F
:102A300084E08A8391E09D8383E08E832A8721E26C
:102A40002B879C879D879F8722E2288B27E02B8BF3
:102A500025E02C8B8E8B20E430E0388F2F8B998FE4
:102A600082818B8395858685998B8A8B838180680B
:102A70008D8B49E150E080E00E94831969960FB682
:102A8000F894DEBF0FBECDBFDF91CF910895DC017A
:102A9000FB0112968C91129790E024813581821768
:102AA0009307D1F491818081813A31F481E09130B2
:102AB00091F0933089F411C0813271F49B3021F48C
:102AC00082811F968C9305C09A3031F48281509692
:102AD0008C9381E00895089580E00895EF92FF922D
:102AE0000F931F93CF93DF93FB012081213851F582
:102AF0002381223239F5DC0112962C9130E0448199
:102B0000558142175307F1F4EC010B851C85E12C2C
:102B1000F12C0115110591F0F80144815581628174
:102B2000738180E80E9483198F3FFFEF9F0769F050
:102B3000E80EF91ED8010D911C91EBCF81E08F8733
:102B4000C70105C080E090E002C08FEF9FEFDF91EA
:102B5000CF911F910F91FF90EF900895FC01A385F5
:102B6000B485109719F47487638709C08D919C917F
:102B70001197009711F0DC01F9CF6D937C932585B7
:102B80003685DB0114968D919C911597820F931FCA
:102B9000968785870895AF92BF92CF92DF92EF928A
:102BA000FF920F931F93CF93DF931F92CDB7DEB7A2
:102BB0007C0169836A01590141E050E0BE016F5F09
:102BC0007F4FFC0183810E94EB188C0197FD0BC0A5
:102BD000F7018381A501B60180640E94EB1897FD7F
:102BE00002C0800F911F0F90DF91CF911F910F9125
:102BF000FF90EF90DF90CF90BF90AF900895CF936C
:102C0000DF93EC0181E08C838D839E01265F3F4F33
:102C10003F832E83198618862EEA31E03983288374
:102C20001C861B861E861D868F87888B81EC8A8773
:102C30000E94531BBE01DF91CF910C940C1B80911D
:102C40007304811107C082E694E00E94FF1581E0C1
:102C50008093730482E694E008958F929F92AF92DE
:102C6000BF92CF92DF92EF92FF920F931F93CF9379
:102C7000DF937C018B016C0182E0C80ED11C4701FF
:102C8000E5E08E0E911CC0E0D0E0F60161916F018D
:102C90004AE050E0C8010E94B4175C016EE2C8012E
:102CA0000E9405178A0D9B1DC80FD91FC814D9048F
:102CB00061F74AE050E0F7016581C8010E94B4174E
:102CC0008C0F9D1FDF91CF911F910F91FF90EF907F
:102CD000DF90CF90BF90AF909F908F900895EBE7DB
:102CE000F4E08AEB91E09183808312821382148254
:102CF0001582089508950E945E1E0E947A168DE83E
:102D000094E00E946A1A0E94672ECCEBD3E10E94E5
:102D10002E312097E1F30E94BC13F9CF08950E9451
:102D2000EA36CF92DF92EF92FF920F931F93CF93E9
:102D3000DF936C017A018B01C0E0D0E0CE15DF0596
:102D400089F0D8016D918D01D601ED91FC91019032
:102D5000F081E02DC6010995892B11F47E0102C096
:102D60002196ECCFC701DF91CF911F910F91FF907A
:102D7000EF90DF90CF9008956115710579F0FB0118
:102D800001900020E9F73197AF01461B570BDC019A
:102D9000ED91FC910280F381E02D099480E090E0B8
:102DA0000895EF92FF920F931F93CF93DF938C01BF
:102DB0007B01C0E0D0E0F701EC0FFD1F64916623BA
:102DC00061F0D801ED91FC910190F081E02DC801F6
:102DD0000995892B11F02196EECFCE01DF91CF918D
:102DE0001F910F91FF90EF900895DB0114964D9184
:102DF0005C9115976D917C91DC01ED91FC910280C5
:102E0000F381E02D09940C94BC16DC01ED91FC914A
:102E10000190F081E02D09944F925F926F927F9222
:102E2000EF92FF920F931F93CF93DF93CDB7DEB74F
:102E3000A1970FB6F894DEBF0FBECDBF7C01FA019B
:102E4000CB0119A2223008F42AE08E010F5D1F4F3A
:102E5000422E512C612C712CBF01A30192010E94C2
:102E6000A334F901CA01015011096A3014F4605DFC
:102E700001C0695CD8016C93232B242B252B61F7AF
:102E8000B801C7010E94BC16A1960FB6F894DEBF28
:102E90000FBECDBFDF91CF911F910F91FF90EF90AB
:102EA0007F906F905F904F900895CF92DF92EF9256
:102EB000FF920F931F93CF93DF93EC016A017B0185
:102EC0002115310579F4E881F9810190F081E02D37
:102ED000642FDF91CF911F910F91FF90EF90DF90C2
:102EE000CF9009942A303105E9F477FF1AC06DE2DA
:102EF0000E9405178C0144275527BA014C195D091A
:102F00006E097F092AE0CE010E940C17800F911FE5
:102F1000DF91CF911F910F91FF90EF90DF90CF90B5
:102F200008952AE0B701A601CE01DF91CF911F914C
:102F30000F91FF90EF90DF90CF900C940C179A01B7
:102F4000AB01662757FD6095762F0C945517211518
:102F5000310541F4DC01ED91FC910190F081E02D0F
:102F6000642F09940C940C179A01462F50E060E0EE
:102F700070E00C94A7179A01AB0160E070E00C942C
:102F8000A717615030F02091F100FC0120830196D9
:102F9000F8CF289884E68093960408954091910490
:102FA0005091920420918F0430919004421753075E
:102FB000B4F49091E8009570E1F39091E80092FDEF
:102FC00019C08093F1008091910490919204019630
:102FD0008F739927892B19F48EEF8093E8008091E5
:102FE000910490919204019690939204809391049D
:102FF00081E0089580E00895CF92DF92EF92FF92F2
:103000000F931F93CF93DF931F92CDB7DEB7182F87
:10301000062FE42E862F880F8E5F99830E94CE178D
:1030200083E00E94CE17F12EC12E9981D92E8C2DCE
:103030008F19801798F4F601E7FE02C0849101C051
:1030400080810E94CE17182F80E00E94CE17812326
:10305000FFEFCF1ADF0A8111EACF01C081E00F90A4
:10306000DF91CF911F910F91FF90EF90DF90CF9064
:1030700008958091D70081608093D70080EA809383
:10308000D80089B5806189BD89B5826089BD09B4E0
:1030900000FEFDCF61E070E080E090E00E94171E2E
:1030A0008091D8008F7C80618093D8008091E0006F
:1030B000807F8093E00008952FB7FC012083F8946F
:1030C00067706093E9000895CF93DF931F92CDB7A7
:1030D000DEB7682FCE0101960E945C188091F20045
:1030E00099819FBF0F90DF91CF910895EF92FF924A
:1030F0000F931F93CF93DF931F92CDB7DEB79091BD
:103100009504992311F057FF03C08FEF9FEF2AC05A
:103110008A017B01682FCE0101960E945C18809184
:10312000F20090E0A801801791070CF4AC01842F05
:10313000F70194E6815038F02898909396042091F6
:10314000F1002193F7CF4115510521F08091F20054
:10315000882321F089818FBFCA0104C08BE6809348
:10316000E800F8CF0F90DF91CF911F910F91FF9062
:10317000EF900895CF93DF931F92CDB7DEB741E074
:1031800050E0BE016F5F7F4F0E947618019719F4DF
:10319000898190E002C08FEF9FEF0F90DF91CF9178
:1031A0000895CF93DF931F92CDB7DEB7682FCE017E
:1031B00001960E945C189091E800892F807295FF1B
:1031C00004C09091F20080E4891B99819FBF0F9009
:1031D000DF91CF9108956F927F928F929F92AF92DD
:1031E000BF92CF92DF92EF92FF920F931F93CF93F4
:1031F000DF931F92CDB7DEB7A82E6B01B42E052F3B
:1032000080919504882369F0E42EF52E8AEF982E9C
:103210008A2D8072782E9AE3892E8A2D8074682EEA
:1032200012C08FEF9FEF54C08A2D0E94D118182F23
:1032300081110DC09A949920A1F361E070E080E0C3
:1032400090E00E94171EE114F10471F737C090E07E
:10325000E816F9060CF41E2D6A2DCE0101960E9487
:103260005C188091E80085FF26C0812F90E0E81A65
:10327000F90A772029F01150A8F01092F100FBCF45
:10328000F601A7FE07C0115058F024912093F100D9
:103290003196F9CF115020F021912093F100FACF0F
:1032A000C80ED91E8091E80085FF0FC0E114F1041B
:1032B00011F461100AC089818FBFC5CF5D9884E683
:1032C000809397048B2D902F03C08092E800F3CF5A
:1032D0000F90DF91CF911F910F91FF90EF90DF90B2
:1032E000CF90BF90AF909F908F907F906F900895F8
:1032F0001092E9001092920410929104909390041D
:1033000080938F040895DF92EF92FF920F931F93A3
:10331000CF93DF93D82E8A017B01E40EF51EEB01DB
:10332000CE15DF0571F0D7FE03C0FE01849101C008
:1033300088810E94CE1721968111F2CF8FEF9FEFE7
:1033400001C0C801DF91CF911F910F91FF90EF90C5
:10335000DF900895BF92CF92DF92EF92FF920F938A
:103360001F93CF93DF936C018B01EB019BEFB92E81
:103370002097C1F07E01C134D1051CF080E4E82E15
:10338000F12C8091E80082FFFCCFC8018C1B9D0BC3
:103390006E2D8C0D9D1D0E94C117B092E800CE19B4
:1033A000DF09E6CFC801DF91CF911F910F91FF9008
:1033B000EF90DF90CF90BF9008958093E9008091C7
:1033C000F200882319F08AE38093E80008951F92A1
:1033D0000F920FB60F9211242F933F934F935F9349
:1033E0006F937F938F939F93AF93BF93CF93EF93FD
:1033F000FF93C091E1008091E100837F8093E10021
:103400008093E100C3FF0FC01092E90081E0809338
:10341000EB001092EC0082E38093ED001092950493
:1034200088E08093F000C2FF19C083E00E94DD199C
:1034300080919704882339F080919704815080937C
:103440009704882389F180919604882339F080912C
:103450009604815080939604882341F1C4FF10C0E4
:103460008091E2008E7E81608093E2008091E10095
:103470008F7E8093E100809193048E7E806111C0E5
:10348000C0FF16C08091E2008E7E80618093E200D2
:103490008091E1008E7E8093E100809193048E7E86
:1034A00081608093930404C05D9ACDCF289AD6CFD3
:1034B000FF91EF91CF91BF91AF919F918F917F91AC
:1034C0006F915F914F913F912F910F900FBE0F9091
:1034D0001F901895109295041092940410929304E2
:1034E0000E9439188091E1008E7E8093E1008DE08A
:1034F0008093E200559A209AEEEFFFE78591949130
:103500008B3F9C4D19F481E08093C4030895EF92A2
:10351000FF920F931F93CF93DF937B01FC01C28136
:10352000D38100E010E0209781F0E881F9810280EA
:10353000F381E02DB701CE01099597FD08C0080F72
:10354000191F0884D985C02DEECFC80102C08FEFA6
:103550009FEFDF91CF911F910F91FF90EF90089512
:103560000F931F93CF93DF938B01FC01C281D38113
:10357000209771F0E881F9810480F581E02DB80190
:10358000CE010995009731F40884D985C02DF0CF7C
:1035900080E090E0DF91CF911F910F9108950F93FC
:1035A0001F93CF93DF938B01FC01C281D3812097BE
:1035B00071F0E881F9810680F781E02DB801CE0134
:1035C0000995080F111D0884D985C02DF0CFF80189
:1035D0001082DF91CF911F910F9108950F931F9348
:1035E000CF93DF938B01FC01C281D381209771F0CF
:1035F000E881F9810190F081E02DB801CE010995B3
:10360000811105C00884D985C02DF0CF80E0DF91FD
:10361000CF911F910F910895CF93DF93FC01DB01B0
:10362000218114968C91149790E0820F911D089738
:10363000B4F5C281D381209719F47383628308C0E3
:1036400088859985009711F0EC01FACFB987A88792
:10365000808112968C931297818113968C93139785
:10366000908115968C911597890F808380E0149630
:103670009C911497891788F41696CD91DC91179731
:10368000C80FD11D9881C181D0E0CB5EDE4F9883F9
:1036900091819F5F91838F5FEACF81E001C080E0DD
:1036A000DF91CF9108958091850481110DC082E052
:1036B0008093810484E080938204109284041092A9
:1036C000830481E08093850481E894E00895CF939A
:1036D000DF931F92CDB7DEB71982CE0101960E940B
:1036E000E9120E94531BBE016F5F7F4F0E94871A31
:1036F00089810F90DF91CF9108951F920F920FB69D
:103700000F921124CF92DF92EF92FF920F931F93AB
:103710002F933F934F935F936F937F938F939F93D9
:10372000AF93BF93EF93FF93CF93DF93CDB7DEB704
:103730006C97DEBFCDBF1092E9008091E80083FF57
:1037400024C168E0CE0145960E94C11782EF8093A4
:10375000E8008D8987FF05C09091E80090FFFCCFBD
:1037600003C09EEF9093E800982F907609F0F1C087
:103770009E892F89188D91110CC0803829F4809171
:1037800094048093F10002C01092F1001092F100B5
:10379000F5C0422F50E0512B913051F48111EEC011
:1037A0004130510509F0EAC0809194048D7F0BC02F
:1037B000933061F48111E2C04130510509F0DEC05F
:1037C00080919404826080939404D8C0953041F431
:1037D0008091E80080FFFCCF20682093E300CEC0FA
:1037E000963009F08CC0EB8CFC8C123069F580E0CF
:1037F00090E00E9478190E94671B99E09E012F5F5C
:103800003F4F6901F901292F11922A95E9F7998310
:103810001A8391E09E8390EA98879AEF9987209186
:10382000910430919204275F3F4F3C832B838D831B
:10383000C7010E94781949E050E0B60180E00E947B
:1038400083190E94671B9AC0C7010E9478190E94C1
:10385000531BBE016B5E7F4F0E94B01A009719F098
:103860000CF08CC08FC0113071F48B8D9C8D08973B
:1038700019F481E080938E0480918E0481112FC011
:1038800067E272E031C0133009F07CC08F89882371
:1038900049F1823029F440E86CE082E492E006C00D
:1038A000813039F440E868E089E392E00E94FC1737
:1038B00063C0833009F066C00E94531B8E010F5F06
:1038C0001F4FB8010E94CF1AF80101900020E9F7BC
:1038D0003197BF01601B710B40E0C801E7CF65E184
:1038E00072E002C06FE472E06115710509F44AC02C
:1038F000FB01449150E080E80E9483193FC097305B
:1039000009F440C0983021F481E08093F10036C082
:103910009930A1F58370B1F5E6E1F1E081E021E0B5
:1039200036E39081992361F08093E9002093EB00C6
:1039300091919093EC003093ED008F5F873089F781
:103940008EE78093EA001092EA008F8980939504B5
:1039500015C08B8D9C8D0E947819898D811105C0B1
:10396000CE0145960E94F41207C00E94531BBE016F
:103970006B5E7F4F0E94EE1A882321F08EEF8093BA
:10398000E80003C081E28093EB006C960FB6F894D8
:10399000DEBF0FBECDBFDF91CF91FF91EF91BF9101
:1039A000AF919F918F917F916F915F914F913F91D7
:1039B0002F911F910F91FF90EF90DF90CF900F907C
:1039C0000FBE0F901F90189508951F920F920FB67B
:1039D0000F9211242F933F934F935F936F937F9395
:1039E0008F939F93AF93BF93EF93FF93E0911C014D
:1039F000F0911D010995FF91EF91BF91AF919F91BA
:103A00008F917F916F915F914F913F912F910F9087
:103A10000FBE0F901F9018951F920F920FB60F9226
:103A200011242F933F934F935F936F937F938F93C3
:103A30009F93AF93BF93EF93FF93E0911E01F0919B
:103A40001F010995FF91EF91BF91AF919F918F91C8
:103A50007F916F915F914F913F912F910F900FBE8A
:103A60000F901F9018951F920F920FB60F9211246E
:103A70002F933F934F935F936F937F938F939F9376
:103A8000AF93BF93EF93FF93E0912001F091210159
:103A90000995FF91EF91BF91AF919F918F917F9188
:103AA0006F915F914F913F912F910F900FBE0F90AB
:103AB0001F9018951F920F920FB60F9211242F93FB
:103AC0003F934F935F936F937F938F939F93AF93A6
:103AD000BF93EF93FF93E0912201F09123010995A9
:103AE000FF91EF91BF91AF919F918F917F916F91D6
:103AF0005F914F913F912F910F900FBE0F901F90AC
:103B000018951F920F920FB60F9211242F933F9387
:103B10004F935F936F937F938F939F93AF93BF93D5
:103B2000EF93FF93E0912401F09125010995FF9116
:103B3000EF91BF91AF919F918F917F916F915F9125
:103B40004F913F912F910F900FBE0F901F9018959E
:103B50001F920F920FB60F9211242F933F938F93C2
:103B60009F93AF93BF938091990490919A04A091F1
:103B70009B04B0919C043091980423E0230F2D37CF
:103B800020F40196A11DB11D05C026E8230F029661
:103B9000A11DB11D209398048093990490939A04D9
:103BA000A0939B04B0939C0480919D0490919E04EB
:103BB000A0919F04B091A0040196A11DB11D809316
:103BC0009D0490939E04A0939F04B093A004BF9182
:103BD000AF919F918F913F912F910F900FBE0F90BA
:103BE0001F9018953FB7F89480919D0490919E0482
:103BF000A0919F04B091A00426B5A89B05C02F3FBB
:103C000019F00196A11DB11D3FBFBA2FA92F982F02
:103C10008827820F911DA11DB11DBC01CD0142E07D
:103C2000660F771F881F991F4A95D1F708958F92C5
:103C30009F92AF92BF92CF92DF92EF92FF926B0171
:103C40007C010E94F21D4B015C01C114D104E1040E
:103C5000F10401F10E948E160E94F21DDC01CB01DD
:103C600088199909AA09BB09883E9340A105B105A5
:103C700060F321E0C21AD108E108F10888EE880E4D
:103C800083E0981EA11CB11CC114D104E104F1040D
:103C900019F7DBCFFF90EF90DF90CF90BF90AF9000
:103CA0009F908F9008958230910538F0880F991F6A
:103CB000880F991F05970197F1F70895789484B5B7
:103CC000826084BD84B5816084BD85B5826085BD18
:103CD00085B5816085BDEEE6F0E0808181608083FE
:103CE000E1E8F0E0108280818260808380818160E1
:103CF0008083E0E8F0E0808181608083E1E9F0E0AA
:103D0000808182608083808181608083E0E9F0E04F
:103D1000808181608083E1ECF0E080818460808339
:103D2000808182608083808181608083E3ECF0E029
:103D3000808181608083E0ECF0E08081826080831C
:103D4000E2ECF0E0808181608083EAE7F0E080814E
:103D500084608083808182608083808181608083B1
:103D6000808180688083089590E0FC013197EF3076
:103D7000F105B0F5EA5AFF4F0C94E43480918000CD
:103D80008F7703C0809180008F7D8093800008959D
:103D900080918000877FF9CF84B58F7702C084B58A
:103DA0008F7D84BD0895809190008F7707C08091AA
:103DB00090008F7D03C080919000877F809390005A
:103DC00008958091C0008F7703C08091C0008F7DDF
:103DD0008093C00008958091C200877F8093C200C5
:103DE0000895CF93DF9390E0FC01EF58FD4F2491AD
:103DF000FC01E057FD4F8491882361F190E0880F2A
:103E0000991FFC01E553FD4FC591D491FC01E3548A
:103E1000FD4FA591B491611109C09FB7F8948881B5
:103E2000209582238883EC912E230BC0623061F4AD
:103E30009FB7F8943881822F809583238883EC91F3
:103E40002E2B2C939FBF06C08FB7F894E8812E2BA2
:103E500028838FBFDF91CF9108951F93CF93DF9376
:103E6000282F30E0F901ED5AFD4F8491F901EF5808
:103E7000FD4FD491F901E057FD4FC491CC23C9F017
:103E8000162F81110E94B41EEC2FF0E0EE0FFF1FE1
:103E9000E354FD4FA591B4918FB7F894111105C06B
:103EA0009C91ED2FE095E92302C0EC91ED2BEC9372
:103EB0008FBFDF91CF911F9108954F925F926F92C4
:103EC0007F92AF92BF92CF92DF92EF92FF920F93C9
:103ED0001F93CF93DF93CDB7DEB729013A019B0142
:103EE000AC01241935094609570989899A89AB8992
:103EF000BC89BC01CD016A197B098C099D090E940E
:103F00005F34A801970124193509460957090E9411
:103F1000C534CA01B9016A0D7B1D8C1D9D1DDF9141
:103F2000CF911F910F91FF90EF90DF90CF90BF90B6
:103F3000AF907F906F905F904F900895DC01FB01F0
:103F400011961C921E9213961C921E921297159611
:103F50001C921E9214978081918111969C938E934E
:103F60008281938113969C938E931297848195817D
:103F700015969C938E93149711821082138212824D
:103F8000158214820895FC01808191810C948E35F4
:103F9000CF93DF93EC0188819981009711F00E9403
:103FA0008E35198218821D821C821B821A82DF9133
:103FB000CF9108950F931F93CF93DF93EC018B0163
:103FC0006F5F7F4F888199810E942636009731F07C
:103FD000998388831B830A8381E001C080E0DF919D
:103FE000CF911F910F910895CF93DF93EC018881BA
:103FF0009981892B29F08A819B818617970760F424
:10400000CE010E94DA1F882341F08C819D81892B8B
:1040100019F4E881F981108281E0DF91CF91089550
:10402000EF92FF920F931F93CF93DF93EC017B01ED
:104030008A01BA010E94F41F811104C0CE010E94BE
:10404000C81F07C01D830C83B701888199810E9416
:104050000837CE01DF91CF911F910F91FF90EF9024
:104060000895FC011182108213821282158214823B
:104070006115710551F0FB0101900020E9F73197BE
:10408000AF01461B570B0C9410200895EF92FF923E
:104090000F931F93CF93DF93EC017B018A01BA0149
:1040A0000E94F41F811104C0CE010E94C81F07C0E6
:1040B0001D830C83B701888199810E94EF36CE0160
:1040C000DF91CF911F910F91FF90EF900895CF93C3
:1040D000DF93EC01FB018617970761F06081718126
:1040E0006115710529F0448155810E94102002C09C
:1040F0000E94C81FCE01DF91CF910895FC0111826B
:10410000108213821282158214820C946720CF933E
:10411000DF93EC016115710559F0FB01019000205E
:10412000E9F73197AF01461B570B0E94102002C0E0
:104130000E94C81FCE01DF91CF910895CF93DF93E6
:1041400000D0CDB7DEB7FC0111821082138212823B
:104150001582148269831A82BE016F5F7F4F0E94AD
:1041600087200F900F90DF91CF9108950F931F93A9
:10417000CF93DF9300D0CDB7DEB78C016115710509
:1041800061F0CB0169837A830E94F636AC016981C4
:104190007A81C8010E94462002C00E94C81FC8013F
:1041A0000F900F90DF91CF911F910F910895FC0117
:1041B0001182108213821282158214820C94B6200E
:1041C000EF92FF920F931F93CF93DF93FC01248113
:1041D00035816115710511F480E019C04115510553
:1041E000A9F07B01EC018A01020F131FB8010E94A4
:1041F000F41F882389F3288139818C819D81B7013F
:10420000820F931F0E9408371D830C8381E0DF918A
:10421000CF911F910F91FF90EF900895CF93DF936F
:1042200000D0CDB7DEB769831A8241E050E0BE010D
:104230006F5F7F4F0E94E0200F900F90DF91CF9132
:104240000895CF93DF93EC01FB0144815581608198
:1042500071810E94E020811103C0CE010E94C81F1D
:10426000CE01DF91CF9108952091A4053091A5054D
:1042700028173907B9F49091620580916305981762
:1042800089F0E0916205F0E0EC59FA4F80812091CD
:10429000620530E02F5F3F4F2F7333272093620575
:1042A00090E008958FEF9FEF08951F93CF93DF93D2
:1042B000DC015C962D913C915D972115310539F417
:1042C00081E090E013969C938E9312973DC0519697
:1042D000ED91FC91529750969C915097892F809523
:1042E0001FB75E964C915E9741FB772770F941FDB1
:1042F0006095F8944081772311F0492B01C0482341
:104300004083E9012197F1F748E0508160FF02C046
:10431000592B01C058235083E9012197F1F7669585
:10432000415099F7772321F090818923808303C03E
:104330008081982B90831FBF5C968D919C915D9797
:104340000197F1F721E030E0C901DF91CF911F9192
:10435000089508952091A4053091A50528173907DF
:1043600071F49091620580916305981741F0E09196
:104370006205F0E0EC59FA4F808190E008958FEFEC
:104380009FEF089580913F0590E020914005821BAA
:10439000910908959091400580913F05981750F438
:1043A000E92FF0E0EF5BFA4F208130E09F5F9093C0
:1043B000400502C02FEF3FEFC9010895E09140058D
:1043C00080913F05E81730F4F0E0EF5BFA4F808111
:1043D00090E008958FEF9FEF089508952091A40530
:1043E0003091A5052817390771F480916305209154
:1043F000620590E0805C9F4F821B910960E470E051
:104400000E948F34089580E090E008951F920F92EB
:104410000FB60F9211242F933F934F935F936F9397
:104420007F938F939F93AF93BF93EF93FF9380916D
:10443000A70587FF05C010929500109294001BC03D
:104440002091A705332727FD30958091A60590E0A0
:104450002817390784F48091A705992787FD90953F
:10446000FC01EE0FFF1F8E0F9F1FFC01E855FA4F56
:10447000808186FD15C08091A7058F5F8093A70579
:104480002091A705332727FD30958091A60590E060
:1044900028173907C4F48091A7058C3064F113C044
:1044A0008091A705992787FD9095FC01EE0FFF1FCE
:1044B0008E0F9F1FFC01E855FA4F808160E08F73DB
:1044C0000E942D1FD8CF8091940090919500049662
:1044D00080349C4918F480E49CE905C080919400E4
:1044E00090919500049690939900809398008FEF97
:1044F0008093A7053BC02091940030919500809156
:10450000A705992787FD9095FC01EE0FFF1F8E0FE1
:104510009F1FFC01E855FA4F81819281820F931F02
:1045200090939900809398008091A705992787FD23
:104530009095FC01EE0FFF1F8E0F9F1FFC01E855A9
:10454000FA4F808186FF12C08091A705992787FDC9
:104550009095FC01EE0FFF1F8E0F9F1FFC01E85589
:10456000FA4F808161E08F730E942D1FFF91EF91C0
:10457000BF91AF919F918F917F916F915F914F917B
:104580003F912F910F900FBE0F901F901895FC0137
:104590009091A6059C30A0F481E0890F8093A60538
:1045A0009083892F90E0FC01EE0FFF1F8E0F9F1F5D
:1045B000FC01E855FA4F88EB9BE0928381830895D4
:1045C0008FEF80830895DF92EF92FF920F931F93F6
:1045D000CF93DF93EC01D62E7A01890188818C304C
:1045E00008F067C061E08D2D0E94F11E8881E82FE0
:1045F000F0E09F01220F331FE20FF31FE855FA4F3F
:104600009D2D9F732081207CD22ED92AD08260E2FA
:1046100072E0AB014E195F0957FF02C04D5F5F4F5B
:104620005595479555954795498340E659E09A0138
:10463000201B310B37FF02C02D5F3F4F359527956B
:10464000359527952A836CE00E946F349CE0899F02
:10465000B001112440E050E09A01260F371FF90104
:10466000EE0FFF1F2E0F3F1FF901E855FA4F908103
:1046700096FD13C04F5F5F4F4C30510569F78111B4
:104680000CC01092900082E08093910010929500EF
:104690001092940088BB80937100E881F0E0CF0114
:1046A000880F991FE80FF91FE855FA4F8081806441
:1046B00080838881DF91CF911F910F91FF90EF90C0
:1046C000DF90089520E639E040E252E00C94E322C6
:1046D000DC01EC91F0E0CF01880F991FE80FF91F82
:1046E000E855FA4F80818F7B80830895FC0190818B
:1046F0009C3080F5818128E830E0281B310987FD56
:104700003395220F331F220F331F621773077CF07C
:10471000828128E532E0281B310987FD3395220F7D
:10472000331F220F331F621773070CF49B012250B3
:104730003109220F331F4FB7F894892F90E0FC0105
:10474000EE0FFF1F8E0F9F1FFC01E855FA4F3283BB
:1047500021834FBF0895AF92BF92CF92DF92EF9225
:10476000FF920F931F93CF93DF93EC01603282E0AF
:1047700078070CF03FC077FD06C0653B71052CF053
:1047800064EB70E002C060E070E0898128E830E00E
:104790005901A81AB10887FDB394AA0CBB1CAA0C36
:1047A000BB1CCC24B7FCC094DC2C882777FD8095FB
:1047B000982F2A8108E512E0021B110927FD1395A5
:1047C000000F111F000F111F222717FD2095322FF8
:1047D0003F932F931F930F9314EBE12EF12C00E0E6
:1047E00010E020E030E0A9010E945D1F0F900F90C3
:1047F0000F900F90CE01DF91CF911F910F91FF90FD
:10480000EF90DF90CF90BF90AF900C947623E09123
:10481000A405F091A505E817F90769F4A389B489FF
:104820009C918589809589238C931092A50510927F
:10483000A40581E0089580E00895CF93DF93EC0113
:104840008A8D9B8D892BF1F08091A4059091A5050F
:104850008C179D07B9F0009711F00E9407248E8DE8
:104860008E7F8E8F1092630510926205D093A505FE
:10487000C093A405EB89FC8990818D89892B808365
:1048800081E001C080E0DF91CF9108951F920F92E7
:104890000FB60F9211242F933F934F935F936F9313
:1048A0007F938F939F93AF93BF93EF93FF93E09189
:1048B000A405F091A505309709F451C0968DA68501
:1048C000B785858591FF04C09C91892329F447C051
:1048D0009C91892309F043C0A389B4899C9185895F
:1048E000809589238C93868997890197F1F7608D4C
:1048F000718DA685B785558538E020E0CB010197FD
:10490000F1F7822F90E095958795282F4C914523BC
:1049100009F02068315091F7868D81FD20958091B6
:10492000630590E001968F739927309162053817DF
:1049300049F0A0916305B0E0AC59BA4F2C93809335
:10494000630503C0868D8160868F828D938D01976C
:10495000F1F7A389B4899C918589892B8C93FF9168
:10496000EF91BF91AF919F918F917F916F915F91E7
:104970004F913F912F910F900FBE0F901F90189560
:1049800020EC31E0FC01318320830C9407241F9339
:10499000CF93DF93EC01162F6E8D6695617081E0E9
:1049A0006827812F0E942D1F61E0812F0E94F11E38
:1049B000612F70E0FB01EF58FD4FE491E88BFB01A4
:1049C000E057FD4FE491F0E0EE0FFF1FE354FD4F81
:1049D000859194919A8B898BDF91CF911F91089546
:1049E0001F93CF93DF93EC01162F60E0812F0E947D
:1049F000F11E8E8D81FD04C061E0812F0E942D1F6C
:104A00001C87612F70E0FB01EF58FD4FE491ED87AB
:104A1000FB01E057FD4FE491F0E0EE0FFF1FE15581
:104A2000FD4F859194919F878E87DF91CF911F9144
:104A300008951F93CF93DF93EC01162F1B821A82E8
:104A400088EE93E0A0E0B0E08C839D83AE83BF83CB
:104A500080EC91E0998388831F8A1E8A198E188EB4
:104A60001B8E1A8E1D8E1C8E8E8D8E7F20FB81F9E3
:104A70008E8F642FCE010E94C724612FCE01DF915B
:104A8000CF911F910C94F024CF93DF93EC019A0106
:104A9000AB011B8E1A8E198E188E1F8A1E8A60E03B
:104AA00079E08DE390E00E94C534F90124303105AE
:104AB00018F0C901039702C081E090E09D8F8C8FB0
:104AC0008C8598EF980F943048F062EF680F64304F
:104AD00028F066EE680F633008F071C0B901769572
:104AE00067956431710518F06351710902C061E086
:104AF00070E07F8B6E8B369720F0B901655071099D
:104B000002C061E070E0798F688FB901660F771F8E
:104B1000260F371F36952795369527952D30310569
:104B200018F02C50310902C021E030E03B8F2A8F71
:104B3000943058F092EF980F943038F08A518330C7
:104B400008F442C0A0E0B0E041C0A8E6B0E0E8E66A
:104B5000F0E0808181608C938C8598EF980F943081
:104B600058F022EF280F243038F026EE280F23309B
:104B700018F020E030E002C02BE630E03C8B2B8BBD
:104B8000943010F4845009C08E3069F08F3069F091
:104B9000803169F0813169F0865191E001C0990F4F
:104BA0008A95EAF707C098E005C092E003C094E058
:104BB00001C091E09D8B8C8D9D8D0197F1F7CE0109
:104BC000DF91CF910C941D24A8E6B0E0833008F467
:104BD000BECFE0E0F0E0BDCFCF93CFB7F8948091A7
:104BE0006105811127C0E1EAF2E08491E2E8F2E098
:104BF0009491E82FF0E0EE0FFF1FE553FD4FA591D4
:104C0000B491EC91E92321F461E081E10E942D1F30
:104C100061E081E10E94F11E8CB580618CBD8CB594
:104C200080648CBD61E08FE00E94F11E61E080E154
:104C30000E94F11E809161058F5F80936105CFBF57
:104C4000CF910895FC011382128288EE93E0A0E0D8
:104C5000B0E084839583A683B78380ED91E0918350
:104C60008083089581E080931B0560933E05109238
:104C70001D0510921C05089510920E0581E0809389
:104C80000C0510920B0561E082E00E942D1F61E08F
:104C900083E00E942D1FE9EBF0E080818E7F80830E
:104CA00080818D7F808388E48093B80085E4809341
:104CB000BC0008951092400510923F0510921D050A
:104CC00010921C050C943C260F934132E8F590910C
:104CD0000E059111FCCF32E030930E0500930C05C8
:104CE0003FEF3093A1041092E6044093E504FB01EA
:104CF00067EE74E0DB013A2F361B341718F431915C
:104D00003D93F9CF10920D0530910D05880F832B3F
:104D100080930D0580910B05813061F410920B0595
:104D200080910D058093BB008091BC0083FDF8CF7E
:104D300085EC01C085EE8093BC00222339F0809180
:104D40000E05823019F4F9CF91E011C08091A104D1
:104D50008F3F69F08091A104803231F08091A104ED
:104D6000803321F094E003C092E001C093E0892FEA
:104D70000F9108950F93062F21E040911C056EE1DD
:104D800075E080913E050E94642610921D051092E8
:104D90001C0510921B050F91089561E00C94BA2632
:104DA000613298F420910E05243089F46093C30495
:104DB000FC0125EC34E0D9018A2F821B861718F4F8
:104DC00081918D93F9CF80E0089581E0089582E08C
:104DD0000895CF93DF931F92CDB7DEB769832091FB
:104DE0001B052223D1F020911C05203240F021E048
:104DF00030E0FC013383228380E090E015C0809195
:104E00001D05E82FF0E0E25EFA4F998190838F5FF5
:104E100080931D0580931C0505C061E0CE010196BD
:104E20000E94D02681E090E00F90DF91CF9108950D
:104E3000CF92DF92EF92FF920F931F93CF93DF9366
:104E40007C01262F972F8A0180911B05882391F0E2
:104E5000C62FD72F6E01C40ED51ECC15DD0571F0FF
:104E60006991D701ED91FC910190F081E02DC7018E
:104E70000995F3CF642F822F0E94D026C801DF91BD
:104E8000CF911F910F91FF90EF90DF90CF900895F9
:104E900085ED8093BC008091BC0084FDFCCF109216
:104EA0000E05089585EC8093BC0010920E050895C0
:104EB0001F920F920FB60F9211242F933F934F938F
:104EC0005F936F937F938F939F93AF93BF93EF9372
:104ED000FF938091B900887F803609F49EC078F5F1
:104EE000883209F45DC090F4803109F456C038F47A
:104EF000882309F4F5C0883009F44FC0F5C0883123
:104F000009F44EC0803209F45FC0EEC0803409F469
:104F10006AC058F4803309F457C0883309F0E4C0FC
:104F20008093A1040E945227DFC0803509F44FC04E
:104F3000883509F45DC0883409F0D6C0D3C08839FB
:104F400009F4C4C0A8F4883709F467C038F4883677
:104F500009F463C0803709F460C0C6C0883809F41A
:104F6000B5C0803909F45FC0803809F0BDC05BC0AE
:104F7000803B09F483C038F4803A09F466C0883A6B
:104F800009F47CC0B1C0803C09F4A4C0883C09F499
:104F9000A1C0883B09F487C0A7C080910D0510C04F
:104FA0009091E6048091E504981770F5E091E6048D
:104FB00081E08E0F8093E604F0E0E951FB4F8081A1
:104FC0008093BB0085EC83C08093A1048BC0E091EB
:104FD000E60481E08E0F8093E6048091BB00F0E050
:104FE000E951FB4F80839091E6048091E5046BC00A
:104FF000E091E60481E08E0F8093E6048091BB008F
:10500000F0E0E951FB4F808380910C0581116AC06B
:1050100081E080930B0584EA5EC083E080930E05F7
:105020001092A204CFCF8091A204803208F04EC02B
:10503000E091A20481E08E0F8093A2048091BB00D6
:10504000F0E0ED55FB4F8083BDCF0E945227809149
:10505000A204803230F4E091A204F0E0ED55FB4F61
:1050600010826091A20470E0E0910705F0910805BC
:1050700083EA94E009951092A20436C084E08093FC
:105080000E051092C4041092C304E0910905F0913A
:105090000A0509958091C304811105C081E08093C0
:1050A000C3041092C504E091C40481E08E0F809384
:1050B000C404F0E0EB53FB4F80818093BB009091E0
:1050C000C4048091C304981708F47CCF85E88093CA
:1050D000BC000AC085EC8093BC0010920E0504C091
:1050E0001092A1040E944827FF91EF91BF91AF91C8
:1050F0009F918F917F916F915F914F913F912F91F0
:105100000F900FBE0F901F9018958FE095E00C94B4
:1051100022268091FC059091FD05892B49F481E0C0
:1051200090E09093FD058093FC0540E064E606C0A6
:105130001092FD051092FC0540E060E081E10C94C6
:10514000940D0F931F93CF93DF931F92CDB7DEB7CC
:105150008C0169830E9443376981681741F0C80157
:105160000F90DF91CF911F910F910C944B370F90BF
:10517000DF91CF911F910F910895CF93DF9300D0CE
:1051800000D0CDB7DEB7DC0112963C91129739837F
:105190006A834B832C83ED91FC910190F081E02D8B
:1051A00044E050E0BE016F5F7F4F09950F900F9074
:1051B0000F900F90DF91CF910895FC01128220E0B3
:1051C00040E060E00C94BD28CF93DF93EC016A834C
:1051D00020E040E060E00E94BD281A8220E040E02C
:1051E00060E0CE01DF91CF910C94BD28CF93DF9387
:1051F000EC01E881F9810480F581E02D0995E881D1
:10520000F9810680F781E02DCE01DF91CF910994DD
:105210000F931F93CF93DF93EC01E881F981008412
:10522000F185E02D41E009958C01892B39F0E88169
:10523000F9810680F781E02DCE010995C801DF9143
:10524000CF911F910F9108950F931F93CF93DF93E9
:10525000EC01E881F9810480F581E02D09958C014C
:10526000892B39F0E881F9810680F781E02DCE01A4
:105270000995C801DF91CF911F910F910895803852
:1052800039F421E030E03093FB052093FA0511C09A
:10529000823839F421E030E03093F9052093F805A5
:1052A00008C0823331F421E030E03093F7052093D9
:1052B000F6052091FA053091FB0521303105A9F45E
:1052C0004091F8055091F9054130510509F022C18E
:1052D0004091F6055091F7054130510509F01AC18A
:1052E0003093E5052093E40515C1813839F441E098
:1052F00050E05093F5054093F4052AC0893DE1F450
:1053000041E050E05093F3054093F2052130310520
:10531000F9F44091F4055091F5054130510529F516
:105320004091F2055091F30541305105F1F450934D
:10533000E1054093E00519C02130310551F38A3D64
:1053400009F066C041E050E05093F1054093F0054C
:105350002130310509F084C04091F8055091F905DC
:105360004130510509F0A2C02CC08A3D31F441E022
:1053700050E05093F1054093F0054091F4055091B1
:10538000F5054130510551F1843351F441E050E0CD
:105390005093EF054093EE052130310509F044C0EC
:1053A0004091F8055091F9054130510509F078C058
:1053B0004091EE055091EF0541305105D9F085330C
:1053C00001F14091EC055091ED054130510509F096
:1053D000B5C05093E1054093E00565C04091F005EC
:1053E0005091F1054130510579F65093E305409312
:1053F000E205CACF5093DF054093DE05853309F0FF
:10540000ABCF41E050E05093ED054093EC05A4CFC5
:10541000843309F4BBCF853309F09ACF41E050E0E3
:105420005093ED054093EC052130310509F08AC019
:105430004091F8055091F9054130510509F082C0BD
:1054400002C08833C1F14091E8055091E90541302F
:10545000510509F07AC05093D7054093D60534C062
:10546000873309F061C041E050E05093EB05409371
:10547000EA052130310509F06BC04091F8055091E3
:10548000F90541305105F1F44091EA055091EB05E1
:1054900041305105B1F65093D9054093D80508C065
:1054A000853309F4AECF873341F7DDCF8733D9F2A7
:1054B000883309F0BDCF41E050E05093E9054093B7
:1054C000E805B6CF8833B9F3893349F441E050E0B9
:1054D0005093E7054093E60521303105C9F5209149
:1054E000F8053091F9052130310559F42091E60590
:1054F0003091E7052130310521F43093D505209313
:10550000D405853829F581E090E09093CF0580930C
:10551000CE050895813809F0F1CE41E050E0509376
:10552000F5054093F405FCCE883309F07DCF81E08A
:1055300090E09093E9058093E8050895873309F09A
:10554000A3CF91CF8933E9F6C1CF893379F6BECFA6
:105550000895CF93DF93803829F41092FB051092C1
:10556000FA050DC0823829F41092F9051092F80559
:1055700006C0823321F41092F7051092F6052091AF
:10558000FA053091FB052115310509F0A8C04091BD
:10559000F8055091F905452B09F0CEC24091F6056A
:1055A0005091F705452B09F0C7C24091E405509191
:1055B000E5054130510509F0BFC21092E505109292
:1055C000E40560EE87EF91E00E94082964E670E050
:1055D00080E090E00E94171E62EE87EF91E00E944B
:1055E000082964E670E080E090E00E94171E6CE4F9
:1055F00087EF91E00E94082964E670E080E090E087
:105600000E94171E87EF91E00E94242980E896E00F
:105610000E94FF0560EB74E080E896E00E94D116DE
:1056200041E060E080E896E00E94060660EA74E0EF
:1056300080E896E00E94D116289A61E085E00E94F9
:105640002D1F60E971E080E090E00E94171E60E08D
:1056500085E00E942D1F60E971E080E090E00E94EB
:10566000171E61E085E00E942D1F60E971E080E077
:1056700090E00E94171E60E085E00E942D1F60E907
:1056800071E080E090E00E94171E61E085E00E94DA
:105690002D1F60E971E080E090E00E94171E60E03D
:1056A00085E00E942D1F60E971E080E090E00E949B
:1056B000171E61E085E00E942D1F60E971E080E027
:1056C00090E00E94171E60E085E00E942D1F60E9B7
:1056D00071E080E090E0DF91CF910C94171E81384B
:1056E00029F41092F5051092F40551C0893DB1F4EA
:1056F0001092F3051092F2052115310509F047C00B
:105700004091F4055091F505452B09F025C24091D3
:10571000F2055091F305452B29F044C021153105C0
:1057200079F32EC04091E0055091E10541305105DB
:10573000C9F51092E1051092E00582EE91E00E9419
:10574000DD2887EF91E00E94F62880E896E00E942D
:10575000FF0562E974E080E896E00E94D11642E01D
:1057600060E080E896E00E9406066AE874E080E85F
:1057700096E00E94D1161092DB051092DA0560C205
:105780008A3D09F06AC11092F1051092F0052115C9
:10579000310509F071C14091F8055091F905452B8B
:1057A00049F17CC08A3D21F41092F1051092F00578
:1057B0004091F4055091F505452B09F4D4C084338C
:1057C00041F41092EF051092EE052115310509F014
:1057D0004EC14091F8055091F905452B09F0C0C123
:1057E0004091EE055091EF05452B09F4F2C0853349
:1057F00009F4B8C14091EC055091ED05452B09F035
:10580000BAC14091E0055091E1054130510509F0E0
:10581000B2C11092E1051092E0051092DB051092E2
:10582000DA051092DD051092DC0580E896E00E9412
:10583000FF056BE174E080E896E00E94D11641E03C
:1058400060E080E896E00E94060661E174E080E88E
:1058500096E00E94D11667E070E087E796E00E942C
:10586000622368E070E084E796E00E94622360E0D3
:1058700070E087E796E00E94AB2360E070E084E789
:1058800096E00E94AB2368EE73E080E090E00E9417
:10589000171E87E796E00E9468235FC0873309F4EC
:1058A000EEC0883321F41092E9051092E80540918A
:1058B000F8055091F905452B09F0B0C14091E80574
:1058C0005091E905452B09F0B7C14091D60550919B
:1058D000D7054130510509F0AFC11092D70510929C
:1058E000D60580E896E00E94FF0563EE73E080E84D
:1058F00096E00E94D11641E060E080E896E00E94C8
:10590000060664ED73E080E896E00E94D11668E038
:1059100070E084E796E00E94622381E090E00E94BC
:105920004337682F70E084E796E00E94AB236091D4
:105930003A0170913B01882777FD8095982F0E944E
:10594000171E60E070E084E796E00E94AB2368EEEB
:1059500073E080E090E00E94171E84E796E0DF91FC
:10596000CF910C9468234091F0055091F105452B9F
:1059700009F025CFC091E205D091E305C130D105F2
:1059800009F01DCF1092E3051092E20587EF91E038
:105990000E94242982EE91E00E94DD2880E896E0B2
:1059A0000E94FF056FE774E080E896E00E94D11640
:1059B00042E060E080E896E00E94060667E774E057
:1059C00080E896E00E94D116D093DB05C093DA05FB
:1059D00037C14091DE055091DF054130510509F096
:1059E00006CF1092DF051092DE051092DB051092B3
:1059F000DA055093DD054093DC0580E896E00E94CF
:105A0000FF0565E674E080E896E00E94D11641E06B
:105A100060E080E896E00E94060660E574E080E8B9
:105A200096E00E94D11642E060E080E896E00E9495
:105A300006066FE374E080E896E00E94D11643E02A
:105A400060E080E896E00E9406066DE274E080E87F
:105A500096E0DF91CF910C94D116843309F4B1CE46
:105A6000853309F094CE1092ED051092EC052115C6
:105A7000310509F41CCFD2C0873309F065C01092FC
:105A8000EB051092EA052115310509F0D9C04091C6
:105A9000F8055091F905452B09F071C04091EA05D0
:105AA0005091EB05452B09F0C3C04091D8055091AA
:105AB000D9054130510509F0BBC01092D9051092AB
:105AC000D80580E896E00E94FF0563E074E080E876
:105AD00096E00E94D11641E060E080E896E00E94E6
