:100000000C946A030C94211D0C94481D0C946F1DD4
:100010000C94961D0C9492030C9492030C94BD1DA9
:100020000C9492030C9482240C94231A0C94B91B04
:100030000C9492030C9492030C9492030C949203EC
:100040000C9492030C9492030C9492030C949203DC
:100050000C94600E0C9492030C9492030C94E41D87
:100060000C9492030C9490140C94C2140C9492036C
:100070000C9492030C9492030C9492030C949203AC
:100080000C9442220C9492030C9492030C949203CD
:100090000C9494270C9492030C948F0C0C94920360
:1000A0000C9492030C9492030C949203081F0B1F60
:1000B000FA1EFE1E041F2C1F2C1F2C1F0F1F131FA8
:1000C000171F1D1F211F2C1F271F05010902A1013A
:1000D00085010509190129081500250195087501F3
:1000E000810205010930093109381581257F75081C
:1000F00095038106C005010906A101050719E0293C
:10010000E715002501750195088102050C9501751B
:1001100008150026FF00190029FF810005081901B4
:1001200029089508750191020507950675081500BF
:1001300026E700190029E78100C000000000000048
:1001400000002A2B28000000000000000000000032
:10015000000000000000000000002C9EB4A0A1A23E
:10016000A434A6A7A5AE362D3738271E1F2021227E
:1001700023242526B333B62EB7B89F848586878877
:10018000898A8B8C8D8E8F90919293949596979867
:10019000999A9B9C9D2F3130A3AD35040506070825
:1001A000090A0B0C0D0E0F10111213141516171847
:1001B000191A1B1C1DAFB1B0B5001112131415167E
:1001C0000A0B0C0D0E0F0001020304052D464149D8
:1001D0004C2D00080B00020202010009040000017E
:1001E000020200000524001001052401010104247D
:1001F00002060524060001070581031000400904DA
:100200000100020A00000007050202400000070585
:10021000830240000012010002EF0201404F1B0662
:100220009200010102030112010002000000404F90
:100230001B0692000101020301537061726B467547
:100240006E0055534220494F20426F617264000492
:100250000309040000000200090F0000030401006C
:100260000C00000000000000000000000000000082
:1002700000040802011040804010204080408008A7
:100280000204018040201002011080102040402014
:10029000040404040403040502020202040302022B
:1002A0000202060606060606040402020204040010
:1002B0000000002300260029002C002F0000000071
:1002C00000250028002B002E003100000000002433
:1002D0000027002A002D003000436C69636B2072F8
:1002E0006967687400436C69636B206C65667400B1
:1002F0004D6F757365207269676874004D6F757313
:1003000065206C656674004D6F75736520646F774A
:100310006E004D6F75736520757000746F204545D4
:1003200050524F4D00506F736974696F6E73207334
:100330006176656400536572766F20706F73206913
:10034000733A2000536572766F20706F7765722064
:100350006F757400536572766F20706F73206973C8
:100360003A2000536572766F20706F77657220694E
:100370006E00536572766F20706F732069733A2038
:1003800000536572766F207265736574206F7574A3
:1003900000536572766F20706F732069733A200086
:1003A000536572766F20726573657420696E2E00D6
:1003B0004B65793A2000636F6D7075746572206EBD
:1003C0006F772E00506F776572696E67206F6E20B1
:1003D00074686500636F6D7075746572206E6F77F9
:1003E000212100506F776572696E67206F66662005
:1003F00074686500636F6D7075746572206E6F77D9
:10040000212100526573657474696E672074686594
:100410000064697361626C65642E00536572766F67
:100420002061646A757374206D6F64650053706138
:1004300063652062617220746F207365742E006B97
:1004400065797320746F206D6F766520616E64002E
:10045000656E61626C65642E2050726573732061F5
:1004600072726F7700536572766F2061646A75737C
:1004700074206D6F646500656E61626C6564004D2B
:100480006F757365206D6F646500656E61626C6584
:1004900064004B6579626F617264206D6F64650002
:1004A0004354524C2B414C542B44454C455445002D
:1004B00053656E740053797374656D207265616461
:1004C000792121003A006F72207761697420746588
:1004D0006E207365636F6E64730050726573732072
:1004E00061206B657920746F20626567696E0053C7
:1004F000656E64696E67206661696C65642E00478D
:100500006F7420726573706F6E73653A2000476F69
:100510007420626C616E6B20726573706F6E7365B0
:100520002E0053656E742064617461206D61796280
:10053000650053656E64696E67206461746100458F
:100540006E6372797074656420646174613A004509
:100550006E63727970746564206C656E6774683A56
:10056000002A2A526164696F20636865636B212ADF
:100570002A00526174652069733A2000506F7765D4
:10058000722069733A20004368616E6E656C206961
:10059000733A2000436865636B696E672074686511
:1005A00020726164696F0053657475702069733AD5
:1005B000200043727970742050617373776F726496
:1005C00000000132464764280708090A0B0C0D0E8B
:1005D0000F101112131415161718191A1B1C1D1EB3
:1005E0001F2C2122232425263428292A2B362D3777
:1005F00038271E1F202122232425263A333C2E3E55
:100600003F404142434445464748494A4B4C4D4E82
:100610004F505152535455565758595A2F31305EF6
:100620005F350405060708090A0B0C0D0E0F1011A3
:1006300012131415161718191A1B1C1D7B7C7D7EAE
:100640007FE0E1E2E3E4E5E6E788898A8B8C8D8E42
:100650008F909192939495969798999A9B9C9D9E32
:100660009FA0A1A2A3A4A5A6A7A8A9AAABACADAE22
:10067000AF28292A2BB4B5B6B7B8B9BABBBCBDBE32
:10068000BFC0393A3B3C3D3E3F404142434445CEEA
:10069000CFD0D14A4B4C4D4E4F505152DBDCDDDEBA
:1006A000DFE0E1E2E3E4E5E6E7E8E9EAEBECEDEEE2
:1006B000EFF0F1F2F3F4F5F6F7F8F9FAFBFCFDFED2
:1006C000FF00C8037805C512B513F214AB16C12894
:1006D000692E9F2E11241FBECFEFDAE0DEBFCDBF03
:1006E00011E0A0E0B1E0EAEEFFE602C005900D9255
:1006F000AA3FB107D9F716E0AAEFB1E001C01D92F9
:10070000AA3DB107E1F713E0C9E6D3E004C02197A1
:10071000FE010E942C35C136D107C9F70E94B716D9
:100720000C94E8370C9400000F931F93CF93DF9342
:10073000EB018A010E945B169801AE0161E0DF9136
:10074000CF911F910F910C940716FC01128225E4A2
:1007500031E03183208380910302811113C0109214
:10076000FB011092FA018AEC90E09093FD018093D6
:10077000FC018BE290E09093FF018093FE0181E009
:10078000809303020E945B166AEF71E00C94EA15F5
:1007900080E092E00C94A503FC0182818F5BFB0159
:1007A000808381E00895FC0134969C01245F3F4FD3
:1007B00080E090E04081411101961192E217F30729
:1007C000C9F70895CF93DF93CDB7DEB769970FB61A
:1007D000F894DEBF0FBECDBFFC01DB019C919F5F93
:1007E0009C93BE016F5F7F4F89E1DB011D928A956B
:1007F000E9F729E0298384E08A8391E09D8383E0FF
:100800008E839F8398872A8721E22B879C879D87E9
:100810009F8722E2288B25E4298B27E02B8B25E07C
:100820002C8B8E8B20E430E0388F2F8B998F828138
:100830008B83838180688D8B49E150E080E00E944A
:10084000BF1969960FB6F894DEBF0FBECDBFDF911A
:10085000CF910895BC01625F7F4FFC01838148E026
:1008600050E080640C9427190A970C942A04FC0128
:1008700020E2260F2830F0F0DC01169620E030E070
:100880008D91442349F0861304C0E20FF31F668361
:1008900026C0811107C0F9CF861304C0E20FF31FF1
:1008A00016821DC02F5F3F4F2630310549F780E08B
:1008B00090E008953481442349F081E090E001C044
:1008C000880F2A95EAF7832B848309C041E050E022
:1008D00001C0440F2A95EAF740954323448381E001
:1008E00090E00895FB0120812138B9F42381223260
:1008F000A1F4DC0112962C91129730E044815581CD
:100900004217530751F421E057962C9345E450E0E9
:1009100065EF70E080E80C94BF1980E090E00895E6
:10092000CF93DF93EC01FB018A8190E02481358134
:100930008217930709F04AC081819081913A69F446
:10094000813009F441C0833011F48F8903C08230B3
:10095000E9F5888D8093F10037C09132B9F58B307D
:1009600019F482818F8B30C08A3019F48281888F8C
:100970002BC0893059F5668177818381833079F482
:100980008C8D9D8D6817790709F58A8D9B8D0E9446
:10099000E6198C8D9D8D90689D8F8C8F15C082304F
:1009A00041F46130710591F461E070E0CE01499647
:1009B00009C0813059F46830710541F468E070E095
:1009C000CE010E960E94E61981E001C080E0DF9121
:1009D000CF910895EF92FF920F931F93CF93DF93E0
:1009E000E62FF0E0E038F10540F021E030E0DC01F6
:1009F00013963C932E93129722C0D42F7C01E65C71
:100A0000FE4FC4916C2F6F77DC01ED91FC91008457
:100A1000F185E02D09958C01C7FF13C0892B11F4D6
:100A2000D1110DC0D701ED91FC910084F185E02D2D
:100A30004D2F61EEC7010995802B912B02C080E0FC
:100A400090E0DF91CF911F910F91FF90EF9008956B
:100A5000FF920F931F93CF93DF93EC01F62E41E0AB
:100A60000E94EA048C01892BA9F0E881F9810680B3
:100A7000F781E02DCE01099540E06F2DCE010E9457
:100A8000EA04892B39F0E881F9810680F781E02DAD
:100A9000CE010995C801DF91CF911F910F91FF9071
:100AA0000895CF93DF93EC0181E08C838D839E01C9
:100AB0002A5E3F4F3F832E83198618861D861C862B
:100AC0002BE431E03983288329E531E03B872A870D
:100AD0008F8B888F198E1B8E1A8E1D8E1C8E81EC2B
:100AE0008E8B0E948F1BBE01DF91CF910C94481B0F
:100AF0008BE092E00C945105FC0112828FEF818310
:100B0000108213820895FC018381882331F06111E2
:100B100003C08FEF81830895118208958DE295E0DF
:100B20000E946E268DE295E00E94092791E08111D6
:100B300090E0892F0895CF93DF93EC016A838DE2D3
:100B400095E00E9496266A81CE010E948E058B83D5
:100B5000882329F08DE295E00E94062288838B810C
:100B600090E0DF91CF910895CF93DF93FC01238133
:100B70002223B1F0EC01818180956823608362813A
:100B80008DE295E00E946E2668818DE295E00E94DC
:100B900025278DE295E00E940927282F30E002C02A
:100BA00020E030E081E090E0232B11F080E090E045
:100BB000DF91CF91089508950895DC01ED91FC91A6
:100BC0000284F385E02D41E0099581E090E00895ED
:100BD000FC011382128227E631E0318320830895DD
:100BE000DC01ED91FC910084F185E02D6FEF09941B
:100BF000DC01ED91FC910284F385E02D40E0099445
:100C000061E00E94F80580ED97E00C948F1ECF9371
:100C1000DF93CDB7DEB728970FB6F894DEBF0FBECF
:100C2000CDBFFC011D8280E48E8394E19F8394E517
:100C3000988719828A8380E18B8380E58C83878102
:100C4000481710F04FEF480F908550E0DE01A40FD9
:100C5000B51F903129F4843019F411969C9102C08B
:100C600015969C91690F6068CF0128960FB6F8948D
:100C7000DEBF0FBECDBFDF91CF910C94F805FC0114
:100C80006581262F246025836C600C94F805CF9332
:100C9000DF93EC01423018F08C8188608C834F83A5
:100CA0006887222329F0413019F48C8184608C8379
:100CB00064E670E080E090E00E94531E6C8164FD69
:100CC00031C0E881F9810284F385E02D42E063E0E0
:100CD000CE01099584E991E10E948F1EE881F98196
:100CE0000284F385E02D42E063E0CE01099586E9B8
:100CF00090E00E948F1EE881F9810284F385E02D47
:100D000042E063E0CE01099586E990E00E948F1EE3
:100D1000E881F9810284F385E02D42E062E0CE01B2
:100D2000099516C06062CE010E94F80584E991E140
:100D30000E948F1E6C816062CE010E94F80586E9D8
:100D400090E00E948F1E6C816062CE010E94F805C7
:100D500086E990E00E948F1E6C816062CE010E9445
:100D6000F8058CE390E00E948F1E84E08D83CE0115
:100D70000E943F06CE010E94000682E08E8366E05C
:100D8000CE010E94F805CE01DF91CF910C94F005C1
:100D900021E001C0220F6A95EAF7DC011C962C9332
:100DA0001C971A965C934E931997ED91FC910084D1
:100DB000F185E02D60E00994FC0184858823A9F089
:100DC000218532852115310519F4611106C007C04E
:100DD0002130310521F4611102C0858701C01586DB
:100DE0006585CF010E960C94B40508950F931F935B
:100DF000CF93DF938C01EC012E96FC016385CE012D
:100E00000E949B05019769F461E0CE010E94830571
:100E1000F801148260E0CE010E94B40581E090E008
:100E200002C080E090E0DF91CF911F910F91089573
:100E30008F92AF92CF92EF920F93CF93DF93CDB774
:100E4000DEB7FC016387148615861286118681E061
:100E5000982F01C0990F4A95EAF7928B982F01C0FD
:100E6000990F2A95EAF7938B982F01C0990F0A954D
:100E7000EAF7948B982F01C0990FEA94EAF7958BC3
:100E8000982F01C0990FCA94EAF7968B982F01C04A
:100E9000990FAA94EAF7978B01C0880F8A94EAF712
:100EA000808FDF91CF910F91EF90CF90AF908F9087
:100EB00008954F925F926F927F928F92AF92CF92EE
:100EC000EF920F931F93CF93DF9300D01F92CDB774
:100ED000DEB73C011A894B885C882B834A8369837F
:100EE0000E94E80587E791E0F30191838083C301C5
:100EF0000E960E947C052B814A816981C3010E9464
:100F00001807A201612FC3010F900F900F90DF917E
:100F1000CF911F910F91EF90CF90AF908F907F90D6
:100F20006F905F904F900C94C806FF920F931F93A1
:100F3000CF93DF93EC01F62E8C01025F1F4F9A894D
:100F4000692BC8010E94B4059A8990956F2D692379
:100F5000C801DF91CF911F910F91FF900C94B405C0
:100F6000362FFC01759624E060E030FF02C050810E
:100F7000652B3695215031962111F7CF413011F470
:100F8000FC014489FC012585622B642B0C94950798
:100F90000F931F93CF93DF93062F0F70423019F4F6
:100FA00040E0602F10C0142F262FEC0130E0B90173
:100FB00084E0759567958A95E1F7CE010E94B007A8
:100FC000412F602FCE01DF91CF911F910F910C9493
:100FD000B0070F931F93CF93DF9300D01F92CDB72D
:100FE000DEB78C012B834A8369830E94F6062B812E
:100FF0004A816981C8010F900F900F90DF91CF91C6
:101000001F910F910C9447068EBD00000DB407FE92
:10101000FDCF8EB508952CB52F7D2CBD2CB5237F2B
:101020002CBD2CB52C7F2CBD2DB521602DBDFC0118
:1010300081810E94691F85E090E00C948F1EFC0165
:101040008081918189130C94691F089560E00C944C
:101050000B0861E00C940B08EF92FF921F93CF9363
:10106000DF931F92CDB7DEB77C0169830E9426080B
:101070006981862F8F710E9404088FEF0E940408F7
:10108000182FC7010E942908812F0F90DF91CF915F
:101090001F91FF90EF900895CF92DF92EF92FF9211
:1010A0000F931F93CF93DF9300D01F92CDB7DEB77E
:1010B0007C01142F2A835B8369830E94260869813F
:1010C000862F8F7180620E940408082FC12E5B81D9
:1010D000D52E2A81120F1C1531F0F60181916F0176
:1010E0000E940408F8CFC7010E942908802F0F90A2
:1010F0000F900F90DF91CF911F910F91FF90EF9084
:10110000DF90CF900895EF92FF921F93CF93DF93DC
:1011100000D0CDB7DEB77C014A8369830E942608E0
:101120006981862F8F7180620E940408182F4A817E
:10113000842F0E940408C7010E942908812F0F9064
:101140000F90DF91CF911F91FF90EF900895BF9284
:10115000CF92DF92EF92FF920F931F93CF93DF9383
:1011600000D01F92CDB7DEB77C01FC01C580B42E44
:10117000C41608F4BC2CF7018681811102C0CB187B
:1011800001C0C12CC70129836A837B830E94260882
:101190002981822F0E940408D82E6A81062F7B8124
:1011A000172FB60EB01631F0F80181918F010E9411
:1011B0000408F8CFCC2029F080E00E940408CA94EB
:1011C000F9CFC7010E9429088D2D0F900F900F9025
:1011D000DF91CF911F910F91FF90EF90DF90CF9013
:1011E000BF900895BF92CF92DF92EF92FF920F933C
:1011F0001F93CF93DF9300D0CDB7DEB77C01FC0106
:10120000C580B42EC41608F4BC2CF7018681811168
:1012100002C0CB1801C0C12CC70169837A830E9428
:10122000260881E60E940408D82E6981062F7A815B
:10123000172FB60EB01639F08FEF0E940408F80190
:1012400081938F01F7CFCC2029F08FEF0E94040803
:10125000CA94F9CFC7010E9429088D2D0F900F90D5
:10126000DF91CF911F910F91FF90EF90DF90CF9082
:10127000BF900895EF92FF921F93CF93DF931F9239
:10128000CDB7DEB77C0169830E9426086981862F6D
:101290000E940408182FC7010E942908812F0F906F
:1012A000DF91CF911F91FF90EF90089562EE0C9423
:1012B0003A0961EE0C943A096FEF0C943A09FC017B
:1012C00060834183148280E28583168285E084876F
:1012D00017820895462F6E3708F04DE765E00C94AD
:1012E000830865E00C942C08CF93DF93EC0160E059
:1012F0000E941F088D859E850E948F1E6DE1CE0184
:101300000E942C0881FF07C08D859E850E948F1E3C
:10131000CE010E94590960E0CE010E942C08482F9E
:101320004E7F60E0CE010E94830862E0CE010E9401
:101330002C08E6ECF1E0E49141E050E001C0440FFC
:10134000EA95EAF7482B62E0CE01DF91CF910C9449
:101350008308CF93DF93EC0160E00E942C0881FDAD
:101360000EC0482F426060E0CE010E94830865E015
:1013700070E080E090E0DF91CF910C94531EDF91FC
:10138000CF9108950F93CF93DF93EC01211102C009
:1013900020EA01C020EBCE010E94A708002339F00B
:1013A00061E0CE01DF91CF910F910C941F08DF9186
:1013B000CF910F910895CF92DF92EF92FF920F930A
:1013C000CF93DF9300D0CDB7DEB76C017B01C601B0
:1013D0002A8349830E945C092A81498180FF10C0C9
:1013E000C6012A8349830E945C092A81498184FFBE
:1013F000EECF40E167E0C6010E94830880E006C0AE
:1014000001E0B701C6010E94C20981E00F900F9070
:10141000DF91CF910F91FF90EF90DF90CF900895E3
:1014200020E00C94DB09CF93DF93EC0167E1CE0160
:101430000E942C0884FD13C0CE010E945C0984FF29
:10144000F5CF40E167E0CE010E94830860E0CE0165
:101450000E941F08CE010E94590980E005C060E08B
:10146000CE010E941F0881E0DF91CF9108950F9374
:101470001F93CF93DF938C01EB0167E10E942C084F
:1014800080FD0BC0209759F0C8010E945C0990E0D4
:10149000959587958770888302C080E001C081E0C0
:1014A000DF91CF911F910F91089560E070E00C944F
:1014B000370ACF93DF93EC010E94F20840E767E020
:1014C000CE01DF91CF910C9483080F931F93CF939C
:1014D000DF93EC018B012C85AB016AE00E944C0884
:1014E0002C85A80160E1CE010E944C084D8161E18C
:1014F000CE01DF91CF911F910F910C948308EF9251
:10150000FF920F931F93CF93DF938C01C62F7A0125
:10151000611108C0FC01448550E0B70107960E94A4
:10152000473705C0673008F037C0613041F4EC2F11
:10153000F0E0E054FE4F6491F801248506C0E62FE8
:10154000F0E0E054FE4F649121E0A701C8010E9441
:101550004C08D0E0FE01E654FE4F6491F80145814D
:10156000C8010E94830862E0C8010E942C08FE01A5
:10157000EA53FE4FE49141E050E001C0440FEA9588
:10158000EAF7482B62E0C801DF91CF911F910F91DC
:10159000FF90EF900C948308DF91CF911F910F91F2
:1015A000FF90EF9008950F931F93CF938C01C62F58
:1015B00062E00E942C08EC2FF0E0EA53FE4FE49129
:1015C00021E030E001C0220FEA95EAF72095422F92
:1015D000482362E0C801CF911F910F910C948308BA
:1015E000CF93DF93EC010E94A90960E0CE010E9435
:1015F0002C08482F416060E0CE010E94830840E73C
:1016000067E0CE010E94830861E0CE010E941F08BE
:101610008F81882349F02C85AE01495F5F4F6AE0D6
:10162000CE010E944C0804C060E0CE010E94D30AA3
:101630006DE1CE010E942C0881FF05C0CE01DF9133
:10164000CF910C945909DF91CF910895CF93DF93F7
:10165000EC010E94260880E50E94040883E70E94AE
:101660000408CE01DF91CF910C942908CF93DF932A
:10167000EC016DE10E942C08482F44606DE1CE0121
:101680000E9483086CE1CE010E942C08482F4F6312
:101690006CE1CE010E94830881E08E83DF91CF91BF
:1016A0000895CF93DF93EC016DE10E942C08482F41
:1016B00046606DE1CE010E9483086CE1CE010E947C
:1016C0002C08482F43606CE1CE010E94830881E022
:1016D0008E83DF91CF910895EF92FF920F931F9326
:1016E000CF93DF9300D000D0CDB7DEB77C0121329D
:1016F00008F020E2C7012C834A835B8369830E9440
:1017000026086981862F8770886A0E9404084A81AA
:10171000042F5B81152F2C81215038F0F801819125
:101720008F012C830E940408F6CFC7010F900F9001
:101730000F900F90DF91CF911F910F91FF90EF903D
:101740000C94290867E10E942C0880958170089507
:10175000662311F04FE301C040E061E00C94830880
:101760000F931F93CF938C01C62F66E00E942C0825
:10177000887FC43018F4CC0FCF5F01C0C7E04C2F76
:10178000482B66E0C801CF911F910F910C948308FC
:1017900066E00E942C08867086950895EF92FF926D
:1017A0000F931F93CF938C017B0166E00E942C085E
:1017B000C82FC77D82E0E816F10431F4C0628BE9DE
:1017C00090E0A0E0B0E00DC0EA94EF2829F085E5B4
:1017D00090E0A0E0B0E005C0C86081E490E0A0E047
:1017E000B0E0F80185879687A787B08B4C2F66E01D
:1017F000C8010E94830866E0C8010E942C0891E09D
:101800008C1390E0892FCF911F910F91FF90EF9053
:1018100008951F93CF93DF93EC01888199818917F5
:1018200019F061E00E942D1F89819881981719F0A5
:1018300061E00E942D1F0E94282660E0CE010E94D8
:101840001F0861E0CE010E940B0865E070E080E0B7
:1018500090E00E94531E4CE060E0CE010E9483089D
:101860004FE564E0CE010E94830862E070E0CE01A3
:101870000E94CE0B882311F081E08C8366E0CE01BC
:101880000E942C08182F60E070E0CE010E94CE0B61
:10189000CE010E94260B40E06DE1CE010E9483083C
:1018A00040E06CE1CE010E94830840E767E0CE0192
:1018B0000E9483086CE4CE010E946A09CE010E9456
:1018C0005609CE010E945909CE010E94A90960E083
:1018D000CE010E942C08482F4E7F60E0CE010E946E
:1018E0008308812FDF91CF911F91089566E00E94B8
:1018F0002C08282F2872203231F081E090E0283027
:1019000021F080E0089582E090E0089520E1629F58
:10191000B00111244F70462B64E00C9483081F9291
:101920000F920FB60F9211240F931F932F933F9393
:101930004F935F936F937F938F939F93AF93BF93D7
:10194000CF93DF93EF93FF93809106018F5F809396
:101950000601882329F0E9E2F2E020E030E059C0F6
:1019600009E212E0EFE2F2E0C1E3D2E0CE0101973A
:10197000DC014C91CF010197DC01411103C02881AA
:101980002223F9F02C9130E0808190E0B901681BAE
:10199000790B1616170644F4442389F0840F911D21
:1019A0008217930764F40AC0672B49F048814423E7
:1019B00031F0841B9109281739070CF49C0120830E
:1019C00002C08C91808380818823C9F0CF01059764
:1019D000DC018C91AF0142505109D80112962D9132
:1019E0003C911397D9019C91DA01811103C08C912C
:1019F000892B03C08C9180958923D9018C93075F33
:101A00001F4F39962996B2E00D3D1B0709F0AECF66
:101A1000A2CF808187FD15C0E901C75DDD4F8091B0
:101A200006019E8198130DC09981A281B3818C819A
:101A3000911104C09C918095892302C09C91892BAF
:101A40008C933996275F3F4F243B310511F7FF9167
:101A5000EF91DF91CF91BF91AF919F918F917F9146
:101A60006F915F914F913F912F911F910F910F9027
:101A70000FBE0F901F9018951092C00094E09093A5
:101A8000C1001092C2001092C3001092C4001092C4
:101A9000D10092E89093D10090E490937200E9E233
:101AA000F2E020E030E09FEF9083D901A75DBD4FC9
:101AB00011961C9211971382128217961C921797F7
:101AC00018961C923996275F3F4F243B310561F7EA
:101AD0008093DD020895CF93442339F01092BF0024
:101AE0001092BE009FEF90930601E9E2F2E090E0D1
:101AF000AFEF208187FF03C027FF06C04BC0281728
:101B000019F0AF3F41F404C0658387FDFACF46C0AA
:101B1000208127FDA92F9F5F3996943151F787FDCA
:101B20003DC0AF3F09F43AC0C82F89E0A802D001F8
:101B30001124A75DBD4FCC932091DD0211962C930B
:101B400011978C2F992787FD9095FC01E057FD4F49
:101B5000E491F0E0EE0FFF1FE354FD4F45915491E7
:101B600013965C934E931297FC01EF58FD4FE4914E
:101B70001496EC93149715966C93211102C060E0B3
:101B800001C061E08C2F0E94691F61E08C2FCF9112
:101B90000C942D1FAF3F09F0BECFBCCFCF9108955D
:101BA000282F3FEF639FC001112464E670E00E947C
:101BB000C334822F0C946B0D2F923F924F925F9201
:101BC0006F927F928F929F92AF92BF92CF92DF924D
:101BD000EF92FF920F931F93CF93DF93CDB7DEB7B2
:101BE00027970FB6F894DEBF0FBECDBF89831B01C8
:101BF0005D834C8389E292E09F838E8300E010E056
:101C00004A01A12CB12C80EFC82E8FE0D82EE12CF8
:101C1000F12C2B01612C712C9981EE81FF81808147
:101C200097FF0DC087FF0EC08E819F8109969F830D
:101C30008E83075F1F4F043B110571F727C0F981A1
:101C40008F13F2CF2114310439F0C701B601A3017B
:101C500092010E94EB3401C020E0C801875D9D4FD6
:101C60009B838A83FC0127838C819D81892B39F09A
:101C7000C701B601A50194010E94EB3401C020E028
:101C8000EA81FB812087F981F7FDCECF27960FB639
:101C9000F894DEBF0FBECDBFDF91CF911F910F91A2
:101CA000FF90EF90DF90CF90BF90AF909F908F907C
:101CB0007F906F905F904F903F902F900895089580
:101CC0001F920F920FB60F9211242F933F934F93B1
:101CD0005F936F937F938F939F93AF93BF93EF9394
:101CE000FF93E0910701F09108010995FF91EF91B1
:101CF000BF91AF919F918F917F916F915F914F9124
:101D00003F912F910F900FBE0F901F9018952F921B
:101D10003F924F925F926F927F928F929F92AF927B
:101D2000BF92CF92DF92EF92FF920F931F93CF93C8
:101D3000DF93CDB7DEB76B970FB6F894DEBF0FBE5B
:101D4000CDBF1C014A015B013E872D874230510502
:101D5000610571050CF435C1CA018150904C880FA2
:101D6000991F880F991F2101480E591E5A824982D6
:101D7000D201CD90DD90ED90FC9064E370E080E0C6
:101D800090E0A50194010E940D352D833E834F8381
:101D9000588700E010E09801B501A40141505109B5
:101DA000610971094B8B5C8B6D8B7E8B4370552762
:101DB000588F4F8B07541648284C3146D901C8011B
:101DC000F2E0B695A79597958795FA95D1F7AC016E
:101DD000BD01437055276627772749875A876B8748
:101DE0007C873B8E2A8E40E050E0BA0146015701C5
:101DF000B4E0880C991CAA1CBB1CBA95D1F726012B
:101E0000370185E076946794579447948A95D1F783
:101E10004F86588A698A7A8A8B899C89AD89BE895E
:101E2000481759076A077B0708F063C0EA8DFB8DE6
:101E300084819581A681B7813A01F3E06F227724EE
:101E400049845A8464247524660C771C660C771CBC
:101E50004D845E84640C751CF30140805180628067
:101E60007380C424D524E624F7242C013D014026A8
:101E7000512662267326C40CD51CE61CF71C2C01C7
:101E80003D01F3E07694679457944794FA95D1F71F
:101E900084249524A624B724E2E0880F991FAA1F62
:101EA000BB1FEA95D1F74F84588869887A888425C2
:101EB0009525A625B725880D991DAA1DBB1DC826E9
:101EC000D926EA26FB26EA8DFB8D80819181A281AD
:101ED000B381C80ED91EEA1EFB1EDF01CD92DD9232
:101EE000ED92FD92BB8FAA8F4F5F5F4F6F4F7F4F79
:101EF0007DCFD1014D915D916D917C91DB01CA0146
:101F0000E3E0B695A79597958795EA95D1F788264A
:101F10009926AA26BB26DB01CA01F2E0880F991F89
:101F2000AA1FBB1FFA95D1F784259525A625B725AD
:101F3000880E991EAA1EBB1EEF89F88D49845A840B
:101F4000E425F525EE0FFF1FEE0FFF1F6D847E8445
:101F5000E60DF71D80819181A281B381C826D92623
:101F6000EA26FB264027512762277327C40ED51E79
:101F7000E61EF71E8C249D24AE24BF24A981BA81BD
:101F8000CD90DD90ED90FC901397C80CD91CEA1C05
:101F9000FB1CFD01C082D182E282F3824D815E8111
:101FA0006F81788541505109610971094D835E83C4
:101FB0006F8378874A3F5F4F6F4F7F4F09F0FACEAC
:101FC00054C14F3F9FEF5907690779070CF04DC186
:101FD000CC24DD247601C41AD50AE60AF70A64E3A4
:101FE00070E080E090E0A70196010E940D35290184
:101FF0003A012A5F3F4F4F4F5F4F69EB79E787E325
:102000009EE90E94A734AB01BC01F101808191815E
:10201000A281B381F1E0CF1AF0ECDF0ACC0CDD1C19
:10202000CC0CDD1C81010C0D1D1D1C8B0B8B4D82FE
:102030005E826F82788680949094A094B0948F8A08
:10204000998E880C991C880C991C9101280D391DBA
:10205000388B2F876A017B01F2E0F694E794D794DE
:10206000C794FA95D1F797018601037011272227AB
:10207000332709871A872B873C876F88798C4F8491
:102080005888F20132912291129102912F01098315
:102090001A832B833C8383010370112729853A859A
:1020A00002271327000F111F000F111FED85FE855A
:1020B0000E0F1F1FF801C080D180E280F3800981DC
:1020C0001A812B813C81C026D126E226F3268C0181
:1020D0009D010427152726273727C00ED11EE21E93
:1020E000F31E4C015D0133E0B694A7949794879456
:1020F0003A95D1F709811A812B813C81E4E0000FE8
:10210000111F221F331FEA95D1F780269126A226A0
:10211000B326F2E0880F991FAA1FBB1FFA95D1F7CB
:1021200009811A812B813C81E5E036952795179529
:102130000795EA95D1F780279127A227B327880D25
:10214000991DAA1DBB1DC826D926EA26FB26F20129
:1021500084819581A681B7818C199D09AE09BF093B
:1021600084839583A683B783F1E06F1A71084214C4
:10217000530409F086CFEB89FC89C080D180E280CE
:10218000F3804C015D0123E0B694A7949794879463
:102190002A95D1F797018601E4E0000F111F221F55
:1021A000331FEA95D1F780269126A226B3262C016B
:1021B0003D01F2E0440C551C661C771CFA95D1F7E2
:1021C00097018601E5E03695279517950795EA95DD
:1021D000D1F70425152526253725080D191D2A1D9B
:1021E0003B1D84279527A627B727A984BA84AA0C64
:1021F000BB1CAA0CBB1C4D845E84A40CB51CF50151
:1022000080809180A280B380C824D924EA24FB2452
:102210008C0D9D1DAE1DBF1D80279127A227B327C2
:1022200049805A806B807C80481A590A6A0A7B0A66
:10223000D301C201F1014082518262827382495B03
:10224000594767437E490D811E812F813885015092
:102250001109210931090D831E832F8338870A3F15
:102260001F4F2F4F3F4F09F0F5CE6B960FB6F894E6
:10227000DEBF0FBECDBFDF91CF911F910F91FF90B9
:10228000EF90DF90CF90BF90AF909F908F907F9016
:102290006F905F904F903F902F9008950F931F93F2
:1022A0000097C9F08A019B010150110921093109E8
:1022B000003111052105310570F420E1E2E3F3E07E
:1022C000DF011D922A95E9F7BC01CF010E94473733
:1022D00080E090E002C082E090E01F910F910895AD
:1022E0004F925F926F927F92AF92BF92CF92DF92A6
:1022F000EF92FF920F931F93CF93DF935901E80161
:10230000009709F471C08A019B010150110921094C
:102310003109003511052105310508F065C0A1140A
:10232000B10409F461C0088119812A813B8110162A
:102330001106120613060CF057C0041715072607DE
:1023400037070CF451C06A017B01E2E0F594E79491
:10235000D794C794EA95D1F72A013B01A3E04A221A
:1023600055246624772445284628472859F0BFEF8E
:10237000CB1ADB0AEB0AFB0AE5E1CE16D104E10435
:10238000F104A9F12601370162E0440C551C661CDA
:10239000771C6A95D1F704151505260537053CF11C
:1023A00020E5E2E4F3E0DF011D922A95E9F7BC01A4
:1023B000CF010E94473722E333E0B701A60182E450
:1023C00093E00E94870EA601440F551F440F551F2E
:1023D00062E473E0C5010E944737488259826A82ED
:1023E0007B8280E090E005C082E090E002C083E064
:1023F00090E0DF91CF911F910F91FF90EF90DF90D0
:10240000CF90BF90AF907F906F905F904F90089566
:10241000CF93DF93FC011082FB0144815581413150
:10242000510550F4EC0160E070E0808191810E94E0
:102430004E1181E0888301C080E0DF91CF91089543
:102440008F929F92AF92BF92CF92DF92EF92FF92C4
:102450000F931F93CF93DF93CDB7DEB72A970FB6B5
:10246000F894DEBF0FBECDBF7C01FA01DB018C9179
:10247000882309F471C044815581CA0101978F34C2
:10248000910508F069C080E590E0A0E0B0E08F839E
:102490009887A987BA876B01BFEFCB1ADB0A60E088
:1024A00070E08E01095F1F4F9601808191810E942B
:1024B0007011892B09F050C069E871E0CE010196D6
:1024C0000E946D206F817885660F771F6F5F7F4F49
:1024D000CE0101960E94302069E871E0CE0101969C
:1024E0000E94C3208601812C912C54018F819885F4
:1024F000A985BA8588169906AA06BB0614F568014F
:10250000F801608162956F706A3010F0695C01C0FB
:10251000605DCE0101960E944A210F5F1F4FD601D8
:102520006C916F706A3010F0695C01C0605DCE0123
:1025300001960E944A21BFEF8B1A9B0AAB0ABB0A85
:10254000D5CFBE016F5F7F4FC7010E94DA1FCE015A
:1025500001960E94FF1F05C06CEC71E0C7010E944C
:102560001321C7012A960FB6F894DEBF0FBECDBF68
:10257000DF91CF911F910F91FF90EF90DF90CF905F
:10258000BF90AF909F908F9008951092E1020895B0
:10259000CF93DF931F92CDB7DEB76983DC01ED9156
:1025A000FC910280F381E02D41E050E0BE016F5FBD
:1025B0007F4F09950F90DF91CF910895CF93DF93CF
:1025C000EC018C859D8597FF05C082E00E94F6187E
:1025D0009D878C878C859D85DF91CF91089583E0C1
:1025E0000C94191AFC018485958597FD06C082E03C
:1025F0000E94A01890E00196089582E00E94A01821
:1026000090E00895FC018485958597FD05C02FEF26
:102610003FEF35872487089582E00C94F618CF9316
:10262000DF93EC0180911401882331F083E00E9454
:1026300027191816190634F081E090E09B838A83ED
:1026400080E090E0DF91CF910895FC0190819E5F42
:10265000908342E450E063ED71E080E80C94BF1990
:10266000FC0181819081913A59F4813209F048C08E
:1026700047E050E06DE071E080E00E94BF1973C058
:102680009132F1F5833291F49381892F90E0982F64
:1026900088272281822BA0E0B0E0809309019093EB
:1026A0000A01A0930B01B0930C015DC0803239F494
:1026B00067E070E08DE091E00E94E61906C082328A
:1026C00009F051C08281809314018091E203882334
:1026D00019F0EEEFFAE002C0E0E0F8E080910D01C1
:1026E00090910E01A0910F01B0911001803B944098
:1026F000A105B10539F48091140180FF1CC002C00E
:1027000080E0089588E10FB6F894809360001092FD
:1027100060000FBEA895EE3F8AE0F80739F080917F
:10272000FE0A9091FF0A918380831DC01092FF0AD8
:102730001092FE0A18C0EE3F2AE0F20731F08081C5
:1027400091819093FF0A8093FE0A87E797E7918330
:1027500080839BE088E10FB6F894A8958093600091
:102760000FBE9093600081E00895E2E9F3E01382E8
:10277000128288EE93E0A0E0B0E084839583A68384
:10278000B7838EE891E0918380838FEF9FEF9587E9
:1027900084870895FC01918D228D892F90E0805CC3
:1027A0009F4F821B91098F7399270895FC01918D8A
:1027B000828D981731F0828DE80FF11D858D90E0A4
:1027C00008958FEF9FEF0895FC01918D828D9817EA
:1027D00061F0828DDF01A80FB11D5D968C91928D05
:1027E0009F5F9F73928F90E008958FEF9FEF089502
:1027F00088EE94E1892B49F080E090E0892B29F064
:102800000E94E81481110C9400000895FC01848D4D
:10281000DF01A80FB11DA35ABF4F2C91848D90E00A
:1028200001968F739927848FA689B7892C93A089E5
:10283000B1898C9180648C93938D848D981306C09C
:102840000288F389E02D80818F7D80830895CF9366
:10285000DF93EC01888D8823C9F0EA89FB898081A8
:1028600085FD05C0A889B9898C9186FD0FC00FB67A
:1028700007FCF5CF808185FFF2CFA889B9898C91BB
:1028800085FFEDCFCE010E940614E7CFDF91CF91F7
:102890000895EF92FF920F931F93CF93DF93EC0174
:1028A00081E0888F9B8D8C8D981305C0E889F9890C
:1028B000808185FD24C0F62E0B8D10E00F5F1F4F29
:1028C0000F731127E02E8C8DE8120CC00FB607FC99
:1028D000FACFE889F989808185FFF5CFCE010E9482
:1028E0000614F1CF8B8DFE01E80FF11DE35AFF4F67
:1028F000F0820B8FEA89FB898081806207C0EE89B4
:10290000FF896083E889F98980818064808381E020
:1029100090E0DF91CF911F910F91FF90EF9008957C
:102920001F920F920FB60F9211242F938F939F93A4
:10293000EF93FF93E091F303F091F4038081E09132
:10294000F903F091FA0382FD12C090818091FC039B
:102950008F5F8F732091FD03821751F0E091FC038C
:10296000F0E0ED51FC4F958F8093FC0301C0808116
:10297000FF91EF919F918F912F910F900FBE0F902C
:102980001F9018951F920F920FB60F9211242F933C
:102990003F934F935F936F937F938F939F93AF93E7
:1029A000BF93EF93FF9383EE93E00E940614FF9191
:1029B000EF91BF91AF919F918F917F916F915F91B7
:1029C0004F913F912F910F900FBE0F901F90189530
:1029D00083EE93E00E94CA1321E0892B09F420E0E2
:1029E000822F0895E3EEF3E01382128288EE93E0E3
:1029F000A0E0B0E084839583A683B7838EE991E05D
:102A0000918380838DEC90E0958784878CEC90E0B7
:102A10009787868788EC90E0918B808B89EC90E09B
:102A2000938B828B8AEC90E0958B848B8EEC90E07C
:102A3000978B868B118E128E138E148E0895DC0167
:102A4000FB0188E4808389E4818384E482831D968A
:102A50009C911D979F709F5B93831D968D919C9178
:102A60001E9724E0969587952A95E1F78F708F5BE6
:102A7000848385E00895CF93DF93CDB7DEB7699760
:102A80000FB6F894DEBF0FBECDBFFC01DB018C9109
:102A90008F5F8C93BE016F5F7F4F89E1DB011D92D9
:102AA0008A95E9F729E0298384E08A8391E09D8370
:102AB00083E08E832A8721E22B879C879D879F87CF
:102AC00022E2288B27E02B8B25E02C8B8E8B20E4B9
:102AD00030E0388F2F8B998F82818B839585868507
:102AE000998B8A8B838180688D8B49E150E080E0EF
:102AF0000E94BF1969960FB6F894DEBF0FBECDBF16
:102B0000DF91CF910895DC01FB0112968C91129711
:102B100090E02481358182179307D1F491818081DF
:102B2000813A31F481E0913091F0933089F411C011
:102B3000813271F49B3021F482811F968C9305C001
:102B40009A3031F4828150968C9381E008950895F3
:102B500080E00895EF92FF920F931F93CF93DF933E
:102B6000FB012081213851F52381223239F5DC0126
:102B700012962C9130E04481558142175307F1F4AD
:102B8000EC010B851C85E12CF12C0115110591F050
:102B9000F801448155816281738180E80E94BF19E8
:102BA0008F3FFFEF9F0769F0E80EF91ED8010D91E6
:102BB0001C91EBCF81E08F87C70105C080E090E0DA
:102BC00002C08FEF9FEFDF91CF911F910F91FF9088
:102BD000EF900895FC01A385B485109719F47487CC
:102BE000638709C08D919C911197009711F0DC01CA
:102BF000F9CF6D937C9325853685DB0114968D91F5
:102C00009C911597820F931F968785870895AF92A1
:102C1000BF92CF92DF92EF92FF920F931F93CF93C9
:102C2000DF931F92CDB7DEB77C0169836A0159013A
:102C300041E050E0BE016F5F7F4FFC0183810E9445
:102C400027198C0197FD0BC0F7018381A501B601FF
:102C500080640E94271997FD02C0800F911F0F907A
:102C6000DF91CF911F910F91FF90EF90DF90CF9068
:102C7000BF90AF900895CF93DF93EC0181E08C83F8
:102C80008D839E01265F3F4F3F832E8319861886D2
:102C90002EEA31E0398328831C861B861E861D861A
:102CA0008F87888B81EC8A870E948F1BBE01DF9102
:102CB000CF910C94481B80919104811107C080E84A
:102CC00094E00E943B1681E08093910480E894E0B8
:102CD00008958F929F92AF92BF92CF92DF92EF9220
:102CE000FF920F931F93CF93DF937C018B016C01B5
:102CF00082E0C80ED11C4701E5E08E0E911CC0E0B9
:102D0000D0E0F60161916F014AE050E0C8010E94F5
:102D1000F0175C016EE2C8010E9441178A0D9B1DED
:102D2000C80FD91FC814D90461F74AE050E0F70171
:102D30006581C8010E94F0178C0F9D1FDF91CF9114
:102D40001F910F91FF90EF90DF90CF90BF90AF90C9
:102D50009F908F900895E9E9F4E08AEB91E09183E8
:102D600080831282138214821582089508950E942E
:102D70009A1E0E94B6168BEA94E00E94A61A0E9440
:102D8000A32EC8EFD3E10E9476312097E1F30E9491
:102D9000F813F9CF08950E943237CF92DF92EF9265
:102DA000FF920F931F93CF93DF936C017A018B01F6
:102DB000C0E0D0E0CE15DF0589F0D8016D918D011E
:102DC000D601ED91FC910190F081E02DC6010995AD
:102DD000892B11F47E0102C02196ECCFC701DF914F
:102DE000CF911F910F91FF90EF90DF90CF900895BA
:102DF0006115710579F0FB0101900020E9F7319729
:102E0000AF01461B570BDC01ED91FC910280F38171
:102E1000E02D099480E090E00895EF92FF920F93E7
:102E20001F93CF93DF938C017B01C0E0D0E0F701CB
:102E3000EC0FFD1F6491662361F0D801ED91FC91C8
:102E40000190F081E02DC8010995892B11F02196A0
:102E5000EECFCE01DF91CF911F910F91FF90EF90B8
:102E60000895DB0114964D915C9115976D917C91BD
:102E7000DC01ED91FC910280F381E02D09940C942A
:102E8000F816DC01ED91FC910190F081E02D0994A0
:102E90004F925F926F927F92EF92FF920F931F93E8
:102EA000CF93DF93CDB7DEB7A1970FB6F894DEBF0F
:102EB0000FBECDBF7C01FA01CB0119A2223008F46C
:102EC0002AE08E010F5D1F4F422E512C612C712C78
:102ED000BF01A30192010E94EB34F901CA01015024
:102EE00011096A3014F4605D01C0695CD8016C930B
:102EF000232B242B252B61F7B801C7010E94F8165C
:102F0000A1960FB6F894DEBF0FBECDBFDF91CF9173
:102F10001F910F91FF90EF907F906F905F904F9077
:102F20000895CF92DF92EF92FF920F931F93CF936A
:102F3000DF93EC016A017B012115310579F4E88109
:102F4000F9810190F081E02D642FDF91CF911F91E5
:102F50000F91FF90EF90DF90CF9009942A303105C8
:102F6000E9F477FF1AC06DE20E9441178C014427F3
:102F70005527BA014C195D096E097F092AE0CE0177
:102F80000E944817800F911FDF91CF911F910F91E1
:102F9000FF90EF90DF90CF9008952AE0B701A6014F
:102FA000CE01DF91CF911F910F91FF90EF90DF90B5
:102FB000CF900C9448179A01AB01662757FD609596
:102FC000762F0C9491172115310541F4DC01ED9118
:102FD000FC910190F081E02D642F09940C94481726
:102FE0009A01462F50E060E070E00C94E3179A01DC
:102FF000AB0160E070E00C94E317615030F0209179
:10300000F100FC0120830196F8CF289884E6809394
:10301000B40408954091AF045091B0042091AD04E0
:103020003091AE0442175307B4F49091E8009570C4
:10303000E1F39091E80092FD19C08093F100809136
:10304000AF049091B00401968F739927892B19F4DE
:103050008EEF8093E8008091AF049091B0040196C8
:103060009093B0048093AF0481E0089580E00895C8
:10307000CF92DF92EF92FF920F931F93CF93DF9344
:103080001F92CDB7DEB7182F062FE42E862F880F9C
:103090008E5F99830E940A1883E00E940A18F12E1D
:1030A000C12E9981D92E8C2D8F19801798F4F60195
:1030B000E7FE02C0849101C080810E940A18182F87
:1030C00080E00E940A188123FFEFCF1ADF0A8111E6
:1030D000EACF01C081E00F90DF91CF911F910F9156
:1030E000FF90EF90DF90CF9008958091D70081609E
:1030F0008093D70080EA8093D80089B5806189BD2C
:1031000089B5826089BD09B400FEFDCF61E070E041
:1031100080E090E00E94531E8091D8008F7C8061F7
:103120008093D8008091E000807F8093E000089534
:103130002FB7FC012083F89467706093E90008952D
:10314000CF93DF931F92CDB7DEB7682FCE010196E4
:103150000E9498188091F20099819FBF0F90DF9193
:10316000CF910895EF92FF920F931F93CF93DF9328
:103170001F92CDB7DEB79091B304992311F057FF9A
:1031800003C08FEF9FEF2AC08A017B01682FCE0119
:1031900001960E9498188091F20090E0A801801793
:1031A00091070CF4AC01842FF70194E6815038F0BC
:1031B00028989093B4042091F1002193F7CF411502
:1031C000510521F08091F200882321F089818FBF81
:1031D000CA0104C08BE68093E800F8CF0F90DF911E
:1031E000CF911F910F91FF90EF900895CF93DF93B0
:1031F0001F92CDB7DEB741E050E0BE016F5F7F4F59
:103200000E94B218019719F4898190E002C08FEFF3
:103210009FEF0F90DF91CF910895CF93DF931F928F
:10322000CDB7DEB7682FCE0101960E949818909115
:10323000E800892F807295FF04C09091F20080E42D
:10324000891B99819FBF0F90DF91CF9108956F9255
:103250007F928F929F92AF92BF92CF92DF92EF9226
:10326000FF920F931F93CF93DF931F92CDB7DEB7DB
:10327000A82E6B01B42E052F8091B304882369F02A
:10328000E42EF52E8AEF982E8A2D8072782E9AE3FE
:10329000892E8A2D8074682E12C08FEF9FEF54C044
:1032A0008A2D0E940D19182F81110DC09A94992012
:1032B000A1F361E070E080E090E00E94531EE11411
:1032C000F10471F737C090E0E816F9060CF41E2DF2
:1032D0006A2DCE0101960E9498188091E80085FF22
:1032E00026C0812F90E0E81AF90A772029F01150C2
:1032F000A8F01092F100FBCFF601A7FE07C0115015
:1033000058F024912093F1003196F9CF115020F01C
:1033100021912093F100FACFC80ED91E8091E800C8
:1033200085FF0FC0E114F10411F461100AC0898116
:103330008FBFC5CF5D9884E68093B5048B2D902F09
:1033400003C08092E800F3CF0F90DF91CF911F91DF
:103350000F91FF90EF90DF90CF90BF90AF909F9034
:103360008F907F906F9008951092E9001092B004B2
:103370001092AF049093AE048093AD040895DF9251
:10338000EF92FF920F931F93CF93DF93D82E8A0172
:103390007B01E40EF51EEB01CE15DF0571F0D7FEC3
:1033A00003C0FE01849101C088810E940A18219601
:1033B0008111F2CF8FEF9FEF01C0C801DF91CF9154
:1033C0001F910F91FF90EF90DF900895BF92CF92E1
:1033D000DF92EF92FF920F931F93CF93DF936C01D5
:1033E0008B01EB019BEFB92E2097C1F07E01C13418
:1033F000D1051CF080E4E82EF12C8091E80082FFDA
:10340000FCCFC8018C1B9D0B6E2D8C0D9D1D0E9449
:10341000FD17B092E800CE19DF09E6CFC801DF91B1
:10342000CF911F910F91FF90EF90DF90CF90BF90C1
:1034300008958093E9008091F200882319F08AE3CF
:103440008093E80008951F920F920FB60F921124F7
:103450002F933F934F935F936F937F938F939F939C
:10346000AF93BF93CF93EF93FF93C091E10080910F
:10347000E100837F8093E1008093E100C3FF0FC0F0
:103480001092E90081E08093EB001092EC0082E35F
:103490008093ED001092B30488E08093F000C2FFA7
:1034A00019C083E00E94191A8091B504882339F06D
:1034B0008091B50481508093B504882389F180916F
:1034C000B404882339F08091B40481508093B4040B
:1034D000882341F1C4FF10C08091E2008E7E81609C
:1034E0008093E2008091E1008F7E8093E1008091E3
:1034F000B1048E7E806111C0C0FF16C08091E200D1
:103500008E7E80618093E2008091E1008E7E8093C8
:10351000E1008091B1048E7E81608093B10404C08B
:103520005D9ACDCF289AD6CFFF91EF91CF91BF91E1
:10353000AF919F918F917F916F915F914F913F914B
:103540002F910F900FBE0F901F9018951092B304FB
:103550001092B2041092B1040E9475188091E1009B
:103560008E7E8093E1008DE08093E200559A209A50
:10357000EEEFFFE7859194918B3F9C4D19F481E02C
:103580008093E2030895EF92FF920F931F93CF93DE
:10359000DF937B01FC01C281D38100E010E0209722
:1035A00081F0E881F9810280F381E02DB701CE013D
:1035B000099597FD08C0080F191F0884D985C02DEB
:1035C000EECFC80102C08FEF9FEFDF91CF911F9127
:1035D0000F91FF90EF9008950F931F93CF93DF9378
:1035E0008B01FC01C281D381209771F0E881F981C0
:1035F0000480F581E02DB801CE010995009731F4E2
:103600000884D985C02DF0CF80E090E0DF91CF9184
:103610001F910F9108950F931F93CF93DF938B0109
:10362000FC01C281D381209771F0E881F981068085
:10363000F781E02DB801CE010995080F111D08840E
:10364000D985C02DF0CFF8011082DF91CF911F9165
:103650000F9108950F931F93CF93DF938B01FC017C
:10366000C281D381209771F0E881F9810190F081C6
:10367000E02DB801CE010995811105C00884D985D6
:10368000C02DF0CF80E0DF91CF911F910F91089571
:10369000CF93DF93FC01DB01218114968C91149769
:1036A00090E0820F911D0897B4F5C281D3812097D5
:1036B00019F47383628308C088859985009711F097
:1036C000EC01FACFB987A887808112968C93129764
:1036D000818113968C931397908115968C911597F1
:1036E000890F808380E014969C911497891788F441
:1036F0001696CD91DC911797C80FD11D9881C18185
:10370000D0E0CB5EDE4F988391819F5F91838F5F86
:10371000EACF81E001C080E0DF91CF9108958091F0
:10372000A30481110DC082E080939F0484E0809304
:10373000A0041092A2041092A10481E08093A3043B
:103740008FE994E00895CF93DF931F92CDB7DEB752
:103750001982CE0101960E9425130E948F1BBE0183
:103760006F5F7F4F0E94C31A89810F90DF91CF91C5
:1037700008951F920F920FB60F921124CF92DF92ED
:10378000EF92FF920F931F932F933F934F935F936B
:103790006F937F938F939F93AF93BF93EF93FF9319
:1037A000CF93DF93CDB7DEB76C97DEBFCDBF10925E
:1037B000E9008091E80083FF24C168E0CE014596CE
:1037C0000E94FD1782EF8093E8008D8987FF05C076
:1037D0009091E80090FFFCCF03C09EEF9093E8002B
:1037E000982F907609F0F1C09E892F89188D91113C
:1037F0000CC0803829F48091B2048093F10002C09B
:103800001092F1001092F100F5C0422F50E0512BC0
:10381000913051F48111EEC04130510509F0EAC0F8
:103820008091B2048D7F0BC0933061F48111E2C0AE
:103830004130510509F0DEC08091B204826080936E
:10384000B204D8C0953041F48091E80080FFFCCFED
:1038500020682093E300CEC0963009F08CC0EB8C3A
:10386000FC8C123069F580E090E00E94B4190E944F
:10387000A31B99E09E012F5F3F4F6901F901292F9A
:1038800011922A95E9F799831A8391E09E8390EA31
:1038900098879AEF99872091AF043091B004275F01
:1038A0003F4F3C832B838D83C7010E94B41949E0AD
:1038B00050E0B60180E00E94BF190E94A31B9AC08D
:1038C000C7010E94B4190E948F1BBE016B5E7F4F1F
:1038D0000E94EC1A009719F00CF08CC08FC01130C8
:1038E00071F48B8D9C8D089719F481E08093AC0462
:1038F0008091AC0481112FC067E272E031C01330B7
:1039000009F07CC08F89882349F1823029F440E88E
:103910006CE082E492E006C0813039F440E868E06F
:1039200089E392E00E94381863C0833009F066C0D2
:103930000E948F1B8E010F5F1F4FB8010E940B1B4F
:10394000F80101900020E9F73197BF01601B710B6E
:1039500040E0C801E7CF65E172E002C06FE472E0C9
:103960006115710509F44AC0FB01449150E080E8FB
:103970000E94BF193FC0973009F440C0983021F42D
:1039800081E08093F10036C09930A1F58370B1F5E4
:10399000E6E1F1E081E021E036E39081992361F0F6
:1039A0008093E9002093EB0091919093EC00309389
:1039B000ED008F5F873089F78EE78093EA001092E1
:1039C000EA008F898093B30415C08B8D9C8D0E9473
:1039D000B419898D811105C0CE0145960E9430131E
:1039E00007C00E948F1BBE016B5E7F4F0E942A1B87
:1039F000882321F08EEF8093E80003C081E280935A
:103A0000EB006C960FB6F894DEBF0FBECDBFDF9112
:103A1000CF91FF91EF91BF91AF919F918F917F9146
:103A20006F915F914F913F912F911F910F91FF9057
:103A3000EF90DF90CF900F900FBE0F901F901895D2
:103A400008951F920F920FB60F9211242F933F9358
:103A50004F935F936F937F938F939F93AF93BF9396
:103A6000EF93FF93E0911C01F0911D010995FF91E7
:103A7000EF91BF91AF919F918F917F916F915F91E6
:103A80004F913F912F910F900FBE0F901F9018955F
:103A90001F920F920FB60F9211242F933F934F93C3
:103AA0005F936F937F938F939F93AF93BF93EF93A6
:103AB000FF93E0911E01F0911F010995FF91EF9195
:103AC000BF91AF919F918F917F916F915F914F9136
:103AD0003F912F910F900FBE0F901F9018951F923E
:103AE0000F920FB60F9211242F933F934F935F9332
:103AF0006F937F938F939F93AF93BF93EF93FF93B6
:103B0000E0912001F09121010995FF91EF91BF9182
:103B1000AF919F918F917F916F915F914F913F9165
:103B20002F910F900FBE0F901F9018951F920F921C
:103B30000FB60F9211242F933F934F935F936F9380
:103B40007F938F939F93AF93BF93EF93FF93E091F6
:103B50002201F09123010995FF91EF91BF91AF915F
:103B60009F918F917F916F915F914F913F912F9195
:103B70000F900FBE0F901F9018951F920F920FB6C7
:103B80000F9211242F933F934F935F936F937F93E3
:103B90008F939F93AF93BF93EF93FF93E091240193
:103BA000F09125010995FF91EF91BF91AF919F9100
:103BB0008F917F916F915F914F913F912F910F90D6
:103BC0000FBE0F901F9018951F920F920FB60F9275
:103BD00011242F933F938F939F93AF93BF93809123
:103BE000B7049091B804A091B904B091BA0430918F
:103BF000B60423E0230F2D3720F40196A11DB11D3B
:103C000005C026E8230F0296A11DB11D2093B6041E
:103C10008093B7049093B804A093B904B093BA0406
:103C20008091BB049091BC04A091BD04B091BE04EE
:103C30000196A11DB11D8093BB049093BC04A09379
:103C4000BD04B093BE04BF91AF919F918F913F91FE
:103C50002F910F900FBE0F901F9018953FB7F894BB
:103C60008091BB049091BC04A091BD04B091BE04AE
:103C700026B5A89B05C02F3F19F00196A11DB11DC7
:103C80003FBFBA2FA92F982F8827820F911DA11D02
:103C9000B11DBC01CD0142E0660F771F881F991F3F
:103CA0004A95D1F708958F929F92AF92BF92CF928B
:103CB000DF92EF92FF926B017C010E942E1E4B015E
:103CC0005C01C114D104E104F10401F10E94CA169F
:103CD0000E942E1EDC01CB0188199909AA09BB0993
:103CE000883E9340A105B10560F321E0C21AD108D6
:103CF000E108F10888EE880E83E0981EA11CB11C33
:103D0000C114D104E104F10419F7DBCFFF90EF9067
:103D1000DF90CF90BF90AF909F908F9008958230AA
:103D2000910538F0880F991F880F991F0597019703
:103D3000F1F70895789484B5826084BD84B581607C
:103D400084BD85B5826085BD85B5816085BDEEE6A3
:103D5000F0E0808181608083E1E8F0E01082808182
:103D600082608083808181608083E0E8F0E08081F0
:103D700081608083E1E9F0E08081826080838081DE
:103D800081608083E0E9F0E0808181608083E1EC04
:103D9000F0E0808184608083808182608083808184
:103DA00081608083E3ECF0E0808181608083E0ECDF
:103DB000F0E0808182608083E2ECF0E080818160CD
:103DC0008083EAE7F0E08081846080838081826084
:103DD0008083808181608083808180688083089572
:103DE00090E0FC013197EF30F105B0F5EA5AFF4F52
:103DF0000C942C35809180008F7703C080918000D7
:103E00008F7D80938000089580918000877FF9CF17
:103E100084B58F7702C084B58F7D84BD089580916D
:103E200090008F7707C0809190008F7D03C08091B4
:103E30009000877F8093900008958091C0008F77D5
:103E400003C08091C0008F7D8093C0000895809151
:103E5000C200877F8093C2000895CF93DF9390E0E4
:103E6000FC01EF58FD4F2491FC01E057FD4F849178
:103E7000882361F190E0880F991FFC01E553FD4F05
:103E8000C591D491FC01E354FD4FA591B49161110A
:103E900009C09FB7F8948881209582238883EC918C
:103EA0002E230BC0623061F49FB7F8943881822FC3
:103EB000809583238883EC912E2B2C939FBF06C083
:103EC0008FB7F894E8812E2B28838FBFDF91CF9195
:103ED00008951F93CF93DF93282F30E0F901ED5A17
:103EE000FD4F8491F901EF58FD4FD491F901E0574E
:103EF000FD4FC491CC23C9F0162F81110E94F01EF2
:103F0000EC2FF0E0EE0FFF1FE354FD4FA591B491AD
:103F10008FB7F894111105C09C91ED2FE095E9231E
:103F200002C0EC91ED2BEC938FBFDF91CF911F91ED
:103F300008954F925F926F927F92AF92BF92CF920D
:103F4000DF92EF92FF920F931F93CF93DF93CDB742
:103F5000DEB729013A019B01AC0124193509460954
:103F6000570989899A89AB89BC89BC01CD016A1935
:103F70007B098C099D090E94A734A8019701241987
:103F80003509460957090E940D35CA01B9016A0D64
:103F90007B1D8C1D9D1DDF91CF911F910F91FF9077
:103FA000EF90DF90CF90BF90AF907F906F905F9039
:103FB0004F900895DC01FB0111961C921E921396FE
:103FC0001C921E92129715961C921E921497808135
:103FD000918111969C938E938281938113969C93E9
:103FE0008E9312978481958115969C938E93149746
:103FF0001182108213821282158214820895FC01AC
:10400000808191810C94D635CF93DF93EC01888128
:104010009981009711F00E94D635198218821D826D
:104020001C821B821A82DF91CF9108950F931F93F8
:10403000CF93DF93EC018B016F5F7F4F8881998174
:104040000E946E36009731F0998388831B830A8320
:1040500081E001C080E0DF91CF911F910F91089521
:10406000CF93DF93EC0188819981892B29F08A8194
:104070009B818617970760F4CE010E941620882343
:1040800041F08C819D81892B19F4E881F98110829E
:1040900081E0DF91CF910895EF92FF920F931F93EC
:1040A000CF93DF93EC017B018A01BA010E9430209B
:1040B000811104C0CE010E94042007C01D830C831F
:1040C000B701888199810E945037CE01DF91CF914D
:1040D0001F910F91FF90EF900895FC0111821082C3
:1040E00013821282158214826115710551F0FB0151
:1040F00001900020E9F73197AF01461B570B0C9454
:104100004C200895EF92FF920F931F93CF93DF936C
:10411000EC017B018A01BA010E943020811104C0A8
:10412000CE010E94042007C01D830C83B701888143
:1041300099810E943737CE01DF91CF911F910F9166
:10414000FF90EF900895CF93DF93EC01FB0186176A
:10415000970761F0608171816115710529F04481D3
:1041600055810E944C2002C00E940420CE01DF91A4
:10417000CF910895FC011182108213821282158260
:1041800014820C94A320CF93DF93EC016115710589
:1041900059F0FB0101900020E9F73197AF01461B70
:1041A000570B0E944C2002C00E940420CE01DF91D8
:1041B000CF910895CF93DF9300D0CDB7DEB7FC0148
:1041C00011821082138212821582148269831A82EC
:1041D000BE016F5F7F4F0E94C3200F900F90DF9151
:1041E000CF9108950F931F93CF93DF9300D0CDB756
:1041F000DEB78C016115710561F0CB0169837A83AB
:104200000E943E37AC0169817A81C8010E948220F8
:1042100002C00E940420C8010F900F90DF91CF913F
:104220001F910F910895FC01118210821382128256
:10423000158214820C94F220EF92FF920F931F9339
:10424000CF93DF93FC01248135816115710511F451
:1042500080E019C041155105A9F07B01EC018A01EC
:10426000020F131FB8010E943020882389F3288190
:1042700039818C819D81B701820F931F0E94503735
:104280001D830C8381E0DF91CF911F910F91FF90EF
:10429000EF900895CF93DF9300D0CDB7DEB7698359
:1042A0001A8241E050E0BE016F5F7F4F0E941C21E7
:1042B0000F900F90DF91CF910895CF93DF93EC0192
:1042C000FB0144815581608171810E941C21811113
:1042D00003C0CE010E940420CE01DF91CF9108954A
:1042E0002091C2053091C30528173907B9F4909180
:1042F000800580918105981789F0E0918005F0E0B4
:10430000EE57FA4F80812091800530E02F5F3F4FBC
:104310002F7333272093800590E008958FEF9FEF50
:1043200008951F93CF93DF93DC015C962D913C9110
:104330005D972115310539F481E090E013969C9347
:104340008E9312973DC05196ED91FC9152975096E5
:104350009C915097892F80951FB75E964C915E97E0
:1043600041FB772770F941FD6095F89440817723F0
:1043700011F0492B01C048234083E9012197F1F74F
:1043800048E0508160FF02C0592B01C05823508380
:10439000E9012197F1F76695415099F7772321F0CC
:1043A00090818923808303C08081982B90831FBFD5
:1043B0005C968D919C915D970197F1F721E030E03B
:1043C000C901DF91CF911F91089508952091C205F1
:1043D0003091C3052817390771F4909180058091B9
:1043E0008105981741F0E0918005F0E0EE57FA4F13
:1043F000808190E008958FEF9FEF089580915D0593
:1044000090E020915E05821B9109089590915E05D0
:1044100080915D05981750F4E92FF0E0E15AFA4FCA
:10442000208130E09F5F90935E0502C02FEF3FEF49
:10443000C9010895E0915E0580915D05E81730F4AB
:10444000F0E0E15AFA4F808190E008958FEF9FEFFE
:10445000089508952091C2053091C30528173907A2
:1044600071F4809181052091800590E0805C9F4FE0
:10447000821B910960E470E00E94D734089580E0C7
:1044800090E008951F920F920FB60F9211242F9370
:104490003F934F935F936F937F938F939F93AF93CC
:1044A000BF93EF93FF938091C50587FF05C01092DE
:1044B0009500109294001BC02091C505332727FD5D
:1044C00030958091C40590E02817390784F48091D5
:1044D000C505992787FD9095FC01EE0FFF1F8E0FF4
:1044E0009F1FFC01EA53FA4F808186FD15C0809121
:1044F000C5058F5F8093C5052091C505332727FD2E
:1045000030958091C40590E028173907C4F4809154
:10451000C5058C3064F113C08091C505992787FDCE
:104520009095FC01EE0FFF1F8E0F9F1FFC01EA53B9
:10453000FA4F808160E08F730E94691FD8CF80910D
:10454000940090919500049680349C4918F480E47E
:104550009CE905C0809194009091950004969093F9
:104560009900809398008FEF8093C5053BC0209100
:104570009400309195008091C505992787FD90950D
:10458000FC01EE0FFF1F8E0F9F1FFC01EA53FA4F35
:1045900081819281820F931F90939900809398005C
:1045A0008091C505992787FD9095FC01EE0FFF1FAF
:1045B0008E0F9F1FFC01EA53FA4F808186FF12C0C5
:1045C0008091C505992787FD9095FC01EE0FFF1F8F
:1045D0008E0F9F1FFC01EA53FA4F808161E08F73B9
:1045E0000E94691FFF91EF91BF91AF919F918F91B1
:1045F0007F916F915F914F913F912F910F900FBEDF
:104600000F901F901895FC019091C4059C30A0F468
:1046100081E0890F8093C4059083892F90E0FC018D
:10462000EE0FFF1F8E0F9F1FFC01EA53FA4F88EB1E
:104630009BE09283818308958FEF80830895DF92BA
:10464000EF92FF920F931F93CF93DF93EC01D62E3F
:104650007A01890188818C3008F067C061E08D2D76
:104660000E942D1F8881E82FF0E09F01220F331F49
:10467000E20FF31FEA53FA4F9D2D9F732081207C98
:10468000D22ED92AD08260E272E0AB014E195F09C6
:1046900057FF02C04D5F5F4F55954795559547951C
:1046A000498340E659E09A01201B310B37FF02C0D5
:1046B0002D5F3F4F35952795359527952A836CE0DB
:1046C0000E94B7349CE0899FB001112440E050E083
:1046D0009A01260F371FF901EE0FFF1F2E0F3F1F04
:1046E000F901EA53FA4F908196FD13C04F5F5F4F77
:1046F0004C30510569F781110CC01092900082E096
:1047000080939100109295001092940088BB809342
:104710007100E881F0E0CF01880F991FE80FF91FC1
:10472000EA53FA4F8081806480838881DF91CF9142
:104730001F910F91FF90EF90DF90089520E639E0F0
:1047400040E252E00C941F23DC01EC91F0E0CF0139
:10475000880F991FE80FF91FEA53FA4F80818F7B6A
:1047600080830895FC0190819C3080F5818128E848
:1047700030E0281B310987FD3395220F331F220FAC
:10478000331F621773077CF0828128E532E0281B13
:10479000310987FD3395220F331F220F331F621714
:1047A00073070CF49B0122503109220F331F4FB7BE
:1047B000F894892F90E0FC01EE0FFF1F8E0F9F1FD2
:1047C000FC01EA53FA4F328321834FBF0895AF9221
:1047D000BF92CF92DF92EF92FF920F931F93CF93EE
:1047E000DF93EC01603282E078070CF03FC077FD88
:1047F00006C0653B71052CF064EB70E002C060E020
:1048000070E0898128E830E05901A81AB10887FDD5
:10481000B394AA0CBB1CAA0CBB1CCC24B7FCC09440
:10482000DC2C882777FD8095982F2A8108E512E0F7
:10483000021B110927FD1395000F111F000F111FF7
:10484000222717FD2095322F3F932F931F930F930D
:1048500014EBE12EF12C00E010E020E030E0A901A3
:104860000E94991F0F900F900F900F90CE01DF9133
:10487000CF911F910F91FF90EF90DF90CF90BF905D
:10488000AF900C94B223E091C205F091C305E817F4
:10489000F90769F4A389B4899C9185898095892356
:1048A0008C931092C3051092C20581E0089580E0B8
:1048B0000895CF93DF93EC018A8D9B8D892BF1F0C6
:1048C0008091C2059091C3058C179D07B9F00097A0
:1048D00011F00E9443248E8D8E7F8E8F1092810561
:1048E00010928005D093C305C093C205EB89FC8963
:1048F00090818D89892B808381E001C080E0DF91E8
:10490000CF9108951F920F920FB60F9211242F93FB
:104910003F934F935F936F937F938F939F93AF9347
:10492000BF93EF93FF93E091C205F091C3053097D9
:1049300009F451C0968DA685B785858591FF04C081
:104940009C91892329F447C09C91892309F043C095
:10495000A389B4899C918589809589238C938689C4
:1049600097890197F1F7608D718DA685B78555857B
:1049700038E020E0CB010197F1F7822F90E0959588
:104980008795282F4C91452309F02068315091F7E5
:10499000868D81FD20958091810590E001968F7331
:1049A000992730918005381749F0A0918105B0E032
:1049B000AE57BA4F2C938093810503C0868D8160DA
:1049C000868F828D938D0197F1F7A389B4899C918D
:1049D0008589892B8C93FF91EF91BF91AF919F9126
:1049E0008F917F916F915F914F913F912F910F9098
:1049F0000FBE0F901F90189520EC31E0FC01318321
:104A000020830C9443241F93CF93DF93EC01162F44
:104A10006E8D6695617081E06827812F0E94691F05
:104A200061E0812F0E942D1F612F70E0FB01EF5884
:104A3000FD4FE491E88BFB01E057FD4FE491F0E07E
:104A4000EE0FFF1FE354FD4F859194919A8B898B54
:104A5000DF91CF911F9108951F93CF93DF93EC01C6
:104A6000162F60E0812F0E942D1F8E8D81FD04C0C6
:104A700061E0812F0E94691F1C87612F70E0FB019C
:104A8000EF58FD4FE491ED87FB01E057FD4FE491B6
:104A9000F0E0EE0FFF1FE155FD4F859194919F8748
:104AA0008E87DF91CF911F9108951F93CF93DF934E
:104AB000EC01162F1B821A8288EE93E0A0E0B0E092
:104AC0008C839D83AE83BF8380EC91E09983888340
:104AD0001F8A1E8A198E188E1B8E1A8E1D8E1C8E92
:104AE0008E8D8E7F20FB81F98E8F642FCE010E94E8
:104AF0000325612FCE01DF91CF911F910C942C25BE
:104B0000CF93DF93EC019A01AB011B8E1A8E198EA5
:104B1000188E1F8A1E8A60E079E08DE390E00E9483
:104B20000D35F9012430310518F0C901039702C091
:104B300081E090E09D8F8C8F8C8598EF980F94305A
:104B400048F062EF680F643028F066EE680F63305B
:104B500008F071C0B901769567956431710518F058
:104B60006351710902C061E070E07F8B6E8B3697F4
:104B700020F0B9016550710902C061E070E0798FE1
:104B8000688FB901660F771F260F371F3695279557
:104B9000369527952D30310518F02C50310902C07B
:104BA00021E030E03B8F2A8F943058F092EF980F3D
:104BB000943038F08A51833008F442C0A0E0B0E06D
:104BC00041C0A8E6B0E0E8E6F0E0808181608C9327
:104BD0008C8598EF980F943058F022EF280F2430EE
:104BE00038F026EE280F233018F020E030E002C025
:104BF0002BE630E03C8B2B8B943010F4845009C0B2
:104C00008E3069F08F3069F0803169F0813169F060
:104C1000865191E001C0990F8A95EAF707C098E0A4
:104C200005C092E003C094E001C091E09D8B8C8DA3
:104C30009D8D0197F1F7CE01DF91CF910C9459240E
:104C4000A8E6B0E0833008F4BECFE0E0F0E0BDCFEE
:104C5000CF93CFB7F89480917F05811127C0E1EA07
:104C6000F2E08491E2E8F2E09491E82FF0E0EE0FB8
:104C7000FF1FE553FD4FA591B491EC91E92321F479
:104C800061E081E10E94691F61E081E10E942D1FC6
:104C90008CB580618CBD8CB580648CBD61E08FE08B
:104CA0000E942D1F61E080E10E942D1F80917F05F1
:104CB0008F5F80937F05CFBFCF910895FC01138252
:104CC000128288EE93E0A0E0B0E084839583A6830F
:104CD000B78380ED91E091838083089581E0809394
:104CE000390560935C0510923B0510923A050895D2
:104CF00010922C0581E080932A051092290561E02D
:104D000082E00E94691F61E083E00E94691FE9EB75
:104D1000F0E080818E7F808380818D7F808388E436
:104D20008093B80085E48093BC00089510925E05DE
:104D300010925D0510923B0510923A050C9478266E
:104D40000F934132E8F590912C059111FCCF32E0A0
:104D500030932C0500932A053FEF3093BF04109247
:104D6000040540930305FB0165E075E0DB013A2F84
:104D7000361B341718F431913D93F9CF10922B055F
:104D800030912B05880F832B80932B05809129056B
:104D9000813061F41092290580912B058093BB002E
:104DA0008091BC0083FDF8CF85EC01C085EE809337
:104DB000BC00222339F080912C05823019F4F9CF00
:104DC00091E011C08091BF048F3F69F08091BF04D2
:104DD000803231F08091BF04803321F094E003C031
:104DE00092E001C093E0892F0F9108950F93062F51
:104DF00021E040913A056CE375E080915C050E94EA
:104E0000A02610923B0510923A05109239050F9199
:104E1000089561E00C94F626613298F420912C05F7
:104E2000243089F46093E104FC0123EE34E0D901DD
:104E30008A2F821B861718F481918D93F9CF80E019
:104E4000089581E0089582E00895CF93DF931F9243
:104E5000CDB7DEB76983209139052223D1F02091A7
:104E60003A05203240F021E030E0FC013383228318
:104E700080E090E015C080913B05E82FF0E0E45C15
:104E8000FA4F998190838F5F80933B0580933A0519
:104E900005C061E0CE0101960E940C2781E090E000
:104EA0000F90DF91CF910895CF92DF92EF92FF9212
:104EB0000F931F93CF93DF937C01262F972F8A01A7
:104EC00080913905882391F0C62FD72F6E01C40E2B
:104ED000D51ECC15DD0571F06991D701ED91FC91DE
:104EE0000190F081E02DC7010995F3CF642F822F47
:104EF0000E940C27C801DF91CF911F910F91FF9065
:104F0000EF90DF90CF90089585ED8093BC00809165
:104F1000BC0084FDFCCF10922C05089585EC809395
:104F2000BC0010922C0508951F920F920FB60F929D
:104F300011242F933F934F935F936F937F938F939E
:104F40009F93AF93BF93EF93FF938091B900887FB6
:104F5000803609F49EC078F5883209F45DC090F47B
:104F6000803109F456C038F4882309F4F5C088303C
:104F700009F44FC0F5C0883109F44EC0803209F4FD
:104F80005FC0EEC0803409F46AC058F4803309F47D
:104F900057C0883309F0E4C08093BF040E948E2775
:104FA000DFC0803509F44FC0883509F45DC088340E
:104FB00009F0D6C0D3C0883909F4C4C0A8F4883732
:104FC00009F467C038F4883609F463C0803709F4FF
:104FD00060C0C6C0883809F4B5C0803909F45FC024
:104FE000803809F0BDC05BC0803B09F483C038F451
:104FF000803A09F466C0883A09F47CC0B1C0803CAC
:1050000009F4A4C0883C09F4A1C0883B09F487C016
:10501000A7C080912B0510C09091040580910305D5
:10502000981770F5E091040581E08E0F80930405D8
:10503000F0E0EB5FFA4F80818093BB0085EC83C08A
:105040008093BF048BC0E091040581E08E0F8093B4
:1050500004058091BB00F0E0EB5FFA4F80839091F4
:105060000405809103056BC0E091040581E08E0F7B
:10507000809304058091BB00F0E0EB5FFA4F8083E2
:1050800080912A0581116AC081E08093290584EA14
:105090005EC083E080932C051092C004CFCF809136
:1050A000C004803208F04EC0E091C00481E08E0F51
:1050B0008093C0048091BB00F0E0EF53FB4F8083EE
:1050C000BDCF0E948E278091C004803230F4E091E1
:1050D000C004F0E0EF53FB4F10826091C00470E019
:1050E000E0912505F091260581EC94E00995109258
:1050F000C00436C084E080932C051092E204109224
:10510000E104E0912705F091280509958091E104DB
:10511000811105C081E08093E1041092E304E091E5
:10512000E20481E08E0F8093E204F0E0ED51FB4F4A
:1051300080818093BB009091E2048091E1049817F4
:1051400008F47CCF85E88093BC000AC085EC80938E
:10515000BC0010922C0504C01092BF040E9484274A
:10516000FF91EF91BF91AF919F918F917F916F913F
:105170005F914F913F912F910F900FBE0F901F9015
:1051800018958DE295E00C945E2680911A06909118
:105190001B06892B49F481E090E090931B068093D5
:1051A0001A0640E064E606C010921B0610921A062A
:1051B00040E060E081E10C94D00D0F931F93CF93FA
:1051C000DF931F92CDB7DEB78C0169830E948B37C6
:1051D0006981681741F0C8010F90DF91CF911F914D
:1051E0000F910C9493370F90DF91CF911F910F91F6
:1051F0000895CF93DF9300D000D0CDB7DEB7DC01A8
:1052000012963C91129739836A834B832C83ED91DC
:10521000FC910190F081E02D44E050E0BE016F5F11
:105220007F4F09950F900F900F900F90DF91CF91C6
:105230000895FC01128220E040E060E00C94F9281F
:10524000CF93DF93EC016A8320E040E060E00E94AE
:10525000F9281A8220E040E060E0CE01DF91CF9192
:105260000C94F928CF93DF93EC01E881F981048055
:10527000F581E02D0995E881F9810680F781E02D1F
:10528000CE01DF91CF9109940F931F93CF93DF93BA
:10529000EC01E881F9810084F185E02D41E0099578
:1052A0008C01892B39F0E881F9810680F781E02DA6
:1052B000CE010995C801DF91CF911F910F910895FB
:1052C0000F931F93CF93DF93EC01E881F981048062
:1052D000F581E02D09958C01892B39F0E881F98160
:1052E0000680F781E02DCE010995C801DF91CF91AD
:1052F0001F910F910895803839F421E030E0309308
:1053000019062093180611C0823839F421E030E0E4
:10531000309317062093160608C0823331F421E03B
:1053200030E0309315062093140620911806309132
:10533000190621303105A9F440911606509117063F
:105340004130510509F022C14091140650911506D3
:105350004130510509F01AC130930306209302062B
:1053600015C1813839F441E050E050931306409361
:1053700012062AC0893DE1F441E050E05093110645
:105380004093100621303105F9F4409112065091F6
:1053900013064130510529F5409110065091110630
:1053A00041305105F1F45093FF054093FE0519C0BB
:1053B0002130310551F38A3D09F066C041E050E0EB
:1053C00050930F0640930E062130310509F084C03A
:1053D00040911606509117064130510509F0A2C0C0
:1053E0002CC08A3D31F441E050E050930F064093C9
:1053F0000E0640911206509113064130510551F1AD
:10540000843351F441E050E050930D0640930C0674
:105410002130310509F044C040911606509117061D
:105420004130510509F078C040910C0650910D06AD
:1054300041305105D9F0853301F140910A06509170
:105440000B064130510509F0B5C05093FF0540935C
:10545000FE0565C040910E0650910F064130510582
:1054600079F65093010640930006CACF5093FD058C
:105470004093FC05853309F0ABCF41E050E05093F9
:105480000B0640930A06A4CF843309F4BBCF8533BF
:1054900009F09ACF41E050E050930B0640930A0682
:1054A0002130310509F08AC0409116065091170647
:1054B0004130510509F082C002C08833C1F14091EA
:1054C0000606509107064130510509F07AC0509305
:1054D000F5054093F40534C0873309F061C041E01D
:1054E00050E050930906409308062130310509F039
:1054F0006BC0409116065091170641305105F1F4EA
:10550000409108065091090641305105B1F650937B
:10551000F7054093F60508C0853309F4AECF87330D
:1055200041F7DDCF8733D9F2883309F0BDCF41E0B1
:1055300050E05093070640930606B6CF8833B9F380
:10554000893349F441E050E0509305064093040646
:1055500021303105C9F5209116063091170621300A
:10556000310559F4209104063091050621303105AA
:1055700021F43093F3052093F205853829F581E075
:1055800090E09093ED058093EC050895813809F043
:10559000F1CE41E050E05093130640931206FCCE4A
:1055A000883309F07DCF81E090E0909307068093E7
:1055B00006060895873309F0A3CF91CF8933E9F622
:1055C000C1CF893379F6BECF0895CF93DF9380386A
:1055D00029F410921906109218060DC0823829F489
:1055E000109217061092160606C0823321F410920C
:1055F00015061092140620911806309119062115EF
:10560000310509F0A8C04091160650911706452BA8
:1056100009F0CEC24091140650911506452B09F0B1
:10562000C7C240910206509103064130510509F06E
:10563000BFC2109203061092020660EE85E192E06E
:105640000E94442964E670E080E090E00E94531ECE
:1056500062EE85E192E00E94442964E670E080E019
:1056600090E00E94531E6CE485E192E00E94442980
:1056700064E670E080E090E00E94531E85E192E0D5
:105680000E9460298EE996E00E94000660EB74E0BB
:105690008EE996E00E940D1741E060E08EE996E009
:1056A0000E94070660EA74E08EE996E00E940D17FA
:1056B000289A61E085E00E94691F60E971E080E05E
:1056C00090E00E94531E60E085E00E94691F60E93F
:1056D00071E080E090E00E94531E61E085E00E944E
:1056E000691F60E971E080E090E00E94531E60E075
:1056F00085E00E94691F60E971E080E090E00E940F
:10570000531E61E085E00E94691F60E971E080E05E
:1057100090E00E94531E60E085E00E94691F60E9EE
:1057200071E080E090E00E94531E61E085E00E94FD
:10573000691F60E971E080E090E00E94531E60E024
:1057400085E00E94691F60E971E080E090E0DF91F0
:10575000CF910C94531E813829F4109213061092A5
:10576000120651C0893DB1F4109211061092100634
:105770002115310509F047C04091120650911306DA
:10578000452B09F025C24091100650911106452B7A
:1057900029F044C02115310579F32EC04091FE0552
:1057A0005091FF0541305105C9F51092FF05109247
:1057B000FE0580E092E00E94192985E192E00E94B6
:1057C00032298EE996E00E94000662E974E08EE9D3
:1057D00096E00E940D1742E060E08EE996E00E949C
:1057E00007066AE874E08EE996E00E940D171092B1
:1057F000F9051092F80560C28A3D09F06AC110925D
:105800000F0610920E062115310509F071C1409165
:10581000160650911706452B49F17CC08A3D21F4AC
:1058200010920F0610920E06409112065091130628
:10583000452B09F4D4C0843341F410920D06109224
:105840000C062115310509F04EC140911606509104
:105850001706452B09F0C0C140910C0650910D066A
:10586000452B09F4F2C0853309F4B8C140910A060A
:1058700050910B06452B09F0BAC14091FE0550919D
:10588000FF054130510509F0B2C11092FF05109299
:10589000FE051092F9051092F8051092FB05109282
:1058A000FA058EE996E00E9400066BE174E08EE94D
:1058B00096E00E940D1741E060E08EE996E00E94BC
:1058C000070661E174E08EE996E00E940D1767E03B
:1058D00070E085E996E00E949E2368E070E082E92E
:1058E00096E00E949E2360E070E085E996E00E94C9
:1058F000E72360E070E082E996E00E94E72368EE2B
:1059000073E080E090E00E94531E85E996E00E94DB
:10591000A4235FC0873309F4EEC0883321F41092CA
:105920000706109206064091160650911706452B61
:1059300009F0B0C14091060650910706452B09F0C9
:10594000B7C14091F4055091F5054130510509F07A
:10595000AFC11092F5051092F4058EE996E00E9411
:10596000000663EE73E08EE996E00E940D1741E0B9
:1059700060E08EE996E00E94070664ED73E08EE930
:1059800096E00E940D1768E070E082E996E00E94C0
:105990009E2381E090E00E948B37682F70E082E9BF
:1059A00096E00E94E72360913A0170913B018827BD
:1059B00077FD8095982F0E94531E60E070E082E989
:1059C00096E00E94E72368EE73E080E090E00E949A
:1059D000531E82E996E0DF91CF910C94A42340916D
:1059E0000E0650910F06452B09F025CFC0910006F9
:1059F000D0910106C130D10509F01DCF10920106EA
:105A00001092000685E192E00E94602980E092E019
:105A10000E9419298EE996E00E9400066FE774E063
:105A20008EE996E00E940D1742E060E08EE996E074
:105A30000E94070667E774E08EE996E00E940D1762
:105A4000D093F905C093F80537C14091FC055091FA
:105A5000FD054130510509F006CF1092FD05109269
:105A6000FC051092F9051092F8055093FB05409340
:105A7000FA058EE996E00E94000665E674E08EE97C
:105A800096E00E940D1741E060E08EE996E00E94EA
:105A9000070660E574E08EE996E00E940D1742E08B
:105AA00060E08EE996E00E9407066FE374E08EE9FD
:105AB00096E00E940D1743E060E08EE996E00E94B8
:105AC00007066DE274E08EE996E0DF91CF910C94C9
:105AD0000D17843309F4B1CE853309F094CE1092BA
