:100000000C9499030C94A11E0C94C81E0C94EF1E22
:100010000C94161F0C94C1030C94C1030C943D1F47
:100020000C94C1030C94D1230C94A31B0C94391D84
:100030000C94C1030C94C1030C94C1030C94C10330
:100040000C94C1030C94C1030C94C1030C94C10320
:100050000C94CA0F0C94C1030C94C1030C94641F3C
:100060000C94C1030C94FA150C942C160C94C10337
:100070000C94C1030C94C1030C94C1030C94C103F0
:100080000C94C1030C94C1030C94C1030C94C103E0
:100090000C94E3260C94C1030C94F90D0C94C10349
:1000A0000C94C1030C94C1030C94C10388208B20D1
:1000B0007A207E208420AC20AC20AC208F2093209E
:1000C00097209D20A120AC20A72005010902A101B5
:1000D00085010509190129081500250195087501F3
:1000E000810205010930093109381581257F75081C
:1000F00095038106C005010906A101050719E0293C
:10010000E715002501750195088102050C9501751B
:1001100008150026FF00190029FF810005081901B4
:1001200029089508750191020507950675081500BF
:1001300026E700190029E78100C000000000000048
:1001400000002A2B28000000000000000000000032
:10015000000000000000000000002C9EB4A0A1A23E
:10016000A434A6A7A5AE362D3738271E1F2021227E
:1001700023242526B333B62EB7B89F848586878877
:10018000898A8B8C8D8E8F90919293949596979867
:10019000999A9B9C9D2F3130A3AD35040506070825
:1001A000090A0B0C0D0E0F10111213141516171847
:1001B000191A1B1C1DAFB1B0B500504120506F770C
:1001C000657209203D2025530D0A00435243204CFF
:1001D000656E67746809203D2025530D0A004D6F38
:1001E00064656C0909203D2025530D0A00446174A3
:1001F00061205261746509203D2025530D0A004499
:10020000594E50442F4645415455524500434F4E98
:10021000464947090052465F5345545550005246DF
:100220005F43480900454E5F5258414444520045DF
:100230004E5F4141090052585F50575F50302D3694
:100240000054585F41444452090052585F414444AD
:10025000525F50322D350052585F414444525F5036
:10026000302D31000D0A0025303278002030780022
:10027000255309203D000D0A0020307825303278C2
:1002800000255309203D005354415455530909207A
:100290003D203078253032782052585F44523D2539
:1002A000782054585F44533D2578204D41585F5283
:1002B000543D25782052585F505F4E4F3D257820A1
:1002C00054585F46554C4C3D25780D0A00111213C9
:1002D0001415160A0B0C0D0E0F000102030405FD88
:1002E00002F602EE02E70250415F4D4158005041D4
:1002F0005F484947480050415F4C4F570050415FAD
:100300004D494E00190312030A0331362062697405
:1003100073003820626974730044697361626C65AC
:100320006400300326036E524632344C30312B00C9
:100330006E524632344C3031004D0347033F033296
:1003400035304B42505300324D42505300314D42F4
:100350005053002D4641494C2D00080B000202026B
:100360000100090400000102020000052400100140
:1003700005240101010424020605240600010705E5
:10038000810310004009040100020A000000070573
:100390000202400000070583024000001201000233
:1003A000EF0201404F1B06920001010203011201FE
:1003B0000002000000404F1B0692000101020301F1
:1003C000537061726B46756E0055534220494F2041
:1003D000426F617264000403090400000002000916
:1003E0000F0000030401000C0000000000000000EA
:1003F00000000000000000000408020110408040DE
:10040000102040804080080204018040201002013A
:10041000108010204040200404040404030405025A
:10042000020202040302020202060606060606048F
:100430000402020204040000000023002600290038
:100440002C002F0000000000250028002B002E00AB
:10045000310000000000240027002A002D00300099
:100460002052656C656173656400436C69636B2041
:10047000726967687400436C69636B206C656674AD
:10048000004D6F757365207269676874004D6F75F4
:100490007365206C656674004D6F75736520646FBD
:1004A000776E004D6F757365207570002050726512
:1004B00073736564002072656365697665640041E5
:1004C0003A3A2000413A3A204B65793A2000656E6D
:1004D00061626C6564004D6F757365206D6F646556
:1004E00000656E61626C6564004B6579626F617274
:1004F00064206D6F6465004354524C2B414C542B67
:1005000044454C4554450053656E740053797374EB
:10051000656D2072656164792121003A006F722057
:10052000776169742074656E207365636F6E6473A0
:100530000050726573732061206B657920746F20A1
:10054000626567696E0053656E64696E67206661F7
:10055000696C65642E00476F7420726573706F6EEE
:1005600073653A20004661696C65642C207265737E
:10057000706F6E73652074696D6564206F75742E7D
:100580000053656E742064617461206D61796265E9
:100590000053656E64696E67206461746100456E26
:1005A0006372797074656420646174613A00456EA9
:1005B00063727970746564206C656E6774683A0064
:1005C000526174652069733A2000506F776572201C
:1005D00069733A20004368616E6E656C2069733AF6
:1005E0002000436865636B696E67207468652072DC
:1005F0006164696F0053657475702069733A2000F7
:100600002A2A526164696F20636865636B212A2A14
:100610000043727970742050617373776F72640055
:10062000000132464764280708090A0B0C0D0E0F1B
:10063000101112131415161718191A1B1C1D1E1F42
:100640002C2122232425263428292A2B362D3738FD
:10065000271E1F202122232425263A333C2E3E3FED
:10066000404142434445464748494A4B4C4D4E4F12
:10067000505152535455565758595A2F31305E5F86
:10068000350405060708090A0B0C0D0E0F10111290
:10069000131415161718191A1B1C1D7B7C7D7E7FE1
:1006A000E0E1E2E3E4E5E6E788898A8B8C8D8E8FD2
:1006B000909192939495969798999A9B9C9D9E9FC2
:1006C000A0A1A2A3A4A5A6A7A8A9AAABACADAEAFB2
:1006D00028292A2BB4B5B6B7B8B9BABBBCBDBEBFC2
:1006E000C0393A3B3C3D3E3F404142434445CECF7A
:1006F000D0D14A4B4C4D4E4F505152DBDCDDDEDF4A
:10070000E0E1E2E3E4E5E6E7E8E9EAEBECEDEEEF71
:10071000F0F1F2F3F4F5F6F7F8F9FAFBFCFDFEFF61
:10072000F703A7052F141F155C1615181028202B8A
:100730004E2B11241FBECFEFDAE0DEBFCDBF12E09B
:10074000A0E0B1E0E4E8FBE602C005900D92A8301D
:10075000B107D9F716E0A8E0B2E001C01D92AA3AAD
:10076000B107E1F713E0C8E9D3E004C02197FE0127
:100770000E94FD2FC039D107C9F70E9421180C949F
:10078000B5350C9400000F931F93CF93DF93EB01CB
:100790008A010E94C5179801AE0161E0DF91CF91F7
:1007A0001F910F910C947117FC01128225E331E027
:1007B0003183208380911102811113C010920902AC
:1007C000109208028AEC90E090930B0280930A0248
:1007D0008BE290E090930D0280930C0281E0809375
:1007E00011020E94C51768E072E00C9454178EE065
:1007F00092E00C94D403FC0182818F5BFB01808327
:1008000081E00895FC0134969C01245F3F4F80E015
:1008100090E04081411101961192E217F307C9F768
:100820000895CF93DF93CDB7DEB769970FB6F894ED
:10083000DEBF0FBECDBFFC01DB019C919F5F9C938F
:10084000BE016F5F7F4F89E1DB011D928A95E9F759
:1008500029E0298384E08A8391E09D8383E08E836D
:100860009F8398872A8721E22B879C879D879F8774
:1008700022E2288B25E4298B27E02B8B25E02C8B8B
:100880008E8B20E430E0388F2F8B998F82818B8381
:10089000838180688D8B49E150E080E00E943F1B9E
:1008A00069960FB6F894DEBF0FBECDBFDF91CF9132
:1008B0000895BC01625F7F4FFC01838148E050E0F6
:1008C00080640C94A71A0A970C945904FC0120E246
:1008D000260F2830F0F0DC01169620E030E08D91F4
:1008E000442349F0861304C0E20FF31F668326C039
:1008F000811107C0F9CF861304C0E20FF31F1682DF
:100900001DC02F5F3F4F2630310549F780E090E052
:1009100008953481442349F081E090E001C0880FBC
:100920002A95EAF7832B848309C041E050E001C097
:10093000440F2A95EAF740954323448381E090E0F1
:100940000895FB0120812138B9F423812232A1F4DA
:10095000DC0112962C91129730E0448155814217A8
:10096000530751F421E057962C9345E450E065EF8E
:1009700070E080E80C943F1B80E090E00895CF93F6
:10098000DF93EC01FB018A8190E02481358182179D
:10099000930709F04AC081819081913A69F48130CE
:1009A00009F441C0833011F48F8903C08230E9F526
:1009B000888D8093F10037C09132B9F58B3019F4EE
:1009C00082818F8B30C08A3019F48281888F2BC04E
:1009D000893059F5668177818381833079F48C8DF4
:1009E0009D8D6817790709F58A8D9B8D0E94661B7E
:1009F0008C8D9D8D90689D8F8C8F15C0823041F4B9
:100A00006130710591F461E070E0CE01499609C052
:100A1000813059F46830710541F468E070E0CE012E
:100A20000E960E94661B81E001C080E0DF91CF91AD
:100A30000895EF92FF920F931F93CF93DF93E62FCA
:100A4000F0E0E038F10540F021E030E0DC01139601
:100A50003C932E93129722C0D42F7C01E65CFE4F6C
:100A6000C4916C2F6F77DC01ED91FC910084F185CE
:100A7000E02D09958C01C7FF13C0892B11F4D1110A
:100A80000DC0D701ED91FC910084F185E02D4D2F33
:100A900061EEC7010995802B912B02C080E090E0A8
:100AA000DF91CF911F910F91FF90EF900895FF92EA
:100AB0000F931F93CF93DF93EC01F62E41E00E943A
:100AC00019058C01892BA9F0E881F9810680F7814D
:100AD000E02DCE01099540E06F2DCE010E94190551
:100AE000892B39F0E881F9810680F781E02DCE016C
:100AF0000995C801DF91CF911F910F91FF90089543
:100B0000CF93DF93EC0181E08C838D839E012A5E7D
:100B10003F4F3F832E83198618861D861C862BE344
:100B200031E03983288329E431E03B872A878F8BA2
:100B3000888F198E1B8E1A8E1D8E1C8E81EC8E8BCB
:100B40000E940F1DBE01DF91CF910C94C81C89E15A
:100B500092E00C948005FC0112828FEF8183108259
:100B600013820895FC018381882331F0611103C051
:100B70008FEF81830895118208958BE395E00E94A1
:100B8000BD258BE395E00E94582691E0811190E00D
:100B9000892F0895CF93DF93EC016A838BE395E06F
:100BA0000E94E5256A81CE010E94BD058B838823C2
:100BB00029F08BE395E00E94562388838B8190E097
:100BC000DF91CF910895CF93DF93FC0123812223FE
:100BD000B1F0EC01818180956823608362818BE3B1
:100BE00095E00E94BD2568818BE395E00E94742604
:100BF0008BE395E00E945826282F30E002C020E0C9
:100C000030E081E090E0232B11F080E090E0DF9174
:100C1000CF91089508950895DC01ED91FC9102842F
:100C2000F385E02D41E0099581E090E00895FC0115
:100C30001382128227E531E0318320830895DC019D
:100C4000ED91FC910084F185E02D6FEF0994DC01BA
:100C5000ED91FC910284F385E02D40E0099461E080
:100C60000E94270680ED97E00C940F20CF93DF932E
:100C7000CDB7DEB728970FB6F894DEBF0FBECDBF55
:100C8000FC011D8280E48E8394E19F8394E5988724
:100C900019828A8380E18B8380E58C838781481762
:100CA00010F04FEF480F908550E0DE01A40FB51F04
:100CB000903129F4843019F411969C9102C0159654
:100CC0009C91690F6068CF0128960FB6F894DEBF3B
:100CD0000FBECDBFDF91CF910C942706FC0165813B
:100CE000262F246025836C600C942706CF93DF9316
:100CF000EC01423018F08C8188608C834F836887C8
:100D0000222329F0413019F48C8184608C8364E6BD
:100D100070E080E090E00E94D31F6C8164FD31C0E0
:100D2000E881F9810284F385E02D42E063E0CE01A1
:100D3000099584E991E10E940F20E881F9810284FC
:100D4000F385E02D42E063E0CE01099586E990E06D
:100D50000E940F20E881F9810284F385E02D42E0B2
:100D600063E0CE01099586E990E00E940F20E881BA
:100D7000F9810284F385E02D42E062E0CE0109951D
:100D800016C06062CE010E94270684E991E10E94AC
:100D90000F206C816062CE010E94270686E990E0F8
:100DA0000E940F206C816062CE010E94270686E9B6
:100DB00090E00E940F206C816062CE010E942706A5
:100DC0008CE390E00E940F2084E08D83CE010E948E
:100DD0006E06CE010E942F0682E08E8366E0CE0171
:100DE0000E942706CE01DF91CF910C941F0621E0CF
:100DF00001C0220F6A95EAF7DC011C962C931C9720
:100E00001A965C934E931997ED91FC910084F185AD
:100E1000E02D60E00994FC0184858823A9F02185F8
:100E200032852115310519F4611106C007C0213042
:100E3000310521F4611102C0858701C015866585E1
:100E4000CF010E960C94E30508950F931F93CF9353
:100E5000DF938C01EC012E96FC016385CE010E948C
:100E6000CA05019769F461E0CE010E94B205F8015C
:100E7000148260E0CE010E94E30581E090E002C0B0
:100E800080E090E0DF91CF911F910F9108958F92B4
:100E9000AF92CF92EF920F93CF93DF93CDB7DEB7A0
:100EA000FC016387148615861286118681E0982FCF
:100EB00001C0990F4A95EAF7928B982F01C0990FBC
:100EC0002A95EAF7938B982F01C0990F0A95EAF7B4
:100ED000948B982F01C0990FEA94EAF7958B982F7D
:100EE00001C0990FCA94EAF7968B982F01C0990F09
:100EF000AA94EAF7978B01C0880F8A94EAF7808F4B
:100F0000DF91CF910F91EF90CF90AF908F90089598
:100F10004F925F926F927F928F92AF92CF92EF92A9
:100F20000F931F93CF93DF9300D01F92CDB7DEB7FF
:100F30003C011A894B885C882B834A8369830E9411
:100F4000170687E691E0F30191838083C3010E9633
:100F50000E94AB052B814A816981C3010E9447072A
:100F6000A201612FC3010F900F900F90DF91CF91DD
:100F70001F910F91EF90CF90AF908F907F906F90D7
:100F80005F904F900C94F706FF920F931F93CF93AF
:100F9000DF93EC01F62E8C01025F1F4F9A89692BBB
:100FA000C8010E94E3059A8990956F2D6923C801B5
:100FB000DF91CF911F910F91FF900C94E305362F95
:100FC000FC01759624E060E030FF02C05081652B83
:100FD0003695215031962111F7CF413011F4FC01A3
:100FE0004489FC012585622B642B0C94C4070F9364
:100FF0001F93CF93DF93062F0F70423019F440E018
:10100000602F10C0142F262FEC0130E0B90184E0CE
:10101000759567958A95E1F7CE010E94DF07412F0C
:10102000602FCE01DF91CF911F910F910C94DF07BC
:101030000F931F93CF93DF9300D01F92CDB7DEB7EE
:101040008C012B834A8369830E9425072B814A8167
:101050006981C8010F900F900F90DF91CF911F9180
:101060000F910C9476068EBD00000DB407FEFDCFE7
:101070008EB508952CB52F7D2CBD2CB5237F2CBDAE
:101080002CB52C7F2CBD2DB521602DBDFC0181819F
:101090000E94E92085E090E00C940F20FC01808103
:1010A000918189130C94E920089560E00C943A082A
:1010B00061E00C943A08CF92DF92EF92FF920F9387
:1010C0001F93CF93DF9300D01F92CDB7DEB77C0183
:1010D000142F2A835B8369830E9455086981862FB8
:1010E0008F710E943308082FC12E5B81D52E2A8173
:1010F000120F1C1539F08FEF0E943308F60181930F
:101100006F01F7CFC7010E945808802F0F900F90F2
:101110000F90DF91CF911F910F91FF90EF90DF9093
:10112000CF900895EF92FF921F93CF93DF931F927A
:10113000CDB7DEB77C0169830E9455086981862F8F
:101140008F710E9433088FEF0E943308182FC70158
:101150000E945808812F0F90DF91CF911F91FF902F
:10116000EF900895CF92DF92EF92FF920F931F932B
:10117000CF93DF9300D01F92CDB7DEB77C01142F41
:101180002A835B8369830E9455086981862F8F714A
:1011900080620E943308082FC12E5B81D52E2A81E0
:1011A000120F1C1531F0F60181916F010E94330876
:1011B000F8CFC7010E945808802F0F900F900F9012
:1011C000DF91CF911F910F91FF90EF90DF90CF9023
:1011D0000895EF92FF921F93CF93DF9300D0CDB786
:1011E000DEB77C014A8369830E9455086981862F96
:1011F0008F7180620E943308182F4A81842F0E94C9
:101200003308C7010E945808812F0F900F90DF917B
:10121000CF911F91FF90EF900895BF92CF92DF92F0
:10122000EF92FF920F931F93CF93DF9300D01F9203
:10123000CDB7DEB77C01FC01C580B42EC41608F41E
:10124000BC2CF7018681811102C0CB1801C0C12CD2
:10125000C70129836A837B830E9455082981822FD5
:101260000E943308D82E6A81062F7B81172FB60E75
:10127000B01631F0F80181918F010E943308F8CF48
:10128000CC2029F080E00E943308CA94F9CFC7012E
:101290000E9458088D2D0F900F900F90DF91CF91E5
:1012A0001F910F91FF90EF90DF90CF90BF90089526
:1012B000BF92CF92DF92EF92FF920F931F93CF9343
:1012C000DF9300D0CDB7DEB77C01FC01C580B42E22
:1012D000C41608F4BC2CF7018681811102C0CB181A
:1012E00001C0C12CC70169837A830E94550881E639
:1012F0000E943308D82E6981062F7A81172FB60EE7
:10130000B01639F08FEF0E943308F80181938F01F6
:10131000F7CFCC2029F08FEF0E943308CA94F9CF81
:10132000C7010E9458088D2D0F900F90DF91CF912B
:101330001F910F91FF90EF90DF90CF90BF90089595
:10134000EF92FF921F93CF93DF931F92CDB7DEB73B
:101350007C0169830E9455086981862F0E943308A9
:10136000182FC7010E945808812F0F90DF91CF914D
:101370001F91FF90EF90089562EE0C94A00961EE2A
:101380000C94A0096FEF0C94A009862F90E0262FF3
:1013900021701F922F9395958795877099279F931A
:1013A0008F9364FB882780F91F928F9365FB8827B2
:1013B00080F91F928F9366FB882780F91F928F9385
:1013C0001F926F9387E892E09F938F930E94A732BA
:1013D0008DB79EB70E960FB6F8949EBF0FBE8DBF09
:1013E0000895CF92DF92EF92FF920F931F93CF93C6
:1013F000DF931F92CDB7DEB77C01C22E7F936F9330
:1014000021E832E03F932F9349830E94A73249811C
:10141000C40E0F900F900F900F9009E712E04C153B
:1014200099F0DD24D394D40E642FC7010E94920852
:101430001F928F931F930F930E94A7320F900F90CC
:101440000F900F904D2DEBCF86E792E09F938F93F7
:101450000E94A7320F900F900F90DF91CF911F91B4
:101460000F91FF90EF90DF90CF9008952F923F92D1
:101470004F925F926F927F928F929F92AF92BF92A4
:10148000CF92DF92EF92FF920F931F93CF93DF9350
:101490001F92CDB7DEB76C01322E4DB65EB67F938C
:1014A0006F9380E792E09F938F9349830E94A732C6
:1014B0003981330E0F900F900F900F908CE6A82E6D
:1014C00082E0B82E97E6892E92E0992E3315E1F14D
:1014D0006DB67EB6F6012485022F10E08DB79EB75B
:1014E000801B910B0FB6F8949EBF0FBE8DBFEDB75A
:1014F000FEB731967F0122242394230EAF01632F80
:10150000C6010E945B08BF92AF920E94A7320E0DE7
:101510001F1D0F900F90015011090E151F0568F047
:10152000F80180811F928F939F928F920E94A73221
:101530000F900F900F900F90EECF0FB6F8947EBEE5
:101540000FBE6DBE322DC2CF84E692E09F938F9383
:101550000E94A7320F900F900FB6F8945EBE0FBE98
:101560004DBE0F90DF91CF911F910F91FF90EF90A3
:10157000DF90CF90BF90AF909F908F907F906F90B3
:101580005F904F903F902F900895FC0160834183BE
:10159000148280E28583168285E08487178208950D
:1015A000462F6E3708F04DE765E00C94E90865E0DA
:1015B0000C949208CF93DF93EC0160E00E944E08F8
:1015C0008D859E850E940F206DE1CE010E949208BC
:1015D00081FF07C08D859E850E940F20CE010E944D
:1015E000BF0960E0CE010E949208482F4E7F60E064
:1015F000CE010E94E90862E0CE010E949208E9ED66
:10160000F2E0E49141E050E001C0440FEA95EAF7CE
:10161000482B62E0CE01DF91CF910C94E908CF9383
:10162000DF93EC0160E00E94920881FD0EC0482F1C
:10163000426060E0CE010E94E90865E070E080E071
:1016400090E0DF91CF910C94D31FDF91CF9108955B
:101650000F93CF93DF93EC01211102C020EA01C068
:1016600020EBCE010E940D09002339F061E0CE018C
:10167000DF91CF910F910C944E08DF91CF910F9194
:1016800008950F93CF93DF93EC0101E00E94280BA4
:10169000CE010E94C2098073D9F360E0CE010E949E
:1016A0004E0840E767E0CE010E94E90884FF05C0CC
:1016B000CE010E94BF0980E001C081E0DF91CF919F
:1016C0000F91089520E00C94410B0F931F93CF933B
:1016D000DF938C01EB0167E10E94920880FD0BC053
:1016E000209759F0C8010E94C20990E0959587950E
:1016F0008770888302C080E001C081E0DF91CF91D4
:101700001F910F91089560E070E00C94650BCF93EA
:10171000DF93EC010E94580940E767E0CE01DF91BA
:10172000CF910C94E9080F931F93CF93DF93EC01B3
:101730008B012C85AB016AE00E94B2082C85A801C0
:1017400060E1CE010E94B2084D8161E1CE01DF91DE
:10175000CF911F910F910C94E908EF92FF920F9394
:101760001F93CF93DF938C01C62F7A01611108C0BC
:10177000FC01448550E0B70107960E94183205C06D
:10178000673008F037C0613041F4EC2FF0E0ED52E3
:10179000FD4F6491F801248506C0E62FF0E0ED527C
:1017A000FD4F649121E0A701C8010E94B208D0E07A
:1017B000FE01E353FD4F6491F8014581C8010E9489
:1017C000E90862E0C8010E949208FE01E752FD4F5D
:1017D000E49141E050E001C0440FEA95EAF7482B5C
:1017E00062E0C801DF91CF911F910F91FF90EF90C0
:1017F0000C94E908DF91CF911F910F91FF90EF902A
:1018000008950F931F93CF938C01C62F62E00E941F
:101810009208EC2FF0E0E752FD4FE49121E030E038
:1018200001C0220FEA95EAF72095422F482362E093
:10183000C801CF911F910F910C94E908CF93DF93CA
:10184000EC010E940F0B60E0CE010E949208482F2D
:10185000416060E0CE010E94E90840E767E0CE0108
:101860000E94E90861E0CE010E944E088F81882322
:1018700049F02C85AE01495F5F4F6AE0CE010E94BE
:10188000B20804C060E0CE010E94010C6DE1CE01FF
:101890000E94920881FF05C0CE01DF91CF910C9488
:1018A000BF09DF91CF910895CF93DF93EC010E94A0
:1018B000550880E50E94330883E70E943308CE0173
:1018C000DF91CF910C9458080F931F93CF938C0105
:1018D000C62F66E00E949208887FC43018F4CC0FAF
:1018E000CF5F01C0C7E04C2F482B66E0C801CF9105
:1018F0001F910F910C94E90866E00E94920886708F
:1019000086950895EF92FF920F931F93CF938C01CA
:101910007B0166E00E949208C82FC77D82E0E8162E
:10192000F10431F4C0628BE990E0A0E0B0E00DC0BA
:10193000EA94EF2829F085E590E0A0E0B0E005C04A
:10194000C86081E490E0A0E0B0E0F8018587968768
:10195000A787B08B4C2F66E0C8010E94E90866E0BB
:10196000C8010E94920891E08C1390E0892FCF91DA
:101970001F910F91FF90EF9008951F93CF93DF93E6
:10198000EC0188819981891719F061E00E94AD20EE
:1019900089819881981719F061E00E94AD200E941A
:1019A000772560E0CE010E944E0861E0CE010E94E2
:1019B0003A0865E070E080E090E00E94D31F4CE0C0
:1019C00060E0CE010E94E9084FE564E0CE010E948C
:1019D000E90862E070E0CE010E94820C882311F0D9
:1019E00081E08C8366E0CE010E949208182F60E0AF
:1019F00070E0CE010E94820CCE010E94540C40E0A7
:101A00006DE1CE010E94E90840E06CE1CE010E9448
:101A1000E90840E767E0CE010E94E9086CE4CE01E6
:101A20000E94D00ACE010E94BC09CE010E94BF09CB
:101A3000CE010E940F0B60E0CE010E949208482F59
:101A40004E7F60E0CE010E94E908812FDF91CF91A7
:101A50001F91089566E00E949208282F2872203274
:101A600031F081E090E0283021F080E0089582E0BC
:101A700090E008950F931F93CF938C0160E00E9434
:101A80009208C82F61E0C8010E949208C3FD02C0FD
:101A9000882329F0C2FD06C081E090E005C080E007
:101AA00090E002C082E090E0CF911F910F910895E5
:101AB000CF93DF93EC010E94C209682FCE010E94F0
:101AC000C50922E04AE067E572E0CE010E94360ACD
:101AD00024E04CE06AE472E0CE010E94F10921E0CA
:101AE00040E161E472E0CE010E94360A26E041E165
:101AF00066E372E0CE010E94F10921E041E06FE26D
:101B000072E0CE010E94F10921E042E065E272E05C
:101B1000CE010E94F10921E045E06EE172E0CE01C4
:101B20000E94F10921E046E065E172E0CE010E94E9
:101B3000F10921E040E06DE072E0CE010E94F10980
:101B400022E04CE16FEF71E0CE010E94F109CE017D
:101B50000E942A0D880F991FFC01E75CFC4F8591BC
:101B600094919F938F938DEE91E09F938F930E941A
:101B7000A732EC81F0E0EE0FFF1FEE5DFC4F859188
:101B800094919F938F938EED91E09F938F930E94FA
:101B9000A732CE010E943A0D880F991FFC01EC5F1D
:101BA000FC4F859194919F938F938BEC91E09F9341
:101BB0008F930E94A732CE010E947C0CE82FF0E0A8
:101BC000EE0FFF1FE152FD4F859194919F938F93EC
:101BD0008AEB91E09F938F930E94A7328DB79EB7B7
:101BE00040960FB6F8949EBF0FBE8DBFDF91CF9188
:101BF00008951F920F920FB60F9211240F931F9307
:101C00002F933F934F935F936F937F938F939F9304
:101C1000AF93BF93CF93DF93EF93FF938091060130
:101C20008F5F80930601882329F0E7E3F2E020E04C
:101C300030E059C007E312E0EDE3F2E0CFE3D2E099
:101C4000CE010197DC014C91CF010197DC014111DC
:101C500003C028812223F9F02C9130E0808190E0AC
:101C6000B901681B790B1616170644F4442389F052
:101C7000840F911D8217930764F40AC0672B49F003
:101C80004881442331F0841B9109281739070CF44B
:101C90009C01208302C08C91808380818823C9F0BD
:101CA000CF010597DC018C91AF0142505109D80159
:101CB00012962D913C911397D9019C91DA018111D3
:101CC00003C08C91892B03C08C9180958923D90105
:101CD0008C93075F1F4F39962996B2E00B3E1B0786
:101CE00009F0AECFA2CF808187FD15C0E901C95CA4
:101CF000DD4F809106019E8198130DC09981A281CC
:101D0000B3818C81911104C09C918095892302C07C
:101D10009C91892B8C933996275F3F4F243B31054B
:101D200011F7FF91EF91DF91CF91BF91AF919F910B
:101D30008F917F916F915F914F913F912F911F9163
:101D40000F910F900FBE0F901F9018951092C0002A
:101D500094E09093C1001092C2001092C3001092C0
:101D6000C4001092D10092E89093D10090E4909337
:101D70007200E7E3F2E020E030E09FEF9083D901CA
:101D8000A95CBD4F11961C9211971382128217966F
:101D90001C92179718961C923996275F3F4F243B49
:101DA000310561F78093EB020895CF93442339F016
:101DB0001092BF001092BE009FEF90930601E7E3E0
:101DC000F2E090E0AFEF208187FF03C027FF06C05D
:101DD0004BC0281719F0AF3F41F404C0658387FD5D
:101DE000FACF46C0208127FDA92F9F5F39969431F5
:101DF00051F787FD3DC0AF3F09F43AC0C82F89E0D5
:101E0000A802D0011124A95CBD4FCC932091EB0214
:101E100011962C9311978C2F992787FD9095FC0193
:101E2000E95EFB4FE491F0E0EE0FFF1FEC5BFB4F30
:101E30004591549113965C934E931297FC01E85090
:101E4000FC4FE4911496EC93149715966C93211122
:101E500002C060E001C061E08C2F0E94E92061E0D7
:101E60008C2FCF910C94AD20AF3F09F0BECFBCCFEB
:101E7000CF910895282F3FEF639FC001112464E69E
:101E800070E00E94942F822F0C94D50E2F923F92D7
:101E90004F925F926F927F928F929F92AF92BF927A
:101EA000CF92DF92EF92FF920F931F93CF93DF9326
:101EB000CDB7DEB727970FB6F894DEBF0FBECDBF04
:101EC00089831B015D834C8387E392E09F838E832C
:101ED00000E010E04A01A12CB12C80EFC82E8FE069
:101EE000D82EE12CF12C2B01612C712C9981EE81E3
:101EF000FF81808197FF0DC087FF0EC08E819F817B
:101F000009969F838E83075F1F4F043B110571F76E
:101F100027C0F9818F13F2CF2114310439F0C701A2
:101F2000B601A30192010E94BC2F01C020E0C801AC
:101F3000895C9D4F9B838A83FC0127838C819D81D3
:101F4000892B39F0C701B601A50194010E94BC2F6D
:101F500001C020E0EA81FB812087F981F7FDCECF27
:101F600027960FB6F894DEBF0FBECDBFDF91CF919D
:101F70001F910F91FF90EF90DF90CF90BF90AF90A7
:101F80009F908F907F906F905F904F903F902F9099
:101F9000089508951F920F920FB60F9211242F9358
:101FA0003F934F935F936F937F938F939F93AF93E1
:101FB000BF93EF93FF93E0910701F091080109951A
:101FC000FF91EF91BF91AF919F918F917F916F9111
:101FD0005F914F913F912F910F900FBE0F901F90E7
:101FE00018952F923F924F925F926F927F928F92AD
:101FF0009F92AF92BF92CF92DF92EF92FF920F9398
:102000001F93CF93DF93CDB7DEB76B970FB6F894DE
:10201000DEBF0FBECDBF1C014A015B013E872D878D
:1020200042305105610571050CF435C1CA0181507A
:10203000904C880F991F880F991F2101480E591E37
:102040005A824982D201CD90DD90ED90FC9064E3FC
:1020500070E080E090E0A50194010E94DE2F2D83C6
:102060003E834F83588700E010E09801B501A4013A
:1020700041505109610971094B8B5C8B6D8B7E8BD3
:1020800043705527588F4F8B07541648284C3146BC
:10209000D901C801F2E0B695A79597958795FA956D
:1020A000D1F7AC01BD0143705527662777274987D3
:1020B0005A876B877C873B8E2A8E40E050E0BA01BE
:1020C00046015701B4E0880C991CAA1CBB1CBA95A8
:1020D000D1F72601370185E07694679457944794A9
:1020E0008A95D1F74F86588A698A7A8A8B899C8922
:1020F000AD89BE89481759076A077B0708F063C096
:10210000EA8DFB8D84819581A681B7813A01F3E048
:102110006F22772449845A8464247524660C771CC2
:10212000660C771C4D845E84640C751CF301408042
:10213000518062807380C424D524E624F7242C01C6
:102140003D014026512662267326C40CD51CE61C90
:10215000F71C2C013D01F3E0769467945794479463
:10216000FA95D1F784249524A624B724E2E0880FB9
:10217000991FAA1FBB1FEA95D1F74F845888698819
:102180007A8884259525A625B725880D991DAA1D31
:10219000BB1DC826D926EA26FB26EA8DFB8D808149
:1021A0009181A281B381C80ED91EEA1EFB1EDF01F8
:1021B000CD92DD92ED92FD92BB8FAA8F4F5F5F4F64
:1021C0006F4F7F4F7DCFD1014D915D916D917C918E
:1021D000DB01CA01E3E0B695A79597958795EA9547
:1021E000D1F788269926AA26BB26DB01CA01F2E090
:1021F000880F991FAA1FBB1FFA95D1F78425952533
:10220000A625B725880E991EAA1EBB1EEF89F88D3C
:1022100049845A84E425F525EE0FFF1FEE0FFF1FBA
:102220006D847E84E60DF71D80819181A281B3814A
:10223000C826D926EA26FB2640275127622773277E
:10224000C40ED51EE61EF71E8C249D24AE24BF248A
:10225000A981BA81CD90DD90ED90FC901397C80CC8
:10226000D91CEA1CFB1CFD01C082D182E282F382F0
:102270004D815E816F8178854150510961097109F5
:102280004D835E836F8378874A3F5F4F6F4F7F4FE9
:1022900009F0FACE54C14F3F9FEF590769077907FC
:1022A0000CF04DC1CC24DD247601C41AD50AE60A0F
:1022B000F70A64E370E080E090E0A70196010E94D5
:1022C000DE2F29013A012A5F3F4F4F4F5F4F69EBE5
:1022D00079E787E39EE90E94842FAB01BC01F101FD
:1022E00080819181A281B381F1E0CF1AF0ECDF0A05
:1022F000CC0CDD1CCC0CDD1C81010C0D1D1D1C8BC0
:102300000B8B4D825E826F82788680949094A0942D
:10231000B0948F8A998E880C991C880C991C910115
:10232000280D391D388B2F876A017B01F2E0F69466
:10233000E794D794C794FA95D1F797018601037073
:1023400011272227332709871A872B873C876F8815
:10235000798C4F845888F201329122911291029126
:102360002F0109831A832B833C8383010370112778
:1023700029853A8502271327000F111F000F111F0F
:10238000ED85FE850E0F1F1FF801C080D180E28011
:10239000F38009811A812B813C81C026D126E22657
:1023A000F3268C019D010427152726273727C00E09
:1023B000D11EE21EF31E4C015D0133E0B694A794DA
:1023C000979487943A95D1F709811A812B813C81A2
:1023D000E4E0000F111F221F331FEA95D1F780267A
:1023E0009126A226B326F2E0880F991FAA1FBB1FD1
:1023F000FA95D1F709811A812B813C81E5E0369568
:10240000279517950795EA95D1F780279127A22759
:10241000B327880D991DAA1DBB1DC826D926EA26FB
:10242000FB26F20184819581A681B7818C199D09D3
:10243000AE09BF0984839583A683B783F1E06F1A41
:1024400071084214530409F086CFEB89FC89C080DF
:10245000D180E280F3804C015D0123E0B694A79423
:10246000979487942A95D1F797018601E4E0000FAD
:10247000111F221F331FEA95D1F780269126A2262D
:10248000B3262C013D01F2E0440C551C661C771C60
:10249000FA95D1F797018601E5E0369527951795CE
:1024A0000795EA95D1F70425152526253725080D2A
:1024B000191D2A1D3B1D84279527A627B727A98408
:1024C000BA84AA0CBB1CAA0CBB1C4D845E84A40C51
:1024D000B51CF50180809180A280B380C824D924E6
:1024E000EA24FB248C0D9D1DAE1DBF1D8027912766
:1024F000A227B32749805A806B807C80481A590AEA
:102500006A0A7B0AD301C201F101408251826282D0
:102510007382495B594767437E490D811E812F8134
:10252000388501501109210931090D831E832F833C
:1025300038870A3F1F4F2F4F3F4F09F0F5CE6B965C
:102540000FB6F894DEBF0FBECDBFDF91CF911F91C4
:102550000F91FF90EF90DF90CF90BF90AF909F9042
:102560008F907F906F905F904F903F902F90089545
:102570000F931F930097C9F08A019B010150110925
:1025800021093109003111052105310570F420E1DF
:10259000E0E4F3E0DF011D922A95E9F7BC01CF01E9
:1025A0000E94183280E090E002C082E090E01F912B
:1025B0000F9108954F925F926F927F92AF92BF9268
:1025C000CF92DF92EF92FF920F931F93CF93DF93FF
:1025D0005901E801009709F471C08A019B0101507B
:1025E000110921093109003511052105310508F0CE
:1025F00065C0A114B10409F461C0088119812A8160
:102600003B8110161106120613060CF057C0041772
:102610001507260737070CF451C06A017B01E2E079
:10262000F594E794D794C794EA95D1F72A013B0132
:10263000A3E04A22552466247724452846284728C3
:1026400059F0BFEFCB1ADB0AEB0AFB0AE5E1CE1625
:10265000D104E104F104A9F12601370162E0440C40
:10266000551C661C771C6A95D1F7041515052605BF
:1026700037053CF120E5E0E5F3E0DF011D922A9506
:10268000E9F7BC01CF010E94183220E433E0B70122
:10269000A60180E593E00E94F10FA601440F551FAB
:1026A000440F551F60E573E0C5010E94183248824F
:1026B00059826A827B8280E090E005C082E090E0EF
:1026C00002C083E090E0DF91CF911F910F91FF90C6
:1026D000EF90DF90CF90BF90AF907F906F905F9022
:1026E0004F900895CF93DF93FC011082FB0144814A
:1026F00055814131510550F4EC0160E070E080817A
:1027000091810E94B81281E0888301C080E0DF914E
:10271000CF9108958F929F92AF92BF92CF92DF9206
:10272000EF92FF920F931F93CF93DF93CDB7DEB756
:102730002A970FB6F894DEBF0FBECDBF7C01FA0119
:10274000DB018C91882309F471C044815581CA0151
:1027500001978F34910508F069C080E590E0A0E012
:10276000B0E08F839887A987BA876B01BFEFCB1A38
:10277000DB0A60E070E08E01095F1F4F96018081E7
:1027800091810E94DA12892B09F050C06EEA71E043
:10279000CE0101960E94D5216F817885660F771F43
:1027A0006F5F7F4FCE0101960E9498216EEA71E023
:1027B000CE0101960E942B228601812C912C54017E
:1027C0008F819885A985BA8588169906AA06BB06C1
:1027D00014F56801F801608162956F706A3010F03D
:1027E000695C01C0605DCE0101960E949A220F5F74
:1027F0001F4FD6016C916F706A3010F0695C01C098
:10280000605DCE0101960E949A22BFEF8B1A9B0A4F
:10281000AB0ABB0AD5CFBE016F5F7F4FC7010E94D5
:102820004221CE0101960E94672105C063E573E055
:10283000C7010E946322C7012A960FB6F894DEBF33
:102840000FBECDBFDF91CF911F910F91FF90EF9001
:10285000DF90CF90BF90AF909F908F90089510928F
:10286000EF020895CF93DF931F92CDB7DEB7698350
:10287000DC01ED91FC910280F381E02D41E050E01C
:10288000BE016F5F7F4F09950F90DF91CF91089543
:10289000CF93DF93EC018C859D8597FF05C082E087
:1028A0000E94761A9D878C878C859D85DF91CF91BC
:1028B000089583E00C94991BFC018485958597FD10
:1028C00006C082E00E94201A90E00196089582E0FE
:1028D0000E94201A90E00895FC018485958597FD5B
:1028E00005C02FEF3FEF35872487089582E00C94D1
:1028F000761ACF93DF93EC0180911401882331F095
:1029000083E00E94A71A1816190634F081E090E0BF
:102910009B838A8380E090E0DF91CF910895FC0152
:1029200090819E5F908342E450E06AE573E080E826
:102930000C943F1BFC0181819081913A59F48132C2
:1029400009F048C047E050E06DE071E080E00E948F
:102950003F1B73C09132F1F5833291F49381892F3B
:1029600090E0982F88272281822BA0E0B0E080930E
:10297000090190930A01A0930B01B0930C015DC073
:10298000803239F467E070E08DE091E00E94661BD0
:1029900006C0823209F051C0828180931401809177
:1029A000F003882319F0EEEFFAE002C0E0E0F8E06F
:1029B00080910D0190910E01A0910F01B091100135
:1029C000803B9440A105B10539F48091140180FF4A
:1029D0001CC002C080E0089588E10FB6F89480938F
:1029E0006000109260000FBEA895EE3F8AE0F807E5
:1029F00039F08091FE0A9091FF0A918380831DC077
:102A00001092FF0A1092FE0A18C0EE3F2AE0F20769
:102A100031F0808191819093FF0A8093FE0A87E7CD
:102A200097E7918380839BE088E10FB6F894A8959F
:102A3000809360000FBE9093600081E00895E0EA0B
:102A4000F3E01382128288EE93E0A0E0B0E084838A
:102A50009583A683B7838EE791E0918380838FEF80
:102A60009FEF958784870895FC01918D228D892F92
:102A700090E0805C9F4F821B91098F739927089586
:102A8000FC01918D828D981731F0828DE80FF11D38
:102A9000858D90E008958FEF9FEF0895FC01918D53
:102AA000828D981761F0828DDF01A80FB11D5D96B0
:102AB0008C91928D9F5F9F73928F90E008958FEF1E
:102AC0009FEF089582E596E1892B49F080E090E040
:102AD000892B29F00E94521681110C940000089550
:102AE000FC01848DDF01A80FB11DA35ABF4F2C91AB
:102AF000848D90E001968F739927848FA689B7897A
:102B00002C93A089B1898C9180648C93938D848D52
:102B1000981306C00288F389E02D80818F7D808321
:102B20000895CF93DF93EC01888D8823C9F0EA895B
:102B3000FB89808185FD05C0A889B9898C9186FDB6
:102B40000FC00FB607FCF5CF808185FFF2CFA889B3
:102B5000B9898C9185FFEDCFCE010E947015E7CF2A
:102B6000DF91CF910895EF92FF920F931F93CF9330
:102B7000DF93EC0181E0888F9B8D8C8D981305C0CD
:102B8000E889F989808185FD24C0F62E0B8D10E03F
:102B90000F5F1F4F0F731127E02E8C8DE8120CC0B2
:102BA0000FB607FCFACFE889F989808185FFF5CF58
:102BB000CE010E947015F1CF8B8DFE01E80FF11D43
:102BC000E35AFF4FF0820B8FEA89FB898081806294
:102BD00007C0EE89FF896083E889F9898081806474
:102BE000808381E090E0DF91CF911F910F91FF9062
:102BF000EF9008951F920F920FB60F9211242F930A
:102C00008F939F93EF93FF93E0910104F09102045F
:102C10008081E0910704F091080482FD12C0908148
:102C200080910A048F5F8F7320910B04821751F0FB
:102C3000E0910A04F0E0EF50FC4F958F80930A0476
:102C400001C08081FF91EF919F918F912F910F9003
:102C50000FBE0F901F9018951F920F920FB60F92F4
:102C600011242F933F934F935F936F937F938F9391
:102C70009F93AF93BF93EF93FF9381EF93E00E94F5
:102C80007015FF91EF91BF91AF919F918F917F91BF
:102C90006F915F914F913F912F910F900FBE0F90C9
:102CA0001F90189581EF93E00E94341521E0892B45
:102CB00009F420E0822F0895E1EFF3E013821282FD
:102CC00088EE93E0A0E0B0E084839583A683B78389
:102CD0008EE891E0918380838DEC90E095878487E6
:102CE0008CEC90E09787868788EC90E0918B808BC6
:102CF00089EC90E0938B828B8AEC90E0958B848BAF
:102D00008EEC90E0978B868B118E128E138E148E24
:102D10000895DC01FB0188E4808389E4818384E4F5
:102D200082831D969C911D979F709F5B93831D9638
:102D30008D919C911E9724E0969587952A95E1F7B1
:102D40008F708F5B848385E00895CF93DF93CDB739
:102D5000DEB769970FB6F894DEBF0FBECDBFFC019A
:102D6000DB018C918F5F8C93BE016F5F7F4F89E198
:102D7000DB011D928A95E9F729E0298384E08A83A3
:102D800091E09D8383E08E832A8721E22B879C87B5
:102D90009D879F8722E2288B27E02B8B25E02C8BB9
:102DA0008E8B20E430E0388F2F8B998F82818B833C
:102DB00095858685998B8A8B838180688D8B49E187
:102DC00050E080E00E943F1B69960FB6F894DEBF8A
:102DD0000FBECDBFDF91CF910895DC01FB011296AC
:102DE0008C91129790E02481358182179307D1F45A
:102DF00091818081813A31F481E0913091F093307A
:102E000089F411C0813271F49B3021F482811F96C4
:102E10008C9305C09A3031F4828150968C9381E076
:102E20000895089580E00895EF92FF920F931F9305
:102E3000CF93DF93FB012081213851F5238122328A
:102E400039F5DC0112962C9130E04481558142170E
:102E50005307F1F4EC010B851C85E12CF12C0115D5
:102E6000110591F0F801448155816281738180E8F8
:102E70000E943F1B8F3FFFEF9F0769F0E80EF91E8E
:102E8000D8010D911C91EBCF81E08F87C70105C060
:102E900080E090E002C08FEF9FEFDF91CF911F9114
:102EA0000F91FF90EF900895FC01A385B4851097D2
:102EB00019F47487638709C08D919C9111970097CD
:102EC00011F0DC01F9CF6D937C9325853685DB010C
:102ED00014968D919C911597820F931F96878587E5
:102EE0000895AF92BF92CF92DF92EF92FF920F932D
:102EF0001F93CF93DF931F92CDB7DEB77C01698319
:102F00006A01590141E050E0BE016F5F7F4FFC0153
:102F100083810E94A71A8C0197FD0BC0F701838162
:102F2000A501B60180640E94A71A97FD02C0800F18
:102F3000911F0F90DF91CF911F910F91FF90EF9014
:102F4000DF90CF90BF90AF900895CF93DF93EC01C7
:102F500081E08C838D839E01265F3F4F3F832E83CC
:102F6000198618862EE931E0398328831C861B8652
:102F70001E861D868F87888B81EC8A870E940F1D95
:102F8000BE01DF91CF910C94C81C80919F048111E8
:102F900007C08EE894E00E94A51781E080939F040B
:102FA0008EE894E008958F929F92AF92BF92CF9255
:102FB000DF92EF92FF920F931F93CF93DF937C01E9
:102FC0008B016C0182E0C80ED11C4701E5E08E0E3A
:102FD000911CC0E0D0E0F60161916F014AE050E041
:102FE000C8010E9470195C016EE2C8010E94AB1812
:102FF0008A0D9B1DC80FD91FC814D90461F74AE078
:1030000050E0F7016581C8010E9470198C0F9D1F67
:10301000DF91CF911F910F91FF90EF90DF90CF90B4
:10302000BF90AF909F908F900895E7EAF4E08AEA0E
:1030300091E0918380831282138214821582089515
:1030400008950E941A200E94201889EB94E00E94A3
:10305000261C0E945F2BC2E6D5E10E94E52D209739
:10306000E1F30E946215F9CF08950E940332CF92D6
:10307000DF92EF92FF920F931F93CF93DF936C0138
:103080007A018B01C0E0D0E0CE15DF0589F0D801D0
:103090006D918D01D601ED91FC910190F081E02DB3
:1030A000C6010995892B11F47E0102C02196ECCF4F
:1030B000C701DF91CF911F910F91FF90EF90DF90AB
:1030C000CF9008956115710579F0FB010190002002
:1030D000E9F73197AF01461B570BDC01ED91FC91ED
:1030E0000280F381E02D099480E090E00895EF9252
:1030F000FF920F931F93CF93DF938C017B01C0E06E
:10310000D0E0F701EC0FFD1F6491662361F0D80158
:10311000ED91FC910190F081E02DC8010995892B7A
:1031200011F02196EECFCE01DF91CF911F910F913B
:10313000FF90EF900895DB0114964D915C911597E7
:103140006D917C91DC01ED91FC910280F381E02D89
:1031500009940C946218DC01ED91FC910190F081CE
:10316000E02D09946CEA71E00C9462180F931F93A0
:10317000CF93DF93EC010E9477188C01CE010E945F
:10318000B218800F911FDF91CF911F910F91089579
:103190004F925F926F927F92EF92FF920F931F93E5
:1031A000CF93DF93CDB7DEB7A1970FB6F894DEBF0C
:1031B0000FBECDBF7C01FA01CB0119A2223008F469
:1031C0002AE08E010F5D1F4F422E512C612C712C75
:1031D000BF01A30192010E94BC2FF901CA01015055
:1031E00011096A3014F4605D01C0695CD8016C9308
:1031F000232B242B252B61F7B801C7010E946218ED
:10320000A1960FB6F894DEBF0FBECDBFDF91CF9170
:103210001F910F91FF90EF907F906F905F904F9074
:103220000895CF92DF92EF92FF920F931F93CF9367
:10323000DF93EC016A017B012115310579F4E88106
:10324000F9810190F081E02D642FDF91CF911F91E2
:103250000F91FF90EF90DF90CF9009942A303105C5
:10326000E9F477FF1AC06DE20E94AB188C01442785
:103270005527BA014C195D096E097F092AE0CE0174
:103280000E94C818800F911FDF91CF911F910F915D
:10329000FF90EF90DF90CF9008952AE0B701A6014C
:1032A000CE01DF91CF911F910F91FF90EF90DF90B2
:1032B000CF900C94C8189A01AB01662757FD609512
:1032C000762F0C9411192115310541F4DC01ED9193
:1032D000FC910190F081E02D642F09940C94C818A2
:1032E0009A01462F50E060E070E00C9463199A0157
:1032F000AB0160E070E00C946319615030F02091F4
:10330000F100FC0120830196F8CF289884E6809391
:10331000C20408954091BD045091BE042091BB04A5
:103320003091BC0442175307B4F49091E8009570B3
:10333000E1F39091E80092FD19C08093F100809133
:10334000BD049091BE0401968F739927892B19F4BF
:103350008EEF8093E8008091BD049091BE040196A9
:103360009093BE048093BD0481E0089580E00895A9
:10337000CF92DF92EF92FF920F931F93CF93DF9341
:103380001F92CDB7DEB7182F062FE42E862F880F99
:103390008E5F99830E948A1983E00E948A19F12E18
:1033A000C12E9981D92E8C2D8F19801798F4F60192
:1033B000E7FE02C0849101C080810E948A19182F03
:1033C00080E00E948A198123FFEFCF1ADF0A811162
:1033D000EACF01C081E00F90DF91CF911F910F9153
:1033E000FF90EF90DF90CF9008958091D70081609B
:1033F0008093D70080EA8093D80089B5806189BD29
:1034000089B5826089BD09B400FEFDCF61E070E03E
:1034100080E090E00E94D31F8091D8008F7C806173
:103420008093D8008091E000807F8093E000089531
:103430002FB7FC012083F89467706093E90008952A
:10344000CF93DF931F92CDB7DEB7682FCE010196E1
:103450000E94181A8091F20099819FBF0F90DF910E
:10346000CF910895EF92FF920F931F93CF93DF9325
:103470001F92CDB7DEB79091C104992311F057FF89
:1034800003C08FEF9FEF2AC08A017B01682FCE0116
:1034900001960E94181A8091F20090E0A80180170E
:1034A00091070CF4AC01842FF70194E6815038F0B9
:1034B00028989093C2042091F1002193F7CF4115F1
:1034C000510521F08091F200882321F089818FBF7E
:1034D000CA0104C08BE68093E800F8CF0F90DF911B
:1034E000CF911F910F91FF90EF900895CF93DF93AD
:1034F0001F92CDB7DEB741E050E0BE016F5F7F4F56
:103500000E94321A019719F4898190E002C08FEF6E
:103510009FEF0F90DF91CF910895CF93DF931F928C
:10352000CDB7DEB7682FCE0101960E94181A909190
:10353000E800892F807295FF04C09091F20080E42A
:10354000891B99819FBF0F90DF91CF9108956F9252
:103550007F928F929F92AF92BF92CF92DF92EF9223
:10356000FF920F931F93CF93DF931F92CDB7DEB7D8
:10357000A82E6B01B42E052F8091C104882369F019
:10358000E42EF52E8AEF982E8A2D8072782E9AE3FB
:10359000892E8A2D8074682E12C08FEF9FEF54C041
:1035A0008A2D0E948D1A182F81110DC09A9499208E
:1035B000A1F361E070E080E090E00E94D31FE1148D
:1035C000F10471F737C090E0E816F9060CF41E2DEF
:1035D0006A2DCE0101960E94181A8091E80085FF9D
:1035E00026C0812F90E0E81AF90A772029F01150BF
:1035F000A8F01092F100FBCFF601A7FE07C0115012
:1036000058F024912093F1003196F9CF115020F019
:1036100021912093F100FACFC80ED91E8091E800C5
:1036200085FF0FC0E114F10411F461100AC0898113
:103630008FBFC5CF5D9884E68093C3048B2D902FF8
:1036400003C08092E800F3CF0F90DF91CF911F91DC
:103650000F91FF90EF90DF90CF90BF90AF909F9031
:103660008F907F906F9008951092E9001092BE04A1
:103670001092BD049093BC048093BB040895DF9224
:10368000EF92FF920F931F93CF93DF93D82E8A016F
:103690007B01E40EF51EEB01CE15DF0571F0D7FEC0
:1036A00003C0FE01849101C088810E948A1921967D
:1036B0008111F2CF8FEF9FEF01C0C801DF91CF9151
:1036C0001F910F91FF90EF90DF900895BF92CF92DE
:1036D000DF92EF92FF920F931F93CF93DF936C01D2
:1036E0008B01EB019BEFB92E2097C1F07E01C13415
:1036F000D1051CF080E4E82EF12C8091E80082FFD7
:10370000FCCFC8018C1B9D0B6E2D8C0D9D1D0E9446
:103710007D19B092E800CE19DF09E6CFC801DF912C
:10372000CF911F910F91FF90EF90DF90CF90BF90BE
:1037300008958093E9008091F200882319F08AE3CC
:103740008093E80008951F920F920FB60F921124F4
:103750002F933F934F935F936F937F938F939F9399
:10376000AF93BF93CF93EF93FF93C091E10080910C
:10377000E100837F8093E1008093E100C3FF0FC0ED
:103780001092E90081E08093EB001092EC0082E35C
:103790008093ED001092C10488E08093F000C2FF96
:1037A00019C083E00E94991B8091C304882339F0DB
:1037B0008091C30481508093C304882389F1809150
:1037C000C204882339F08091C20481508093C204DE
:1037D000882341F1C4FF10C08091E2008E7E816099
:1037E0008093E2008091E1008F7E8093E1008091E0
:1037F000BF048E7E806111C0C0FF16C08091E200C0
:103800008E7E80618093E2008091E1008E7E8093C5
:10381000E1008091BF048E7E81608093BF0404C06C
:103820005D9ACDCF289AD6CFFF91EF91CF91BF91DE
:10383000AF919F918F917F916F915F914F913F9148
:103840002F910F900FBE0F901F9018951092C104EA
:103850001092C0041092BF040E94F5198091E100FB
:103860008E7E8093E1008DE08093E200559A209A4D
:10387000EEEFFFE7859194918B3F9C4D19F481E029
:103880008093F0030895EF92FF920F931F93CF93CD
:10389000DF937B01FC01C281D38100E010E020971F
:1038A00081F0E881F9810280F381E02DB701CE013A
:1038B000099597FD08C0080F191F0884D985C02DE8
:1038C000EECFC80102C08FEF9FEFDF91CF911F9124
:1038D0000F91FF90EF9008950F931F93CF93DF9375
:1038E0008B01FC01C281D381209771F0E881F981BD
:1038F0000480F581E02DB801CE010995009731F4DF
:103900000884D985C02DF0CF80E090E0DF91CF9181
:103910001F910F9108950F931F93CF93DF938B0106
:10392000FC01C281D381209771F0E881F981068082
:10393000F781E02DB801CE010995080F111D08840B
:10394000D985C02DF0CFF8011082DF91CF911F9162
:103950000F9108950F931F93CF93DF938B01FC0179
:10396000C281D381209771F0E881F9810190F081C3
:10397000E02DB801CE010995811105C00884D985D3
:10398000C02DF0CF80E0DF91CF911F910F9108956E
:10399000CF93DF93FC01DB01218114968C91149766
:1039A00090E0820F911D0897B4F5C281D3812097D2
:1039B00019F47383628308C088859985009711F094
:1039C000EC01FACFB987A887808112968C93129761
:1039D000818113968C931397908115968C911597EE
:1039E000890F808380E014969C911497891788F43E
:1039F0001696CD91DC911797C80FD11D9881C18182
:103A0000D0E0CB5EDE4F988391819F5F91838F5F83
:103A1000EACF81E001C080E0DF91CF9108958091ED
:103A2000B10481110DC082E08093AD0484E08093E5
:103A3000AE041092B0041092AF0481E08093B10400
:103A40008DEA94E00895CF93DF931F92CDB7DEB750
:103A50001982CE0101960E948F140E940F1DBE0193
:103A60006F5F7F4F0E94431C89810F90DF91CF9140
:103A700008951F920F920FB60F921124CF92DF92EA
:103A8000EF92FF920F931F932F933F934F935F9368
:103A90006F937F938F939F93AF93BF93EF93FF9316
:103AA000CF93DF93CDB7DEB76C97DEBFCDBF10925B
:103AB000E9008091E80083FF24C168E0CE014596CB
:103AC0000E947D1982EF8093E8008D8987FF05C0F1
:103AD0009091E80090FFFCCF03C09EEF9093E80028
:103AE000982F907609F0F1C09E892F89188D911139
:103AF0000CC0803829F48091C0048093F10002C08A
:103B00001092F1001092F100F5C0422F50E0512BBD
:103B1000913051F48111EEC04130510509F0EAC0F5
:103B20008091C0048D7F0BC0933061F48111E2C09D
:103B30004130510509F0DEC08091C004826080935D
:103B4000C004D8C0953041F48091E80080FFFCCFDC
:103B500020682093E300CEC0963009F08CC0EB8C37
:103B6000FC8C123069F580E090E00E94341B0E94CA
:103B7000231D99E09E012F5F3F4F6901F901292F15
:103B800011922A95E9F799831A8391E09E8390EA2E
:103B900098879AEF99872091BD043091BE04275FE2
:103BA0003F4F3C832B838D83C7010E94341B49E028
:103BB00050E0B60180E00E943F1B0E94231D9AC086
:103BC000C7010E94341B0E940F1DBE016B5E7F4F18
:103BD0000E946C1C009719F00CF08CC08FC0113043
:103BE00071F48B8D9C8D089719F481E08093BA0451
:103BF0008091BA0481112FC06EEA73E031C0133096
:103C000009F07CC08F89882349F1823029F440E88B
:103C10006CE089EC93E006C0813039F440E868E05C
:103C200080EC93E00E94B81963C0833009F066C04D
:103C30000E940F1D8E010F5F1F4FB8010E948B1C49
:103C4000F80101900020E9F73197BF01601B710B6B
:103C500040E0C801E7CF6CE973E002C066ED73E0B5
:103C60006115710509F44AC0FB01449150E080E8F8
:103C70000E943F1B3FC0973009F440C0983021F4A8
:103C800081E08093F10036C09930A1F58370B1F5E1
:103C9000E6E1F1E081E021E036E39081992361F0F3
:103CA0008093E9002093EB0091919093EC00309386
:103CB000ED008F5F873089F78EE78093EA001092DE
:103CC000EA008F898093C10415C08B8D9C8D0E9462
:103CD000341B898D811105C0CE0145960E949A142E
:103CE00007C00E940F1DBE016B5E7F4F0E94AA1C81
:103CF000882321F08EEF8093E80003C081E2809357
:103D0000EB006C960FB6F894DEBF0FBECDBFDF910F
:103D1000CF91FF91EF91BF91AF919F918F917F9143
:103D20006F915F914F913F912F911F910F91FF9054
:103D3000EF90DF90CF900F900FBE0F901F901895CF
:103D400008951F920F920FB60F9211242F933F9355
:103D50004F935F936F937F938F939F93AF93BF9393
:103D6000EF93FF93E0911C01F0911D010995FF91E4
:103D7000EF91BF91AF919F918F917F916F915F91E3
:103D80004F913F912F910F900FBE0F901F9018955C
:103D90001F920F920FB60F9211242F933F934F93C0
:103DA0005F936F937F938F939F93AF93BF93EF93A3
:103DB000FF93E0911E01F0911F010995FF91EF9192
:103DC000BF91AF919F918F917F916F915F914F9133
:103DD0003F912F910F900FBE0F901F9018951F923B
:103DE0000F920FB60F9211242F933F934F935F932F
:103DF0006F937F938F939F93AF93BF93EF93FF93B3
:103E0000E0912001F09121010995FF91EF91BF917F
:103E1000AF919F918F917F916F915F914F913F9162
:103E20002F910F900FBE0F901F9018951F920F9219
:103E30000FB60F9211242F933F934F935F936F937D
:103E40007F938F939F93AF93BF93EF93FF93E091F3
:103E50002201F09123010995FF91EF91BF91AF915C
:103E60009F918F917F916F915F914F913F912F9192
:103E70000F900FBE0F901F9018951F920F920FB6C4
:103E80000F9211242F933F934F935F936F937F93E0
:103E90008F939F93AF93BF93EF93FF93E091240190
:103EA000F09125010995FF91EF91BF91AF919F91FD
:103EB0008F917F916F915F914F913F912F910F90D3
:103EC0000FBE0F901F9018951F920F920FB60F9272
:103ED00011242F933F938F939F93AF93BF93809120
:103EE000C5049091C604A091C704B091C804309154
:103EF000C40423E0230F2D3720F40196A11DB11D2A
:103F000005C026E8230F0296A11DB11D2093C4040D
:103F10008093C5049093C604A093C704B093C804CB
:103F20008091C9049091CA04A091CB04B091CC04B3
:103F30000196A11DB11D8093C9049093CA04A0935A
:103F4000CB04B093CC04BF91AF919F918F913F91DF
:103F50002F910F900FBE0F901F9018953FB7F894B8
:103F60008091C9049091CA04A091CB04B091CC0473
:103F700026B5A89B05C02F3F19F00196A11DB11DC4
:103F80003FBFBA2FA92F982F8827820F911DA11DFF
:103F9000B11DBC01CD0142E0660F771F881F991F3C
:103FA0004A95D1F708958F929F92AF92BF92CF9288
:103FB000DF92EF92FF926B017C010E94AE1F4B01DA
:103FC0005C01C114D104E104F10401F10E94341830
:103FD0000E94AE1FDC01CB0188199909AA09BB090F
:103FE000883E9340A105B10560F321E0C21AD108D3
:103FF000E108F10888EE880E83E0981EA11CB11C30
:10400000C114D104E104F10419F7DBCFFF90EF9064
:10401000DF90CF90BF90AF909F908F9008958230A7
:10402000910538F0880F991F880F991F0597019700
:10403000F1F70895789484B5826084BD84B5816079
:1040400084BD85B5826085BD85B5816085BDEEE6A0
:10405000F0E0808181608083E1E8F0E0108280817F
:1040600082608083808181608083E0E8F0E08081ED
:1040700081608083E1E9F0E08081826080838081DB
:1040800081608083E0E9F0E0808181608083E1EC01
:10409000F0E0808184608083808182608083808181
:1040A00081608083E3ECF0E0808181608083E0ECDC
:1040B000F0E0808182608083E2ECF0E080818160CA
:1040C0008083EAE7F0E08081846080838081826081
:1040D000808380818160808380818068808308956F
:1040E00090E0FC013197EF30F105B0F5EA5AFF4F4F
:1040F0000C94FD2F809180008F7703C08091800009
:104100008F7D80938000089580918000877FF9CF14
:1041100084B58F7702C084B58F7D84BD089580916A
:1041200090008F7707C0809190008F7D03C08091B1
:104130009000877F8093900008958091C0008F77D2
:1041400003C08091C0008F7D8093C000089580914E
:10415000C200877F8093C2000895CF93DF9390E0E1
:10416000FC01E850FC4F2491FC01E95EFB4F849177
:10417000882361F190E0880F991FFC01EE5AFB4FF4
:10418000C591D491FC01EC5BFB4FA591B4916111F9
:1041900009C09FB7F8948881209582238883EC9189
:1041A0002E230BC0623061F49FB7F8943881822FC0
:1041B000809583238883EC912E2B2C939FBF06C080
:1041C0008FB7F894E8812E2B28838FBFDF91CF9192
:1041D00008951F93CF93DF93282F30E0F901E65223
:1041E000FC4F8491F901E850FC4FD491F901E95E4C
:1041F000FB4FC491CC23C9F0162F81110E9470206F
:10420000EC2FF0E0EE0FFF1FEC5BFB4FA591B4919C
:104210008FB7F894111105C09C91ED2FE095E9231B
:1042200002C0EC91ED2BEC938FBFDF91CF911F91EA
:104230000895CF93DF93282F30E0F901E652FC4F29
:104240008491F901E850FC4FD491F901E95EFB4FEC
:10425000C491CC2391F081110E947020EC2FF0E0EA
:10426000EE0FFF1FEA5CFB4FA591B491EC91ED239B
:1042700081E090E021F480E002C080E090E0DF91F6
:10428000CF910895DC01FB0111961C921E921396AA
:104290001C921E92129715961C921E921497808162
:1042A000918111969C938E938281938113969C9316
:1042B0008E9312978481958115969C938E93149773
:1042C0001182108213821282158214820895FC01D9
:1042D000808191810C94A730CF93DF93EC0188818A
:1042E0009981009711F00E94A730198218821D82CF
:1042F0001C821B821A82DF91CF9108950F931F9326
:10430000CF93DF93EC018B016F5F7F4F88819981A1
:104310000E943F31009731F0998388831B830A8381
:1043200081E001C080E0DF91CF911F910F9108954E
:10433000CF93DF93EC0188819981892B29F08A81C1
:104340009B818617970760F4CE010E947E21882307
:1043500041F08C819D81892B19F4E881F9811082CB
:1043600081E0DF91CF910895EF92FF920F931F9319
:10437000CF93DF93EC017B018A01BA010E9498215F
:10438000811104C0CE010E946C2107C01D830C83E3
:10439000B701888199810E942132CE01DF91CF91AE
:1043A0001F910F91FF90EF900895FC0111821082F0
:1043B00013821282158214826115710551F0FB017E
:1043C00001900020E9F73197AF01461B570B0C9481
:1043D000B4210895EF92FF920F931F93CF93DF9331
:1043E000EC017B018A01BA010E949821811104C06D
:1043F000CE010E946C2107C01D830C83B701888108
:1044000099810E940832CE01DF91CF911F910F91C7
:10441000FF90EF900895CF93DF93EC01FB01861797
:10442000970761F0608171816115710529F0448100
:1044300055810E94B42102C00E946C21CE01DF91FF
:10444000CF910895FC01118210821382128215828D
:1044500014820C940B22CF93DF93EC01611571054C
:1044600059F0FB0101900020E9F73197AF01461B9D
:10447000570B0E94B42102C00E946C21CE01DF9133
:10448000CF9108950F931F93CF93DF9300D0CDB7B3
:10449000DEB78C016115710561F0CB0169837A8308
:1044A0000E940F32AC0169817A81C8010E94EA2121
:1044B00002C00E946C21C8010F900F90DF91CF9134
:1044C0001F910F910895FC011182108213821282B4
:1044D000158214820C944222EF92FF920F931F9345
:1044E000CF93DF93FC01248135816115710511F4AF
:1044F00080E019C041155105A9F07B01EC018A014A
:10450000020F131FB8010E949821882389F3288184
:1045100039818C819D81B701820F931F0E942132C6
:104520001D830C8381E0DF91CF911F910F91FF904C
:10453000EF900895CF93DF9300D0CDB7DEB76983B6
:104540001A8241E050E0BE016F5F7F4F0E946C22F3
:104550000F900F90DF91CF910895CF93DF93EC01EF
:10456000FB0144815581608171810E946C2281111F
:1045700003C0CE010E946C21CE01DF91CF9108953E
:104580002091D0053091D10528173907B9F49091C1
:104590008E0580918F05981789F0E0918E05F0E0E7
:1045A000E057FA4F808120918E0530E02F5F3F4F1A
:1045B0002F73332720938E0590E008958FEF9FEFA0
:1045C00008951F93CF93DF93DC015C962D913C916E
:1045D0005D972115310539F481E090E013969C93A5
:1045E0008E9312973DC05196ED91FC915297509643
:1045F0009C915097892F80951FB75E964C915E973E
:1046000041FB772770F941FD6095F894408177234D
:1046100011F0492B01C048234083E9012197F1F7AC
:1046200048E0508160FF02C0592B01C058235083DD
:10463000E9012197F1F76695415099F7772321F029
:1046400090818923808303C08081982B90831FBF32
:104650005C968D919C915D970197F1F721E030E098
:10466000C901DF91CF911F91089508952091D00540
:104670003091D1052817390771F490918E058091FA
:104680008F05981741F0E0918E05F0E0E057FA4F62
:10469000808190E008958FEF9FEF089580916B05E2
:1046A00090E020916C05821B9109089590916C0512
:1046B00080916B05981750F4E92FF0E0E359FA4F19
:1046C000208130E09F5F90936C0502C02FEF3FEF99
:1046D000C9010895E0916C0580916B05E81730F4ED
:1046E000F0E0E359FA4F808190E008958FEF9FEF5B
:1046F000089508952091D0053091D10528173907E4
:1047000071F480918F0520918E0590E0805C9F4F21
:10471000821B910960E470E00E94A82F089580E058
:1047200090E00895E091D005F091D105E817F907E0
:1047300069F4A389B4899C918589809589238C9398
:104740001092D1051092D00581E0089580E008957F
:10475000CF93DF93EC018A8D9B8D892BF1F08091B3
:10476000D0059091D1058C179D07B9F0009711F0F5
:104770000E9492238E8D8E7F8E8F10928F051092C5
:104780008E05D093D105C093D005EB89FC8990812B
:104790008D89892B808381E001C080E0DF91CF91FA
:1047A00008951F920F920FB60F9211242F933F93EB
:1047B0004F935F936F937F938F939F93AF93BF9329
:1047C000EF93FF93E091D005F091D105309709F474
:1047D00051C0968DA685B785858591FF04C09C91B3
:1047E000892329F447C09C91892309F043C0A389F8
:1047F000B4899C918589809589238C938689978932
:104800000197F1F7608D718DA685B785558538E0E4
:1048100020E0CB010197F1F7822F90E095958795E5
:10482000282F4C91452309F02068315091F7868D4F
:1048300081FD209580918F0590E001968F739927D7
:1048400030918E05381749F0A0918F05B0E0A05740
:10485000BA4F2C9380938F0503C0868D8160868F1D
:10486000828D938D0197F1F7A389B4899C918589F5
:10487000892B8C93FF91EF91BF91AF919F918F9175
:104880007F916F915F914F913F912F910F900FBE4C
:104890000F901F90189521EC31E0FC0131832083AB
:1048A0000C9492231F93CF93DF93EC01162F6E8D00
:1048B0006695617081E06827812F0E94E92061E0A0
:1048C000812F0E94AD20612F70E0FB01E850FC4F6A
:1048D000E491E88BFB01E95EFB4FE491F0E0EE0F21
:1048E000FF1FEC5BFB4F859194919A8B898BDF9135
:1048F000CF911F9108951F93CF93DF93EC01162F53
:1049000060E0812F0E94AD208E8D81FD04C061E0AA
:10491000812F0E94E9201C87612F70E0FB01E85085
:10492000FC4FE491ED87FB01E95EFB4FE491F0E081
:10493000EE0FFF1FEA5CFB4F859194919F878E8756
:10494000DF91CF911F9108951F93CF93DF93EC01D7
:10495000162F1B821A8288EE93E0A0E0B0E08C83D1
:104960009D83AE83BF8381EC91E0998388831F8A06
:104970001E8A198E188E1B8E1A8E1D8E1C8E8E8D81
:104980008E7F20FB81F98E8F642FCE010E945224EE
:10499000612FCE01DF91CF911F910C947B24CF9397
:1049A000DF93EC019A01AB011B8E1A8E198E188EC3
:1049B0001F8A1E8A60E079E08DE390E00E94DE2F7E
:1049C000F9012430310518F0C901039702C081E0D4
:1049D00090E09D8F8C8F8C8598EF980F943048F0E5
:1049E00062EF680F643028F066EE680F633008F0FD
:1049F00071C0B901769567956431710518F06351FE
:104A0000710902C061E070E07F8B6E8B369720F0F9
:104A1000B9016550710902C061E070E0798F688F5B
:104A2000B901660F771F260F371F369527953695E4
:104A300027952D30310518F02C50310902C021E0A6
:104A400030E03B8F2A8F943058F092EF980F9430DB
:104A500038F08A51833008F442C0A0E0B0E041C091
:104A6000A8E6B0E0E8E6F0E0808181608C938C8578
:104A700098EF980F943058F022EF280F243038F038
:104A800026EE280F233018F020E030E002C02BE69D
:104A900030E03C8B2B8B943010F4845009C08E3066
:104AA00069F08F3069F0803169F0813169F08651A9
:104AB00091E001C0990F8A95EAF707C098E005C018
:104AC00092E003C094E001C091E09D8B8C8D9D8DA0
:104AD0000197F1F7CE01DF91CF910C94A823A8E6BE
:104AE000B0E0833008F4BECFE0E0F0E0BDCFCF937C
:104AF000CFB7F89480918D05811127C0E8E2F4E0EA
:104B00008491E9E0F4E09491E82FF0E0EE0FFF1FCC
:104B1000EE5AFB4FA591B491EC91E92321F461E0A9
:104B200081E10E94E92061E081E10E94AD208CB525
:104B300080618CBD8CB580648CBD61E08FE00E948B
:104B4000AD2061E080E10E94AD2080918D058F5FF6
:104B500080938D05CFBFCF910895FC0113821282FF
:104B600088EE93E0A0E0B0E084839583A683B783CA
:104B700081ED91E091838083089581E080934705E2
:104B800060936A05109249051092480508951092A5
:104B90003A0581E0809338051092370561E082E0A4
:104BA0000E94E92061E083E00E94E920E9EBF0E067
:104BB00080818E7F808380818D7F808388E4809355
:104BC000B80085E48093BC00089510926C051092A3
:104BD0006B0510924905109248050C94C7250F9358
:104BE0004132E8F590913A059111FCCF32E03093D3
:104BF0003A05009338053FEF3093CD04109212052B
:104C000040931105FB0163E175E0DB013A2F361B90
:104C1000341718F431913D93F9CF10923905309142
:104C20003905880F832B80933905809137058130B2
:104C300061F410923705809139058093BB00809113
:104C4000BC0083FDF8CF85EC01C085EE8093BC00ED
:104C5000222339F080913A05823019F4F9CF91E09E
:104C600011C08091CD048F3F69F08091CD048032D6
:104C700031F08091CD04803321F094E003C092E0C4
:104C800001C093E0892F0F9108950F93062F21E023
:104C9000409148056AE475E080916A050E94EF251D
:104CA0001092490510924805109247050F910895FA
:104CB00061E00C944526613298F420913A05243045
:104CC00089F46093EF04FC0121EF34E0D9018A2FCD
:104CD000821B861718F481918D93F9CF80E0089597
:104CE00081E0089582E00895CF93DF931F92CDB7BE
:104CF000DEB76983209147052223D1F02091480532
:104D0000203240F021E030E0FC013383228380E058
:104D100090E015C080914905E82FF0E0E65BFA4F7E
:104D2000998190838F5F809349058093480505C0E2
:104D300061E0CE0101960E945B2681E090E00F9039
:104D4000DF91CF910895CF92DF92EF92FF920F9370
:104D50001F93CF93DF937C01262F972F8A01809199
:104D60004705882391F0C62FD72F6E01C40ED51E9C
:104D7000CC15DD0571F06991D701ED91FC910190A1
:104D8000F081E02DC7010995F3CF642F822F0E9497
:104D90005B26C801DF91CF911F910F91FF90EF909B
:104DA000DF90CF90089585ED8093BC008091BC008A
:104DB00084FDFCCF10923A05089585EC8093BC00E9
:104DC00010923A0508951F920F920FB60F92112478
:104DD0002F933F934F935F936F937F938F939F9303
:104DE000AF93BF93EF93FF938091B900887F803694
:104DF00009F49EC078F5883209F45DC090F48031E2
:104E000009F456C038F4882309F4F5C0883009F451
:104E10004FC0F5C0883109F44EC0803209F45FC03C
:104E2000EEC0803409F46AC058F4803309F457C0E6
:104E3000883309F0E4C08093CD040E94DD26DFC0F2
:104E4000803509F44FC0883509F45DC0883409F015
:104E5000D6C0D3C0883909F4C4C0A8F4883709F48F
:104E600067C038F4883609F463C0803709F460C03D
:104E7000C6C0883809F4B5C0803909F45FC08038ED
:104E800009F0BDC05BC0803B09F483C038F4803AB0
:104E900009F466C0883A09F47CC0B1C0803C09F4CA
:104EA000A4C0883C09F4A1C0883B09F487C0A7C00E
:104EB0008091390510C090911205809111059817C5
:104EC00070F5E091120581E08E0F80931205F0E0FD
:104ED000ED5EFA4F80818093BB0085EC83C08093A8
:104EE000CD048BC0E091120581E08E0F80931205F6
:104EF0008091BB00F0E0ED5EFA4F80839091120547
:104F0000809111056BC0E091120581E08E0F8093B6
:104F100012058091BB00F0E0ED5EFA4F8083809136
:104F2000380581116AC081E08093370584EA5EC04C
:104F300083E080933A051092CE04CFCF8091CE04C7
:104F4000803208F04EC0E091CE0481E08E0F809355
:104F5000CE048091BB00F0E0E153FB4F8083BDCFD6
:104F60000E94DD268091CE04803230F4E091CE04A0
:104F7000F0E0E153FB4F10826091CE0470E0E091CD
:104F80003305F09134058FEC94E009951092CE042E
:104F900036C084E080933A051092F0041092EF043A
:104FA000E0913505F091360509958091EF04811166
:104FB00005C081E08093EF041092F104E091F004C9
:104FC00081E08E0F8093F004F0E0EF50FB4F808182
:104FD0008093BB009091F0048091EF04981708F43F
:104FE0007CCF85E88093BC000AC085EC8093BC0030
:104FF00010923A0504C01092CD040E94D326FF916E
:10500000EF91BF91AF919F918F917F916F915F9140
:105010004F913F912F910F900FBE0F901F901895B9
:105020008BE395E00C94AD258091EA059091EB051A
:10503000892B49F481E090E09093EB058093EA0599
:1050400040E064E606C01092EB051092EA0540E0ED
:1050500060E081E10C943A0FCF93DF9300D000D051
:10506000CDB7DEB7DC0112963C91129739836A8383
:105070004B832C83ED91FC910190F081E02D44E075
:1050800050E0BE016F5F7F4F09950F900F900F901A
:105090000F90DF91CF910895FC01128220E040E053
:1050A00060E00C942C28CF93DF93EC016A8320E01E
:1050B00040E060E00E942C281A8220E040E060E09E
:1050C000CE01DF91CF910C942C28CF93DF93EC018C
:1050D000E881F9810480F581E02D0995E881F98165
:1050E0000680F781E02DCE01DF91CF9109940F93D7
:1050F0001F93CF93DF93EC01E881F9810084F18560
:10510000E02D41E009958C01892B39F0E881F98186
:105110000680F781E02DCE010995C801DF91CF917E
:105120001F910F9108950F931F93CF93DF93EC017D
:10513000E881F9810480F581E02D09958C01892BA6
:1051400039F0E881F9810680F781E02DCE010995DB
:10515000C801DF91CF911F910F91089560E070E039
:1051600082E59BE20C945C32CF93DF93EC01BC01AF
:1051700088E696E00E947718BE0181E896E0DF910C
:10518000CF910C947718CF93DF93EC01BC0188E6A4
:1051900096E00E949B18BE0181E896E0DF91CF91D6
:1051A0000C949B18CF93DF93EC01BC0188E696E04A
:1051B0000E94A918BE0181E896E0DF91CF910C947E
:1051C000A9180F931F93CF93C82F8B01AB01682FA2
:1051D00088E696E00E947019A8016C2F81E896E09D
:1051E000CF911F910F910C9470190F931F93CF9330
:1051F000DF93EC018B01AB01BC0188E696E00E94D5
:105200005B19A801BE0181E896E0DF91CF911F9163
:105210000F910C945B190F931F93CF93DF93EC01C5
:105220008B01AB01BC0188E696E00E947719A801CA
:10523000BE0181E896E0DF91CF911F910F910C9410
:105240007719462F682F88E696E00E94360681E897
:1052500096E00C94B21881E896E00C94B21880386D
:1052600039F421E030E03093E9052093E80511C0DE
:10527000823839F421E030E03093E7052093E605E9
:1052800008C0823331F421E030E03093E50520930B
:10529000E4052091E8053091E9052130310509F058
:1052A0005EC04091E6055091E7054130510559F443
:1052B0004091E4055091E5054130510521F43093CA
:1052C000DD052093DC05813809F442C0893DE1F415
:1052D00041E050E05093E1054093E0052130310575
:1052E000F9F44091E2055091E3054130510581F414
:1052F0004091E0055091E1054130510549F450934A
:10530000D9054093D80504C021303105F1F4E9CF27
:105310008A3D49F481E090E09093DF058093DE05BB
:105320002130310531F58091E2059091E305019737
:1053300001F58091DE059091DF0581309105C9F47A
:105340009093DB058093DA0508958A3D91F4E2CFCE
:1053500041E050E05093E3054093E205C9CF813826
:1053600009F0B4CF81E090E09093E3058093E205EB
:10537000D7CF0895CF93DF93803829F41092E905B1
:105380001092E8050DC0823829F41092E7051092BA
:10539000E60506C0823321F41092E5051092E4057B
:1053A0002091E8053091E9052115310509F032C158
:1053B0004091E6055091E705452B09F09DC04091CD
:1053C000E4055091E505452B09F096C04091DC05B8
:1053D0005091DD054130510509F08EC01092DD0578
:1053E0001092DC0560EE83E292E00E94772864E68A
:1053F00070E080E090E00E94D31F62EE83E292E0D2
:105400000E94772864E670E080E090E00E94D31F5D
:105410006CE483E292E00E94772864E670E080E02A
:1054200090E00E94D31F83E292E00E94932888E6D6
:1054300096E00E942F0687E095E00E94B42861E084
:1054400080E00E94212987EF94E00E94B4280E9406
:105450002B29289A61E085E00E94E92060E971E04B
:1054600080E090E00E94D31F60E085E00E94E92088
:1054700060E971E080E090E00E94D31F61E085E088
:105480000E94E92060E971E080E090E00E94D31F73
:1054900060E085E00E94E92060E971E080E090E052
:1054A0000E94D31F61E085E00E94E92060E971E07D
:1054B00080E090E00E94D31F60E085E00E94E92038
:1054C00060E971E080E090E00E94D31F61E085E038
:1054D0000E94E92060E971E080E090E00E94D31F23
:1054E00060E085E00E94E92060E971E080E090E002
:1054F000DF91CF910C94D31F813809F486C0893D88
:10550000B1F41092E1051092E0052115310509F082
:1055100042C04091E2055091E305452B09F082C05D
:105520004091E0055091E105452B29F02EC0211551
:10553000310579F377C04091D8055091D9054130B4
:10554000510519F51092D9051092D8058EE092E018
:105550000E944C2883E292E00E94652888E696E04B
:105560000E942F0689EE94E00E94B42862E080E059
:105570000E94212981EE94E00E94B4280E942B29E8
:105580001092D5051092D40550C08A3D39F410927E
:10559000DF051092DE05232B09F047C08091E2055C
:1055A0009091E305892B09F040C08091DE05909130
:1055B000DF05892BD1F5C091DA05D091DB05C1302B
:1055C000D10599F51092DB051092DA0583E292E09D
:1055D0000E9493288EE092E00E944C2888E696E094
:1055E0000E942F0686ED94E00E94B42862E080E0DD
:1055F0000E9421298EEC94E00E94B4280E942B295D
:10560000D093D505C093D40510C01092E305109235
:10561000E20586CF813809F072CF1092E30510922F
:10562000E205B9CF8A3D09F4B2CFDF91CF91089559
:1056300088E696E00E942F0684EC94E00C94B4284F
:105640008F92AF92CF92EF920F9320E04AE069E001
:1056500081E896E00E94A4241F921F9283E08F931A
:1056600087E0882E96E0A92E25E0C22E34E0E32EB6
:1056700000E021E042E067E288E696E00E948807C9
:105680000F900F900F9043E162E18EE496E00F914E
:10569000EF90CF90AF908F900C94C50A81E896E080
:1056A0000C944B24CF93C82F682F81E896E00E947A
:1056B000E1228C2F992787FD9095CF910895CF9265
:1056C000DF92EF92FF920F931F93CF93DF93CDB7AB
:1056D000DEB762970FB6F894DEBF0FBECDBF6DED9B
:1056E00071E08EEE95E00E94213261E176E0CE011C
:1056F00001960E946322BE016F5F7F4F8FEE92E0A2
:105700000E947213CE0101960E94672162E080918F
:105710002C010E94AD205D9A289A61E085E00E94EC
:10572000AD2060E085E00E94E92068EC70E080E058
:1057300090E00E94D31F61E085E00E94E92068ECC0
:1057400070E080E090E00E94D31F60E085E00E945E
:10575000E92068EC70E080E090E00E94D31F61E0F7
:1057600085E00E94E92068EC70E080E090E00E9413
:10577000D31F60E085E00E94E92020E044E064E17E
:1057800088E696E00E94180840E855E260E070E084
:1057900081E896E00E94CF2488E696E00E942F06DA
:1057A00060E076E0CE010D960E946322BE01635F49
:1057B0007F4FCE0101960E942222AE014F5F5F4FC4
:1057C0006FEE72E0CE0107960E948A13CE01019619
:1057D0000E9467210E94AE2880912C010E9419210D
:1057E000892B09F412C18EE496E00E94BD0C8093CF
:1057F000ED0585EF95E00E94B4286AE070E08091A5
:10580000ED050E94E1280E942B2960EA7FE080E0FC
:1058100090E00E94D31F88E696E00E942F0664E67F
:105820008EE496E00E94D00A61E08EE496E00E9449
:10583000640C62E070E08EE496E00E94820C82EEDE
:1058400095E00E94B4288EE496E00E94D70A8093E7
:10585000ED0561E080E00E94212985ED95E00E9440
:10586000B4286AE070E08091ED050E94E12868EBC1
:105870007BE080E090E00E94D31F8EE496E00E94DF
:105880007C0C8093ED0562E080E00E9421298AEC87
:1058900095E00E94B4286AE070E08091ED050E94D6
:1058A000E12868EB7BE080E090E00E94D31F8EE46B
:1058B00096E00E942A0D8093ED0563E080E00E944F
:1058C000212980EC95E00E94B4286AE070E0809184
:1058D000ED050E94E1280E942B296BEF71E08EE418
:1058E00096E00E94930B41E052E061E08EE496E086
:1058F0000E94AD0B68EB7BE080E090E00E94D31F3C
:1059000088E696E00E942F068EE496E00E941E0C28
:1059100064E670E080E090E00E94D31F8EE496E0A1
:105920000E94DA0A8EEA95E00E94B4286AE070E0EC
:105930008B859C850E940B2961E080E00E942129D3
:105940008EE995E00E94B42862E080E00E9421295F
:10595000CE0107960E94C3280E942B2960ED77E0B4
:1059600080E090E00E94D31F88E696E00E942F0618
:1059700040E250E060EF71E08EE296E00E94283253
:1059800081E995E00E94B42840E26EE276E08EE480
:1059900096E00E94620B8093EC0561E080E00E943B
:1059A000212981E895E00E94B42862E080E00E940D
:1059B00021298091EC058823F1F08EE496E00E9485
:1059C0001E0C0E94AE1F6B017C018EE496E00E94CB
:1059D000830B8111B2C00E94AE1FDC01CB018C1978
:1059E0009D09AE09BF0981309D42A143B14068F3D2
:1059F00085E695E002C086E495E00E94B4280E9406
:105A00002B298EE496E00E94580D0E942B2968EB0A
:105A10007BE080E090E00E94D31F88E696E00E9441
:105A20002F0681E395E00E94B42861E080E00E94A7
:105A300021298DE195E00E94B42862E080E00E9477
:105A400021290AE010E081E896E00E947A231816E6
:105A5000190644F0809160069091610684369105A4
:105A60000CF47FC081E896E00E947A23892B59F0DC
:105A700081E896E00E94C02268EC70E080E090E04F
:105A80000E94D31FEFCF88E696E00E942F060E9467
:105A90002B298CE095E00E94B4280E942B2968EE07
:105AA00073E080E090E00E94D31F80E1809381004A
:105AB0001092800084E08093EC028BE197EB90934E
:105AC000EE028093ED02909387008093860084E13C
:105AD0008093810084E198E290930801809307010C
