:100000000C94F3020C94D6130C94FD130C9424144A
:100010000C944B140C941B030C941B030C9472143F
:100020000C941B030C94B41A0C94D8100C946E12FC
:100030000C941B030C941B030C941B030C941B03C8
:100040000C941B030C941B030C941B030C941B03B8
:100050000C945E090C941B030C941B030C949914D0
:100060000C941B030C944D0B0C947F0B0C941B03F2
:100070000C941B030C941B030C941B030C941B0388
:100080000C9474180C941B030C941B030C941B030A
:100090000C94901D0C941B030C948D070C941B0363
:1000A0000C941B030C941B030C941B03BD15C0156F
:1000B000AF15B315B915E115E115E115C415C8154E
:1000C000CC15D215D615E115DC1505010902A101E3
:1000D00085010509190129081500250195087501F3
:1000E000810205010930093109381581257F75081C
:1000F00095038106C005010906A101050719E0293C
:10010000E715002501750195088102050C9501751B
:1001100008150026FF00190029FF810005081901B4
:1001200029089508750191020507950675081500BF
:1001300026E700190029E78100C000000000000048
:1001400000002A2B28000000000000000000000032
:10015000000000000000000000002C9EB4A0A1A23E
:10016000A434A6A7A5AE362D3738271E1F2021227E
:1001700023242526B333B62EB7B89F848586878877
:10018000898A8B8C8D8E8F90919293949596979867
:10019000999A9B9C9D2F3130A3AD35040506070825
:1001A000090A0B0C0D0E0F10111213141516171847
:1001B000191A1B1C1DAFB1B0B500080B00020202DA
:1001C00001000904000001020200000524001001E2
:1001D0000524010101042402060524060001070587
:1001E000810310004009040100020A000000070515
:1001F00002024000000705830240000012010002D5
:10020000EF0201404F1B069200010102030112019F
:100210000002000000404F1B069200010102030192
:10022000537061726B46756E0055534220494F20E2
:10023000426F6172640004030904000000020009B7
:100240000F0000030401000C00000000000000008B
:10025000000000000000000004080201104080407F
:1002600010204080408008020401804020100201DC
:1002700010801020404020040404040403040502FC
:100280000202020403020202020606060606060431
:1002900004020202040400000000230026002900DA
:1002A0002C002F0000000000250028002B002E004D
:1002B000310000000000240027002A002D0030003B
:1002C000436C69636B20726967687400436C69638F
:1002D0006B206C656674004D6F757365207269677D
:1002E0006874004D6F757365206C656674004D6FA2
:1002F00075736520646F776E004D6F75736520753B
:100300007000746F20454550524F4D00506F736917
:1003100074696F6E732073617665640053657276DD
:100320006F20706F732069733A2000536572766F87
:1003300020706F776572206F757400536572766FE9
:1003400020706F732069733A2000536572766F20B6
:10035000706F77657220696E00536572766F2070DA
:100360006F732069733A2000536572766F2072654F
:10037000736574206F757400536572766F20706FAB
:10038000732069733A2000536572766F207265732B
:10039000657420696E2E004B65793A2000636F6D9D
:1003A0007075746572206E6F772E00506F7765726E
:1003B000696E67206F6E2074686500636F6D70757D
:1003C000746572206E6F77212100506F77657269B6
:1003D0006E67206F66662074686500636F6D707568
:1003E000746572206E6F7721210052657365747495
:1003F000696E67207468650064697361626C656426
:100400002E00536572766F2061646A757374206D77
:100410006F64650053706163652062617220746F60
:10042000207365742E006B65797320746F206D6F77
:10043000766520616E6400656E61626C65642E2075
:100440005072657373206172726F770053657276B4
:100450006F2061646A757374206D6F646500656EEA
:1004600061626C6564004D6F757365206D6F6465C6
:1004700000656E61626C6564004B6579626F6172E4
:1004800064206D6F6465004354524C2B414C542BD7
:1004900044454C4554450053656E7400537973745C
:1004A000656D2072656164792121003A006F7220C8
:1004B000776169742074656E207365636F6E647311
:1004C0000050726573732061206B657920746F2012
:1004D000626567696E000001324647649E0708093D
:1004E0000A0B0C0D0E0F10111213141516171819F4
:1004F0001A1B1C1D1E1F2C212223242526342829CB
:100500002A2B362D3738271E1F202122232425266B
:100510003A333C2E3E3F40414243444546474849DA
:100520004A4B4C4D4E4F50515253545556575859B3
:100530005A2F31305E5F350405060708090A0B0C97
:100540000D0E0F101112131415161718191A1B1C63
:100550001D7B7C7D7E7FE0E1E2E3E4E5E6E78889E0
:100560008A8B8C8D8E8F9091929394959697989973
:100570009A9B9C9D9E9FA0A1A2A3A4A5A6A7A8A963
:10058000AAABACADAEAF28292A2BB4B5B6B7B8B973
:10059000BABBBCBDBEBFC0393A3B3C3D3E3F40410B
:1005A00042434445CECFD0D14A4B4C4D4E4F505193
:1005B00052DBDCDDDEDFE0E1E2E3E4E5E6E7E8E9AB
:1005C000EAEBECEDEEEFF0F1F2F3F4F5F6F7F8F913
:1005D000FAFBFCFDFEFF51030105720AAF0B680D2B
:1005E000BD1E8A24BA2411241FBECFEFDAE0DEBF7D
:1005F000CDBF11E0A0E0B1E0E6E9F8E502C005906A
:100600000D92AA3CB107D9F715E0AAECB1E001C000
:100610001D92A438B107E1F712E0C2EFD2E004C0A6
:100620002197FE010E94A129CB3ED107C9F70E9464
:10063000740D0C943E2C0C9400000F931F93CF93D9
:10064000DF93EB018A010E94180D9801AE0161E071
:10065000DF91CF911F910F910C94C40CFC01128279
:1006600029E331E0318320838091D301811113C0CC
:100670001092CB011092CA018AEC90E09093CD01C8
:100680008093CC018BE290E09093CF018093CE01D8
:1006900081E08093D3010E94180D6AEC71E00C9404
:1006A000A70C80ED91E00C942E03FC0182818F5BFE
:1006B000FB01808381E00895FC0134969C01245F56
:1006C0003F4F80E090E04081411101961192E21786
:1006D000F307C9F70895CF93DF93CDB7DEB76997D6
:1006E0000FB6F894DEBF0FBECDBFFC01DB019C91BD
:1006F0009F5F9C93BE016F5F7F4F89E1DB011D927D
:100700008A95E9F729E0298384E08A8391E09D8333
:1007100083E08E839F8398872A8721E22B879C879B
:100720009D879F8722E2288B25E4298B27E02B8B4E
:1007300025E02C8B8E8B20E430E0388F2F8B998F27
:1007400082818B83838180688D8B49E150E080E0DA
:100750000E94741069960FB6F894DEBF0FBECDBF2D
:10076000DF91CF910895BC01625F7F4FFC018381CF
:1007700048E050E080640C94DC0F0A970C94B303BB
:10078000FC0120E2260F2830F0F0DC01169620E074
:1007900030E08D91442349F0861304C0E20FF31F2B
:1007A000668326C0811107C0F9CF861304C0E20F0B
:1007B000F31F16821DC02F5F3F4F2630310549F7CA
:1007C00080E090E008953481442349F081E090E096
:1007D00001C0880F2A95EAF7832B848309C041E082
:1007E00050E001C0440F2A95EAF740954323448323
:1007F00081E090E00895FB0120812138B9F4238144
:100800002232A1F4DC0112962C91129730E044813F
:1008100055814217530751F421E057962C9345E434
:1008200050E065EF70E080E80C94741080E090E098
:100830000895CF93DF93EC01FB018A8190E024813E
:1008400035818217930709F04AC081819081913ADE
:1008500069F4813009F441C0833011F48F8903C0F9
:100860008230E9F5888D8093F10037C09132B9F577
:100870008B3019F482818F8B30C08A3019F48281D9
:10088000888F2BC0893059F56681778183818330C9
:1008900079F48C8D9D8D6817790709F58A8D9B8D6C
:1008A0000E949B108C8D9D8D90689D8F8C8F15C0A4
:1008B000823041F46130710591F461E070E0CE0165
:1008C000499609C0813059F46830710541F468E0F7
:1008D00070E0CE010E960E949B1081E001C080E086
:1008E000DF91CF910895EF92FF920F931F93CF93D3
:1008F000DF93E62FF0E0E038F10540F021E030E052
:10090000DC0113963C932E93129722C0D42F7C01C6
:10091000E65CFE4FC4916C2F6F77DC01ED91FC918A
:100920000084F185E02D09958C01C7FF13C0892B48
:1009300011F4D1110DC0D701ED91FC910084F18526
:10094000E02D4D2F61EEC7010995802B912B02C040
:1009500080E090E0DF91CF911F910F91FF90EF9099
:100960000895FF920F931F93CF93DF93EC01F62E20
:1009700041E00E9473048C01892BA9F0E881F98180
:100980000680F781E02DCE01099540E06F2DCE0164
:100990000E947304892B39F0E881F9810680F78180
:1009A000E02DCE010995C801DF91CF911F910F91E4
:1009B000FF900895CF93DF93EC0181E08C838D83CA
:1009C0009E012A5E3F4F3F832E83198618861D861F
:1009D0001C862FE331E0398328832DE431E03B8707
:1009E0002A878F8B888F198E1B8E1A8E1D8E1C8ED8
:1009F00081EC8E8B0E944412BE01DF91CF910C944A
:100A0000FD118BED91E00C94DA04FC0112828FEF62
:100A10008183108213820895FC018381882331F041
:100A2000611103C08FEF81830895118208958CE4D2
:100A300094E00E946A1C8CE494E00E94051D91E001
:100A4000811190E0892F0895CF93DF93EC016A83A1
:100A50008CE494E00E94921C6A81CE010E941705EA
:100A60008B83882329F08CE494E00E9438188883D3
:100A70008B8190E0DF91CF910895CF93DF93FC01BC
:100A800023812223B1F0EC0181818095682360836A
:100A900062818CE494E00E946A1C68818CE494E09A
:100AA0000E94211D8CE494E00E94051D282F30E057
:100AB00002C020E030E081E090E0232B11F080E0E4
:100AC00090E0DF91CF91089508950895DC01ED91B4
:100AD000FC910284F385E02D41E0099581E090E0EE
:100AE0000895FC01138212822BE531E031832083CB
:100AF0000895DC01ED91FC910084F185E02D6FEF0C
:100B00000994DC01ED91FC910284F385E02D40E035
:100B1000099461E00E94810580ED97E00C944415F2
:100B2000CF93DF93CDB7DEB728970FB6F894DEBF2B
:100B30000FBECDBFFC011D8280E48E8394E19F83B4
:100B400094E5988719828A8380E18B8380E58C8382
:100B50008781481710F04FEF480F908550E0DE0175
:100B6000A40FB51F903129F4843019F411969C918B
:100B700002C015969C91690F6068CF0128960FB648
:100B8000F894DEBF0FBECDBFDF91CF910C948105ED
:100B9000FC016581262F246025836C600C948105FF
:100BA000CF93DF93EC01423018F08C8188608C8306
:100BB0004F836887222329F0413019F48C818460A7
:100BC0008C8364E670E080E090E00E9408156C8100
:100BD00064FD31C0E881F9810284F385E02D42E0B3
:100BE00063E0CE01099584E991E10E944415E88112
:100BF000F9810284F385E02D42E063E0CE0109959E
:100C000086E990E00E944415E881F9810284F38529
:100C1000E02D42E063E0CE01099586E990E00E9474
:100C20004415E881F9810284F385E02D42E062E019
:100C3000CE01099516C06062CE010E94810584E94B
:100C400091E10E9444156C816062CE010E94810591
:100C500086E990E00E9444156C816062CE010E949A
:100C6000810586E990E00E9444156C816062CE01A6
:100C70000E9481058CE390E00E94441584E08D83FE
:100C8000CE010E94C805CE010E94890582E08E83B4
:100C900066E0CE010E948105CE01DF91CF910C94D8
:100CA000790521E001C0220F6A95EAF7DC011C9664
:100CB0002C931C971A965C934E931997ED91FC9187
:100CC0000084F185E02D60E00994FC01848588238F
:100CD000A9F0218532852115310519F4611106C06D
:100CE00007C02130310521F4611102C0858701C0A0
:100CF00015866585CF010E960C943D0508950F93DA
:100D00001F93CF93DF938C01EC012E96FC0163853A
:100D1000CE010E942405019769F461E0CE010E9492
:100D20000C05F801148260E0CE010E943D0581E0CF
:100D300090E002C080E090E0DF91CF911F910F9191
:100D400008958F92AF92CF92EF920F93CF93DF934C
:100D5000CDB7DEB7FC01638714861586128611862F
:100D600081E0982F01C0990F4A95EAF7928B982F4E
:100D700001C0990F2A95EAF7938B982F01C0990F1C
:100D80000A95EAF7948B982F01C0990FEA94EAF735
:100D9000958B982F01C0990FCA94EAF7968B982FDC
:100DA00001C0990FAA94EAF7978B01C0880F8A9423
:100DB000EAF7808FDF91CF910F91EF90CF90AF90B6
:100DC0008F9008954F925F926F927F928F92AF9221
:100DD000CF92EF920F931F93CF93DF9300D01F9288
:100DE000CDB7DEB73C011A894B885C882B834A83D8
:100DF00069830E9471058BE691E0F3019183808302
:100E0000C3010E960E9405052B814A816981C301A9
:100E10000E94A106A201612FC3010F900F900F90B5
:100E2000DF91CF911F910F91EF90CF90AF908F9066
:100E30007F906F905F904F900C945106FF920F93AC
:100E40001F93CF93DF93EC01F62E8C01025F1F4FAF
:100E50009A89692BC8010E943D059A8990956F2D4A
:100E60006923C801DF91CF911F910F91FF900C94DE
:100E70003D05362FFC01759624E060E030FF02C08E
:100E80005081652B3695215031962111F7CF413095
:100E900011F4FC014489FC012585622B642B0C9420
:100EA0001E070F931F93CF93DF93062F0F704230CF
:100EB00019F440E0602F10C0142F262FEC0130E011
:100EC000B90184E0759567958A95E1F7CE010E9496
:100ED0003907412F602FCE01DF91CF911F910F91E4
:100EE0000C9439070F931F93CF93DF9300D01F9279
:100EF000CDB7DEB78C012B834A8369830E947F06BE
:100F00002B814A816981C8010F900F900F90DF916A
:100F1000CF911F910F910C94D0051F920F920FB695
:100F20000F9211240F931F932F933F934F935F932F
:100F30006F937F938F939F93AF93BF93CF93DF93E1
:100F4000EF93FF93809106018F5F809306018823C2
:100F500029F0E9EFF1E020E030E059C009EF11E0BD
:100F6000EFEFF1E0C1E0D2E0CE010197DC014C915E
:100F7000CF010197DC01411103C028812223F9F040
:100F80002C9130E0808190E0B901681B790B161636
:100F9000170644F4442389F0840F911D82179307A8
:100FA00064F40AC0672B49F04881442331F0841B64
:100FB0009109281739070CF49C01208302C08C91F9
:100FC000808380818823C9F0CF010597DC018C9153
:100FD000AF0142505109D80112962D913C911397BF
:100FE000D9019C91DA01811103C08C91892B03C036
:100FF0008C9180958923D9018C93075F1F4F399677
:101000002996B2E00D3A1B0709F0AECFA2CF80813E
:1010100087FD15C0E901C750DE4F809106019E8112
:1010200098130DC09981A281B3818C81911104C064
:101030009C918095892302C09C91892B8C93399631
:10104000275F3F4F243B310511F7FF91EF91DF916F
:10105000CF91BF91AF919F918F917F916F915F9150
:101060004F913F912F911F910F910F900FBE0F90B5
:101070001F9018951092C00094E09093C1001092B8
:10108000C2001092C3001092C4001092D10092E8E6
:101090009093D10090E490937200E9EFF1E020E0AA
:1010A00030E09FEF9083D901A750BE4F11961C925C
:1010B00011971382128217961C92179718961C92FA
:1010C0003996275F3F4F243B310561F78093AD028E
:1010D0000895CF93442339F01092BF001092BE00C0
:1010E0009FEF90930601E9EFF1E090E0AFEF2081F0
:1010F00087FF03C027FF06C04BC0281719F0AF3F7A
:1011000041F404C0658387FDFACF46C0208127FDE6
:10111000A92F9F5F3996943151F787FD3DC0AF3FAE
:1011200009F43AC0C82F89E0A802D0011124A750C1
:10113000BE4FCC932091AD0211962C9311978C2F1A
:10114000992787FD9095FC01E958FD4FE491F0E067
:10115000EE0FFF1FEC55FD4F4591549113965C9394
:101160004E931297FC01E85AFD4FE4911496EC93CC
:10117000149715966C93211102C060E001C061E0E4
:101180008C2F0E941E1661E08C2FCF910C94E215DB
:10119000AF3F09F0BECFBCCFCF910895282F3FEFCE
:1011A000639FC001112464E670E00E943829822FF9
:1011B0000C9469082F923F924F925F926F927F92A8
:1011C0008F929F92AF92BF92CF92DF92EF92FF9257
:1011D0000F931F93CF93DF93CDB7DEB727970FB64B
:1011E000F894DEBF0FBECDBF89831B015D834C83A6
:1011F00089EF91E09F838E8300E010E04A01A12CEB
:10120000B12C80EFC82E8FE0D82EE12CF12C2B01D1
:10121000612C712C9981EE81FF81808197FF0DC037
:1012200087FF0EC08E819F8109969F838E83075F03
:101230001F4F043B110571F727C0F9818F13F2CFBF
:101240002114310439F0C701B601A30192010E94B3
:10125000602901C020E0C80187509E4F9B838A838C
:10126000FC0127838C819D81892B39F0C701B60150
:10127000A50194010E94602901C020E0EA81FB8160
:101280002087F981F7FDCECF27960FB6F894DEBF01
:101290000FBECDBFDF91CF911F910F91FF90EF90C7
:1012A000DF90CF90BF90AF909F908F907F906F9086
:1012B0005F904F903F902F90089508951F920F9246
:1012C0000FB60F9211242F933F934F935F936F9319
:1012D0007F938F939F93AF93BF93EF93FF93E0918F
:1012E0000701F09108010995FF91EF91BF91AF912E
:1012F0009F918F917F916F915F914F913F912F912E
:101300000F900FBE0F901F901895CF93DF931F92F1
:10131000CDB7DEB76983DC01ED91FC910280F381EA
:10132000E02D41E050E0BE016F5F7F4F09950F90C7
:10133000DF91CF910895CF93DF93EC018C859D854C
:1013400097FF05C082E00E94AB0F9D878C878C853C
:101350009D85DF91CF91089583E00C94CE10FC0120
:101360008485958597FD06C082E00E94550F90E028
:101370000196089582E00E94550F90E00895FC01C7
:101380008485958597FD05C02FEF3FEF358724872E
:10139000089582E00C94AB0FCF93DF93EC01809122
:1013A0001401882331F083E00E94DC0F181619061F
:1013B00034F081E090E09B838A8380E090E0DF91CD
:1013C000CF910895FC0190819E5F908342E450E0AC
:1013D0006AEB71E080E80C947410FC0181819081CB
:1013E000913A59F4813209F048C047E050E06DE08D
:1013F00071E080E00E94741073C09132F1F5833285
:1014000091F49381892F90E0982F88272281822B55
:10141000A0E0B0E08093090190930A01A0930B0132
:10142000B0930C015DC0803239F467E070E08DE06C
:1014300091E00E949B1006C0823209F051C0828167
:101440008093140180910103882319F0EEEFFAE0F4
:1014500002C0E0E0F8E080910D0190910E01A091B2
:101460000F01B0911001803B9440A105B10539F402
:101470008091140180FF1CC002C080E0089588E1C3
:101480000FB6F89480936000109260000FBEA8958C
:10149000EE3F8AE0F80739F08091FE0A9091FF0A4A
:1014A000918380831DC01092FF0A1092FE0A18C01B
:1014B000EE3F2AE0F20731F0808191819093FF0A9C
:1014C0008093FE0A87E797E7918380839BE088E11A
:1014D0000FB6F894A895809360000FBE90936000BB
:1014E00081E00895E1EBF2E01382128288EE93E04E
:1014F000A0E0B0E084839583A683B7838BE791E077
:10150000918380838FEF9FEF958784870895FC01F7
:10151000918D228D892F90E0805C9F4F821B9109D5
:101520008F7399270895FC01918D828D981731F062
:10153000828DE80FF11D858D90E008958FEF9FEF6C
:101540000895FC01918D828D981761F0828DDF01E5
:10155000A80FB11D5D968C91928D9F5F9F73928FA6
:1015600090E008958FEF9FEF089585EA9BE0892B27
:1015700049F080E090E0892B29F00E94A50B8111B1
:101580000C9400000895FC01848DDF01A80FB11DAB
:10159000A35ABF4F2C91848D90E001968F739927A9
:1015A000848FA689B7892C93A089B1898C91806496
:1015B0008C93938D848D981306C00288F389E02D57
:1015C00080818F7D80830895CF93DF93EC01888D98
:1015D0008823C9F0EA89FB89808185FD05C0A88937
:1015E000B9898C9186FD0FC00FB607FCF5CF8081BD
:1015F00085FFF2CFA889B9898C9185FFEDCFCE0107
:101600000E94C30AE7CFDF91CF910895EF92FF9236
:101610000F931F93CF93DF93EC0181E0888F9B8D15
:101620008C8D981305C0E889F989808185FD24C0D7
:10163000F62E0B8D10E00F5F1F4F0F731127E02E5A
:101640008C8DE8120CC00FB607FCFACFE889F98937
:10165000808185FFF5CFCE010E94C30AF1CF8B8D2B
:10166000FE01E80FF11DE35AFF4FF0820B8FEA896C
:10167000FB898081806207C0EE89FF896083E889E9
:10168000F98980818064808381E090E0DF91CF914F
:101690001F910F91FF90EF9008951F920F920FB638
:1016A0000F9211242F938F939F93EF93FF93E091C9
:1016B0001203F09113038081E0911803F091190354
:1016C00082FD12C0908180911B038F5F8F732091E8
:1016D0001C03821751F0E0911B03F0E0EE5FFC4F1A
:1016E000958F80931B0301C08081FF91EF919F91A3
:1016F0008F912F910F900FBE0F901F9018951F92F2
:101700000F920FB60F9211242F933F934F935F9335
:101710006F937F938F939F93AF93BF93EF93FF93B9
:1017200082E093E00E94C30AFF91EF91BF91AF91D5
:101730009F918F917F916F915F914F913F912F91E9
:101740000F900FBE0F901F90189582E093E00E94BB
:10175000870A21E0892B09F420E0822F0895E2E036
:10176000F3E01382128288EE93E0A0E0B0E084837D
:101770009583A683B7838BE891E0918380838DEC7A
:1017800090E0958784878CEC90E09787868788EC3B
:1017900090E0918B808B89EC90E0938B828B8AEC2C
:1017A00090E0958B848B8EEC90E0978B868B118EDE
:1017B000128E138E148E0895DC01FB0188E4808361
:1017C00089E4818384E482831D969C911D979F7098
:1017D0009F5B93831D968D919C911E9724E0969517
:1017E00087952A95E1F78F708F5B848385E0089554
:1017F000CF93DF93CDB7DEB769970FB6F894DEBF0E
:101800000FBECDBFFC01DB018C918F5F8C93BE01BD
:101810006F5F7F4F89E1DB011D928A95E9F729E02F
:10182000298384E08A8391E09D8383E08E832A87E5
:1018300021E22B879C879D879F8722E2288B27E0C8
:101840002B8B25E02C8B8E8B20E430E0388F2F8B78
:10185000998F82818B8395858685998B8A8B8381ED
:1018600080688D8B49E150E080E00E947410699699
:101870000FB6F894DEBF0FBECDBFDF91CF910895B4
:10188000DC01FB0112968C91129790E02481358146
:1018900082179307D1F491818081813A31F481E0FC
:1018A000913091F0933089F411C0813271F49B3002
:1018B00021F482811F968C9305C09A3031F4828185
:1018C00050968C9381E00895089580E00895EF92FA
:1018D000FF920F931F93CF93DF93FB012081213859
:1018E00051F52381223239F5DC0112962C9130E03A
:1018F0004481558142175307F1F4EC010B851C8597
:10190000E12CF12C0115110591F0F801448155816C
:101910006281738180E80E9474108F3FFFEF9F0700
:1019200069F0E80EF91ED8010D911C91EBCF81E012
:101930008F87C70105C080E090E002C08FEF9FEF66
:10194000DF91CF911F910F91FF90EF900895FC01CF
:10195000A385B485109719F47487638709C08D91A6
:101960009C911197009711F0DC01F9CF6D937C9356
:1019700025853685DB0114968D919C911597820FF4
:10198000931F968785870895AF92BF92CF92DF927B
:10199000EF92FF920F931F93CF93DF931F92CDB7D8
:1019A000DEB77C0169836A01590141E050E0BE0164
:1019B0006F5F7F4FFC0183810E94DC0F8C0197FDDC
:1019C0000BC0F7018381A501B60180640E94DC0F82
:1019D00097FD02C0800F911F0F90DF91CF911F9153
:1019E0000F91FF90EF90DF90CF90BF90AF90089550
:1019F000CF93DF93EC0181E08C838D839E01265F82
:101A00003F4F3F832E83198618862BE931E03983B7
:101A100028831C861B861E861D868F87888B81ECFB
:101A20008A870E944412BE01DF91CF910C94FD1170
:101A30008091B003811107C08FE993E00E94F80CF8
:101A400081E08093B0038FE993E008958F929F9295
:101A5000AF92BF92CF92DF92EF92FF920F931F93BC
:101A6000CF93DF937C018B016C0182E0C80ED11C07
:101A70004701E5E08E0E911CC0E0D0E0F6016191D7
:101A80006F014AE050E0C8010E94AB0E5C016EE2BB
:101A9000C8010E94FC0D8A0D9B1DC80FD91FC814D8
:101AA000D90461F74AE050E0F7016581C8010E945E
:101AB000AB0E8C0F9D1FDF91CF911F910F91FF9067
:101AC000EF90DF90CF90BF90AF909F908F90089550
:101AD000E8EBF3E087EA91E091838083128213823E
:101AE00014821582089508950E944F150E94730D67
:101AF0008AEC93E00E945B110E94BE24C5EBDAE001
:101B00000E94E2252097E1F30E94B50AF9CF0895DB
:101B10000E94A72BCF92DF92EF92FF920F931F9319
:101B2000CF93DF936C017A018B01C0E0D0E0CE153A
:101B3000DF0589F0D8016D918D01D601ED91FC9101
:101B40000190F081E02DC6010995892B11F47E01E9
:101B500002C02196ECCFC701DF91CF911F910F9169
:101B6000FF90EF90DF90CF9008956115710579F0A7
:101B7000FB0101900020E9F73197AF01461B570B9D
:101B8000DC01ED91FC910280F381E02D099480E06D
:101B900090E00895EF92FF920F931F93CF93DF93FE
:101BA0008C017B01C0E0D0E0F701EC0FFD1F6491D8
:101BB000662361F0D801ED91FC910190F081E02D58
:101BC000C8010995892B11F02196EECFCE01DF9146
:101BD000CF911F910F91FF90EF900895DB01149624
:101BE0004D915C9115976D917C91DC01ED91FC918B
:101BF0000280F381E02D0994DC01ED91FC910190CC
:101C0000F081E02D09944F925F926F927F92EF9254
:101C1000FF920F931F93CF93DF93CDB7DEB7A197BA
:101C20000FB6F894DEBF0FBECDBF7C01FA01CB0129
:101C300019A2223008F42AE08E010F5D1F4F422EB8
:101C4000512C612C712CBF01A30192010E946029CB
:101C5000F901CA01015011096A3014F4605D01C034
:101C6000695CD8016C93232B242B252B61F7B801D9
:101C7000C7010E94B50DA1960FB6F894DEBF0FBE46
:101C8000CDBFDF91CF911F910F91FF90EF907F908B
:101C90006F905F904F900895CF92DF92EF92FF92F6
:101CA0000F931F93CF93DF93EC016A017B01211502
:101CB000310579F4E881F9810190F081E02D642FFC
:101CC000DF91CF911F910F91FF90EF90DF90CF9018
:101CD00009942A303105E9F477FF1AC06DE20E94B9
:101CE000FC0D8C0144275527BA014C195D096E097A
:101CF0007F092AE0CE010E94030E800F911FDF9121
:101D0000CF911F910F91FF90EF90DF90CF900895AA
:101D10002AE0B701A601CE01DF91CF911F910F916B
:101D2000FF90EF90DF90CF900C94030E9A01AB01DF
:101D3000662757FD6095762F0C944C0E21153105C2
:101D400041F4DC01ED91FC910190F081E02D642FD4
:101D500009940C94030E9A01462F50E060E070E065
:101D60000C949E0E615030F02091F100FC01208314
:101D70000196F8CF289884E68093D3030895409184
:101D8000CE035091CF032091CC033091CD03421765
:101D90005307B4F49091E8009570E1F39091E80056
:101DA00092FD19C08093F1008091CE039091CF03F2
:101DB00001968F739927892B19F48EEF8093E80091
:101DC0008091CE039091CF0301969093CF0380939F
:101DD000CE0381E0089580E00895CF92DF92EF92E4
:101DE000FF920F931F93CF93DF931F92CDB7DEB770
:101DF000182F062FE42E862F880F8E5F99830E945E
:101E0000BF0E83E00E94BF0EF12EC12E9981D92E04
:101E10008C2D8F19801798F4F601E7FE02C084918B
:101E200001C080810E94BF0E182F80E00E94BF0E6B
:101E30008123FFEFCF1ADF0A8111EACF01C081E0D1
:101E40000F90DF91CF911F910F91FF90EF90DF9056
:101E5000CF9008958091D70081608093D70080EA69
:101E60008093D80089B5806189BD89B5826089BDBC
:101E700009B400FEFDCF61E070E080E090E00E94D8
:101E800008158091D8008F7C80618093D800809164
:101E9000E000807F8093E00008952FB7FC0120834D
:101EA000F89467706093E9000895CF93DF931F92D1
:101EB000CDB7DEB7682FCE0101960E944D0F8091FD
:101EC000F20099819FBF0F90DF91CF910895EF921B
:101ED000FF920F931F93CF93DF931F92CDB7DEB77F
:101EE0009091D203992311F057FF03C08FEF9FEF1A
:101EF0002AC08A017B01682FCE0101960E944D0FF6
:101F00008091F20090E0A801801791070CF4AC01D9
:101F1000842FF70194E6815038F028989093D303EA
:101F20002091F1002193F7CF4115510521F08091C7
:101F3000F200882321F089818FBFCA0104C08BE69B
:101F40008093E800F8CF0F90DF91CF911F910F9110
:101F5000FF90EF900895CF93DF931F92CDB7DEB738
:101F600041E050E0BE016F5F7F4F0E94670F019715
:101F700019F4898190E002C08FEF9FEF0F90DF91FD
:101F8000CF910895CF93DF931F92CDB7DEB7682F1F
:101F9000CE0101960E944D0F9091E800892F80722A
:101FA00095FF04C09091F20080E4891B99819FBF46
:101FB0000F90DF91CF9108956F927F928F929F92B1
:101FC000AF92BF92CF92DF92EF92FF920F931F9347
:101FD000CF93DF931F92CDB7DEB7A82E6B01B42E3F
:101FE000052F8091D203882369F0E42EF52E8AEF25
:101FF000982E8A2D8072782E9AE3892E8A2D8074ED
:10200000682E12C08FEF9FEF54C08A2D0E94C20F1E
:10201000182F81110DC09A949920A1F361E070E00E
:1020200080E090E00E940815E114F10471F737C0D8
:1020300090E0E816F9060CF41E2D6A2DCE010196EB
:102040000E944D0F8091E80085FF26C0812F90E00F
:10205000E81AF90A772029F01150A8F01092F1003F
:10206000FBCFF601A7FE07C0115058F02491209332
:10207000F1003196F9CF115020F021912093F10019
:10208000FACFC80ED91E8091E80085FF0FC0E11479
:10209000F10411F461100AC089818FBFC5CF5D982A
:1020A00084E68093D4038B2D902F03C08092E800A8
:1020B000F3CF0F90DF91CF911F910F91FF90EF9091
:1020C000DF90CF90BF90AF909F908F907F906F9058
:1020D00008951092E9001092CF031092CE039093CE
:1020E000CD038093CC030895DF92EF92FF920F937C
:1020F0001F93CF93DF93D82E8A017B01E40EF51E48
:10210000EB01CE15DF0571F0D7FE03C0FE0184910F
:1021100001C088810E94BF0E21968111F2CF8FEFFE
:102120009FEF01C0C801DF91CF911F910F91FF90E8
:10213000EF90DF900895BF92CF92DF92EF92FF92DF
:102140000F931F93CF93DF936C018B01EB019BEFF8
:10215000B92E2097C1F07E01C134D1051CF080E476
:10216000E82EF12C8091E80082FFFCCFC8018C1B87
:102170009D0B6E2D8C0D9D1D0E94B20EB092E8003D
:10218000CE19DF09E6CFC801DF91CF911F910F91E2
:10219000FF90EF90DF90CF90BF9008958093E9007B
:1021A0008091F200882319F08AE38093E800089573
:1021B0001F920F920FB60F9211242F933F934F93BC
:1021C0005F936F937F938F939F93AF93BF93CF93BF
:1021D000EF93FF93C091E1008091E100837F8093B2
:1021E000E1008093E100C3FF0FC01092E90081E09D
:1021F0008093EB001092EC0082E38093ED0010924C
:10220000D20388E08093F000C2FF19C083E00E94EF
:10221000CE108091D403882339F08091D40381506B
:102220008093D403882389F18091D303882339F0E4
:102230008091D30381508093D303882341F1C4FF5D
:1022400010C08091E2008E7E81608093E2008091D8
:10225000E1008F7E8093E1008091D0038E7E8061CB
:1022600011C0C0FF16C08091E2008E7E8061809315
:10227000E2008091E1008E7E8093E1008091D003A6
:102280008E7E81608093D00304C05D9ACDCF289A62
:10229000D6CFFF91EF91CF91BF91AF919F918F9149
:1022A0007F916F915F914F913F912F910F900FBE52
:1022B0000F901F9018951092D2031092D103109294
:1022C000D0030E942A0F8091E1008E7E8093E1006E
:1022D0008DE08093E200559A209AEEEFFFE785911A
:1022E00094918B3F9C4D19F481E0809301030895F4
:1022F000EF92FF920F931F93CF93DF937B01FC012B
:10230000C281D38100E010E0209781F0E881F9815B
:102310000280F381E02DB701CE01099597FD08C039
:10232000080F191F0884D985C02DEECFC80102C03F
:102330008FEF9FEFDF91CF911F910F91FF90EF9063
:1023400008950F931F93CF93DF938B01FC01C281FC
:10235000D381209771F0E881F9810480F581E02D27
:10236000B801CE010995009731F40884D985C02DB4
:10237000F0CF80E090E0DF91CF911F910F91089511
:102380000F931F93CF93DF938B01FC01C281D38105
:10239000209771F0E881F9810680F781E02DB8017E
:1023A000CE010995080F111D0884D985C02DF0CFE5
:1023B000F8011082DF91CF911F910F9108950F9333
:1023C0001F93CF93DF938B01FC01C281D3812097B0
:1023D00071F0E881F9810190F081E02DB801CE0122
:1023E0000995811105C00884D985C02DF0CF80E002
:1023F000DF91CF911F910F910895CF93DF93FC014F
:10240000DB01218114968C91149790E0820F911D2D
:102410000897B4F5C281D381209719F4738362833E
:1024200008C088859985009711F0EC01FACFB9872B
:10243000A887808112968C931297818113968C9332
:102440001397908115968C911597890F808380E062
:1024500014969C911497891788F41696CD91DC9167
:102460001797C80FD11D9881C181D0E0CB5EDE4F98
:10247000988391819F5F91838F5FEACF81E001C054
:1024800080E0DF91CF9108958091C20381110DC04A
:1024900082E08093BE0384E08093BF031092C10367
:1024A0001092C00381E08093C2038EEB93E0089505
:1024B000CF93DF931F92CDB7DEB71982CE0101967D
:1024C0000E94E2090E944412BE016F5F7F4F0E948A
:1024D000781189810F90DF91CF9108951F920F920B
:1024E0000FB60F921124CF92DF92EF92FF920F93CB
:1024F0001F932F933F934F935F936F937F938F938C
:102500009F93AF93BF93EF93FF93CF93DF93CDB799
:10251000DEB76C97DEBFCDBF1092E9008091E80076
:1025200083FF24C168E0CE0145960E94B20E82EF7F
:102530008093E8008D8987FF05C09091E80090FFA7
:10254000FCCF03C09EEF9093E800982F907609F09F
:10255000F1C09E892F89188D91110CC0803829F403
:102560008091D1038093F10002C01092F10010928B
:10257000F100F5C0422F50E0512B913051F4811100
:10258000EEC04130510509F0EAC08091D1038D7F42
:102590000BC0933061F48111E2C04130510509F064
:1025A000DEC08091D10382608093D103D8C0953082
:1025B00041F48091E80080FFFCCF20682093E30085
:1025C000CEC0963009F08CC0EB8CFC8C123069F5D3
:1025D00080E090E00E9469100E94581299E09E01EC
:1025E0002F5F3F4F6901F901292F11922A95E9F7D1
:1025F00099831A8391E09E8390EA98879AEF99874E
:102600002091CE033091CF03275F3F4F3C832B8334
:102610008D83C7010E94691049E050E0B60180E057
:102620000E9474100E9458129AC0C7010E9469103B
:102630000E944412BE016B5E7F4F0E94A111009761
:1026400019F00CF08CC08FC0113071F48B8D9C8D03
:10265000089719F481E08093CB038091CB0381111B
:102660002FC06EE072E031C0133009F07CC08F895A
:10267000882349F1823029F440E86CE089E292E055
:1026800006C0813039F440E868E080E292E00E94C0
:10269000ED0E63C0833009F066C00E9444128E01C3
:1026A0000F5F1F4FB8010E94C011F8010190002078
:1026B000E9F73197BF01601B710B40E0C801E7CF1C
:1026C0006CEF71E002C066E372E06115710509F418
:1026D0004AC0FB01449150E080E80E9474103FC062
:1026E000973009F440C0983021F481E08093F100E4
:1026F00036C09930A1F58370B1F5E6E1F1E081E0F3
:1027000021E036E39081992361F08093E9002093E2
:10271000EB0091919093EC003093ED008F5F873048
:1027200089F78EE78093EA001092EA008F89809300
:10273000D20315C08B8D9C8D0E946910898D8111EB
:1027400005C0CE0145960E94ED0907C00E944412C3
:10275000BE016B5E7F4F0E94DF11882321F08EEF58
:102760008093E80003C081E28093EB006C960FB683
:10277000F894DEBF0FBECDBFDF91CF91FF91EF91F7
:10278000BF91AF919F918F917F916F915F914F9189
:102790003F912F911F910F91FF90EF90DF90CF907D
:1027A0000F900FBE0F901F90189508951F920F92D3
:1027B0000FB60F9211242F933F934F935F936F9314
:1027C0007F938F939F93AF93BF93EF93FF93E0918A
:1027D0001C01F0911D010995FF91EF91BF91AF91FF
:1027E0009F918F917F916F915F914F913F912F9129
:1027F0000F900FBE0F901F9018951F920F920FB65B
:102800000F9211242F933F934F935F936F937F9376
:102810008F939F93AF93BF93EF93FF93E0911E012C
:10282000F0911F010995FF91EF91BF91AF919F9199
:102830008F917F916F915F914F913F912F910F9069
:102840000FBE0F901F9018951F920F920FB60F9208
:1028500011242F933F934F935F936F937F938F93A5
:102860009F93AF93BF93EF93FF93E0912001F0917B
:1028700021010995FF91EF91BF91AF919F918F91A8
:102880007F916F915F914F913F912F910F900FBE6C
:102890000F901F9018951F920F920FB60F92112450
:1028A0002F933F934F935F936F937F938F939F9358
:1028B000AF93BF93EF93FF93E0912201F091230137
:1028C0000995FF91EF91BF91AF919F918F917F916A
:1028D0006F915F914F913F912F910F900FBE0F908D
:1028E0001F9018951F920F920FB60F9211242F93DD
:1028F0003F934F935F936F937F938F939F93AF9388
:10290000BF93EF93FF93E0912401F0912501099586
:10291000FF91EF91BF91AF919F918F917F916F91B7
:102920005F914F913F912F910F900FBE0F901F908D
:1029300018951F920F920FB60F9211242F933F9369
:102940008F939F93AF93BF938091D6039091D703BA
:10295000A091D803B091D9033091D50323E0230F80
:102960002D3720F40196A11DB11D05C026E8230FC7
:102970000296A11DB11D2093D5038093D603909399
:10298000D703A093D803B093D9038091DA03909131
:10299000DB03A091DC03B091DD030196A11DB11D05
:1029A0008093DA039093DB03A093DC03B093DD0301
:1029B000BF91AF919F918F913F912F910F900FBE3B
:1029C0000F901F9018953FB7F8948091DA0390917B
:1029D000DB03A091DC03B091DD0326B5A89B05C005
:1029E0002F3F19F00196A11DB11D3FBFBA2FA92F8E
:1029F000982F8827820F911DA11DB11DBC01CD010B
:102A000042E0660F771F881F991F4A95D1F70895F6
:102A10008F929F92AF92BF92CF92DF92EF92FF92EE
:102A20006B017C010E94E3144B015C01C114D104D1
:102A3000E104F10401F10E94870D0E94E314DC011E
:102A4000CB0188199909AA09BB09883E9340A105C1
:102A5000B10560F321E0C21AD108E108F10888EE5F
:102A6000880E83E0981EA11CB11CC114D104E1049E
:102A7000F10419F7DBCFFF90EF90DF90CF90BF907C
:102A8000AF909F908F9008958230910538F0880F15
:102A9000991F880F991F05970197F1F7089578946A
:102AA00084B5826084BD84B5816084BD85B5826053
:102AB00085BD85B5816085BDEEE6F0E080818160F1
:102AC0008083E1E8F0E010828081826080838081F1
:102AD00081608083E0E8F0E0808181608083E1E9CB
:102AE000F0E0808182608083808181608083E0E982
:102AF000F0E0808181608083E1ECF0E0808184609F
:102B00008083808182608083808181608083E3EC28
:102B1000F0E0808181608083E0ECF0E08081826081
:102B20008083E2ECF0E0808181608083EAE7F0E07E
:102B300080818460808380818260808380818160E5
:102B40008083808180688083089590E0FC013197C4
:102B5000EF30F105B0F5EA5AFF4F0C94A1298091AE
:102B600080008F7703C0809180008F7D80938000EC
:102B7000089580918000877FF9CF84B58F7702C058
:102B800084B58F7D84BD0895809190008F7707C0B4
:102B9000809190008F7D03C080919000877F80930B
:102BA000900008958091C0008F7703C08091C0008D
:102BB0008F7D8093C00008958091C200877F8093AD
:102BC000C2000895CF93DF9390E0FC01E85AFD4FD7
:102BD0002491FC01E958FD4F8491882361F190E034
:102BE000880F991FFC01EE54FD4FC591D491FC0153
:102BF000EC55FD4FA591B491611109C09FB7F894B0
:102C00008881209582238883EC912E230BC062302B
:102C100061F49FB7F8943881822F8095832388834D
:102C2000EC912E2B2C939FBF06C08FB7F894E881B0
:102C30002E2B28838FBFDF91CF9108951F93CF93C1
:102C4000DF93282F30E0F901E65CFD4F8491F90114
:102C5000E85AFD4FD491F901E958FD4FC491CC23B6
:102C6000C9F0162F81110E94A515EC2FF0E0EE0F90
:102C7000FF1FEC55FD4FA591B4918FB7F89411113A
:102C800005C09C91ED2FE095E92302C0EC91ED2B5E
:102C9000EC938FBFDF91CF911F9108954F925F9278
:102CA0006F927F92AF92BF92CF92DF92EF92FF929C
:102CB0000F931F93CF93DF93CDB7DEB729013A016E
:102CC0009B01AC01241935094609570989899A895C
:102CD000AB89BC89BC01CD016A197B098C099D09AE
:102CE0000E941C29A8019701241935094609570992
:102CF0000E948229CA01B9016A0D7B1D8C1D9D1D90
:102D0000DF91CF911F910F91FF90EF90DF90CF90C7
:102D1000BF90AF907F906F905F904F900895FC01AF
:102D2000808191810C944B2ACF93DF93EC018881B1
:102D30009981009711F00E944B2A198218821D82F6
:102D40001C821B821A82DF91CF9108950F931F93EB
:102D5000CF93DF93EC018B016F5F7F4F8881998167
:102D60000E94E32A009731F0998388831B830A83AA
:102D700081E001C080E0DF91CF911F910F91089514
:102D8000CF93DF93EC0188819981892B29F08A8187
:102D90009B818617970760F4CE010E94A6168823B0
:102DA00041F08C819D81892B19F4E881F981108291
:102DB00081E0DF91CF910895EF92FF920F931F93DF
:102DC000CF93DF93EC017B018A01BA010E94C01608
:102DD000811104C0CE010E94941607C01D830C838C
:102DE000B701888199810E94B52BCE01DF91CF91E7
:102DF0001F910F91FF90EF900895FC0111821082B6
:102E000013821282158214826115710551F0FB0143
:102E100001900020E9F73197AF01461B570B0C9446
:102E2000DC160895CF93DF93EC01FB01861797071B
:102E300061F0608171816115710529F044815581CE
:102E40000E94DC1602C00E949416CE01DF91CF9141
:102E50000895FC011182108213821282158214825D
:102E60000C941217CF93DF93EC016115710559F0A3
:102E7000FB0101900020E9F73197AF01461B570B8A
:102E80000E94DC1602C00E949416CE01DF91CF9101
:102E90000895CF93DF9300D0CDB7DEB7FC01118248
:102EA0001082138212821582148269831A82BE01F3
:102EB0006F5F7F4F0E9432170F900F90DF91CF917D
:102EC0000895EF92FF920F931F93CF93DF93FC012E
:102ED000248135816115710511F480E019C0411517
:102EE0005105A9F07B01EC018A01020F131FB80103
:102EF0000E94C016882389F3288139818C819D81A5
:102F0000B701820F931F0E94B52B1D830C8381E0B4
:102F1000DF91CF911F910F91FF90EF900895CF9384
:102F2000DF93EC01FB0144815581608171810E9436
:102F30006117811103C0CE010E949416CE01DF916A
:102F4000CF9108952091E0043091E10428173907CA
:102F5000B9F490919E0480919F04981789F0E091B4
:102F60009E04F0E0E056FB4F808120919E0430E00B
:102F70002F5F3F4F2F73332720939E0490E00895D7
:102F80008FEF9FEF08951F93CF93DF93DC015C9643
:102F90002D913C915D972115310539F481E090E048
:102FA00013969C938E9312973DC05196ED91FC9190
:102FB000529750969C915097892F80951FB75E9697
:102FC0004C915E9741FB772770F941FD6095F8942D
:102FD0004081772311F0492B01C048234083E90148
:102FE0002197F1F748E0508160FF02C0592B01C0E2
:102FF00058235083E9012197F1F76695415099F7DD
:10300000772321F090818923808303C08081982BCE
:1030100090831FBF5C968D919C915D970197F1F70E
:1030200021E030E0C901DF91CF911F91089508950B
:103030002091E0043091E1042817390771F4909150
:103040009E0480919F04981741F0E0919E04F0E067
:10305000E056FB4F808190E008958FEF9FEF089539
:1030600080917C0490E020917D04821B9109089559
:1030700090917D0480917C04981750F4E92FF0E042
:10308000E258FB4F208130E09F5F90937D0402C0A7
:103090002FEF3FEFC9010895E0917D0480917C04FA
:1030A000E81730F4F0E0E258FB4F808190E008959B
:1030B0008FEF9FEF089508952091E0043091E1048F
:1030C0002817390771F480919F0420919E0490E0A5
:1030D000805C9F4F821B910960E470E00E944C2944
:1030E000089580E090E008951F920F920FB60F921E
:1030F00011242F933F934F935F936F937F938F93FD
:103100009F93AF93BF93EF93FF938091E30487FF67
:1031100005C010929500109294001BC02091E3040A
:10312000332727FD30958091E20490E02817390776
:1031300084F48091E304992787FD9095FC01EE0FBC
:10314000FF1F8E0F9F1FFC01EC51FB4F808186FDFE
:1031500015C08091E3048F5F8093E3042091E30422
:10316000332727FD30958091E20490E02817390736
:10317000C4F48091E3048C3064F113C08091E304C3
:10318000992787FD9095FC01EE0FFF1F8E0F9F1F63
:10319000FC01EC51FB4F808160E08F730E941E1692
:1031A000D8CF8091940090919500049680349C49EA
:1031B00018F480E49CE905C08091940090919500FA
:1031C000049690939900809398008FEF8093E30486
:1031D0003BC020919400309195008091E3049927A1
:1031E00087FD9095FC01EE0FFF1F8E0F9F1FFC01C6
:1031F000EC51FB4F81819281820F931F9093990034
:10320000809398008091E304992787FD9095FC01B5
:10321000EE0FFF1F8E0F9F1FFC01EC51FB4F8081B3
:1032200086FF12C08091E304992787FD9095FC01E9
:10323000EE0FFF1F8E0F9F1FFC01EC51FB4F808193
:1032400061E08F730E941E16FF91EF91BF91AF91C5
:103250009F918F917F916F915F914F913F912F91AE
:103260000F900FBE0F901F901895FC019091E204F3
:103270009C30A0F481E0890F8093E2049083892F31
:1032800090E0FC01EE0FFF1F8E0F9F1FFC01EC5121
:10329000FB4F88EB9BE09283818308958FEF8083BF
:1032A0000895DF92EF92FF920F931F93CF93DF93D6
:1032B000EC01D62E7A01890188818C3008F067C034
:1032C00061E08D2D0E94E2158881E82FF0E09F01DA
:1032D000220F331FE20FF31FEC51FB4F9D2D9F7305
:1032E0002081207CD22ED92AD08260E272E0AB010C
:1032F0004E195F0957FF02C04D5F5F4F55954795C7
:1033000055954795498340E659E09A01201B310BBA
:1033100037FF02C02D5F3F4F35952795359527958F
:103320002A836CE00E942C299CE0899FB001112423
:1033300040E050E09A01260F371FF901EE0FFF1F02
:103340002E0F3F1FF901EC51FB4F908196FD13C0EA
:103350004F5F5F4F4C30510569F781110CC01092DF
:10336000900082E08093910010929500109294005A
:1033700088BB80937100E881F0E0CF01880F991F2E
:10338000E80FF91FEC51FB4F8081806480838881B6
:10339000DF91CF911F910F91FF90EF90DF900895F3
:1033A00020E639E040E252E00C945119DC01EC9146
:1033B000F0E0CF01880F991FE80FF91FEC51FB4F88
:1033C00080818F7B80830895FC0190819C3080F503
:1033D000818128E830E0281B310987FD3395220FD1
:1033E000331F220F331F621773077CF0828128E599
:1033F00032E0281B310987FD3395220F331F220F3E
:10340000331F621773070CF49B0122503109220FFE
:10341000331F4FB7F894892F90E0FC01EE0FFF1F88
:103420008E0F9F1FFC01EC51FB4F328321834FBF56
:103430000895AF92BF92CF92DF92EF92FF920F93D7
:103440001F93CF93DF93EC01603282E078070CF09A
:103450003FC077FD06C0653B71052CF064EB70E062
:1034600002C060E070E0898128E830E05901A81AC4
:10347000B10887FDB394AA0CBB1CAA0CBB1CCC24BE
:10348000B7FCC094DC2C882777FD8095982F2A8183
:1034900008E512E0021B110927FD1395000F111F0B
:1034A000000F111F222717FD2095322F3F932F93D6
:1034B0001F930F9314EBE12EF12C00E010E020E0BD
:1034C00030E0A9010E944E160F900F900F900F90C0
:1034D000CE01DF91CF911F910F91FF90EF90DF9080
:1034E000CF90BF90AF900C94E419E091E004F0917C
:1034F000E104E817F90769F4A389B4899C918589E7
:10350000809589238C931092E1041092E00481E06D
:10351000089580E00895CF93DF93EC018A8D9B8D11
:10352000892BF1F08091E0049091E1048C179D07C4
:10353000B9F0009711F00E94751A8E8D8E7F8E8FD4
:1035400010929F0410929E04D093E104C093E00473
:10355000EB89FC8990818D89892B808381E001C072
:1035600080E0DF91CF9108951F920F920FB60F92D6
:1035700011242F933F934F935F936F937F938F9378
:103580009F93AF93BF93EF93FF93E091E004F0918B
:10359000E104309709F451C0968DA685B7858585DD
:1035A00091FF04C09C91892329F447C09C918923F1
:1035B00009F043C0A389B4899C91858980958923AA
:1035C0008C93868997890197F1F7608D718DA68517
:1035D000B785558538E020E0CB010197F1F7822FC0
:1035E00090E095958795282F4C91452309F0206808
:1035F000315091F7868D81FD209580919F0490E058
:1036000001968F73992730919E04381749F0A09145
:103610009F04B0E0A056BB4F2C9380939F0403C03F
:10362000868D8160868F828D938D0197F1F7A389B6
:10363000B4899C918589892B8C93FF91EF91BF91DF
:10364000AF919F918F917F916F915F914F913F913A
:103650002F910F900FBE0F901F9018952DEA31E01B
:10366000FC01318320830C94751A1F93CF93DF9351
:10367000EC01162F6E8D6695617081E06827812FB1
:103680000E941E1661E0812F0E94E215612F70E0FA
:10369000FB01E85AFD4FE491E88BFB01E958FD4F2F
:1036A000E491F0E0EE0FFF1FEC55FD4F85919491F2
:1036B0009A8B898BDF91CF911F9108951F93CF93A0
:1036C000DF93EC01162F60E0812F0E94E2158E8DB2
:1036D00081FD04C061E0812F0E941E161C87612FAE
:1036E00070E0FB01E85AFD4FE491ED87FB01E958DA
:1036F000FD4FE491F0E0EE0FFF1FEA56FD4F85917C
:1037000094919F878E87DF91CF911F9108951F938A
:10371000CF93DF93EC01162F1B821A8288EE93E081
:10372000A0E0B0E08C839D83AE83BF838DEA91E0FF
:10373000998388831F8A1E8A198E188E1B8E1A8E73
:103740001D8E1C8E8E8D8E7F20FB81F98E8F642FB7
:10375000CE010E94351B612FCE01DF91CF911F91C9
:103760000C945E1BCF93DF93EC019A01AB011B8E8F
:103770001A8E198E188E1F8A1E8A60E079E08DE3FA
:1037800090E00E948229F9012430310518F0C90126
:10379000039702C081E090E09D8F8C8F8C8598EF1D
:1037A000980F943048F062EF680F643028F066EEAE
:1037B000680F633008F071C0B90176956795643180
:1037C000710518F06351710902C061E070E07F8BF0
:1037D0006E8B369720F0B9016550710902C061E027
:1037E00070E0798F688FB901660F771F260F371F3A
:1037F00036952795369527952D30310518F02C50A4
:10380000310902C021E030E03B8F2A8F943058F01C
:1038100092EF980F943038F08A51833008F442C008
:10382000A0E0B0E041C0A8E6B0E0E8E6F0E08081CA
:1038300081608C938C8598EF980F943058F022EF2C
:10384000280F243038F026EE280F233018F020E01F
:1038500030E002C02BE630E03C8B2B8B943010F430
:10386000845009C08E3069F08F3069F0803169F082
:10387000813169F0865191E001C0990F8A95EAF78C
:1038800007C098E005C092E003C094E001C091E059
:103890009D8B8C8D9D8D0197F1F7CE01DF91CF919E
:1038A0000C948B1AA8E6B0E0833008F4BECFE0E0B9
:1038B000F0E0BDCFFC011382128288EE93E0A0E01D
:1038C000B0E084839583A683B7838DEB91E09183E9
:1038D0008083089581E08093580460937B04109264
:1038E0005A0410925904089510924B0481E0809379
:1038F00049041092480461E082E00E941E1661E0D3
:1039000083E00E941E16E9EBF0E080818E7F8083C9
:1039100080818D7F808388E48093B80085E48093E4
:10392000BC00089510927D0410927C0410925A04F9
:10393000109259040C94741C0F934132E8F5909145
:103940004B049111FCCF32E030934B0400934904B7
:103950003FEF3093DE031092230440932204FB01D7
:1039600064E274E0DB013A2F361B341718F431910E
:103970003D93F9CF10924A0430914A04880F832B6B
:1039800080934A0480914804813061F41092480485
:1039900080914A048093BB008091BC0083FDF8CFE6
:1039A00085EC01C085EE8093BC00222339F0809124
:1039B0004B04823019F4F9CF91E011C08091DE03FD
:1039C0008F3F69F08091DE03803231F08091DE0319
:1039D000803321F094E003C092E001C093E0892F8E
:1039E0000F9108950F93062F21E0409159046BE544
:1039F00074E080917B040E949C1C10925A041092E7
:103A00005904109258040F91089561E00C94F21C2F
:103A1000613298F420914B04243089F460930004BF
:103A2000FC0122E034E0D9018A2F821B861718F4AA
:103A300081918D93F9CF80E0089581E0089582E02F
:103A40000895CF93DF931F92CDB7DEB7698320919E
:103A500058042223D1F020915904203240F021E073
:103A600030E0FC013383228380E090E015C0809138
:103A70005A04E82FF0E0E55AFB4F998190838F5F5D
:103A800080935A048093590405C061E0CE010196E9
:103A90000E94081D81E090E00F90DF91CF91089582
:103AA000CF92DF92EF92FF920F931F93CF93DF930A
:103AB0007C01262F972F8A0180915804882391F04A
:103AC000C62FD72F6E01C40ED51ECC15DD0571F0A3
:103AD0006991D701ED91FC910190F081E02DC70132
:103AE0000995F3CF642F822F0E94081DC801DF9132
:103AF000CF911F910F91FF90EF90DF90CF9008959D
:103B000085ED8093BC008091BC0084FDFCCF1092B9
:103B10004B04089585EC8093BC0010924B040895EB
:103B20001F920F920FB60F9211242F933F934F9332
:103B30005F936F937F938F939F93AF93BF93EF9315
:103B4000FF938091B900887F803609F49EC078F594
:103B5000883209F45DC090F4803109F456C038F41D
:103B6000882309F4F5C0883009F44FC0F5C08831C6
:103B700009F44EC0803209F45FC0EEC0803409F40D
:103B80006AC058F4803309F457C0883309F0E4C0A0
:103B90008093DE030E948A1DDFC0803509F44FC088
:103BA000883509F45DC0883409F0D6C0D3C088399F
:103BB00009F4C4C0A8F4883709F467C038F488361B
:103BC00009F463C0803709F460C0C6C0883809F4BE
:103BD000B5C0803909F45FC0803809F0BDC05BC052
:103BE000803B09F483C038F4803A09F466C0883A0F
:103BF00009F47CC0B1C0803C09F4A4C0883C09F43D
:103C0000A1C0883B09F487C0A7C080914A0410C0B6
:103C10009091230480912204981770F5E091230479
:103C200081E08E0F80932304F0E0EC5DFB4F8081F8
:103C30008093BB0085EC83C08093DE038BC0E09152
:103C4000230481E08E0F809323048091BB00F0E079
:103C5000EC5DFB4F808390912304809122046BC024
:103C6000E091230481E08E0F809323048091BB00B8
:103C7000F0E0EC5DFB4F80838091490481116AC0C4
:103C800081E08093480484EA5EC083E080934B0423
:103C90001092DF03CFCF8091DF03803208F04EC057
:103CA000E091DF0381E08E0F8093DF038091BB0002
:103CB000F0E0E052FC4F8083BDCF0E948A1D8091CE
:103CC000DF03803230F4E091DF03F0E0E052FC4F9C
:103CD00010826091DF0370E0E0914404F0914504AC
:103CE00080EE93E009951092DF0336C084E0809364
:103CF0004B041092010410920004E0914604F091EC
:103D00004704099580910004811105C081E08093EA
:103D1000000410920204E091010481E08E0F809370
:103D20000104F0E0EE5FFB4F80818093BB00909137
:103D3000010480910004981708F47CCF85E88093F3
:103D4000BC000AC085EC8093BC0010924B0404C0F8
:103D50001092DE030E94801DFF91EF91BF91AF9101
:103D60009F918F917F916F915F914F913F912F9193
:103D70000F900FBE0F901F9018958CE494E00C9458
:103D80005A1C8091380590913905892B49F481E0BE
:103D900090E0909339058093380540E064E606C0D2
:103DA000109239051092380540E060E081E10C94F2
:103DB000CE080F931F93CF93DF931F92CDB7DEB73B
:103DC0008C0169830E94E12B6981681741F0C80169
:103DD0000F90DF91CF911F910F910C94E92B0F90D1
:103DE000DF91CF911F910F910895CF93DF9300D072
:103DF00000D0CDB7DEB7DC0112963C911297398323
:103E00006A834B832C83ED91FC910190F081E02D2E
:103E100044E050E0BE016F5F7F4F09950F900F9017
:103E20000F900F90DF91CF910895FC01128220E056
:103E300040E060E00C94F51ECF93DF93EC016A83C1
:103E400020E040E060E00E94F51E1A8220E040E0A1
:103E500060E0CE01DF91CF910C94F51ECF93DF93FC
:103E6000EC01E881F9810480F581E02D0995E88174
:103E7000F9810680F781E02DCE01DF91CF91099481
:103E80000F931F93CF93DF93EC01E881F9810084B6
:103E9000F185E02D41E009958C01892B39F0E8810D
:103EA000F9810680F781E02DCE010995C801DF91E7
:103EB000CF911F910F9108950F931F93CF93DF938D
:103EC000EC01E881F9810480F581E02D09958C01F0
:103ED000892B39F0E881F9810680F781E02DCE0148
:103EE0000995C801DF91CF911F910F9108958038F6
:103EF00039F421E030E0309337052093360511C0C6
:103F0000823839F421E030E03093350520933405D0
:103F100008C0823331F421E030E030933305209340
:103F20003205209136053091370521303105A9F44D
:103F300040913405509135054130510509F022C1B9
:103F400040913205509133054130510509F01AC1B5
:103F5000309321052093200515C1813839F441E0C3
:103F600050E050933105409330052AC0893DE1F47B
:103F700041E050E050932F0540932E05213031054C
:103F8000F9F440913005509131054130510529F542
:103F900040912E0550912F0541305105F1F4509379
:103FA0001D0540931C0519C02130310551F38A3D90
:103FB00009F066C041E050E050932D0540932C0578
:103FC0002130310509F084C0409134055091350508
:103FD0004130510509F0A2C02CC08A3D31F441E0C6
:103FE00050E050932D0540932C05409130055091A1
:103FF00031054130510551F1843351F441E050E035
:1040000050932B0540932A052130310509F044C017
:1040100040913405509135054130510509F078C083
:1040200040912A0550912B0541305105D9F0853337
:1040300001F140912805509129054130510509F0C1
:10404000B5C050931D0540931C0565C040912C05DB
:1040500050912D054130510579F650931F0540933D
:104060001E05CACF50931B0540931A05853309F0EE
:10407000ABCF41E050E05093290540932805A4CFF1
:10408000843309F4BBCF853309F09ACF41E050E087
:1040900050932905409328052130310509F08AC045
:1040A00040913405509135054130510509F082C0E9
:1040B00002C08833C1F1409124055091250541305B
:1040C000510509F07AC0509313054093120534C08E
:1040D000873309F061C041E050E0509327054093D9
:1040E00026052130310509F06BC04091340550910F
:1040F000350541305105F1F44091260550912705D1
:1041000041305105B1F6509315054093140508C090
:10411000853309F4AECF873341F7DDCF8733D9F24A
:10412000883309F0BDCF41E050E05093250540931E
:104130002405B6CF8833B9F3893349F441E050E020
:10414000509323054093220521303105C9F5209174
:104150003405309135052130310559F4209122057F
:10416000309123052130310521F43093110520933E
:104170001005853829F581E090E090930B05809338
:104180000A050895813809F0F1CE41E050E05093DE
:10419000310540933005FCCE883309F07DCF81E0B6
:1041A00090E090932505809324050895873309F0C6
:1041B000A3CF91CF8933E9F6C1CF893379F6BECF4A
:1041C00008950F931F93CF93C82F803829F410922E
:1041D0003705109236050DC0823829F41092350546
:1041E0001092340506C0823321F4109233051092E8
:1041F00032058091360590913705892B09F0ACC0C6
:104200008091340590913505892B09F0A5C08091E6
:10421000320590913305892B09F09EC080912005CD
:1042200090912105019709F097C0109221051092F5
:10423000200560EE85EE91E00E94401F64E670E08C
:1042400080E090E00E94081562EE85EE91E00E9409
:10425000401F64E670E080E090E00E9408156CE486
:1042600085EE91E00E94401F64E670E080E090E0FF
:104270000E94081585EE91E00E945C1F88E495E09D
:104280000E94890567E974E088E495E00E94CA0D00
:1042900041E060E088E495E00E94900567E874E002
:1042A00088E495E00E94CA0D10926F0040E060E043
:1042B00081E10E946908289A61E085E00E941E164B
:1042C00060E971E080E090E00E94081560E085E020
:1042D0000E941E1660E971E080E090E00E940815DF
:1042E00061E085E00E941E1660E971E080E090E0E8
:1042F0000E94081560E085E00E941E1660E971E0EA
:1043000080E090E00E94081561E085E00E941E16A2
:1043100060E971E080E090E00E94081560E085E0CF
:104320000E941E1660E971E080E090E00E9408158E
:1043300061E085E00E941E1660E971E080E090E097
:104340000E94081560E085E00E941E1660E971E099
:1043500080E090E00E940815C13829F410923105E0
:104360001092300506C0C93D21F410922F0510921D
:104370002E058091360590913705892B09F07DC275
:104380008091300590913105892B09F07DC2809193
:104390002E0590912F05892B09F081C280911C0573
:1043A00090911D05019709F07AC210921D05109297
:1043B0001C0580ED91E00E94151F85EE91E00E94A2
:1043C0002E1F88E495E00E94890569E774E088E47F
:1043D00095E00E94CA0D42E060E088E495E00E940A
:1043E000900561E774E088E495E00E94CA0D1092A0
:1043F000170510921605CA3D21F410922D05109252
:104400002C058091360590913705892B09F038C22B
:104410008091300590913105892B09F038C2809147
:104420002C0590912D05892B09F031C200911E05B4
:1044300010911F050130110509F029C210921F05C6
:1044400010921E0585EE91E00E945C1F80ED91E0C8
:104450000E94151F88E495E00E94890566E674E0D5
:1044600088E495E00E94CA0D42E060E088E495E0AF
:104470000E9490056EE574E088E495E00E94CA0D04
:104480001093170500931605C43321F410922B05E1
:1044900010922A058091360590913705892B09F0F5
:1044A00050C08091340590913505892B09F0FBC1EE
:1044B00080912A0590912B05892B09F0FBC18091F1
:1044C0001A0590911B058130910509F0F3C11092F6
:1044D0001B0510921A05109217051092160590935D
:1044E00019058093180588E495E00E9489056CE41D
:1044F00074E088E495E00E94CA0D41E060E088E441
:1045000095E00E94900567E374E088E495E00E94DE
:10451000CA0D42E060E088E495E00E94900566E202
:1045200074E088E495E00E94CA0D43E060E088E40E
:1045300095E00E94900564E174E088E495E00E94B3
:10454000CA0DC53321F410922905109228058091D7
:10455000360590913705892B09F09DC1809134056E
:1045600090913505892B09F0A9C18091280590917A
:104570002905892B09F0A9C180911C0590911D0581
:10458000019709F0A2C110921D0510921C0510920E
:10459000170510921605109219051092180588E457
:1045A00095E00E94890562E074E088E495E00E944D
:1045B000CA0D41E060E088E495E00E94900568EF54
:1045C00073E088E495E00E94CA0D67E070E08FE335
:1045D00095E00E94D0196EE070E08CE395E00E94B7
:1045E000D01960E070E08FE395E00E94191A60E056
:1045F00070E08CE395E00E94191A68EE73E080E0A9
:1046000090E00E9408158FE395E00E94D6198CE394
:1046100095E00E94D619C73321F410922705109215
:1046200026058091360590913705892B09F055C0F4
:104630008091340590913505892B09F04EC1809108
:10464000260590912705892B09F043C18091140517
:1046500090911505019709F03CC110921505109233
:10466000140588E495E00E9489056AEE73E088E409
:1046700095E00E94CA0D41E060E088E495E00E9468
:1046800090056BED73E088E495E00E94CA0D67E049
:1046900070E08FE395E00E94D01980E090E00E94E6
:1046A000E12B682F70E08FE395E00E94191A6CED02
:1046B00075E080E090E00E94081560E070E08FE314
:1046C00095E00E94191A68EE73E080E090E00E9485
:1046D00008158FE395E00E94D619C83321F4109293
:1046E0002505109224058091360590913705892B78
:1046F00009F0FAC08091340590913505892B09F0B5
:10470000F3C08091240590912505892B09F0F0C014
:104710008091120590911305019709F0E9C010925C
:1047200013051092120588E495E00E9489056AEC51
:1047300073E088E495E00E94CA0D41E060E088E4FF
:1047400095E00E9490056BEB73E088E495E00E9491
:10475000CA0D6EE070E08CE395E00E94D01981E014
:1047600090E00E94E12B682F70E08CE395E00E94BE
:10477000191A60912E0170912F01882777FD80957D
:10478000982F0E94081560E070E08CE395E00E948D
:10479000191A68EE73E080E090E00E9408158CE33F
:1047A00095E00E94D619C93321F410922305109286
:1047B00022058091360590913705892B09F055C067
:1047C0008091340590913505892B09F04EC0809178
:1047D000220590912305892B09F047C0809110058F
:1047E00090911105019709F040C0109211051092A7
:1047F000100588E495E00E9489056BEA73E088E47F
:1048000095E00E94CA0D41E060E088E495E00E94D6
:1048100090056DE973E088E495E00E94CA0D6EE0B2
:1048200070E08CE395E00E94D01981E090E00E9456
:10483000E12B682F70E08CE395E00E94191A60ED7F
:1048400077E080E090E00E94081560E070E08CE383
:1048500095E00E94191A68EE73E080E090E00E94F3
:1048600008158CE395E00E94D619C53809F044C0BC
:1048700010920B0510920A053FC0CA3D09F4BDCD48
:10488000C43309F05ECE02CECA3D09F4B6CDC433BE
:1048900009F007CEFBCDC73309F01FCFBECECA3D0E
:1048A00009F0BDCDAACDC53309F44DCEC73309F00B
:1048B000BFCEB3CEC53309F058CE45CEC73309F4C9
:1048C000ACCEC83309F016CF0ACFC73309F0B7CE44
:1048D000A4CEC83309F015CF02CFC83309F4FFCEF8
:1048E000C93309F06DCF61CFC93309F0BECF5DCFB9
:1048F000C93309F06CCF59CFCF911F910F91089513
:1049000088E495E00E94890567E973E088E495E012
:104910000C94CA0D8F92AF92CF92EF920F9320E03A
:104920004AE069E081E695E00E94871B1F921F9292
:1049300083E08F9387E0882E96E0A92E25E0C22E93
:1049400034E0E32E00E021E042E067E288E495E015
:104950000E94E2068FE395E00E9435190F900F90B8
:104960000F908CE395E00F91EF90CF90AF908F90E8
:104970000C94351981E695E00C942E1BCF93DF93B0
:104980005D9A289A61E085E00E94E21560E085E08A
:104990000E941E1668EC70E080E090E00E9408150E
:1049A00061E085E00E941E1668EC70E080E090E017
:1049B0000E94081560E085E00E941E1668EC70E019
:1049C00080E090E00E94081561E085E00E941E16DC
:1049D00068EC70E080E090E00E94081560E085E0FF
:1049E0000E941E1620E044E064E188E495E00E9405
:1049F000720740E855E260E070E081E695E00E94D1
:104A0000B21B88E495E00E94890561EC74E088E4BB
:104A100095E00E94CA0D41E060E088E495E00E94C4
:104A200090056DEA74E088E495E00E94CA0D42E0CA
:104A300060E088E495E00E949005CAE0D0E081E65D
:104A400095E00E945C181816190644F080913A050A
:104A500090913B05843691050CF47AC081E695E08F
:104A60000E945C18892B59F081E695E00E94A217FC
:104A700068EC70E080E090E00E940815EFCF88E4D9
:104A800095E00E9489056CE974E088E495E00E9455
:104A9000CA0D68EE73E080E090E00E94081580E1A6
:104AA000809381001092800084E08093AE028BE1BD
:104AB00097EB9093B0028093AF029093870080931E
:104AC000860084E18093810081EC9EE1909308014F
:104AD0008093070181E080936F0085EE91E00E9452
:104AE0002E1F80E00E943A0840E060E081E10E94D1
:104AF000690848E552E06CE271E081E10E94DA0861
:104B000067E070E08FE395E00E94D0196EE070E0FE
:104B10008CE395E00E94D01960E070E08FE395E0AF
:104B20000E94191A60E070E08CE395E00E94191A67
:104B300068EE73E080E090E00E9408158FE395E056
:104B40000E94D6198CE395E0DF91CF910C94D61991
:104B500064E670E080E090E00E94081580913A05DC
:104B600090913B05BE010E944C29892B09F560916B
:104B70002C0170912D014AE050E088E495E00E94FC
:104B8000960E6BEA74E088E495E00E94CA0D80916D
:104B90002C0190912D01019790932D0180932C0170
:104BA000019731F443E060E088E495E00E949005CD
:104BB00080913A0590913B05019690933B05809337
:104BC0003A053DCFEF92FF920F931F93CF93DF9360
:104BD000CDB7DEB762970FB6F894DEBF0FBECDBF7C
:104BE00081E695E00E945C18892B09F40DC381E6EB
:104BF00095E00E94A2177C01811103C0109234013C
:104C000003C3813019F4E0923401FEC220913401D3
:104C10008091160590911705222309F491C22091E5
:104C200018053091190587011127892B09F04DC00E
:104C30002115310509F049C00E9480244AE062E450
:104C400075E0C8010E94BC2B60E2CE0107960E946D
:104C5000491762E475E0CE010D960E94FD16BE0173
:104C6000635F7F4FCE0101960E942917BE01695FE5
:104C70007F4FCE0101960E948F17BC0188E495E01A
:104C80000E94EE0DCE0101960E948F16CE010D9668
:104C90000E948F16CE0107960E948F16F801EA52E5
:104CA000FB4F649141E085EE91E00E947304892BF3
:104CB00009F442C2E091E501F091E6010680F78136
:104CC000E02D85EE91E0099537C22130310509F0DC
:104CD000ABC1083D110509F4CAC04CF400321105FE
:104CE00009F483C1073D110509F419C125C2093D25
:104CF000110509F45CC00A3D110509F01DC220919F
:104D00000E0530910F052A3A31058CF440910A05C1
:104D100050910B0569E0649FC001659F900D1124BF
:104D2000820F931F019690930F0580930E0567E005
:104D300070E08FE395E00E94D01960910E057091AC
:104D40000F058FE395E00E94191A20910A05309112
:104D50000B058091300190913101289FB001299F6E
:104D6000700D389F700D11248091320190913301A4
:104D7000680F791F882777FD8095982F0E94081566
:104D80008FE395E00E94D61988E495E00E9489059A
:104D900067E873E088E495E00E94CA0D41E060E0B6
:104DA00088E495E00E94900568E773E057C0209181
:104DB0000E0530910F052B3031058CF040910A051E
:104DC00050910B0567EF6403C001659F900D11249E
:104DD000820F931F019790930F0580930E0567E054
:104DE00070E08FE395E00E94D01960910E057091FC
:104DF0000F058FE395E00E94191A20910A05309162
:104E00000B058091300190913101289FB001299FBD
:104E1000700D389F700D11248091320190913301F3
:104E2000680F791F882777FD8095982F0E940815B5
:104E30008FE395E00E94D61988E495E00E948905E9
:104E400068E673E088E495E00E94CA0D41E060E006
:104E500088E495E00E94900569E573E088E495E0B8
:104E60000E94CA0D60910E0570910F05B7C0209188
:104E70000C0530910D052A3A31058CF440910A0554
:104E800050910B0569E0649FC001659F900D11244E
:104E9000820F931F019690930D0580930C056EE091
:104EA00070E08CE395E00E94D01960910C05709140
:104EB0000D058CE395E00E94191A20910A053091A6
:104EC0000B058091300190913101289FB001299FFD
:104ED000700D389F700D1124809132019091330133
:104EE000680F791F882777FD8095982F0E940815F5
:104EF0008CE395E00E94D61988E495E00E9489052C
:104F00006AE473E088E495E00E94CA0D41E060E045
:104F100088E495E00E9490056BE373E057C0209110
:104F20000C0530910D052B3031058CF040910A05B0
:104F300050910B0567EF6403C001659F900D11242C
:104F4000820F931F019790930D0580930C056EE0DF
:104F500070E08CE395E00E94D01960910C0570918F
:104F60000D058CE395E00E94191A20910A053091F5
:104F70000B058091300190913101289FB001299F4C
:104F8000700D389F700D1124809132019091330182
:104F9000680F791F882777FD8095982F0E94081544
:104FA0008CE395E00E94D61988E495E00E9489057B
:104FB0006BE273E088E495E00E94CA0D41E060E096
:104FC00088E495E00E9490056CE173E088E495E048
:104FD0000E94CA0D60910C0570910D054AE050E0E9
:104FE00088E495E00E94960EA7C060910E0580E0CF
:104FF00090E00E94D91E60910C0581E090E00E9433
:10500000D91E88E495E00E9489056CE073E088E48D
:1050100095E00E94CA0D41E060E088E495E00E94BE
:10502000900562E073E084C040912A0150912B0109
:105030002091280130912901241B350B80913605E0
:1050400090913705289FB001299F700D389F700DF2
:1050500011242091260130912701241B350B40910A
:10506000300550913105249FC001259F900D349F3C
:10507000900D1124860F971F9093090580930805C2
:1050800088E495E00E948905073D1105F1F184F45B
:105090000032110509F445C00638110509F04CC06D
:1050A00062E080ED91E00E941C1F60EC72E040C065
:1050B000093D110589F0E4F00A3D1105E9F58091FB
:1050C000080548ED481B20E060E080ED91E00E947B
:1050D000F51E69EF72E02CC040910805485D20E0A4
:1050E00060E080ED91E00E94F51E6EEE72E020C05F
:1050F0008091080568ED681B20E040E080ED91E0BC
:105100000E94F51E63EE72E013C060910805685DB1
:1051100020E040E080ED91E00E94F51E67ED72E036
:1051200007C061E080ED91E00E941C1F6CEC72E012
:1051300088E495E00E94CA0D8E2D0E94771F56C00C
:10514000892B09F050C08091180590911905892B81
:1051500009F049C00E9480244AE062E475E08701BA
:105160001127C8010E94BC2B60E2CE0107960E9465
:10517000491762E475E0CE010D960E94FD16BE014E
:10518000635F7F4FCE0101960E942917BE01695FC0
:105190007F4FCE0101960E948F17BC0188E495E0F5
:1051A0000E94EE0DCE0101960E948F16CE010D9643
:1051B0000E948F16CE0107960E948F16F801EA52C0
:1051C000FB4F649140E085EE91E00E947304892BCF
:1051D00051F0E091E501F091E6010680F781E02DC4
:1051E00085EE91E009958E2D0E94E12061E085E039
:1051F0000E941E1668E270E080E090E00E940815B0
:1052000060E085E00E941E1662960FB6F894DEBF3D
:105210000FBECDBFDF91CF911F910F91FF90EF9007
:1052200008950E94A729A59F900DB49F900DA49F5B
:10523000800D911D11240895DB018F939F930E948F
:105240001129BF91AF91A29F800D911DA39F900D39
:10525000B29F900D11240895991B79E004C0991F05
:10526000961708F0961B881F7A95C9F780950895C0
:10527000AA1BBB1B51E107C0AA1FBB1FA617B7077C
:1052800010F0A61BB70B881F991F5A95A9F7809598
:105290009095BC01CD01089597FB072E16F400945C
:1052A00007D077FD09D00E94382907FC05D03EF4CD
:1052B000909581959F4F0895709561957F4F0895C2
:1052C000A1E21A2EAA1BBB1BFD010DC0AA1FBB1F0A
:1052D000EE1FFF1FA217B307E407F50720F0A21B7C
:1052E000B30BE40BF50B661F771F881F991F1A94E9
:1052F00069F760957095809590959B01AC01BD0113
:10530000CF010895052E97FB1EF400940E94992961
:1053100057FD07D00E94602907FC03D04EF40C947F
:10532000992950954095309521953F4F4F4F5F4FAC
:10533000089590958095709561957F4F8F4F9F4F01
:105340000895EE0FFF1F0590F491E02D0994A29FA0
:10535000B001B39FC001A39F700D811D1124911D49
:10536000B29F700D811D1124911D0895CF93DF937D
:105370008230910510F482E090E0E0918205F09196
:10538000830520E030E0C0E0D0E0309711F14081AB
:10539000518148175907C0F04817590761F48281B5
:1053A0009381209719F09B838A832BC09093830568
:1053B0008093820526C02115310519F04217530745
:1053C00018F49A01BE01DF01EF010280F381E02DA4
:1053D000DCCF2115310509F1281B390B24303105AB
:1053E00090F412968D919C9113976115710521F09F
:1053F000FB019383828304C090938305809382058D
:10540000FD01329644C0FD01E20FF31F8193919399
:10541000225031092D933C933AC020918005309160
:105420008105232B41F42091020130910301309337
:105430008105209380052091000130910101211503
:10544000310541F42DB73EB740910401509105015B
:10545000241B350BE0918005F0918105E217F307DD
:10546000A0F42E1B3F0B2817390778F0AC014E5FD4
:105470005F4F2417350748F04E0F5F1F509381058B
:10548000409380058193919302C0E0E0F0E0CF016A
:10549000DF91CF9108950F931F93CF93DF930097E0
:1054A00009F48CC0FC0132971382128200918205AC
:1054B000109183050115110581F420813181820F3E
:1054C000931F20918005309181052817390779F5C0
:1054D000F0938105E093800571C0D80140E050E071
:1054E000AE17BF0750F412962D913C911397AD0162
:1054F0002115310509F1D901F3CF9D01DA0133837B
:10550000228360817181860F971F8217930769F448
:10551000EC0128813981260F371F2E5F3F4F3183E1
:1055200020838A819B8193838283452B29F4F09386
:105530008305E093820542C01396FC93EE93129785
:10554000ED01499159919E01240F351FE217F30790
:1055500071F480819181840F951F029611969C931E
:105560008E938281938113969C938E931297E0E0A1
:10557000F0E0D80112968D919C911397009719F045
:10558000F8018C01F6CF8D919C9198012E5F3F4FD1
:10559000820F931F209180053091810528173907CC
:1055A00069F4309729F4109283051092820502C0A5
:1055B000138212821093810500938005DF91CF91B1
:1055C0001F910F910895A0E0B0E0E9EEFAE20C948B
:1055D0000B2CEC01009721F4CB010E94B629B2C03C
:1055E000FC01E60FF71F9C0122503109E217F30777
:1055F00008F4A6C0D9010D911C9111970617170741
:10560000B0F00530110508F499C0C8010497861759
:10561000970708F493C002501109061B170B01935A
:1056200011936D937C93CF010E944B2A87C07B011D
:10563000E01AF10A3C01600E711EA0918205B09142
:10564000830580E090E0812C912C109709F444C0F0
:10565000AD90BC901197A615B705A1F5650142E084
:10566000C40ED11CCE14DF0468F1C5018E199F0948
:10567000AC014E5F5F4F1296FC9012971396AC915F
:105680004530510540F0F282A38391838083D90194
:105690006D937C9309C00E5F1F4FA00EB11EF901E0
:1056A000B182A082EF2DFA2F8114910431F0D40140
:1056B0001396FC93EE93129741C0F0938305E09309
:1056C00082053CC08A159B0508F4C5014D01129660
:1056D0000D90BC91A02DB9CFA0918005B09181050E
:1056E000A615B705E1F486179707C8F48091000165
:1056F00090910101009741F48DB79EB7409104014C
:1057000050910501841B950BE817F907C8F4F09335
:105710008105E0938005F901718360830FC0CB019F
:105720000E94B6297C01009759F0A801BE010E9491
:10573000AC2BCE010E944B2AC70104C0CE0102C08F
:1057400080E090E0CDB7DEB7EEE00C94272C81E04E
:1057500090E0F8940C943E2CFB01DC0102C0019017
:105760000D9241505040D8F70895FB01DC010190A3
:105770000D920020E1F70895BB274A3031F49923B8
:1057800022F4BDE2909581959F4F0C94C82BBB27C6
:10579000FB015527AA27880F991FAA1FA41710F0ED
:1057A000A41B83955051B9F7A05DAA3308F0A95DF9
:1057B000A193009779F7B111B1931192CB010C9499
:1057C000F72BF999FECF92BD81BDF89A992780B544
:1057D0000895262FF999FECF1FBA92BD81BD20BD35
:1057E0000FB6F894FA9AF99A0FBE01960895DC0163
:1057F000FC01672F71917723E1F7329704C07C9108
:105800006D9370836291AE17BF07C8F308952F920E
:105810003F924F925F926F927F928F929F92AF9240
:10582000BF92CF92DF92EF92FF920F931F93CF938D
:10583000DF93CDB7DEB7CA1BDB0B0FB6F894DEBF24
:105840000FBECDBF09942A88398848885F846E844A
:105850007D848C849B84AA84B984C884DF80EE8094
:10586000FD800C811B81AA81B981CE0FD11D0FB69D
:10587000F894DEBF0FBECDBFED01089512E0C2EF78
:10588000D2E004C0FE010E94A1292196C33FD107A6
:06589000C9F7F894FFCFF8
:10589600000084052000FF5D09FFFFFFFF00E10017
:1058A600000000000000C18081000000D513D51360
:1058B600D513D513D5130500640028000A00102758
:1058C600C800C80001000000001D03000000001908
:1058D600046B03FB035503B303F6FF0000B1048A10
:1058E6000D5C03BD03C0030000000066058A0DD0F1
:1058F6000564056505880D0000000066058A0D72C1
:1059060007510665065107000000008509CC09AF5E
:1059160009BF099B09AC0900000000060B8A0D8728
:105926000AA10A930AE40A00000000400CF80B677B
:105936000CDC0B00000000260D00000000C3178AD7
:105946000D5C18A2171818171800000000211D502A
:0A5956001D301838184C185B1800BB
:00000001FF
